{
	"contracts/CrossChainFishGame.sol": {
		"CrossChainFishGame": {
			"abi": [
				{
					"inputs": [
						{
							"internalType": "address",
							"name": "_rewardToken",
							"type": "address"
						},
						{
							"internalType": "address",
							"name": "_fishNFT",
							"type": "address"
						},
						{
							"internalType": "address",
							"name": "_hyperlaneMailbox",
							"type": "address"
						},
						{
							"internalType": "address",
							"name": "_igp",
							"type": "address"
						}
					],
					"stateMutability": "nonpayable",
					"type": "constructor"
				},
				{
					"inputs": [
						{
							"internalType": "address",
							"name": "owner",
							"type": "address"
						}
					],
					"name": "OwnableInvalidOwner",
					"type": "error"
				},
				{
					"inputs": [
						{
							"internalType": "address",
							"name": "account",
							"type": "address"
						}
					],
					"name": "OwnableUnauthorizedAccount",
					"type": "error"
				},
				{
					"anonymous": false,
					"inputs": [
						{
							"indexed": false,
							"internalType": "uint32",
							"name": "originChain",
							"type": "uint32"
						},
						{
							"indexed": false,
							"internalType": "address",
							"name": "player",
							"type": "address"
						},
						{
							"indexed": false,
							"internalType": "uint256",
							"name": "fishId",
							"type": "uint256"
						}
					],
					"name": "CrossChainInteraction",
					"type": "event"
				},
				{
					"anonymous": false,
					"inputs": [
						{
							"indexed": true,
							"internalType": "address",
							"name": "player",
							"type": "address"
						},
						{
							"indexed": false,
							"internalType": "uint256",
							"name": "fishSize",
							"type": "uint256"
						},
						{
							"indexed": false,
							"internalType": "uint256",
							"name": "reward",
							"type": "uint256"
						}
					],
					"name": "FishEaten",
					"type": "event"
				},
				{
					"anonymous": false,
					"inputs": [
						{
							"indexed": true,
							"internalType": "address",
							"name": "previousOwner",
							"type": "address"
						},
						{
							"indexed": true,
							"internalType": "address",
							"name": "newOwner",
							"type": "address"
						}
					],
					"name": "OwnershipTransferred",
					"type": "event"
				},
				{
					"anonymous": false,
					"inputs": [
						{
							"indexed": true,
							"internalType": "address",
							"name": "player",
							"type": "address"
						},
						{
							"indexed": false,
							"internalType": "uint256",
							"name": "newSize",
							"type": "uint256"
						}
					],
					"name": "PlayerGrown",
					"type": "event"
				},
				{
					"inputs": [],
					"name": "BASE_FISH_COST",
					"outputs": [
						{
							"internalType": "uint256",
							"name": "",
							"type": "uint256"
						}
					],
					"stateMutability": "view",
					"type": "function"
				},
				{
					"inputs": [],
					"name": "BASE_REWARD",
					"outputs": [
						{
							"internalType": "uint256",
							"name": "",
							"type": "uint256"
						}
					],
					"stateMutability": "view",
					"type": "function"
				},
				{
					"inputs": [
						{
							"internalType": "uint32",
							"name": "destinationChain",
							"type": "uint32"
						},
						{
							"internalType": "uint256",
							"name": "fishId",
							"type": "uint256"
						}
					],
					"name": "crossChainEat",
					"outputs": [],
					"stateMutability": "payable",
					"type": "function"
				},
				{
					"inputs": [],
					"name": "eatFish",
					"outputs": [],
					"stateMutability": "nonpayable",
					"type": "function"
				},
				{
					"inputs": [],
					"name": "fishNFT",
					"outputs": [
						{
							"internalType": "contract IFishGameNFT",
							"name": "",
							"type": "address"
						}
					],
					"stateMutability": "view",
					"type": "function"
				},
				{
					"inputs": [
						{
							"internalType": "uint32",
							"name": "_origin",
							"type": "uint32"
						},
						{
							"internalType": "bytes32",
							"name": "_sender",
							"type": "bytes32"
						},
						{
							"internalType": "bytes",
							"name": "_body",
							"type": "bytes"
						}
					],
					"name": "handle",
					"outputs": [],
					"stateMutability": "payable",
					"type": "function"
				},
				{
					"inputs": [],
					"name": "hyperlaneMailbox",
					"outputs": [
						{
							"internalType": "contract IMailbox",
							"name": "",
							"type": "address"
						}
					],
					"stateMutability": "view",
					"type": "function"
				},
				{
					"inputs": [],
					"name": "igp",
					"outputs": [
						{
							"internalType": "contract IInterchainGasPaymaster",
							"name": "",
							"type": "address"
						}
					],
					"stateMutability": "view",
					"type": "function"
				},
				{
					"inputs": [],
					"name": "owner",
					"outputs": [
						{
							"internalType": "address",
							"name": "",
							"type": "address"
						}
					],
					"stateMutability": "view",
					"type": "function"
				},
				{
					"inputs": [
						{
							"internalType": "address",
							"name": "",
							"type": "address"
						}
					],
					"name": "playerStates",
					"outputs": [
						{
							"internalType": "uint256",
							"name": "playerScore",
							"type": "uint256"
						},
						{
							"internalType": "uint256",
							"name": "fishSize",
							"type": "uint256"
						},
						{
							"internalType": "uint256",
							"name": "lastInteractionTime",
							"type": "uint256"
						}
					],
					"stateMutability": "view",
					"type": "function"
				},
				{
					"inputs": [],
					"name": "renounceOwnership",
					"outputs": [],
					"stateMutability": "nonpayable",
					"type": "function"
				},
				{
					"inputs": [],
					"name": "rewardToken",
					"outputs": [
						{
							"internalType": "contract IERC20Reward",
							"name": "",
							"type": "address"
						}
					],
					"stateMutability": "view",
					"type": "function"
				},
				{
					"inputs": [
						{
							"internalType": "uint32",
							"name": "_domain",
							"type": "uint32"
						},
						{
							"internalType": "bytes32",
							"name": "_trustedRemote",
							"type": "bytes32"
						}
					],
					"name": "setTrustedRemote",
					"outputs": [],
					"stateMutability": "nonpayable",
					"type": "function"
				},
				{
					"inputs": [
						{
							"internalType": "address",
							"name": "newOwner",
							"type": "address"
						}
					],
					"name": "transferOwnership",
					"outputs": [],
					"stateMutability": "nonpayable",
					"type": "function"
				},
				{
					"inputs": [
						{
							"internalType": "uint32",
							"name": "",
							"type": "uint32"
						}
					],
					"name": "trustedRemotes",
					"outputs": [
						{
							"internalType": "bytes32",
							"name": "",
							"type": "bytes32"
						}
					],
					"stateMutability": "view",
					"type": "function"
				},
				{
					"inputs": [
						{
							"internalType": "address",
							"name": "tokenAddress",
							"type": "address"
						},
						{
							"internalType": "uint256",
							"name": "amount",
							"type": "uint256"
						}
					],
					"name": "withdrawERC20",
					"outputs": [],
					"stateMutability": "nonpayable",
					"type": "function"
				}
			],
			"devdoc": {
				"errors": {
					"OwnableInvalidOwner(address)": [
						{
							"details": "The owner is not a valid owner account. (eg. `address(0)`)"
						}
					],
					"OwnableUnauthorizedAccount(address)": [
						{
							"details": "The caller account is not authorized to perform an operation."
						}
					]
				},
				"kind": "dev",
				"methods": {
					"owner()": {
						"details": "Returns the address of the current owner."
					},
					"renounceOwnership()": {
						"details": "Leaves the contract without owner. It will not be possible to call `onlyOwner` functions. Can only be called by the current owner. NOTE: Renouncing ownership will leave the contract without an owner, thereby disabling any functionality that is only available to the owner."
					},
					"transferOwnership(address)": {
						"details": "Transfers ownership of the contract to a new account (`newOwner`). Can only be called by the current owner."
					}
				},
				"version": 1
			},
			"evm": {
				"assembly": "    /* \"contracts/CrossChainFishGame.sol\":870:7171  contract CrossChainFishGame is Ownable, ReentrancyGuard {... */\n  mstore(0x40, 0x80)\n    /* \"contracts/CrossChainFishGame.sol\":1708:2069  constructor(... */\n  callvalue\n  dup1\n  iszero\n  tag_1\n  jumpi\n  0x00\n  dup1\n  revert\ntag_1:\n  pop\n  mload(0x40)\n  sub(codesize, bytecodeSize)\n  dup1\n  bytecodeSize\n  dup4\n  codecopy\n  dup2\n  dup2\n  add\n  0x40\n  mstore\n  dup2\n  add\n  swap1\n  tag_2\n  swap2\n  swap1\n  tag_3\n  jump\t// in\ntag_2:\n    /* \"contracts/CrossChainFishGame.sol\":1852:1862  msg.sender */\n  caller\n    /* \"@openzeppelin/contracts/access/Ownable.sol\":1297:1298  0 */\n  0x00\n    /* \"@openzeppelin/contracts/access/Ownable.sol\":1273:1299  initialOwner == address(0) */\n  0xffffffffffffffffffffffffffffffffffffffff\n  and\n    /* \"@openzeppelin/contracts/access/Ownable.sol\":1273:1285  initialOwner */\n  dup2\n    /* \"@openzeppelin/contracts/access/Ownable.sol\":1273:1299  initialOwner == address(0) */\n  0xffffffffffffffffffffffffffffffffffffffff\n  and\n  sub\n    /* \"@openzeppelin/contracts/access/Ownable.sol\":1269:1364  if (initialOwner == address(0)) {... */\n  tag_8\n  jumpi\n    /* \"@openzeppelin/contracts/access/Ownable.sol\":1350:1351  0 */\n  0x00\n    /* \"@openzeppelin/contracts/access/Ownable.sol\":1322:1353  OwnableInvalidOwner(address(0)) */\n  mload(0x40)\n  0x1e4fbdf700000000000000000000000000000000000000000000000000000000\n  dup2\n  mstore\n  0x04\n  add\n  tag_9\n  swap2\n  swap1\n  tag_10\n  jump\t// in\ntag_9:\n  mload(0x40)\n  dup1\n  swap2\n  sub\n  swap1\n  revert\n    /* \"@openzeppelin/contracts/access/Ownable.sol\":1269:1364  if (initialOwner == address(0)) {... */\ntag_8:\n    /* \"@openzeppelin/contracts/access/Ownable.sol\":1373:1405  _transferOwnership(initialOwner) */\n  tag_11\n    /* \"@openzeppelin/contracts/access/Ownable.sol\":1392:1404  initialOwner */\n  dup2\n    /* \"@openzeppelin/contracts/access/Ownable.sol\":1373:1391  _transferOwnership */\n  shl(0x20, tag_12)\n    /* \"@openzeppelin/contracts/access/Ownable.sol\":1373:1405  _transferOwnership(initialOwner) */\n  0x20\n  shr\n  jump\t// in\ntag_11:\n    /* \"@openzeppelin/contracts/access/Ownable.sol\":1225:1412  constructor(address initialOwner) {... */\n  pop\n    /* \"@openzeppelin/contracts/security/ReentrancyGuard.sol\":1716:1717  1 */\n  0x01\n    /* \"@openzeppelin/contracts/security/ReentrancyGuard.sol\":1821:1828  _status */\n  dup1\n    /* \"@openzeppelin/contracts/security/ReentrancyGuard.sol\":1821:1843  _status = _NOT_ENTERED */\n  dup2\n  swap1\n  sstore\n  pop\n    /* \"contracts/CrossChainFishGame.sol\":1902:1914  _rewardToken */\n  dup4\n    /* \"contracts/CrossChainFishGame.sol\":1875:1886  rewardToken */\n  0x02\n  0x00\n    /* \"contracts/CrossChainFishGame.sol\":1875:1915  rewardToken = IERC20Reward(_rewardToken) */\n  0x0100\n  exp\n  dup2\n  sload\n  dup2\n  0xffffffffffffffffffffffffffffffffffffffff\n  mul\n  not\n  and\n  swap1\n  dup4\n  0xffffffffffffffffffffffffffffffffffffffff\n  and\n  mul\n  or\n  swap1\n  sstore\n  pop\n    /* \"contracts/CrossChainFishGame.sol\":1949:1957  _fishNFT */\n  dup3\n    /* \"contracts/CrossChainFishGame.sol\":1926:1933  fishNFT */\n  0x03\n  0x00\n    /* \"contracts/CrossChainFishGame.sol\":1926:1958  fishNFT = IFishGameNFT(_fishNFT) */\n  0x0100\n  exp\n  dup2\n  sload\n  dup2\n  0xffffffffffffffffffffffffffffffffffffffff\n  mul\n  not\n  and\n  swap1\n  dup4\n  0xffffffffffffffffffffffffffffffffffffffff\n  and\n  mul\n  or\n  swap1\n  sstore\n  pop\n    /* \"contracts/CrossChainFishGame.sol\":1997:2014  _hyperlaneMailbox */\n  dup2\n    /* \"contracts/CrossChainFishGame.sol\":1969:1985  hyperlaneMailbox */\n  0x04\n  0x00\n    /* \"contracts/CrossChainFishGame.sol\":1969:2015  hyperlaneMailbox = IMailbox(_hyperlaneMailbox) */\n  0x0100\n  exp\n  dup2\n  sload\n  dup2\n  0xffffffffffffffffffffffffffffffffffffffff\n  mul\n  not\n  and\n  swap1\n  dup4\n  0xffffffffffffffffffffffffffffffffffffffff\n  and\n  mul\n  or\n  swap1\n  sstore\n  pop\n    /* \"contracts/CrossChainFishGame.sol\":2056:2060  _igp */\n  dup1\n    /* \"contracts/CrossChainFishGame.sol\":2026:2029  igp */\n  0x05\n  0x00\n    /* \"contracts/CrossChainFishGame.sol\":2026:2061  igp = IInterchainGasPaymaster(_igp) */\n  0x0100\n  exp\n  dup2\n  sload\n  dup2\n  0xffffffffffffffffffffffffffffffffffffffff\n  mul\n  not\n  and\n  swap1\n  dup4\n  0xffffffffffffffffffffffffffffffffffffffff\n  and\n  mul\n  or\n  swap1\n  sstore\n  pop\n    /* \"contracts/CrossChainFishGame.sol\":1708:2069  constructor(... */\n  pop\n  pop\n  pop\n  pop\n    /* \"contracts/CrossChainFishGame.sol\":870:7171  contract CrossChainFishGame is Ownable, ReentrancyGuard {... */\n  jump(tag_15)\n    /* \"@openzeppelin/contracts/access/Ownable.sol\":2912:3099  function _transferOwnership(address newOwner) internal virtual {... */\ntag_12:\n    /* \"@openzeppelin/contracts/access/Ownable.sol\":2985:3001  address oldOwner */\n  0x00\n    /* \"@openzeppelin/contracts/access/Ownable.sol\":3004:3010  _owner */\n  dup1\n  0x00\n  swap1\n  sload\n  swap1\n  0x0100\n  exp\n  swap1\n  div\n  0xffffffffffffffffffffffffffffffffffffffff\n  and\n    /* \"@openzeppelin/contracts/access/Ownable.sol\":2985:3010  address oldOwner = _owner */\n  swap1\n  pop\n    /* \"@openzeppelin/contracts/access/Ownable.sol\":3029:3037  newOwner */\n  dup2\n    /* \"@openzeppelin/contracts/access/Ownable.sol\":3020:3026  _owner */\n  0x00\n  dup1\n    /* \"@openzeppelin/contracts/access/Ownable.sol\":3020:3037  _owner = newOwner */\n  0x0100\n  exp\n  dup2\n  sload\n  dup2\n  0xffffffffffffffffffffffffffffffffffffffff\n  mul\n  not\n  and\n  swap1\n  dup4\n  0xffffffffffffffffffffffffffffffffffffffff\n  and\n  mul\n  or\n  swap1\n  sstore\n  pop\n    /* \"@openzeppelin/contracts/access/Ownable.sol\":3083:3091  newOwner */\n  dup2\n    /* \"@openzeppelin/contracts/access/Ownable.sol\":3052:3092  OwnershipTransferred(oldOwner, newOwner) */\n  0xffffffffffffffffffffffffffffffffffffffff\n  and\n    /* \"@openzeppelin/contracts/access/Ownable.sol\":3073:3081  oldOwner */\n  dup2\n    /* \"@openzeppelin/contracts/access/Ownable.sol\":3052:3092  OwnershipTransferred(oldOwner, newOwner) */\n  0xffffffffffffffffffffffffffffffffffffffff\n  and\n  0x8be0079c531659141344cd1fd0a4f28419497f9722a3daafe3b4186f6b6457e0\n  mload(0x40)\n  mload(0x40)\n  dup1\n  swap2\n  sub\n  swap1\n  log3\n    /* \"@openzeppelin/contracts/access/Ownable.sol\":2975:3099  {... */\n  pop\n    /* \"@openzeppelin/contracts/access/Ownable.sol\":2912:3099  function _transferOwnership(address newOwner) internal virtual {... */\n  pop\n  jump\t// out\n    /* \"#utility.yul\":88:205   */\ntag_18:\n    /* \"#utility.yul\":197:198   */\n  0x00\n    /* \"#utility.yul\":194:195   */\n  dup1\n    /* \"#utility.yul\":187:199   */\n  revert\n    /* \"#utility.yul\":334:460   */\ntag_20:\n    /* \"#utility.yul\":371:378   */\n  0x00\n    /* \"#utility.yul\":411:453   */\n  0xffffffffffffffffffffffffffffffffffffffff\n    /* \"#utility.yul\":404:409   */\n  dup3\n    /* \"#utility.yul\":400:454   */\n  and\n    /* \"#utility.yul\":389:454   */\n  swap1\n  pop\n    /* \"#utility.yul\":334:460   */\n  swap2\n  swap1\n  pop\n  jump\t// out\n    /* \"#utility.yul\":466:562   */\ntag_21:\n    /* \"#utility.yul\":503:510   */\n  0x00\n    /* \"#utility.yul\":532:556   */\n  tag_31\n    /* \"#utility.yul\":550:555   */\n  dup3\n    /* \"#utility.yul\":532:556   */\n  tag_20\n  jump\t// in\ntag_31:\n    /* \"#utility.yul\":521:556   */\n  swap1\n  pop\n    /* \"#utility.yul\":466:562   */\n  swap2\n  swap1\n  pop\n  jump\t// out\n    /* \"#utility.yul\":568:690   */\ntag_22:\n    /* \"#utility.yul\":641:665   */\n  tag_33\n    /* \"#utility.yul\":659:664   */\n  dup2\n    /* \"#utility.yul\":641:665   */\n  tag_21\n  jump\t// in\ntag_33:\n    /* \"#utility.yul\":634:639   */\n  dup2\n    /* \"#utility.yul\":631:666   */\n  eq\n    /* \"#utility.yul\":621:684   */\n  tag_34\n  jumpi\n    /* \"#utility.yul\":680:681   */\n  0x00\n    /* \"#utility.yul\":677:678   */\n  dup1\n    /* \"#utility.yul\":670:682   */\n  revert\n    /* \"#utility.yul\":621:684   */\ntag_34:\n    /* \"#utility.yul\":568:690   */\n  pop\n  jump\t// out\n    /* \"#utility.yul\":696:839   */\ntag_23:\n    /* \"#utility.yul\":753:758   */\n  0x00\n    /* \"#utility.yul\":784:790   */\n  dup2\n    /* \"#utility.yul\":778:791   */\n  mload\n    /* \"#utility.yul\":769:791   */\n  swap1\n  pop\n    /* \"#utility.yul\":800:833   */\n  tag_36\n    /* \"#utility.yul\":827:832   */\n  dup2\n    /* \"#utility.yul\":800:833   */\n  tag_22\n  jump\t// in\ntag_36:\n    /* \"#utility.yul\":696:839   */\n  swap3\n  swap2\n  pop\n  pop\n  jump\t// out\n    /* \"#utility.yul\":845:1665   */\ntag_3:\n    /* \"#utility.yul\":942:948   */\n  0x00\n    /* \"#utility.yul\":950:956   */\n  dup1\n    /* \"#utility.yul\":958:964   */\n  0x00\n    /* \"#utility.yul\":966:972   */\n  dup1\n    /* \"#utility.yul\":1015:1018   */\n  0x80\n    /* \"#utility.yul\":1003:1012   */\n  dup6\n    /* \"#utility.yul\":994:1001   */\n  dup8\n    /* \"#utility.yul\":990:1013   */\n  sub\n    /* \"#utility.yul\":986:1019   */\n  slt\n    /* \"#utility.yul\":983:1103   */\n  iszero\n  tag_38\n  jumpi\n    /* \"#utility.yul\":1022:1101   */\n  tag_39\n  tag_18\n  jump\t// in\ntag_39:\n    /* \"#utility.yul\":983:1103   */\ntag_38:\n    /* \"#utility.yul\":1142:1143   */\n  0x00\n    /* \"#utility.yul\":1167:1231   */\n  tag_40\n    /* \"#utility.yul\":1223:1230   */\n  dup8\n    /* \"#utility.yul\":1214:1220   */\n  dup3\n    /* \"#utility.yul\":1203:1212   */\n  dup9\n    /* \"#utility.yul\":1199:1221   */\n  add\n    /* \"#utility.yul\":1167:1231   */\n  tag_23\n  jump\t// in\ntag_40:\n    /* \"#utility.yul\":1157:1231   */\n  swap5\n  pop\n    /* \"#utility.yul\":1113:1241   */\n  pop\n    /* \"#utility.yul\":1280:1282   */\n  0x20\n    /* \"#utility.yul\":1306:1370   */\n  tag_41\n    /* \"#utility.yul\":1362:1369   */\n  dup8\n    /* \"#utility.yul\":1353:1359   */\n  dup3\n    /* \"#utility.yul\":1342:1351   */\n  dup9\n    /* \"#utility.yul\":1338:1360   */\n  add\n    /* \"#utility.yul\":1306:1370   */\n  tag_23\n  jump\t// in\ntag_41:\n    /* \"#utility.yul\":1296:1370   */\n  swap4\n  pop\n    /* \"#utility.yul\":1251:1380   */\n  pop\n    /* \"#utility.yul\":1419:1421   */\n  0x40\n    /* \"#utility.yul\":1445:1509   */\n  tag_42\n    /* \"#utility.yul\":1501:1508   */\n  dup8\n    /* \"#utility.yul\":1492:1498   */\n  dup3\n    /* \"#utility.yul\":1481:1490   */\n  dup9\n    /* \"#utility.yul\":1477:1499   */\n  add\n    /* \"#utility.yul\":1445:1509   */\n  tag_23\n  jump\t// in\ntag_42:\n    /* \"#utility.yul\":1435:1509   */\n  swap3\n  pop\n    /* \"#utility.yul\":1390:1519   */\n  pop\n    /* \"#utility.yul\":1558:1560   */\n  0x60\n    /* \"#utility.yul\":1584:1648   */\n  tag_43\n    /* \"#utility.yul\":1640:1647   */\n  dup8\n    /* \"#utility.yul\":1631:1637   */\n  dup3\n    /* \"#utility.yul\":1620:1629   */\n  dup9\n    /* \"#utility.yul\":1616:1638   */\n  add\n    /* \"#utility.yul\":1584:1648   */\n  tag_23\n  jump\t// in\ntag_43:\n    /* \"#utility.yul\":1574:1648   */\n  swap2\n  pop\n    /* \"#utility.yul\":1529:1658   */\n  pop\n    /* \"#utility.yul\":845:1665   */\n  swap3\n  swap6\n  swap2\n  swap5\n  pop\n  swap3\n  pop\n  jump\t// out\n    /* \"#utility.yul\":1671:1789   */\ntag_24:\n    /* \"#utility.yul\":1758:1782   */\n  tag_45\n    /* \"#utility.yul\":1776:1781   */\n  dup2\n    /* \"#utility.yul\":1758:1782   */\n  tag_21\n  jump\t// in\ntag_45:\n    /* \"#utility.yul\":1753:1756   */\n  dup3\n    /* \"#utility.yul\":1746:1783   */\n  mstore\n    /* \"#utility.yul\":1671:1789   */\n  pop\n  pop\n  jump\t// out\n    /* \"#utility.yul\":1795:2017   */\ntag_10:\n    /* \"#utility.yul\":1888:1892   */\n  0x00\n    /* \"#utility.yul\":1926:1928   */\n  0x20\n    /* \"#utility.yul\":1915:1924   */\n  dup3\n    /* \"#utility.yul\":1911:1929   */\n  add\n    /* \"#utility.yul\":1903:1929   */\n  swap1\n  pop\n    /* \"#utility.yul\":1939:2010   */\n  tag_47\n    /* \"#utility.yul\":2007:2008   */\n  0x00\n    /* \"#utility.yul\":1996:2005   */\n  dup4\n    /* \"#utility.yul\":1992:2009   */\n  add\n    /* \"#utility.yul\":1983:1989   */\n  dup5\n    /* \"#utility.yul\":1939:2010   */\n  tag_24\n  jump\t// in\ntag_47:\n    /* \"#utility.yul\":1795:2017   */\n  swap3\n  swap2\n  pop\n  pop\n  jump\t// out\n    /* \"contracts/CrossChainFishGame.sol\":870:7171  contract CrossChainFishGame is Ownable, ReentrancyGuard {... */\ntag_15:\n  dataSize(sub_0)\n  dup1\n  dataOffset(sub_0)\n  0x00\n  codecopy\n  0x00\n  return\nstop\n\nsub_0: assembly {\n        /* \"contracts/CrossChainFishGame.sol\":870:7171  contract CrossChainFishGame is Ownable, ReentrancyGuard {... */\n      mstore(0x40, 0x80)\n      jumpi(tag_1, lt(calldatasize, 0x04))\n      shr(0xe0, calldataload(0x00))\n      dup1\n      0x715018a6\n      gt\n      tag_18\n      jumpi\n      dup1\n      0xd15e55b7\n      gt\n      tag_19\n      jumpi\n      dup1\n      0xd15e55b7\n      eq\n      tag_14\n      jumpi\n      dup1\n      0xf28b2daa\n      eq\n      tag_15\n      jumpi\n      dup1\n      0xf2fde38b\n      eq\n      tag_16\n      jumpi\n      dup1\n      0xf7c618c1\n      eq\n      tag_17\n      jumpi\n      jump(tag_1)\n    tag_19:\n      dup1\n      0x715018a6\n      eq\n      tag_10\n      jumpi\n      dup1\n      0x8da5cb5b\n      eq\n      tag_11\n      jumpi\n      dup1\n      0x959da2cf\n      eq\n      tag_12\n      jumpi\n      dup1\n      0xa1db9782\n      eq\n      tag_13\n      jumpi\n      jump(tag_1)\n    tag_18:\n      dup1\n      0x2bda3e0b\n      gt\n      tag_20\n      jumpi\n      dup1\n      0x2bda3e0b\n      eq\n      tag_6\n      jumpi\n      dup1\n      0x2c40ae85\n      eq\n      tag_7\n      jumpi\n      dup1\n      0x56d5d475\n      eq\n      tag_8\n      jumpi\n      dup1\n      0x602e5a9e\n      eq\n      tag_9\n      jumpi\n      jump(tag_1)\n    tag_20:\n      dup1\n      0x6228dc\n      eq\n      tag_2\n      jumpi\n      dup1\n      0x1a6e4db4\n      eq\n      tag_3\n      jumpi\n      dup1\n      0x1d187c50\n      eq\n      tag_4\n      jumpi\n      dup1\n      0x22009af6\n      eq\n      tag_5\n      jumpi\n    tag_1:\n      0x00\n      dup1\n      revert\n        /* \"contracts/CrossChainFishGame.sol\":2229:3680  function eatFish() external nonReentrant {... */\n    tag_2:\n      callvalue\n      dup1\n      iszero\n      tag_21\n      jumpi\n      0x00\n      dup1\n      revert\n    tag_21:\n      pop\n      tag_22\n      tag_23\n      jump\t// in\n    tag_22:\n      stop\n        /* \"contracts/CrossChainFishGame.sol\":1005:1037  IMailbox public hyperlaneMailbox */\n    tag_3:\n      callvalue\n      dup1\n      iszero\n      tag_24\n      jumpi\n      0x00\n      dup1\n      revert\n    tag_24:\n      pop\n      tag_25\n      tag_26\n      jump\t// in\n    tag_25:\n      mload(0x40)\n      tag_27\n      swap2\n      swap1\n      tag_28\n      jump\t// in\n    tag_27:\n      mload(0x40)\n      dup1\n      swap2\n      sub\n      swap1\n      return\n        /* \"contracts/CrossChainFishGame.sol\":1091:1139  mapping(uint32 => bytes32) public trustedRemotes */\n    tag_4:\n      callvalue\n      dup1\n      iszero\n      tag_29\n      jumpi\n      0x00\n      dup1\n      revert\n    tag_29:\n      pop\n      tag_30\n      0x04\n      dup1\n      calldatasize\n      sub\n      dup2\n      add\n      swap1\n      tag_31\n      swap2\n      swap1\n      tag_32\n      jump\t// in\n    tag_31:\n      tag_33\n      jump\t// in\n    tag_30:\n      mload(0x40)\n      tag_34\n      swap2\n      swap1\n      tag_35\n      jump\t// in\n    tag_34:\n      mload(0x40)\n      dup1\n      swap2\n      sub\n      swap1\n      return\n        /* \"contracts/CrossChainFishGame.sol\":1220:1268  uint256 public constant BASE_REWARD = 5 * 10**18 */\n    tag_5:\n      callvalue\n      dup1\n      iszero\n      tag_36\n      jumpi\n      0x00\n      dup1\n      revert\n    tag_36:\n      pop\n      tag_37\n      tag_38\n      jump\t// in\n    tag_37:\n      mload(0x40)\n      tag_39\n      swap2\n      swap1\n      tag_40\n      jump\t// in\n    tag_39:\n      mload(0x40)\n      dup1\n      swap2\n      sub\n      swap1\n      return\n        /* \"contracts/CrossChainFishGame.sol\":2077:2221  function setTrustedRemote(uint32 _domain, bytes32 _trustedRemote) external onlyOwner {... */\n    tag_6:\n      callvalue\n      dup1\n      iszero\n      tag_41\n      jumpi\n      0x00\n      dup1\n      revert\n    tag_41:\n      pop\n      tag_42\n      0x04\n      dup1\n      calldatasize\n      sub\n      dup2\n      add\n      swap1\n      tag_43\n      swap2\n      swap1\n      tag_44\n      jump\t// in\n    tag_43:\n      tag_45\n      jump\t// in\n    tag_42:\n      stop\n        /* \"contracts/CrossChainFishGame.sol\":3688:4957  function crossChainEat(uint32 destinationChain, uint256 fishId) external payable nonReentrant {... */\n    tag_7:\n      tag_46\n      0x04\n      dup1\n      calldatasize\n      sub\n      dup2\n      add\n      swap1\n      tag_47\n      swap2\n      swap1\n      tag_48\n      jump\t// in\n    tag_47:\n      tag_49\n      jump\t// in\n    tag_46:\n      stop\n        /* \"contracts/CrossChainFishGame.sol\":4965:5990  function handle(... */\n    tag_8:\n      tag_50\n      0x04\n      dup1\n      calldatasize\n      sub\n      dup2\n      add\n      swap1\n      tag_51\n      swap2\n      swap1\n      tag_52\n      jump\t// in\n    tag_51:\n      tag_53\n      jump\t// in\n    tag_50:\n      stop\n        /* \"contracts/CrossChainFishGame.sol\":1148:1200  uint256 public constant BASE_FISH_COST = 10 * 10**18 */\n    tag_9:\n      callvalue\n      dup1\n      iszero\n      tag_54\n      jumpi\n      0x00\n      dup1\n      revert\n    tag_54:\n      pop\n      tag_55\n      tag_56\n      jump\t// in\n    tag_55:\n      mload(0x40)\n      tag_57\n      swap2\n      swap1\n      tag_40\n      jump\t// in\n    tag_57:\n      mload(0x40)\n      dup1\n      swap2\n      sub\n      swap1\n      return\n        /* \"@openzeppelin/contracts/access/Ownable.sol\":2293:2394  function renounceOwnership() public virtual onlyOwner {... */\n    tag_10:\n      callvalue\n      dup1\n      iszero\n      tag_58\n      jumpi\n      0x00\n      dup1\n      revert\n    tag_58:\n      pop\n      tag_59\n      tag_60\n      jump\t// in\n    tag_59:\n      stop\n        /* \"@openzeppelin/contracts/access/Ownable.sol\":1638:1723  function owner() public view virtual returns (address) {... */\n    tag_11:\n      callvalue\n      dup1\n      iszero\n      tag_61\n      jumpi\n      0x00\n      dup1\n      revert\n    tag_61:\n      pop\n      tag_62\n      tag_63\n      jump\t// in\n    tag_62:\n      mload(0x40)\n      tag_64\n      swap2\n      swap1\n      tag_65\n      jump\t// in\n    tag_64:\n      mload(0x40)\n      dup1\n      swap2\n      sub\n      swap1\n      return\n        /* \"contracts/CrossChainFishGame.sol\":971:998  IFishGameNFT public fishNFT */\n    tag_12:\n      callvalue\n      dup1\n      iszero\n      tag_66\n      jumpi\n      0x00\n      dup1\n      revert\n    tag_66:\n      pop\n      tag_67\n      tag_68\n      jump\t// in\n    tag_67:\n      mload(0x40)\n      tag_69\n      swap2\n      swap1\n      tag_70\n      jump\t// in\n    tag_69:\n      mload(0x40)\n      dup1\n      swap2\n      sub\n      swap1\n      return\n        /* \"contracts/CrossChainFishGame.sol\":6995:7168  function withdrawERC20(address tokenAddress, uint256 amount) external onlyOwner {... */\n    tag_13:\n      callvalue\n      dup1\n      iszero\n      tag_71\n      jumpi\n      0x00\n      dup1\n      revert\n    tag_71:\n      pop\n      tag_72\n      0x04\n      dup1\n      calldatasize\n      sub\n      dup2\n      add\n      swap1\n      tag_73\n      swap2\n      swap1\n      tag_74\n      jump\t// in\n    tag_73:\n      tag_75\n      jump\t// in\n    tag_72:\n      stop\n        /* \"contracts/CrossChainFishGame.sol\":1417:1466  mapping(address => GameState) public playerStates */\n    tag_14:\n      callvalue\n      dup1\n      iszero\n      tag_76\n      jumpi\n      0x00\n      dup1\n      revert\n    tag_76:\n      pop\n      tag_77\n      0x04\n      dup1\n      calldatasize\n      sub\n      dup2\n      add\n      swap1\n      tag_78\n      swap2\n      swap1\n      tag_79\n      jump\t// in\n    tag_78:\n      tag_80\n      jump\t// in\n    tag_77:\n      mload(0x40)\n      tag_81\n      swap4\n      swap3\n      swap2\n      swap1\n      tag_82\n      jump\t// in\n    tag_81:\n      mload(0x40)\n      dup1\n      swap2\n      sub\n      swap1\n      return\n        /* \"contracts/CrossChainFishGame.sol\":1044:1078  IInterchainGasPaymaster public igp */\n    tag_15:\n      callvalue\n      dup1\n      iszero\n      tag_83\n      jumpi\n      0x00\n      dup1\n      revert\n    tag_83:\n      pop\n      tag_84\n      tag_85\n      jump\t// in\n    tag_84:\n      mload(0x40)\n      tag_86\n      swap2\n      swap1\n      tag_87\n      jump\t// in\n    tag_86:\n      mload(0x40)\n      dup1\n      swap2\n      sub\n      swap1\n      return\n        /* \"@openzeppelin/contracts/access/Ownable.sol\":2543:2758  function transferOwnership(address newOwner) public virtual onlyOwner {... */\n    tag_16:\n      callvalue\n      dup1\n      iszero\n      tag_88\n      jumpi\n      0x00\n      dup1\n      revert\n    tag_88:\n      pop\n      tag_89\n      0x04\n      dup1\n      calldatasize\n      sub\n      dup2\n      add\n      swap1\n      tag_90\n      swap2\n      swap1\n      tag_79\n      jump\t// in\n    tag_90:\n      tag_91\n      jump\t// in\n    tag_89:\n      stop\n        /* \"contracts/CrossChainFishGame.sol\":933:964  IERC20Reward public rewardToken */\n    tag_17:\n      callvalue\n      dup1\n      iszero\n      tag_92\n      jumpi\n      0x00\n      dup1\n      revert\n    tag_92:\n      pop\n      tag_93\n      tag_94\n      jump\t// in\n    tag_93:\n      mload(0x40)\n      tag_95\n      swap2\n      swap1\n      tag_96\n      jump\t// in\n    tag_95:\n      mload(0x40)\n      dup1\n      swap2\n      sub\n      swap1\n      return\n        /* \"contracts/CrossChainFishGame.sol\":2229:3680  function eatFish() external nonReentrant {... */\n    tag_23:\n        /* \"@openzeppelin/contracts/security/ReentrancyGuard.sol\":2261:2282  _nonReentrantBefore() */\n      tag_98\n        /* \"@openzeppelin/contracts/security/ReentrancyGuard.sol\":2261:2280  _nonReentrantBefore */\n      tag_99\n        /* \"@openzeppelin/contracts/security/ReentrancyGuard.sol\":2261:2282  _nonReentrantBefore() */\n      jump\t// in\n    tag_98:\n        /* \"contracts/CrossChainFishGame.sol\":2281:2310  GameState storage playerState */\n      0x00\n        /* \"contracts/CrossChainFishGame.sol\":2313:2325  playerStates */\n      0x07\n        /* \"contracts/CrossChainFishGame.sol\":2313:2337  playerStates[msg.sender] */\n      0x00\n        /* \"contracts/CrossChainFishGame.sol\":2326:2336  msg.sender */\n      caller\n        /* \"contracts/CrossChainFishGame.sol\":2313:2337  playerStates[msg.sender] */\n      0xffffffffffffffffffffffffffffffffffffffff\n      and\n      0xffffffffffffffffffffffffffffffffffffffff\n      and\n      dup2\n      mstore\n      0x20\n      add\n      swap1\n      dup2\n      mstore\n      0x20\n      add\n      0x00\n      keccak256\n        /* \"contracts/CrossChainFishGame.sol\":2281:2337  GameState storage playerState = playerStates[msg.sender] */\n      swap1\n      pop\n        /* \"contracts/CrossChainFishGame.sol\":2409:2418  1 minutes */\n      0x3c\n        /* \"contracts/CrossChainFishGame.sol\":2374:2385  playerState */\n      dup2\n        /* \"contracts/CrossChainFishGame.sol\":2374:2405  playerState.lastInteractionTime */\n      0x02\n      add\n      sload\n        /* \"contracts/CrossChainFishGame.sol\":2356:2371  block.timestamp */\n      timestamp\n        /* \"contracts/CrossChainFishGame.sol\":2356:2405  block.timestamp - playerState.lastInteractionTime */\n      tag_101\n      swap2\n      swap1\n      tag_102\n      jump\t// in\n    tag_101:\n        /* \"contracts/CrossChainFishGame.sol\":2356:2418  block.timestamp - playerState.lastInteractionTime >= 1 minutes */\n      lt\n      iszero\n        /* \"contracts/CrossChainFishGame.sol\":2348:2446  require(block.timestamp - playerState.lastInteractionTime >= 1 minutes, \"Wait before next action\") */\n      tag_103\n      jumpi\n      mload(0x40)\n      0x08c379a000000000000000000000000000000000000000000000000000000000\n      dup2\n      mstore\n      0x04\n      add\n      tag_104\n      swap1\n      tag_105\n      jump\t// in\n    tag_104:\n      mload(0x40)\n      dup1\n      swap2\n      sub\n      swap1\n      revert\n    tag_103:\n        /* \"contracts/CrossChainFishGame.sol\":2459:2475  uint256 fishCost */\n      0x00\n        /* \"contracts/CrossChainFishGame.sol\":2519:2520  1 */\n      0x01\n        /* \"contracts/CrossChainFishGame.sol\":2496:2507  playerState */\n      dup3\n        /* \"contracts/CrossChainFishGame.sol\":2496:2516  playerState.fishSize */\n      0x01\n      add\n      sload\n        /* \"contracts/CrossChainFishGame.sol\":2496:2520  playerState.fishSize + 1 */\n      tag_106\n      swap2\n      swap1\n      tag_107\n      jump\t// in\n    tag_106:\n        /* \"contracts/CrossChainFishGame.sol\":1189:1200  10 * 10**18 */\n      0x8ac7230489e80000\n        /* \"contracts/CrossChainFishGame.sol\":2478:2521  BASE_FISH_COST * (playerState.fishSize + 1) */\n      tag_108\n      swap2\n      swap1\n      tag_109\n      jump\t// in\n    tag_108:\n        /* \"contracts/CrossChainFishGame.sol\":2459:2521  uint256 fishCost = BASE_FISH_COST * (playerState.fishSize + 1) */\n      swap1\n      pop\n        /* \"contracts/CrossChainFishGame.sol\":2577:2585  fishCost */\n      dup1\n        /* \"contracts/CrossChainFishGame.sol\":2540:2551  rewardToken */\n      0x02\n      0x00\n      swap1\n      sload\n      swap1\n      0x0100\n      exp\n      swap1\n      div\n      0xffffffffffffffffffffffffffffffffffffffff\n      and\n        /* \"contracts/CrossChainFishGame.sol\":2540:2561  rewardToken.balanceOf */\n      0xffffffffffffffffffffffffffffffffffffffff\n      and\n      0x70a08231\n        /* \"contracts/CrossChainFishGame.sol\":2562:2572  msg.sender */\n      caller\n        /* \"contracts/CrossChainFishGame.sol\":2540:2573  rewardToken.balanceOf(msg.sender) */\n      mload(0x40)\n      dup3\n      0xffffffff\n      and\n      0xe0\n      shl\n      dup2\n      mstore\n      0x04\n      add\n      tag_110\n      swap2\n      swap1\n      tag_65\n      jump\t// in\n    tag_110:\n      0x20\n      mload(0x40)\n      dup1\n      dup4\n      sub\n      dup2\n      dup7\n      gas\n      staticcall\n      iszero\n      dup1\n      iszero\n      tag_112\n      jumpi\n      returndatasize\n      0x00\n      dup1\n      returndatacopy\n      revert(0x00, returndatasize)\n    tag_112:\n      pop\n      pop\n      pop\n      pop\n      mload(0x40)\n      returndatasize\n      not(0x1f)\n      0x1f\n      dup3\n      add\n      and\n      dup3\n      add\n      dup1\n      0x40\n      mstore\n      pop\n      dup2\n      add\n      swap1\n      tag_113\n      swap2\n      swap1\n      tag_114\n      jump\t// in\n    tag_113:\n        /* \"contracts/CrossChainFishGame.sol\":2540:2585  rewardToken.balanceOf(msg.sender) >= fishCost */\n      lt\n      iszero\n        /* \"contracts/CrossChainFishGame.sol\":2532:2609  require(rewardToken.balanceOf(msg.sender) >= fishCost, \"Insufficient tokens\") */\n      tag_115\n      jumpi\n      mload(0x40)\n      0x08c379a000000000000000000000000000000000000000000000000000000000\n      dup2\n      mstore\n      0x04\n      add\n      tag_116\n      swap1\n      tag_117\n      jump\t// in\n    tag_116:\n      mload(0x40)\n      dup1\n      swap2\n      sub\n      swap1\n      revert\n    tag_115:\n        /* \"contracts/CrossChainFishGame.sol\":2665:2676  rewardToken */\n      0x02\n      0x00\n      swap1\n      sload\n      swap1\n      0x0100\n      exp\n      swap1\n      div\n      0xffffffffffffffffffffffffffffffffffffffff\n      and\n        /* \"contracts/CrossChainFishGame.sol\":2665:2685  rewardToken.burnFrom */\n      0xffffffffffffffffffffffffffffffffffffffff\n      and\n      0x79cc6790\n        /* \"contracts/CrossChainFishGame.sol\":2686:2696  msg.sender */\n      caller\n        /* \"contracts/CrossChainFishGame.sol\":2698:2706  fishCost */\n      dup4\n        /* \"contracts/CrossChainFishGame.sol\":2665:2707  rewardToken.burnFrom(msg.sender, fishCost) */\n      mload(0x40)\n      dup4\n      0xffffffff\n      and\n      0xe0\n      shl\n      dup2\n      mstore\n      0x04\n      add\n      tag_118\n      swap3\n      swap2\n      swap1\n      tag_119\n      jump\t// in\n    tag_118:\n      0x00\n      mload(0x40)\n      dup1\n      dup4\n      sub\n      dup2\n      0x00\n      dup8\n      dup1\n      extcodesize\n      iszero\n      dup1\n      iszero\n      tag_120\n      jumpi\n      0x00\n      dup1\n      revert\n    tag_120:\n      pop\n      gas\n      call\n      iszero\n      dup1\n      iszero\n      tag_122\n      jumpi\n      returndatasize\n      0x00\n      dup1\n      returndatacopy\n      revert(0x00, returndatasize)\n    tag_122:\n      pop\n      pop\n      pop\n      pop\n        /* \"contracts/CrossChainFishGame.sol\":2758:2780  uint256 targetFishSize */\n      0x00\n        /* \"contracts/CrossChainFishGame.sol\":2783:2828  _generateTargetFishSize(playerState.fishSize) */\n      tag_123\n        /* \"contracts/CrossChainFishGame.sol\":2807:2818  playerState */\n      dup4\n        /* \"contracts/CrossChainFishGame.sol\":2807:2827  playerState.fishSize */\n      0x01\n      add\n      sload\n        /* \"contracts/CrossChainFishGame.sol\":2783:2806  _generateTargetFishSize */\n      tag_124\n        /* \"contracts/CrossChainFishGame.sol\":2783:2828  _generateTargetFishSize(playerState.fishSize) */\n      jump\t// in\n    tag_123:\n        /* \"contracts/CrossChainFishGame.sol\":2758:2828  uint256 targetFishSize = _generateTargetFishSize(playerState.fishSize) */\n      swap1\n      pop\n        /* \"contracts/CrossChainFishGame.sol\":2863:2874  playerState */\n      dup3\n        /* \"contracts/CrossChainFishGame.sol\":2863:2883  playerState.fishSize */\n      0x01\n      add\n      sload\n        /* \"contracts/CrossChainFishGame.sol\":2845:2859  targetFishSize */\n      dup2\n        /* \"contracts/CrossChainFishGame.sol\":2845:2883  targetFishSize <= playerState.fishSize */\n      gt\n        /* \"contracts/CrossChainFishGame.sol\":2841:3611  if (targetFishSize <= playerState.fishSize) {... */\n      tag_125\n      jumpi\n        /* \"contracts/CrossChainFishGame.sol\":2942:2956  uint256 reward */\n      0x00\n        /* \"contracts/CrossChainFishGame.sol\":2959:2991  _calculateReward(targetFishSize) */\n      tag_126\n        /* \"contracts/CrossChainFishGame.sol\":2976:2990  targetFishSize */\n      dup3\n        /* \"contracts/CrossChainFishGame.sol\":2959:2975  _calculateReward */\n      tag_127\n        /* \"contracts/CrossChainFishGame.sol\":2959:2991  _calculateReward(targetFishSize) */\n      jump\t// in\n    tag_126:\n        /* \"contracts/CrossChainFishGame.sol\":2942:2991  uint256 reward = _calculateReward(targetFishSize) */\n      swap1\n      pop\n        /* \"contracts/CrossChainFishGame.sol\":3006:3017  rewardToken */\n      0x02\n      0x00\n      swap1\n      sload\n      swap1\n      0x0100\n      exp\n      swap1\n      div\n      0xffffffffffffffffffffffffffffffffffffffff\n      and\n        /* \"contracts/CrossChainFishGame.sol\":3006:3028  rewardToken.mintReward */\n      0xffffffffffffffffffffffffffffffffffffffff\n      and\n      0x9a49090e\n        /* \"contracts/CrossChainFishGame.sol\":3029:3039  msg.sender */\n      caller\n        /* \"contracts/CrossChainFishGame.sol\":3041:3047  reward */\n      dup4\n        /* \"contracts/CrossChainFishGame.sol\":3006:3048  rewardToken.mintReward(msg.sender, reward) */\n      mload(0x40)\n      dup4\n      0xffffffff\n      and\n      0xe0\n      shl\n      dup2\n      mstore\n      0x04\n      add\n      tag_128\n      swap3\n      swap2\n      swap1\n      tag_119\n      jump\t// in\n    tag_128:\n      0x00\n      mload(0x40)\n      dup1\n      dup4\n      sub\n      dup2\n      0x00\n      dup8\n      dup1\n      extcodesize\n      iszero\n      dup1\n      iszero\n      tag_129\n      jumpi\n      0x00\n      dup1\n      revert\n    tag_129:\n      pop\n      gas\n      call\n      iszero\n      dup1\n      iszero\n      tag_131\n      jumpi\n      returndatasize\n      0x00\n      dup1\n      returndatacopy\n      revert(0x00, returndatasize)\n    tag_131:\n      pop\n      pop\n      pop\n      pop\n        /* \"contracts/CrossChainFishGame.sol\":3090:3096  reward */\n      dup1\n        /* \"contracts/CrossChainFishGame.sol\":3063:3074  playerState */\n      dup5\n        /* \"contracts/CrossChainFishGame.sol\":3063:3086  playerState.playerScore */\n      0x00\n      add\n      0x00\n        /* \"contracts/CrossChainFishGame.sol\":3063:3096  playerState.playerScore += reward */\n      dup3\n      dup3\n      sload\n      tag_132\n      swap2\n      swap1\n      tag_107\n      jump\t// in\n    tag_132:\n      swap3\n      pop\n      pop\n      dup2\n      swap1\n      sstore\n      pop\n        /* \"contracts/CrossChainFishGame.sol\":3126:3136  msg.sender */\n      caller\n        /* \"contracts/CrossChainFishGame.sol\":3116:3161  FishEaten(msg.sender, targetFishSize, reward) */\n      0xffffffffffffffffffffffffffffffffffffffff\n      and\n      0xd17ba01607a01cd2603cccd4413f658442e41dd750b0722c4398589f1c80a6c3\n        /* \"contracts/CrossChainFishGame.sol\":3138:3152  targetFishSize */\n      dup4\n        /* \"contracts/CrossChainFishGame.sol\":3154:3160  reward */\n      dup4\n        /* \"contracts/CrossChainFishGame.sol\":3116:3161  FishEaten(msg.sender, targetFishSize, reward) */\n      mload(0x40)\n      tag_133\n      swap3\n      swap2\n      swap1\n      tag_134\n      jump\t// in\n    tag_133:\n      mload(0x40)\n      dup1\n      swap2\n      sub\n      swap1\n      log2\n        /* \"contracts/CrossChainFishGame.sol\":3278:3284  10**18 */\n      0x0de0b6b3a7640000\n        /* \"contracts/CrossChainFishGame.sol\":3272:3275  100 */\n      0x64\n        /* \"contracts/CrossChainFishGame.sol\":3249:3260  playerState */\n      dup6\n        /* \"contracts/CrossChainFishGame.sol\":3249:3269  playerState.fishSize */\n      0x01\n      add\n      sload\n        /* \"contracts/CrossChainFishGame.sol\":3249:3275  playerState.fishSize * 100 */\n      tag_135\n      swap2\n      swap1\n      tag_109\n      jump\t// in\n    tag_135:\n        /* \"contracts/CrossChainFishGame.sol\":3249:3284  playerState.fishSize * 100 * 10**18 */\n      tag_136\n      swap2\n      swap1\n      tag_109\n      jump\t// in\n    tag_136:\n        /* \"contracts/CrossChainFishGame.sol\":3222:3233  playerState */\n      dup5\n        /* \"contracts/CrossChainFishGame.sol\":3222:3245  playerState.playerScore */\n      0x00\n      add\n      sload\n        /* \"contracts/CrossChainFishGame.sol\":3222:3284  playerState.playerScore >= playerState.fishSize * 100 * 10**18 */\n      lt\n        /* \"contracts/CrossChainFishGame.sol\":3218:3415  if (playerState.playerScore >= playerState.fishSize * 100 * 10**18) {... */\n      tag_137\n      jumpi\n        /* \"contracts/CrossChainFishGame.sol\":3329:3330  1 */\n      0x01\n        /* \"contracts/CrossChainFishGame.sol\":3305:3316  playerState */\n      dup5\n        /* \"contracts/CrossChainFishGame.sol\":3305:3325  playerState.fishSize */\n      0x01\n      add\n      0x00\n        /* \"contracts/CrossChainFishGame.sol\":3305:3330  playerState.fishSize += 1 */\n      dup3\n      dup3\n      sload\n      tag_138\n      swap2\n      swap1\n      tag_107\n      jump\t// in\n    tag_138:\n      swap3\n      pop\n      pop\n      dup2\n      swap1\n      sstore\n      pop\n        /* \"contracts/CrossChainFishGame.sol\":3366:3376  msg.sender */\n      caller\n        /* \"contracts/CrossChainFishGame.sol\":3354:3399  PlayerGrown(msg.sender, playerState.fishSize) */\n      0xffffffffffffffffffffffffffffffffffffffff\n      and\n      0xdee7109003cf6cd3cb1b552819b438487a03ca336b5dfb3d823fcd9174549be6\n        /* \"contracts/CrossChainFishGame.sol\":3378:3389  playerState */\n      dup6\n        /* \"contracts/CrossChainFishGame.sol\":3378:3398  playerState.fishSize */\n      0x01\n      add\n      sload\n        /* \"contracts/CrossChainFishGame.sol\":3354:3399  PlayerGrown(msg.sender, playerState.fishSize) */\n      mload(0x40)\n      tag_139\n      swap2\n      swap1\n      tag_40\n      jump\t// in\n    tag_139:\n      mload(0x40)\n      dup1\n      swap2\n      sub\n      swap1\n      log2\n        /* \"contracts/CrossChainFishGame.sol\":3218:3415  if (playerState.playerScore >= playerState.fishSize * 100 * 10**18) {... */\n    tag_137:\n        /* \"contracts/CrossChainFishGame.sol\":2885:3426  {... */\n      pop\n        /* \"contracts/CrossChainFishGame.sol\":2841:3611  if (targetFishSize <= playerState.fishSize) {... */\n      jump(tag_140)\n    tag_125:\n        /* \"contracts/CrossChainFishGame.sol\":3537:3538  1 */\n      0x01\n        /* \"contracts/CrossChainFishGame.sol\":3514:3525  playerState */\n      dup4\n        /* \"contracts/CrossChainFishGame.sol\":3514:3534  playerState.fishSize */\n      0x01\n      add\n      sload\n        /* \"contracts/CrossChainFishGame.sol\":3514:3538  playerState.fishSize > 1 */\n      gt\n        /* \"contracts/CrossChainFishGame.sol\":3510:3600  if (playerState.fishSize > 1) {... */\n      iszero\n      tag_141\n      jumpi\n        /* \"contracts/CrossChainFishGame.sol\":3583:3584  1 */\n      0x01\n        /* \"contracts/CrossChainFishGame.sol\":3559:3570  playerState */\n      dup4\n        /* \"contracts/CrossChainFishGame.sol\":3559:3579  playerState.fishSize */\n      0x01\n      add\n      0x00\n        /* \"contracts/CrossChainFishGame.sol\":3559:3584  playerState.fishSize -= 1 */\n      dup3\n      dup3\n      sload\n      tag_142\n      swap2\n      swap1\n      tag_102\n      jump\t// in\n    tag_142:\n      swap3\n      pop\n      pop\n      dup2\n      swap1\n      sstore\n      pop\n        /* \"contracts/CrossChainFishGame.sol\":3510:3600  if (playerState.fishSize > 1) {... */\n    tag_141:\n        /* \"contracts/CrossChainFishGame.sol\":2841:3611  if (targetFishSize <= playerState.fishSize) {... */\n    tag_140:\n        /* \"contracts/CrossChainFishGame.sol\":3657:3672  block.timestamp */\n      timestamp\n        /* \"contracts/CrossChainFishGame.sol\":3623:3634  playerState */\n      dup4\n        /* \"contracts/CrossChainFishGame.sol\":3623:3654  playerState.lastInteractionTime */\n      0x02\n      add\n        /* \"contracts/CrossChainFishGame.sol\":3623:3672  playerState.lastInteractionTime = block.timestamp */\n      dup2\n      swap1\n      sstore\n      pop\n        /* \"contracts/CrossChainFishGame.sol\":2270:3680  {... */\n      pop\n      pop\n      pop\n        /* \"@openzeppelin/contracts/security/ReentrancyGuard.sol\":2303:2323  _nonReentrantAfter() */\n      tag_143\n        /* \"@openzeppelin/contracts/security/ReentrancyGuard.sol\":2303:2321  _nonReentrantAfter */\n      tag_144\n        /* \"@openzeppelin/contracts/security/ReentrancyGuard.sol\":2303:2323  _nonReentrantAfter() */\n      jump\t// in\n    tag_143:\n        /* \"contracts/CrossChainFishGame.sol\":2229:3680  function eatFish() external nonReentrant {... */\n      jump\t// out\n        /* \"contracts/CrossChainFishGame.sol\":1005:1037  IMailbox public hyperlaneMailbox */\n    tag_26:\n      0x04\n      0x00\n      swap1\n      sload\n      swap1\n      0x0100\n      exp\n      swap1\n      div\n      0xffffffffffffffffffffffffffffffffffffffff\n      and\n      dup2\n      jump\t// out\n        /* \"contracts/CrossChainFishGame.sol\":1091:1139  mapping(uint32 => bytes32) public trustedRemotes */\n    tag_33:\n      mstore(0x20, 0x06)\n      dup1\n      0x00\n      mstore\n      keccak256(0x00, 0x40)\n      0x00\n      swap2\n      pop\n      swap1\n      pop\n      sload\n      dup2\n      jump\t// out\n        /* \"contracts/CrossChainFishGame.sol\":1220:1268  uint256 public constant BASE_REWARD = 5 * 10**18 */\n    tag_38:\n        /* \"contracts/CrossChainFishGame.sol\":1258:1268  5 * 10**18 */\n      0x4563918244f40000\n        /* \"contracts/CrossChainFishGame.sol\":1220:1268  uint256 public constant BASE_REWARD = 5 * 10**18 */\n      dup2\n      jump\t// out\n        /* \"contracts/CrossChainFishGame.sol\":2077:2221  function setTrustedRemote(uint32 _domain, bytes32 _trustedRemote) external onlyOwner {... */\n    tag_45:\n        /* \"@openzeppelin/contracts/access/Ownable.sol\":1531:1544  _checkOwner() */\n      tag_146\n        /* \"@openzeppelin/contracts/access/Ownable.sol\":1531:1542  _checkOwner */\n      tag_147\n        /* \"@openzeppelin/contracts/access/Ownable.sol\":1531:1544  _checkOwner() */\n      jump\t// in\n    tag_146:\n        /* \"contracts/CrossChainFishGame.sol\":2199:2213  _trustedRemote */\n      dup1\n        /* \"contracts/CrossChainFishGame.sol\":2173:2187  trustedRemotes */\n      0x06\n        /* \"contracts/CrossChainFishGame.sol\":2173:2196  trustedRemotes[_domain] */\n      0x00\n        /* \"contracts/CrossChainFishGame.sol\":2188:2195  _domain */\n      dup5\n        /* \"contracts/CrossChainFishGame.sol\":2173:2196  trustedRemotes[_domain] */\n      0xffffffff\n      and\n      0xffffffff\n      and\n      dup2\n      mstore\n      0x20\n      add\n      swap1\n      dup2\n      mstore\n      0x20\n      add\n      0x00\n      keccak256\n        /* \"contracts/CrossChainFishGame.sol\":2173:2213  trustedRemotes[_domain] = _trustedRemote */\n      dup2\n      swap1\n      sstore\n      pop\n        /* \"contracts/CrossChainFishGame.sol\":2077:2221  function setTrustedRemote(uint32 _domain, bytes32 _trustedRemote) external onlyOwner {... */\n      pop\n      pop\n      jump\t// out\n        /* \"contracts/CrossChainFishGame.sol\":3688:4957  function crossChainEat(uint32 destinationChain, uint256 fishId) external payable nonReentrant {... */\n    tag_49:\n        /* \"@openzeppelin/contracts/security/ReentrancyGuard.sol\":2261:2282  _nonReentrantBefore() */\n      tag_150\n        /* \"@openzeppelin/contracts/security/ReentrancyGuard.sol\":2261:2280  _nonReentrantBefore */\n      tag_99\n        /* \"@openzeppelin/contracts/security/ReentrancyGuard.sol\":2261:2282  _nonReentrantBefore() */\n      jump\t// in\n    tag_150:\n        /* \"contracts/CrossChainFishGame.sol\":3828:3838  msg.sender */\n      caller\n        /* \"contracts/CrossChainFishGame.sol\":3801:3838  fishNFT.ownerOf(fishId) == msg.sender */\n      0xffffffffffffffffffffffffffffffffffffffff\n      and\n        /* \"contracts/CrossChainFishGame.sol\":3801:3808  fishNFT */\n      0x03\n      0x00\n      swap1\n      sload\n      swap1\n      0x0100\n      exp\n      swap1\n      div\n      0xffffffffffffffffffffffffffffffffffffffff\n      and\n        /* \"contracts/CrossChainFishGame.sol\":3801:3816  fishNFT.ownerOf */\n      0xffffffffffffffffffffffffffffffffffffffff\n      and\n      0x6352211e\n        /* \"contracts/CrossChainFishGame.sol\":3817:3823  fishId */\n      dup4\n        /* \"contracts/CrossChainFishGame.sol\":3801:3824  fishNFT.ownerOf(fishId) */\n      mload(0x40)\n      dup3\n      0xffffffff\n      and\n      0xe0\n      shl\n      dup2\n      mstore\n      0x04\n      add\n      tag_152\n      swap2\n      swap1\n      tag_40\n      jump\t// in\n    tag_152:\n      0x20\n      mload(0x40)\n      dup1\n      dup4\n      sub\n      dup2\n      dup7\n      gas\n      staticcall\n      iszero\n      dup1\n      iszero\n      tag_154\n      jumpi\n      returndatasize\n      0x00\n      dup1\n      returndatacopy\n      revert(0x00, returndatasize)\n    tag_154:\n      pop\n      pop\n      pop\n      pop\n      mload(0x40)\n      returndatasize\n      not(0x1f)\n      0x1f\n      dup3\n      add\n      and\n      dup3\n      add\n      dup1\n      0x40\n      mstore\n      pop\n      dup2\n      add\n      swap1\n      tag_155\n      swap2\n      swap1\n      tag_156\n      jump\t// in\n    tag_155:\n        /* \"contracts/CrossChainFishGame.sol\":3801:3838  fishNFT.ownerOf(fishId) == msg.sender */\n      0xffffffffffffffffffffffffffffffffffffffff\n      and\n      eq\n        /* \"contracts/CrossChainFishGame.sol\":3793:3869  require(fishNFT.ownerOf(fishId) == msg.sender, \"Not the owner of this fish\") */\n      tag_157\n      jumpi\n      mload(0x40)\n      0x08c379a000000000000000000000000000000000000000000000000000000000\n      dup2\n      mstore\n      0x04\n      add\n      tag_158\n      swap1\n      tag_159\n      jump\t// in\n    tag_158:\n      mload(0x40)\n      dup1\n      swap2\n      sub\n      swap1\n      revert\n    tag_157:\n        /* \"contracts/CrossChainFishGame.sol\":3929:3936  fishNFT */\n      0x03\n      0x00\n      swap1\n      sload\n      swap1\n      0x0100\n      exp\n      swap1\n      div\n      0xffffffffffffffffffffffffffffffffffffffff\n      and\n        /* \"contracts/CrossChainFishGame.sol\":3929:3945  fishNFT.burnFish */\n      0xffffffffffffffffffffffffffffffffffffffff\n      and\n      0x042c49be\n        /* \"contracts/CrossChainFishGame.sol\":3946:3952  fishId */\n      dup3\n        /* \"contracts/CrossChainFishGame.sol\":3929:3953  fishNFT.burnFish(fishId) */\n      mload(0x40)\n      dup3\n      0xffffffff\n      and\n      0xe0\n      shl\n      dup2\n      mstore\n      0x04\n      add\n      tag_160\n      swap2\n      swap1\n      tag_40\n      jump\t// in\n    tag_160:\n      0x00\n      mload(0x40)\n      dup1\n      dup4\n      sub\n      dup2\n      0x00\n      dup8\n      dup1\n      extcodesize\n      iszero\n      dup1\n      iszero\n      tag_161\n      jumpi\n      0x00\n      dup1\n      revert\n    tag_161:\n      pop\n      gas\n      call\n      iszero\n      dup1\n      iszero\n      tag_163\n      jumpi\n      returndatasize\n      0x00\n      dup1\n      returndatacopy\n      revert(0x00, returndatasize)\n    tag_163:\n      pop\n      pop\n      pop\n      pop\n        /* \"contracts/CrossChainFishGame.sol\":4024:4044  bytes memory message */\n      0x00\n        /* \"contracts/CrossChainFishGame.sol\":4058:4068  msg.sender */\n      caller\n        /* \"contracts/CrossChainFishGame.sol\":4070:4076  fishId */\n      dup3\n        /* \"contracts/CrossChainFishGame.sol\":4047:4077  abi.encode(msg.sender, fishId) */\n      add(0x20, mload(0x40))\n      tag_164\n      swap3\n      swap2\n      swap1\n      tag_119\n      jump\t// in\n    tag_164:\n      mload(0x40)\n      0x20\n      dup2\n      dup4\n      sub\n      sub\n      dup2\n      mstore\n      swap1\n      0x40\n      mstore\n        /* \"contracts/CrossChainFishGame.sol\":4024:4077  bytes memory message = abi.encode(msg.sender, fishId) */\n      swap1\n      pop\n        /* \"contracts/CrossChainFishGame.sol\":4123:4140  bytes32 messageId */\n      0x00\n        /* \"contracts/CrossChainFishGame.sol\":4143:4159  hyperlaneMailbox */\n      0x04\n      0x00\n      swap1\n      sload\n      swap1\n      0x0100\n      exp\n      swap1\n      div\n      0xffffffffffffffffffffffffffffffffffffffff\n      and\n        /* \"contracts/CrossChainFishGame.sol\":4143:4168  hyperlaneMailbox.dispatch */\n      0xffffffffffffffffffffffffffffffffffffffff\n      and\n      0xfa31de01\n        /* \"contracts/CrossChainFishGame.sol\":4183:4199  destinationChain */\n      dup6\n        /* \"contracts/CrossChainFishGame.sol\":4214:4228  trustedRemotes */\n      0x06\n        /* \"contracts/CrossChainFishGame.sol\":4214:4246  trustedRemotes[destinationChain] */\n      0x00\n        /* \"contracts/CrossChainFishGame.sol\":4229:4245  destinationChain */\n      dup9\n        /* \"contracts/CrossChainFishGame.sol\":4214:4246  trustedRemotes[destinationChain] */\n      0xffffffff\n      and\n      0xffffffff\n      and\n      dup2\n      mstore\n      0x20\n      add\n      swap1\n      dup2\n      mstore\n      0x20\n      add\n      0x00\n      keccak256\n      sload\n        /* \"contracts/CrossChainFishGame.sol\":4261:4268  message */\n      dup6\n        /* \"contracts/CrossChainFishGame.sol\":4143:4279  hyperlaneMailbox.dispatch(... */\n      mload(0x40)\n      dup5\n      0xffffffff\n      and\n      0xe0\n      shl\n      dup2\n      mstore\n      0x04\n      add\n      tag_165\n      swap4\n      swap3\n      swap2\n      swap1\n      tag_166\n      jump\t// in\n    tag_165:\n      0x20\n      mload(0x40)\n      dup1\n      dup4\n      sub\n      dup2\n      0x00\n      dup8\n      gas\n      call\n      iszero\n      dup1\n      iszero\n      tag_168\n      jumpi\n      returndatasize\n      0x00\n      dup1\n      returndatacopy\n      revert(0x00, returndatasize)\n    tag_168:\n      pop\n      pop\n      pop\n      pop\n      mload(0x40)\n      returndatasize\n      not(0x1f)\n      0x1f\n      dup3\n      add\n      and\n      dup3\n      add\n      dup1\n      0x40\n      mstore\n      pop\n      dup2\n      add\n      swap1\n      tag_169\n      swap2\n      swap1\n      tag_170\n      jump\t// in\n    tag_169:\n        /* \"contracts/CrossChainFishGame.sol\":4123:4279  bytes32 messageId = hyperlaneMailbox.dispatch(... */\n      swap1\n      pop\n        /* \"contracts/CrossChainFishGame.sol\":4337:4354  uint256 gasAmount */\n      0x00\n        /* \"contracts/CrossChainFishGame.sol\":4357:4363  300000 */\n      0x0493e0\n        /* \"contracts/CrossChainFishGame.sol\":4337:4363  uint256 gasAmount = 300000 */\n      swap1\n      pop\n        /* \"contracts/CrossChainFishGame.sol\":4421:4434  uint256 quote */\n      0x00\n        /* \"contracts/CrossChainFishGame.sol\":4437:4440  igp */\n      0x05\n      0x00\n      swap1\n      sload\n      swap1\n      0x0100\n      exp\n      swap1\n      div\n      0xffffffffffffffffffffffffffffffffffffffff\n      and\n        /* \"contracts/CrossChainFishGame.sol\":4437:4456  igp.quoteGasPayment */\n      0xffffffffffffffffffffffffffffffffffffffff\n      and\n      0xa6929793\n        /* \"contracts/CrossChainFishGame.sol\":4457:4473  destinationChain */\n      dup8\n        /* \"contracts/CrossChainFishGame.sol\":4475:4484  gasAmount */\n      dup5\n        /* \"contracts/CrossChainFishGame.sol\":4437:4485  igp.quoteGasPayment(destinationChain, gasAmount) */\n      mload(0x40)\n      dup4\n      0xffffffff\n      and\n      0xe0\n      shl\n      dup2\n      mstore\n      0x04\n      add\n      tag_171\n      swap3\n      swap2\n      swap1\n      tag_172\n      jump\t// in\n    tag_171:\n      0x20\n      mload(0x40)\n      dup1\n      dup4\n      sub\n      dup2\n      dup7\n      gas\n      staticcall\n      iszero\n      dup1\n      iszero\n      tag_174\n      jumpi\n      returndatasize\n      0x00\n      dup1\n      returndatacopy\n      revert(0x00, returndatasize)\n    tag_174:\n      pop\n      pop\n      pop\n      pop\n      mload(0x40)\n      returndatasize\n      not(0x1f)\n      0x1f\n      dup3\n      add\n      and\n      dup3\n      add\n      dup1\n      0x40\n      mstore\n      pop\n      dup2\n      add\n      swap1\n      tag_175\n      swap2\n      swap1\n      tag_114\n      jump\t// in\n    tag_175:\n        /* \"contracts/CrossChainFishGame.sol\":4421:4485  uint256 quote = igp.quoteGasPayment(destinationChain, gasAmount) */\n      swap1\n      pop\n        /* \"contracts/CrossChainFishGame.sol\":4517:4522  quote */\n      dup1\n        /* \"contracts/CrossChainFishGame.sol\":4504:4513  msg.value */\n      callvalue\n        /* \"contracts/CrossChainFishGame.sol\":4504:4522  msg.value >= quote */\n      lt\n      iszero\n        /* \"contracts/CrossChainFishGame.sol\":4496:4562  require(msg.value >= quote, \"Insufficient interchain gas payment\") */\n      tag_176\n      jumpi\n      mload(0x40)\n      0x08c379a000000000000000000000000000000000000000000000000000000000\n      dup2\n      mstore\n      0x04\n      add\n      tag_177\n      swap1\n      tag_178\n      jump\t// in\n    tag_177:\n      mload(0x40)\n      dup1\n      swap2\n      sub\n      swap1\n      revert\n    tag_176:\n        /* \"contracts/CrossChainFishGame.sol\":4583:4586  igp */\n      0x05\n      0x00\n      swap1\n      sload\n      swap1\n      0x0100\n      exp\n      swap1\n      div\n      0xffffffffffffffffffffffffffffffffffffffff\n      and\n        /* \"contracts/CrossChainFishGame.sol\":4583:4596  igp.payForGas */\n      0xffffffffffffffffffffffffffffffffffffffff\n      and\n      0x11bf2c18\n        /* \"contracts/CrossChainFishGame.sol\":4604:4609  quote */\n      dup3\n        /* \"contracts/CrossChainFishGame.sol\":4625:4634  messageId */\n      dup6\n        /* \"contracts/CrossChainFishGame.sol\":4649:4665  destinationChain */\n      dup10\n        /* \"contracts/CrossChainFishGame.sol\":4680:4689  gasAmount */\n      dup7\n        /* \"contracts/CrossChainFishGame.sol\":4704:4714  msg.sender */\n      caller\n        /* \"contracts/CrossChainFishGame.sol\":4583:4725  igp.payForGas{value: quote}(... */\n      mload(0x40)\n      dup7\n      0xffffffff\n      and\n      0xe0\n      shl\n      dup2\n      mstore\n      0x04\n      add\n      tag_179\n      swap5\n      swap4\n      swap3\n      swap2\n      swap1\n      tag_180\n      jump\t// in\n    tag_179:\n      0x00\n      mload(0x40)\n      dup1\n      dup4\n      sub\n      dup2\n      dup6\n      dup9\n      dup1\n      extcodesize\n      iszero\n      dup1\n      iszero\n      tag_181\n      jumpi\n      0x00\n      dup1\n      revert\n    tag_181:\n      pop\n      gas\n      call\n      iszero\n      dup1\n      iszero\n      tag_183\n      jumpi\n      returndatasize\n      0x00\n      dup1\n      returndatacopy\n      revert(0x00, returndatasize)\n    tag_183:\n      pop\n      pop\n      pop\n      pop\n      pop\n        /* \"contracts/CrossChainFishGame.sol\":4754:4759  quote */\n      dup1\n        /* \"contracts/CrossChainFishGame.sol\":4742:4751  msg.value */\n      callvalue\n        /* \"contracts/CrossChainFishGame.sol\":4742:4759  msg.value > quote */\n      gt\n        /* \"contracts/CrossChainFishGame.sol\":4738:4873  if (msg.value > quote) {... */\n      iszero\n      tag_184\n      jumpi\n        /* \"contracts/CrossChainFishGame.sol\":4822:4832  msg.sender */\n      caller\n        /* \"contracts/CrossChainFishGame.sol\":4814:4842  payable(msg.sender).transfer */\n      0xffffffffffffffffffffffffffffffffffffffff\n      and\n        /* \"contracts/CrossChainFishGame.sol\":4814:4861  payable(msg.sender).transfer(msg.value - quote) */\n      0x08fc\n        /* \"contracts/CrossChainFishGame.sol\":4855:4860  quote */\n      dup3\n        /* \"contracts/CrossChainFishGame.sol\":4843:4852  msg.value */\n      callvalue\n        /* \"contracts/CrossChainFishGame.sol\":4843:4860  msg.value - quote */\n      tag_185\n      swap2\n      swap1\n      tag_102\n      jump\t// in\n    tag_185:\n        /* \"contracts/CrossChainFishGame.sol\":4814:4861  payable(msg.sender).transfer(msg.value - quote) */\n      swap1\n      dup2\n      iszero\n      mul\n      swap1\n      mload(0x40)\n      0x00\n      mload(0x40)\n      dup1\n      dup4\n      sub\n      dup2\n      dup6\n      dup9\n      dup9\n      call\n      swap4\n      pop\n      pop\n      pop\n      pop\n      iszero\n      dup1\n      iszero\n      tag_187\n      jumpi\n      returndatasize\n      0x00\n      dup1\n      returndatacopy\n      revert(0x00, returndatasize)\n    tag_187:\n      pop\n        /* \"contracts/CrossChainFishGame.sol\":4738:4873  if (msg.value > quote) {... */\n    tag_184:\n        /* \"contracts/CrossChainFishGame.sol\":4890:4949  CrossChainInteraction(destinationChain, msg.sender, fishId) */\n      0x89f6d4f38490c20591252d044c714d8b7865b86278d85fef20cd3b6f37ab5bda\n        /* \"contracts/CrossChainFishGame.sol\":4912:4928  destinationChain */\n      dup7\n        /* \"contracts/CrossChainFishGame.sol\":4930:4940  msg.sender */\n      caller\n        /* \"contracts/CrossChainFishGame.sol\":4942:4948  fishId */\n      dup8\n        /* \"contracts/CrossChainFishGame.sol\":4890:4949  CrossChainInteraction(destinationChain, msg.sender, fishId) */\n      mload(0x40)\n      tag_188\n      swap4\n      swap3\n      swap2\n      swap1\n      tag_189\n      jump\t// in\n    tag_188:\n      mload(0x40)\n      dup1\n      swap2\n      sub\n      swap1\n      log1\n        /* \"contracts/CrossChainFishGame.sol\":3782:4957  {... */\n      pop\n      pop\n      pop\n      pop\n        /* \"@openzeppelin/contracts/security/ReentrancyGuard.sol\":2303:2323  _nonReentrantAfter() */\n      tag_190\n        /* \"@openzeppelin/contracts/security/ReentrancyGuard.sol\":2303:2321  _nonReentrantAfter */\n      tag_144\n        /* \"@openzeppelin/contracts/security/ReentrancyGuard.sol\":2303:2323  _nonReentrantAfter() */\n      jump\t// in\n    tag_190:\n        /* \"contracts/CrossChainFishGame.sol\":3688:4957  function crossChainEat(uint32 destinationChain, uint256 fishId) external payable nonReentrant {... */\n      pop\n      pop\n      jump\t// out\n        /* \"contracts/CrossChainFishGame.sol\":4965:5990  function handle(... */\n    tag_53:\n        /* \"contracts/CrossChainFishGame.sol\":5128:5144  hyperlaneMailbox */\n      0x04\n      0x00\n      swap1\n      sload\n      swap1\n      0x0100\n      exp\n      swap1\n      div\n      0xffffffffffffffffffffffffffffffffffffffff\n      and\n        /* \"contracts/CrossChainFishGame.sol\":5106:5145  msg.sender == address(hyperlaneMailbox) */\n      0xffffffffffffffffffffffffffffffffffffffff\n      and\n        /* \"contracts/CrossChainFishGame.sol\":5106:5116  msg.sender */\n      caller\n        /* \"contracts/CrossChainFishGame.sol\":5106:5145  msg.sender == address(hyperlaneMailbox) */\n      0xffffffffffffffffffffffffffffffffffffffff\n      and\n      eq\n        /* \"contracts/CrossChainFishGame.sol\":5098:5171  require(msg.sender == address(hyperlaneMailbox), \"Only mailbox can call\") */\n      tag_192\n      jumpi\n      mload(0x40)\n      0x08c379a000000000000000000000000000000000000000000000000000000000\n      dup2\n      mstore\n      0x04\n      add\n      tag_193\n      swap1\n      tag_194\n      jump\t// in\n    tag_193:\n      mload(0x40)\n      dup1\n      swap2\n      sub\n      swap1\n      revert\n    tag_192:\n        /* \"contracts/CrossChainFishGame.sol\":5201:5215  trustedRemotes */\n      0x06\n        /* \"contracts/CrossChainFishGame.sol\":5201:5224  trustedRemotes[_origin] */\n      0x00\n        /* \"contracts/CrossChainFishGame.sol\":5216:5223  _origin */\n      dup6\n        /* \"contracts/CrossChainFishGame.sol\":5201:5224  trustedRemotes[_origin] */\n      0xffffffff\n      and\n      0xffffffff\n      and\n      dup2\n      mstore\n      0x20\n      add\n      swap1\n      dup2\n      mstore\n      0x20\n      add\n      0x00\n      keccak256\n      sload\n        /* \"contracts/CrossChainFishGame.sol\":5190:5197  _sender */\n      dup4\n        /* \"contracts/CrossChainFishGame.sol\":5190:5224  _sender == trustedRemotes[_origin] */\n      eq\n        /* \"contracts/CrossChainFishGame.sol\":5182:5249  require(_sender == trustedRemotes[_origin], \"Not a trusted remote\") */\n      tag_195\n      jumpi\n      mload(0x40)\n      0x08c379a000000000000000000000000000000000000000000000000000000000\n      dup2\n      mstore\n      0x04\n      add\n      tag_196\n      swap1\n      tag_197\n      jump\t// in\n    tag_196:\n      mload(0x40)\n      dup1\n      swap2\n      sub\n      swap1\n      revert\n    tag_195:\n        /* \"contracts/CrossChainFishGame.sol\":5263:5277  address player */\n      0x00\n        /* \"contracts/CrossChainFishGame.sol\":5279:5293  uint256 fishId */\n      dup1\n        /* \"contracts/CrossChainFishGame.sol\":5308:5313  _body */\n      dup4\n      dup4\n        /* \"contracts/CrossChainFishGame.sol\":5297:5334  abi.decode(_body, (address, uint256)) */\n      dup2\n      add\n      swap1\n      tag_198\n      swap2\n      swap1\n      tag_199\n      jump\t// in\n    tag_198:\n        /* \"contracts/CrossChainFishGame.sol\":5262:5334  (address player, uint256 fishId) = abi.decode(_body, (address, uint256)) */\n      swap2\n      pop\n      swap2\n      pop\n        /* \"contracts/CrossChainFishGame.sol\":5409:5430  string memory species */\n      0x00\n        /* \"contracts/CrossChainFishGame.sol\":5432:5444  uint256 size */\n      dup1\n        /* \"contracts/CrossChainFishGame.sol\":5446:5460  uint256 rarity */\n      0x00\n        /* \"contracts/CrossChainFishGame.sol\":5464:5489  _generateFishAttributes() */\n      tag_200\n        /* \"contracts/CrossChainFishGame.sol\":5464:5487  _generateFishAttributes */\n      tag_201\n        /* \"contracts/CrossChainFishGame.sol\":5464:5489  _generateFishAttributes() */\n      jump\t// in\n    tag_200:\n        /* \"contracts/CrossChainFishGame.sol\":5408:5489  (string memory species, uint256 size, uint256 rarity) = _generateFishAttributes() */\n      swap3\n      pop\n      swap3\n      pop\n      swap3\n      pop\n        /* \"contracts/CrossChainFishGame.sol\":5500:5507  fishNFT */\n      0x03\n      0x00\n      swap1\n      sload\n      swap1\n      0x0100\n      exp\n      swap1\n      div\n      0xffffffffffffffffffffffffffffffffffffffff\n      and\n        /* \"contracts/CrossChainFishGame.sol\":5500:5517  fishNFT.catchFish */\n      0xffffffffffffffffffffffffffffffffffffffff\n      and\n      0xd0a5f756\n        /* \"contracts/CrossChainFishGame.sol\":5518:5524  player */\n      dup7\n        /* \"contracts/CrossChainFishGame.sol\":5526:5533  species */\n      dup6\n        /* \"contracts/CrossChainFishGame.sol\":5535:5539  size */\n      dup6\n        /* \"contracts/CrossChainFishGame.sol\":5541:5547  rarity */\n      dup6\n        /* \"contracts/CrossChainFishGame.sol\":5500:5548  fishNFT.catchFish(player, species, size, rarity) */\n      mload(0x40)\n      dup6\n      0xffffffff\n      and\n      0xe0\n      shl\n      dup2\n      mstore\n      0x04\n      add\n      tag_202\n      swap5\n      swap4\n      swap3\n      swap2\n      swap1\n      tag_203\n      jump\t// in\n    tag_202:\n      0x00\n      mload(0x40)\n      dup1\n      dup4\n      sub\n      dup2\n      0x00\n      dup8\n      dup1\n      extcodesize\n      iszero\n      dup1\n      iszero\n      tag_204\n      jumpi\n      0x00\n      dup1\n      revert\n    tag_204:\n      pop\n      gas\n      call\n      iszero\n      dup1\n      iszero\n      tag_206\n      jumpi\n      returndatasize\n      0x00\n      dup1\n      returndatacopy\n      revert(0x00, returndatasize)\n    tag_206:\n      pop\n      pop\n      pop\n      pop\n        /* \"contracts/CrossChainFishGame.sol\":5600:5629  GameState storage playerState */\n      0x00\n        /* \"contracts/CrossChainFishGame.sol\":5632:5644  playerStates */\n      0x07\n        /* \"contracts/CrossChainFishGame.sol\":5632:5652  playerStates[player] */\n      0x00\n        /* \"contracts/CrossChainFishGame.sol\":5645:5651  player */\n      dup8\n        /* \"contracts/CrossChainFishGame.sol\":5632:5652  playerStates[player] */\n      0xffffffffffffffffffffffffffffffffffffffff\n      and\n      0xffffffffffffffffffffffffffffffffffffffff\n      and\n      dup2\n      mstore\n      0x20\n      add\n      swap1\n      dup2\n      mstore\n      0x20\n      add\n      0x00\n      keccak256\n        /* \"contracts/CrossChainFishGame.sol\":5600:5652  GameState storage playerState = playerStates[player] */\n      swap1\n      pop\n        /* \"contracts/CrossChainFishGame.sol\":5697:5699  10 */\n      0x0a\n        /* \"contracts/CrossChainFishGame.sol\":5690:5694  size */\n      dup4\n        /* \"contracts/CrossChainFishGame.sol\":5690:5699  size * 10 */\n      tag_207\n      swap2\n      swap1\n      tag_109\n      jump\t// in\n    tag_207:\n        /* \"contracts/CrossChainFishGame.sol\":5663:5674  playerState */\n      dup2\n        /* \"contracts/CrossChainFishGame.sol\":5663:5686  playerState.playerScore */\n      0x00\n      add\n      0x00\n        /* \"contracts/CrossChainFishGame.sol\":5663:5699  playerState.playerScore += size * 10 */\n      dup3\n      dup3\n      sload\n      tag_208\n      swap2\n      swap1\n      tag_107\n      jump\t// in\n    tag_208:\n      swap3\n      pop\n      pop\n      dup2\n      swap1\n      sstore\n      pop\n        /* \"contracts/CrossChainFishGame.sol\":5798:5804  10**18 */\n      0x0de0b6b3a7640000\n        /* \"contracts/CrossChainFishGame.sol\":5792:5795  100 */\n      0x64\n        /* \"contracts/CrossChainFishGame.sol\":5769:5780  playerState */\n      dup3\n        /* \"contracts/CrossChainFishGame.sol\":5769:5789  playerState.fishSize */\n      0x01\n      add\n      sload\n        /* \"contracts/CrossChainFishGame.sol\":5769:5795  playerState.fishSize * 100 */\n      tag_209\n      swap2\n      swap1\n      tag_109\n      jump\t// in\n    tag_209:\n        /* \"contracts/CrossChainFishGame.sol\":5769:5804  playerState.fishSize * 100 * 10**18 */\n      tag_210\n      swap2\n      swap1\n      tag_109\n      jump\t// in\n    tag_210:\n        /* \"contracts/CrossChainFishGame.sol\":5742:5753  playerState */\n      dup2\n        /* \"contracts/CrossChainFishGame.sol\":5742:5765  playerState.playerScore */\n      0x00\n      add\n      sload\n        /* \"contracts/CrossChainFishGame.sol\":5742:5804  playerState.playerScore >= playerState.fishSize * 100 * 10**18 */\n      lt\n        /* \"contracts/CrossChainFishGame.sol\":5738:5919  if (playerState.playerScore >= playerState.fishSize * 100 * 10**18) {... */\n      tag_211\n      jumpi\n        /* \"contracts/CrossChainFishGame.sol\":5845:5846  1 */\n      0x01\n        /* \"contracts/CrossChainFishGame.sol\":5821:5832  playerState */\n      dup2\n        /* \"contracts/CrossChainFishGame.sol\":5821:5841  playerState.fishSize */\n      0x01\n      add\n      0x00\n        /* \"contracts/CrossChainFishGame.sol\":5821:5846  playerState.fishSize += 1 */\n      dup3\n      dup3\n      sload\n      tag_212\n      swap2\n      swap1\n      tag_107\n      jump\t// in\n    tag_212:\n      swap3\n      pop\n      pop\n      dup2\n      swap1\n      sstore\n      pop\n        /* \"contracts/CrossChainFishGame.sol\":5878:5884  player */\n      dup6\n        /* \"contracts/CrossChainFishGame.sol\":5866:5907  PlayerGrown(player, playerState.fishSize) */\n      0xffffffffffffffffffffffffffffffffffffffff\n      and\n      0xdee7109003cf6cd3cb1b552819b438487a03ca336b5dfb3d823fcd9174549be6\n        /* \"contracts/CrossChainFishGame.sol\":5886:5897  playerState */\n      dup3\n        /* \"contracts/CrossChainFishGame.sol\":5886:5906  playerState.fishSize */\n      0x01\n      add\n      sload\n        /* \"contracts/CrossChainFishGame.sol\":5866:5907  PlayerGrown(player, playerState.fishSize) */\n      mload(0x40)\n      tag_213\n      swap2\n      swap1\n      tag_40\n      jump\t// in\n    tag_213:\n      mload(0x40)\n      dup1\n      swap2\n      sub\n      swap1\n      log2\n        /* \"contracts/CrossChainFishGame.sol\":5738:5919  if (playerState.playerScore >= playerState.fishSize * 100 * 10**18) {... */\n    tag_211:\n        /* \"contracts/CrossChainFishGame.sol\":5936:5982  CrossChainInteraction(_origin, player, fishId) */\n      0x89f6d4f38490c20591252d044c714d8b7865b86278d85fef20cd3b6f37ab5bda\n        /* \"contracts/CrossChainFishGame.sol\":5958:5965  _origin */\n      dup11\n        /* \"contracts/CrossChainFishGame.sol\":5967:5973  player */\n      dup8\n        /* \"contracts/CrossChainFishGame.sol\":5975:5981  fishId */\n      dup8\n        /* \"contracts/CrossChainFishGame.sol\":5936:5982  CrossChainInteraction(_origin, player, fishId) */\n      mload(0x40)\n      tag_214\n      swap4\n      swap3\n      swap2\n      swap1\n      tag_189\n      jump\t// in\n    tag_214:\n      mload(0x40)\n      dup1\n      swap2\n      sub\n      swap1\n      log1\n        /* \"contracts/CrossChainFishGame.sol\":5087:5990  {... */\n      pop\n      pop\n      pop\n      pop\n      pop\n      pop\n        /* \"contracts/CrossChainFishGame.sol\":4965:5990  function handle(... */\n      pop\n      pop\n      pop\n      pop\n      jump\t// out\n        /* \"contracts/CrossChainFishGame.sol\":1148:1200  uint256 public constant BASE_FISH_COST = 10 * 10**18 */\n    tag_56:\n        /* \"contracts/CrossChainFishGame.sol\":1189:1200  10 * 10**18 */\n      0x8ac7230489e80000\n        /* \"contracts/CrossChainFishGame.sol\":1148:1200  uint256 public constant BASE_FISH_COST = 10 * 10**18 */\n      dup2\n      jump\t// out\n        /* \"@openzeppelin/contracts/access/Ownable.sol\":2293:2394  function renounceOwnership() public virtual onlyOwner {... */\n    tag_60:\n        /* \"@openzeppelin/contracts/access/Ownable.sol\":1531:1544  _checkOwner() */\n      tag_216\n        /* \"@openzeppelin/contracts/access/Ownable.sol\":1531:1542  _checkOwner */\n      tag_147\n        /* \"@openzeppelin/contracts/access/Ownable.sol\":1531:1544  _checkOwner() */\n      jump\t// in\n    tag_216:\n        /* \"@openzeppelin/contracts/access/Ownable.sol\":2357:2387  _transferOwnership(address(0)) */\n      tag_218\n        /* \"@openzeppelin/contracts/access/Ownable.sol\":2384:2385  0 */\n      0x00\n        /* \"@openzeppelin/contracts/access/Ownable.sol\":2357:2375  _transferOwnership */\n      tag_219\n        /* \"@openzeppelin/contracts/access/Ownable.sol\":2357:2387  _transferOwnership(address(0)) */\n      jump\t// in\n    tag_218:\n        /* \"@openzeppelin/contracts/access/Ownable.sol\":2293:2394  function renounceOwnership() public virtual onlyOwner {... */\n      jump\t// out\n        /* \"@openzeppelin/contracts/access/Ownable.sol\":1638:1723  function owner() public view virtual returns (address) {... */\n    tag_63:\n        /* \"@openzeppelin/contracts/access/Ownable.sol\":1684:1691  address */\n      0x00\n        /* \"@openzeppelin/contracts/access/Ownable.sol\":1710:1716  _owner */\n      dup1\n      0x00\n      swap1\n      sload\n      swap1\n      0x0100\n      exp\n      swap1\n      div\n      0xffffffffffffffffffffffffffffffffffffffff\n      and\n        /* \"@openzeppelin/contracts/access/Ownable.sol\":1703:1716  return _owner */\n      swap1\n      pop\n        /* \"@openzeppelin/contracts/access/Ownable.sol\":1638:1723  function owner() public view virtual returns (address) {... */\n      swap1\n      jump\t// out\n        /* \"contracts/CrossChainFishGame.sol\":971:998  IFishGameNFT public fishNFT */\n    tag_68:\n      0x03\n      0x00\n      swap1\n      sload\n      swap1\n      0x0100\n      exp\n      swap1\n      div\n      0xffffffffffffffffffffffffffffffffffffffff\n      and\n      dup2\n      jump\t// out\n        /* \"contracts/CrossChainFishGame.sol\":6995:7168  function withdrawERC20(address tokenAddress, uint256 amount) external onlyOwner {... */\n    tag_75:\n        /* \"@openzeppelin/contracts/access/Ownable.sol\":1531:1544  _checkOwner() */\n      tag_222\n        /* \"@openzeppelin/contracts/access/Ownable.sol\":1531:1542  _checkOwner */\n      tag_147\n        /* \"@openzeppelin/contracts/access/Ownable.sol\":1531:1544  _checkOwner() */\n      jump\t// in\n    tag_222:\n        /* \"contracts/CrossChainFishGame.sol\":7101:7113  tokenAddress */\n      dup2\n        /* \"contracts/CrossChainFishGame.sol\":7094:7123  IERC20(tokenAddress).transfer */\n      0xffffffffffffffffffffffffffffffffffffffff\n      and\n      0xa9059cbb\n        /* \"contracts/CrossChainFishGame.sol\":7124:7131  owner() */\n      tag_224\n        /* \"contracts/CrossChainFishGame.sol\":7124:7129  owner */\n      tag_63\n        /* \"contracts/CrossChainFishGame.sol\":7124:7131  owner() */\n      jump\t// in\n    tag_224:\n        /* \"contracts/CrossChainFishGame.sol\":7133:7139  amount */\n      dup4\n        /* \"contracts/CrossChainFishGame.sol\":7094:7140  IERC20(tokenAddress).transfer(owner(), amount) */\n      mload(0x40)\n      dup4\n      0xffffffff\n      and\n      0xe0\n      shl\n      dup2\n      mstore\n      0x04\n      add\n      tag_225\n      swap3\n      swap2\n      swap1\n      tag_119\n      jump\t// in\n    tag_225:\n      0x20\n      mload(0x40)\n      dup1\n      dup4\n      sub\n      dup2\n      0x00\n      dup8\n      gas\n      call\n      iszero\n      dup1\n      iszero\n      tag_227\n      jumpi\n      returndatasize\n      0x00\n      dup1\n      returndatacopy\n      revert(0x00, returndatasize)\n    tag_227:\n      pop\n      pop\n      pop\n      pop\n      mload(0x40)\n      returndatasize\n      not(0x1f)\n      0x1f\n      dup3\n      add\n      and\n      dup3\n      add\n      dup1\n      0x40\n      mstore\n      pop\n      dup2\n      add\n      swap1\n      tag_228\n      swap2\n      swap1\n      tag_229\n      jump\t// in\n    tag_228:\n        /* \"contracts/CrossChainFishGame.sol\":7086:7160  require(IERC20(tokenAddress).transfer(owner(), amount), \"Transfer failed\") */\n      tag_230\n      jumpi\n      mload(0x40)\n      0x08c379a000000000000000000000000000000000000000000000000000000000\n      dup2\n      mstore\n      0x04\n      add\n      tag_231\n      swap1\n      tag_232\n      jump\t// in\n    tag_231:\n      mload(0x40)\n      dup1\n      swap2\n      sub\n      swap1\n      revert\n    tag_230:\n        /* \"contracts/CrossChainFishGame.sol\":6995:7168  function withdrawERC20(address tokenAddress, uint256 amount) external onlyOwner {... */\n      pop\n      pop\n      jump\t// out\n        /* \"contracts/CrossChainFishGame.sol\":1417:1466  mapping(address => GameState) public playerStates */\n    tag_80:\n      mstore(0x20, 0x07)\n      dup1\n      0x00\n      mstore\n      keccak256(0x00, 0x40)\n      0x00\n      swap2\n      pop\n      swap1\n      pop\n      dup1\n      0x00\n      add\n      sload\n      swap1\n      dup1\n      0x01\n      add\n      sload\n      swap1\n      dup1\n      0x02\n      add\n      sload\n      swap1\n      pop\n      dup4\n      jump\t// out\n        /* \"contracts/CrossChainFishGame.sol\":1044:1078  IInterchainGasPaymaster public igp */\n    tag_85:\n      0x05\n      0x00\n      swap1\n      sload\n      swap1\n      0x0100\n      exp\n      swap1\n      div\n      0xffffffffffffffffffffffffffffffffffffffff\n      and\n      dup2\n      jump\t// out\n        /* \"@openzeppelin/contracts/access/Ownable.sol\":2543:2758  function transferOwnership(address newOwner) public virtual onlyOwner {... */\n    tag_91:\n        /* \"@openzeppelin/contracts/access/Ownable.sol\":1531:1544  _checkOwner() */\n      tag_234\n        /* \"@openzeppelin/contracts/access/Ownable.sol\":1531:1542  _checkOwner */\n      tag_147\n        /* \"@openzeppelin/contracts/access/Ownable.sol\":1531:1544  _checkOwner() */\n      jump\t// in\n    tag_234:\n        /* \"@openzeppelin/contracts/access/Ownable.sol\":2647:2648  0 */\n      0x00\n        /* \"@openzeppelin/contracts/access/Ownable.sol\":2627:2649  newOwner == address(0) */\n      0xffffffffffffffffffffffffffffffffffffffff\n      and\n        /* \"@openzeppelin/contracts/access/Ownable.sol\":2627:2635  newOwner */\n      dup2\n        /* \"@openzeppelin/contracts/access/Ownable.sol\":2627:2649  newOwner == address(0) */\n      0xffffffffffffffffffffffffffffffffffffffff\n      and\n      sub\n        /* \"@openzeppelin/contracts/access/Ownable.sol\":2623:2714  if (newOwner == address(0)) {... */\n      tag_236\n      jumpi\n        /* \"@openzeppelin/contracts/access/Ownable.sol\":2700:2701  0 */\n      0x00\n        /* \"@openzeppelin/contracts/access/Ownable.sol\":2672:2703  OwnableInvalidOwner(address(0)) */\n      mload(0x40)\n      0x1e4fbdf700000000000000000000000000000000000000000000000000000000\n      dup2\n      mstore\n      0x04\n      add\n      tag_237\n      swap2\n      swap1\n      tag_65\n      jump\t// in\n    tag_237:\n      mload(0x40)\n      dup1\n      swap2\n      sub\n      swap1\n      revert\n        /* \"@openzeppelin/contracts/access/Ownable.sol\":2623:2714  if (newOwner == address(0)) {... */\n    tag_236:\n        /* \"@openzeppelin/contracts/access/Ownable.sol\":2723:2751  _transferOwnership(newOwner) */\n      tag_238\n        /* \"@openzeppelin/contracts/access/Ownable.sol\":2742:2750  newOwner */\n      dup2\n        /* \"@openzeppelin/contracts/access/Ownable.sol\":2723:2741  _transferOwnership */\n      tag_219\n        /* \"@openzeppelin/contracts/access/Ownable.sol\":2723:2751  _transferOwnership(newOwner) */\n      jump\t// in\n    tag_238:\n        /* \"@openzeppelin/contracts/access/Ownable.sol\":2543:2758  function transferOwnership(address newOwner) public virtual onlyOwner {... */\n      pop\n      jump\t// out\n        /* \"contracts/CrossChainFishGame.sol\":933:964  IERC20Reward public rewardToken */\n    tag_94:\n      0x02\n      0x00\n      swap1\n      sload\n      swap1\n      0x0100\n      exp\n      swap1\n      div\n      0xffffffffffffffffffffffffffffffffffffffff\n      and\n      dup2\n      jump\t// out\n        /* \"@openzeppelin/contracts/security/ReentrancyGuard.sol\":2336:2623  function _nonReentrantBefore() private {... */\n    tag_99:\n        /* \"@openzeppelin/contracts/security/ReentrancyGuard.sol\":1759:1760  2 */\n      0x02\n        /* \"@openzeppelin/contracts/security/ReentrancyGuard.sol\":2468:2475  _status */\n      sload(0x01)\n        /* \"@openzeppelin/contracts/security/ReentrancyGuard.sol\":2468:2487  _status != _ENTERED */\n      sub\n        /* \"@openzeppelin/contracts/security/ReentrancyGuard.sol\":2460:2523  require(_status != _ENTERED, \"ReentrancyGuard: reentrant call\") */\n      tag_240\n      jumpi\n      mload(0x40)\n      0x08c379a000000000000000000000000000000000000000000000000000000000\n      dup2\n      mstore\n      0x04\n      add\n      tag_241\n      swap1\n      tag_242\n      jump\t// in\n    tag_241:\n      mload(0x40)\n      dup1\n      swap2\n      sub\n      swap1\n      revert\n    tag_240:\n        /* \"@openzeppelin/contracts/security/ReentrancyGuard.sol\":1759:1760  2 */\n      0x02\n        /* \"@openzeppelin/contracts/security/ReentrancyGuard.sol\":2598:2605  _status */\n      0x01\n        /* \"@openzeppelin/contracts/security/ReentrancyGuard.sol\":2598:2616  _status = _ENTERED */\n      dup2\n      swap1\n      sstore\n      pop\n        /* \"@openzeppelin/contracts/security/ReentrancyGuard.sol\":2336:2623  function _nonReentrantBefore() private {... */\n      jump\t// out\n        /* \"contracts/CrossChainFishGame.sol\":5998:6283  function _generateTargetFishSize(uint256 playerSize) internal view returns (uint256) {... */\n    tag_124:\n        /* \"contracts/CrossChainFishGame.sol\":6074:6081  uint256 */\n      0x00\n        /* \"contracts/CrossChainFishGame.sol\":6094:6106  uint256 rand */\n      dup1\n        /* \"contracts/CrossChainFishGame.sol\":6144:6159  block.timestamp */\n      timestamp\n        /* \"contracts/CrossChainFishGame.sol\":6161:6171  msg.sender */\n      caller\n        /* \"contracts/CrossChainFishGame.sol\":6173:6183  playerSize */\n      dup5\n        /* \"contracts/CrossChainFishGame.sol\":6127:6184  abi.encodePacked(block.timestamp, msg.sender, playerSize) */\n      add(0x20, mload(0x40))\n      tag_244\n      swap4\n      swap3\n      swap2\n      swap1\n      tag_245\n      jump\t// in\n    tag_244:\n      mload(0x40)\n      0x20\n      dup2\n      dup4\n      sub\n      sub\n      dup2\n      mstore\n      swap1\n      0x40\n      mstore\n        /* \"contracts/CrossChainFishGame.sol\":6117:6185  keccak256(abi.encodePacked(block.timestamp, msg.sender, playerSize)) */\n      dup1\n      mload\n      swap1\n      0x20\n      add\n      keccak256\n        /* \"contracts/CrossChainFishGame.sol\":6109:6186  uint256(keccak256(abi.encodePacked(block.timestamp, msg.sender, playerSize))) */\n      0x00\n      shr\n        /* \"contracts/CrossChainFishGame.sol\":6094:6186  uint256 rand = uint256(keccak256(abi.encodePacked(block.timestamp, msg.sender, playerSize))) */\n      swap1\n      pop\n        /* \"contracts/CrossChainFishGame.sol\":6232:6233  1 */\n      0x01\n        /* \"contracts/CrossChainFishGame.sol\":6226:6227  2 */\n      0x02\n        /* \"contracts/CrossChainFishGame.sol\":6213:6223  playerSize */\n      dup5\n        /* \"contracts/CrossChainFishGame.sol\":6213:6227  playerSize * 2 */\n      tag_246\n      swap2\n      swap1\n      tag_109\n      jump\t// in\n    tag_246:\n        /* \"contracts/CrossChainFishGame.sol\":6205:6209  rand */\n      dup3\n        /* \"contracts/CrossChainFishGame.sol\":6205:6228  rand % (playerSize * 2) */\n      tag_247\n      swap2\n      swap1\n      tag_248\n      jump\t// in\n    tag_247:\n        /* \"contracts/CrossChainFishGame.sol\":6204:6233  (rand % (playerSize * 2)) + 1 */\n      tag_249\n      swap2\n      swap1\n      tag_107\n      jump\t// in\n    tag_249:\n        /* \"contracts/CrossChainFishGame.sol\":6197:6233  return (rand % (playerSize * 2)) + 1 */\n      swap2\n      pop\n      pop\n        /* \"contracts/CrossChainFishGame.sol\":5998:6283  function _generateTargetFishSize(uint256 playerSize) internal view returns (uint256) {... */\n      swap2\n      swap1\n      pop\n      jump\t// out\n        /* \"contracts/CrossChainFishGame.sol\":6291:6415  function _calculateReward(uint256 fishSize) internal pure returns (uint256) {... */\n    tag_127:\n        /* \"contracts/CrossChainFishGame.sol\":6358:6365  uint256 */\n      0x00\n        /* \"contracts/CrossChainFishGame.sol\":6399:6407  fishSize */\n      dup2\n        /* \"contracts/CrossChainFishGame.sol\":1258:1268  5 * 10**18 */\n      0x4563918244f40000\n        /* \"contracts/CrossChainFishGame.sol\":6385:6407  BASE_REWARD * fishSize */\n      tag_251\n      swap2\n      swap1\n      tag_109\n      jump\t// in\n    tag_251:\n        /* \"contracts/CrossChainFishGame.sol\":6378:6407  return BASE_REWARD * fishSize */\n      swap1\n      pop\n        /* \"contracts/CrossChainFishGame.sol\":6291:6415  function _calculateReward(uint256 fishSize) internal pure returns (uint256) {... */\n      swap2\n      swap1\n      pop\n      jump\t// out\n        /* \"@openzeppelin/contracts/security/ReentrancyGuard.sol\":2629:2838  function _nonReentrantAfter() private {... */\n    tag_144:\n        /* \"@openzeppelin/contracts/security/ReentrancyGuard.sol\":1716:1717  1 */\n      0x01\n        /* \"@openzeppelin/contracts/security/ReentrancyGuard.sol\":2809:2816  _status */\n      dup1\n        /* \"@openzeppelin/contracts/security/ReentrancyGuard.sol\":2809:2831  _status = _NOT_ENTERED */\n      dup2\n      swap1\n      sstore\n      pop\n        /* \"@openzeppelin/contracts/security/ReentrancyGuard.sol\":2629:2838  function _nonReentrantAfter() private {... */\n      jump\t// out\n        /* \"@openzeppelin/contracts/access/Ownable.sol\":1796:1958  function _checkOwner() internal view virtual {... */\n    tag_147:\n        /* \"@openzeppelin/contracts/access/Ownable.sol\":1866:1878  _msgSender() */\n      tag_254\n        /* \"@openzeppelin/contracts/access/Ownable.sol\":1866:1876  _msgSender */\n      tag_255\n        /* \"@openzeppelin/contracts/access/Ownable.sol\":1866:1878  _msgSender() */\n      jump\t// in\n    tag_254:\n        /* \"@openzeppelin/contracts/access/Ownable.sol\":1855:1878  owner() != _msgSender() */\n      0xffffffffffffffffffffffffffffffffffffffff\n      and\n        /* \"@openzeppelin/contracts/access/Ownable.sol\":1855:1862  owner() */\n      tag_256\n        /* \"@openzeppelin/contracts/access/Ownable.sol\":1855:1860  owner */\n      tag_63\n        /* \"@openzeppelin/contracts/access/Ownable.sol\":1855:1862  owner() */\n      jump\t// in\n    tag_256:\n        /* \"@openzeppelin/contracts/access/Ownable.sol\":1855:1878  owner() != _msgSender() */\n      0xffffffffffffffffffffffffffffffffffffffff\n      and\n      eq\n        /* \"@openzeppelin/contracts/access/Ownable.sol\":1851:1952  if (owner() != _msgSender()) {... */\n      tag_257\n      jumpi\n        /* \"@openzeppelin/contracts/access/Ownable.sol\":1928:1940  _msgSender() */\n      tag_258\n        /* \"@openzeppelin/contracts/access/Ownable.sol\":1928:1938  _msgSender */\n      tag_255\n        /* \"@openzeppelin/contracts/access/Ownable.sol\":1928:1940  _msgSender() */\n      jump\t// in\n    tag_258:\n        /* \"@openzeppelin/contracts/access/Ownable.sol\":1901:1941  OwnableUnauthorizedAccount(_msgSender()) */\n      mload(0x40)\n      0x118cdaa700000000000000000000000000000000000000000000000000000000\n      dup2\n      mstore\n      0x04\n      add\n      tag_259\n      swap2\n      swap1\n      tag_65\n      jump\t// in\n    tag_259:\n      mload(0x40)\n      dup1\n      swap2\n      sub\n      swap1\n      revert\n        /* \"@openzeppelin/contracts/access/Ownable.sol\":1851:1952  if (owner() != _msgSender()) {... */\n    tag_257:\n        /* \"@openzeppelin/contracts/access/Ownable.sol\":1796:1958  function _checkOwner() internal view virtual {... */\n      jump\t// out\n        /* \"contracts/CrossChainFishGame.sol\":6423:6929  function _generateFishAttributes() internal view returns (string memory, uint256, uint256) {... */\n    tag_201:\n        /* \"contracts/CrossChainFishGame.sol\":6481:6494  string memory */\n      0x60\n        /* \"contracts/CrossChainFishGame.sol\":6496:6503  uint256 */\n      0x00\n        /* \"contracts/CrossChainFishGame.sol\":6505:6512  uint256 */\n      dup1\n        /* \"contracts/CrossChainFishGame.sol\":6525:6537  uint256 rand */\n      0x00\n        /* \"contracts/CrossChainFishGame.sol\":6575:6590  block.timestamp */\n      timestamp\n        /* \"contracts/CrossChainFishGame.sol\":6592:6602  msg.sender */\n      caller\n        /* \"contracts/CrossChainFishGame.sol\":6558:6603  abi.encodePacked(block.timestamp, msg.sender) */\n      add(0x20, mload(0x40))\n      tag_261\n      swap3\n      swap2\n      swap1\n      tag_262\n      jump\t// in\n    tag_261:\n      mload(0x40)\n      0x20\n      dup2\n      dup4\n      sub\n      sub\n      dup2\n      mstore\n      swap1\n      0x40\n      mstore\n        /* \"contracts/CrossChainFishGame.sol\":6548:6604  keccak256(abi.encodePacked(block.timestamp, msg.sender)) */\n      dup1\n      mload\n      swap1\n      0x20\n      add\n      keccak256\n        /* \"contracts/CrossChainFishGame.sol\":6540:6605  uint256(keccak256(abi.encodePacked(block.timestamp, msg.sender))) */\n      0x00\n      shr\n        /* \"contracts/CrossChainFishGame.sol\":6525:6605  uint256 rand = uint256(keccak256(abi.encodePacked(block.timestamp, msg.sender))) */\n      swap1\n      pop\n        /* \"contracts/CrossChainFishGame.sol\":6626:6654  string[5] memory speciesList */\n      0x00\n        /* \"contracts/CrossChainFishGame.sol\":6626:6703  string[5] memory speciesList = [\"Tuna\", \"Salmon\", \"Trout\", \"Bass\", \"Catfish\"] */\n      mload(0x40)\n      dup1\n      0xa0\n      add\n      0x40\n      mstore\n      dup1\n      mload(0x40)\n      dup1\n      0x40\n      add\n      0x40\n      mstore\n      dup1\n      0x04\n      dup2\n      mstore\n      0x20\n      add\n      0x54756e6100000000000000000000000000000000000000000000000000000000\n      dup2\n      mstore\n      pop\n      dup2\n      mstore\n      0x20\n      add\n      mload(0x40)\n      dup1\n      0x40\n      add\n      0x40\n      mstore\n      dup1\n      0x06\n      dup2\n      mstore\n      0x20\n      add\n      0x53616c6d6f6e0000000000000000000000000000000000000000000000000000\n      dup2\n      mstore\n      pop\n      dup2\n      mstore\n      0x20\n      add\n      mload(0x40)\n      dup1\n      0x40\n      add\n      0x40\n      mstore\n      dup1\n      0x05\n      dup2\n      mstore\n      0x20\n      add\n      0x54726f7574000000000000000000000000000000000000000000000000000000\n      dup2\n      mstore\n      pop\n      dup2\n      mstore\n      0x20\n      add\n      mload(0x40)\n      dup1\n      0x40\n      add\n      0x40\n      mstore\n      dup1\n      0x04\n      dup2\n      mstore\n      0x20\n      add\n      0x4261737300000000000000000000000000000000000000000000000000000000\n      dup2\n      mstore\n      pop\n      dup2\n      mstore\n      0x20\n      add\n      mload(0x40)\n      dup1\n      0x40\n      add\n      0x40\n      mstore\n      dup1\n      0x07\n      dup2\n      mstore\n      0x20\n      add\n      0x4361746669736800000000000000000000000000000000000000000000000000\n      dup2\n      mstore\n      pop\n      dup2\n      mstore\n      pop\n      swap1\n      pop\n        /* \"contracts/CrossChainFishGame.sol\":6714:6735  string memory species */\n      0x00\n        /* \"contracts/CrossChainFishGame.sol\":6738:6749  speciesList */\n      dup2\n        /* \"contracts/CrossChainFishGame.sol\":6757:6758  5 */\n      0x05\n        /* \"contracts/CrossChainFishGame.sol\":6750:6754  rand */\n      dup5\n        /* \"contracts/CrossChainFishGame.sol\":6750:6758  rand % 5 */\n      tag_263\n      swap2\n      swap1\n      tag_248\n      jump\t// in\n    tag_263:\n        /* \"contracts/CrossChainFishGame.sol\":6738:6759  speciesList[rand % 5] */\n      0x05\n      dup2\n      lt\n      tag_264\n      jumpi\n      tag_265\n      tag_266\n      jump\t// in\n    tag_265:\n    tag_264:\n      0x20\n      mul\n      add\n      mload\n        /* \"contracts/CrossChainFishGame.sol\":6714:6759  string memory species = speciesList[rand % 5] */\n      swap1\n      pop\n        /* \"contracts/CrossChainFishGame.sol\":6780:6792  uint256 size */\n      0x00\n        /* \"contracts/CrossChainFishGame.sol\":6810:6811  1 */\n      0x01\n        /* \"contracts/CrossChainFishGame.sol\":6803:6806  100 */\n      0x64\n        /* \"contracts/CrossChainFishGame.sol\":6796:6800  rand */\n      dup6\n        /* \"contracts/CrossChainFishGame.sol\":6796:6806  rand % 100 */\n      tag_267\n      swap2\n      swap1\n      tag_248\n      jump\t// in\n    tag_267:\n        /* \"contracts/CrossChainFishGame.sol\":6795:6811  (rand % 100) + 1 */\n      tag_268\n      swap2\n      swap1\n      tag_107\n      jump\t// in\n    tag_268:\n        /* \"contracts/CrossChainFishGame.sol\":6780:6811  uint256 size = (rand % 100) + 1 */\n      swap1\n      pop\n        /* \"contracts/CrossChainFishGame.sol\":6834:6848  uint256 rarity */\n      0x00\n        /* \"contracts/CrossChainFishGame.sol\":6864:6865  1 */\n      0x01\n        /* \"contracts/CrossChainFishGame.sol\":6859:6860  5 */\n      0x05\n        /* \"contracts/CrossChainFishGame.sol\":6852:6856  rand */\n      dup7\n        /* \"contracts/CrossChainFishGame.sol\":6852:6860  rand % 5 */\n      tag_269\n      swap2\n      swap1\n      tag_248\n      jump\t// in\n    tag_269:\n        /* \"contracts/CrossChainFishGame.sol\":6851:6865  (rand % 5) + 1 */\n      tag_270\n      swap2\n      swap1\n      tag_107\n      jump\t// in\n    tag_270:\n        /* \"contracts/CrossChainFishGame.sol\":6834:6865  uint256 rarity = (rand % 5) + 1 */\n      swap1\n      pop\n        /* \"contracts/CrossChainFishGame.sol\":6899:6906  species */\n      dup3\n        /* \"contracts/CrossChainFishGame.sol\":6908:6912  size */\n      dup3\n        /* \"contracts/CrossChainFishGame.sol\":6914:6920  rarity */\n      dup3\n        /* \"contracts/CrossChainFishGame.sol\":6891:6921  return (species, size, rarity) */\n      swap8\n      pop\n      swap8\n      pop\n      swap8\n      pop\n      pop\n      pop\n      pop\n      pop\n      pop\n        /* \"contracts/CrossChainFishGame.sol\":6423:6929  function _generateFishAttributes() internal view returns (string memory, uint256, uint256) {... */\n      swap1\n      swap2\n      swap3\n      jump\t// out\n        /* \"@openzeppelin/contracts/access/Ownable.sol\":2912:3099  function _transferOwnership(address newOwner) internal virtual {... */\n    tag_219:\n        /* \"@openzeppelin/contracts/access/Ownable.sol\":2985:3001  address oldOwner */\n      0x00\n        /* \"@openzeppelin/contracts/access/Ownable.sol\":3004:3010  _owner */\n      dup1\n      0x00\n      swap1\n      sload\n      swap1\n      0x0100\n      exp\n      swap1\n      div\n      0xffffffffffffffffffffffffffffffffffffffff\n      and\n        /* \"@openzeppelin/contracts/access/Ownable.sol\":2985:3010  address oldOwner = _owner */\n      swap1\n      pop\n        /* \"@openzeppelin/contracts/access/Ownable.sol\":3029:3037  newOwner */\n      dup2\n        /* \"@openzeppelin/contracts/access/Ownable.sol\":3020:3026  _owner */\n      0x00\n      dup1\n        /* \"@openzeppelin/contracts/access/Ownable.sol\":3020:3037  _owner = newOwner */\n      0x0100\n      exp\n      dup2\n      sload\n      dup2\n      0xffffffffffffffffffffffffffffffffffffffff\n      mul\n      not\n      and\n      swap1\n      dup4\n      0xffffffffffffffffffffffffffffffffffffffff\n      and\n      mul\n      or\n      swap1\n      sstore\n      pop\n        /* \"@openzeppelin/contracts/access/Ownable.sol\":3083:3091  newOwner */\n      dup2\n        /* \"@openzeppelin/contracts/access/Ownable.sol\":3052:3092  OwnershipTransferred(oldOwner, newOwner) */\n      0xffffffffffffffffffffffffffffffffffffffff\n      and\n        /* \"@openzeppelin/contracts/access/Ownable.sol\":3073:3081  oldOwner */\n      dup2\n        /* \"@openzeppelin/contracts/access/Ownable.sol\":3052:3092  OwnershipTransferred(oldOwner, newOwner) */\n      0xffffffffffffffffffffffffffffffffffffffff\n      and\n      0x8be0079c531659141344cd1fd0a4f28419497f9722a3daafe3b4186f6b6457e0\n      mload(0x40)\n      mload(0x40)\n      dup1\n      swap2\n      sub\n      swap1\n      log3\n        /* \"@openzeppelin/contracts/access/Ownable.sol\":2975:3099  {... */\n      pop\n        /* \"@openzeppelin/contracts/access/Ownable.sol\":2912:3099  function _transferOwnership(address newOwner) internal virtual {... */\n      pop\n      jump\t// out\n        /* \"@openzeppelin/contracts/utils/Context.sol\":656:752  function _msgSender() internal view virtual returns (address) {... */\n    tag_255:\n        /* \"@openzeppelin/contracts/utils/Context.sol\":709:716  address */\n      0x00\n        /* \"@openzeppelin/contracts/utils/Context.sol\":735:745  msg.sender */\n      caller\n        /* \"@openzeppelin/contracts/utils/Context.sol\":728:745  return msg.sender */\n      swap1\n      pop\n        /* \"@openzeppelin/contracts/utils/Context.sol\":656:752  function _msgSender() internal view virtual returns (address) {... */\n      swap1\n      jump\t// out\n        /* \"#utility.yul\":7:133   */\n    tag_273:\n        /* \"#utility.yul\":44:51   */\n      0x00\n        /* \"#utility.yul\":84:126   */\n      0xffffffffffffffffffffffffffffffffffffffff\n        /* \"#utility.yul\":77:82   */\n      dup3\n        /* \"#utility.yul\":73:127   */\n      and\n        /* \"#utility.yul\":62:127   */\n      swap1\n      pop\n        /* \"#utility.yul\":7:133   */\n      swap2\n      swap1\n      pop\n      jump\t// out\n        /* \"#utility.yul\":139:199   */\n    tag_274:\n        /* \"#utility.yul\":167:170   */\n      0x00\n        /* \"#utility.yul\":188:193   */\n      dup2\n        /* \"#utility.yul\":181:193   */\n      swap1\n      pop\n        /* \"#utility.yul\":139:199   */\n      swap2\n      swap1\n      pop\n      jump\t// out\n        /* \"#utility.yul\":205:347   */\n    tag_275:\n        /* \"#utility.yul\":255:264   */\n      0x00\n        /* \"#utility.yul\":288:341   */\n      tag_353\n        /* \"#utility.yul\":306:340   */\n      tag_354\n        /* \"#utility.yul\":315:339   */\n      tag_355\n        /* \"#utility.yul\":333:338   */\n      dup5\n        /* \"#utility.yul\":315:339   */\n      tag_273\n      jump\t// in\n    tag_355:\n        /* \"#utility.yul\":306:340   */\n      tag_274\n      jump\t// in\n    tag_354:\n        /* \"#utility.yul\":288:341   */\n      tag_273\n      jump\t// in\n    tag_353:\n        /* \"#utility.yul\":275:341   */\n      swap1\n      pop\n        /* \"#utility.yul\":205:347   */\n      swap2\n      swap1\n      pop\n      jump\t// out\n        /* \"#utility.yul\":353:479   */\n    tag_276:\n        /* \"#utility.yul\":403:412   */\n      0x00\n        /* \"#utility.yul\":436:473   */\n      tag_357\n        /* \"#utility.yul\":467:472   */\n      dup3\n        /* \"#utility.yul\":436:473   */\n      tag_275\n      jump\t// in\n    tag_357:\n        /* \"#utility.yul\":423:473   */\n      swap1\n      pop\n        /* \"#utility.yul\":353:479   */\n      swap2\n      swap1\n      pop\n      jump\t// out\n        /* \"#utility.yul\":485:627   */\n    tag_277:\n        /* \"#utility.yul\":551:560   */\n      0x00\n        /* \"#utility.yul\":584:621   */\n      tag_359\n        /* \"#utility.yul\":615:620   */\n      dup3\n        /* \"#utility.yul\":584:621   */\n      tag_276\n      jump\t// in\n    tag_359:\n        /* \"#utility.yul\":571:621   */\n      swap1\n      pop\n        /* \"#utility.yul\":485:627   */\n      swap2\n      swap1\n      pop\n      jump\t// out\n        /* \"#utility.yul\":633:796   */\n    tag_278:\n        /* \"#utility.yul\":736:789   */\n      tag_361\n        /* \"#utility.yul\":783:788   */\n      dup2\n        /* \"#utility.yul\":736:789   */\n      tag_277\n      jump\t// in\n    tag_361:\n        /* \"#utility.yul\":731:734   */\n      dup3\n        /* \"#utility.yul\":724:790   */\n      mstore\n        /* \"#utility.yul\":633:796   */\n      pop\n      pop\n      jump\t// out\n        /* \"#utility.yul\":802:1056   */\n    tag_28:\n        /* \"#utility.yul\":911:915   */\n      0x00\n        /* \"#utility.yul\":949:951   */\n      0x20\n        /* \"#utility.yul\":938:947   */\n      dup3\n        /* \"#utility.yul\":934:952   */\n      add\n        /* \"#utility.yul\":926:952   */\n      swap1\n      pop\n        /* \"#utility.yul\":962:1049   */\n      tag_363\n        /* \"#utility.yul\":1046:1047   */\n      0x00\n        /* \"#utility.yul\":1035:1044   */\n      dup4\n        /* \"#utility.yul\":1031:1048   */\n      add\n        /* \"#utility.yul\":1022:1028   */\n      dup5\n        /* \"#utility.yul\":962:1049   */\n      tag_278\n      jump\t// in\n    tag_363:\n        /* \"#utility.yul\":802:1056   */\n      swap3\n      swap2\n      pop\n      pop\n      jump\t// out\n        /* \"#utility.yul\":1143:1260   */\n    tag_280:\n        /* \"#utility.yul\":1252:1253   */\n      0x00\n        /* \"#utility.yul\":1249:1250   */\n      dup1\n        /* \"#utility.yul\":1242:1254   */\n      revert\n        /* \"#utility.yul\":1266:1383   */\n    tag_281:\n        /* \"#utility.yul\":1375:1376   */\n      0x00\n        /* \"#utility.yul\":1372:1373   */\n      dup1\n        /* \"#utility.yul\":1365:1377   */\n      revert\n        /* \"#utility.yul\":1389:1482   */\n    tag_282:\n        /* \"#utility.yul\":1425:1432   */\n      0x00\n        /* \"#utility.yul\":1465:1475   */\n      0xffffffff\n        /* \"#utility.yul\":1458:1463   */\n      dup3\n        /* \"#utility.yul\":1454:1476   */\n      and\n        /* \"#utility.yul\":1443:1476   */\n      swap1\n      pop\n        /* \"#utility.yul\":1389:1482   */\n      swap2\n      swap1\n      pop\n      jump\t// out\n        /* \"#utility.yul\":1488:1608   */\n    tag_283:\n        /* \"#utility.yul\":1560:1583   */\n      tag_369\n        /* \"#utility.yul\":1577:1582   */\n      dup2\n        /* \"#utility.yul\":1560:1583   */\n      tag_282\n      jump\t// in\n    tag_369:\n        /* \"#utility.yul\":1553:1558   */\n      dup2\n        /* \"#utility.yul\":1550:1584   */\n      eq\n        /* \"#utility.yul\":1540:1602   */\n      tag_370\n      jumpi\n        /* \"#utility.yul\":1598:1599   */\n      0x00\n        /* \"#utility.yul\":1595:1596   */\n      dup1\n        /* \"#utility.yul\":1588:1600   */\n      revert\n        /* \"#utility.yul\":1540:1602   */\n    tag_370:\n        /* \"#utility.yul\":1488:1608   */\n      pop\n      jump\t// out\n        /* \"#utility.yul\":1614:1751   */\n    tag_284:\n        /* \"#utility.yul\":1659:1664   */\n      0x00\n        /* \"#utility.yul\":1697:1703   */\n      dup2\n        /* \"#utility.yul\":1684:1704   */\n      calldataload\n        /* \"#utility.yul\":1675:1704   */\n      swap1\n      pop\n        /* \"#utility.yul\":1713:1745   */\n      tag_372\n        /* \"#utility.yul\":1739:1744   */\n      dup2\n        /* \"#utility.yul\":1713:1745   */\n      tag_283\n      jump\t// in\n    tag_372:\n        /* \"#utility.yul\":1614:1751   */\n      swap3\n      swap2\n      pop\n      pop\n      jump\t// out\n        /* \"#utility.yul\":1757:2084   */\n    tag_32:\n        /* \"#utility.yul\":1815:1821   */\n      0x00\n        /* \"#utility.yul\":1864:1866   */\n      0x20\n        /* \"#utility.yul\":1852:1861   */\n      dup3\n        /* \"#utility.yul\":1843:1850   */\n      dup5\n        /* \"#utility.yul\":1839:1862   */\n      sub\n        /* \"#utility.yul\":1835:1867   */\n      slt\n        /* \"#utility.yul\":1832:1951   */\n      iszero\n      tag_374\n      jumpi\n        /* \"#utility.yul\":1870:1949   */\n      tag_375\n      tag_280\n      jump\t// in\n    tag_375:\n        /* \"#utility.yul\":1832:1951   */\n    tag_374:\n        /* \"#utility.yul\":1990:1991   */\n      0x00\n        /* \"#utility.yul\":2015:2067   */\n      tag_376\n        /* \"#utility.yul\":2059:2066   */\n      dup5\n        /* \"#utility.yul\":2050:2056   */\n      dup3\n        /* \"#utility.yul\":2039:2048   */\n      dup6\n        /* \"#utility.yul\":2035:2057   */\n      add\n        /* \"#utility.yul\":2015:2067   */\n      tag_284\n      jump\t// in\n    tag_376:\n        /* \"#utility.yul\":2005:2067   */\n      swap2\n      pop\n        /* \"#utility.yul\":1961:2077   */\n      pop\n        /* \"#utility.yul\":1757:2084   */\n      swap3\n      swap2\n      pop\n      pop\n      jump\t// out\n        /* \"#utility.yul\":2090:2167   */\n    tag_285:\n        /* \"#utility.yul\":2127:2134   */\n      0x00\n        /* \"#utility.yul\":2156:2161   */\n      dup2\n        /* \"#utility.yul\":2145:2161   */\n      swap1\n      pop\n        /* \"#utility.yul\":2090:2167   */\n      swap2\n      swap1\n      pop\n      jump\t// out\n        /* \"#utility.yul\":2173:2291   */\n    tag_286:\n        /* \"#utility.yul\":2260:2284   */\n      tag_379\n        /* \"#utility.yul\":2278:2283   */\n      dup2\n        /* \"#utility.yul\":2260:2284   */\n      tag_285\n      jump\t// in\n    tag_379:\n        /* \"#utility.yul\":2255:2258   */\n      dup3\n        /* \"#utility.yul\":2248:2285   */\n      mstore\n        /* \"#utility.yul\":2173:2291   */\n      pop\n      pop\n      jump\t// out\n        /* \"#utility.yul\":2297:2519   */\n    tag_35:\n        /* \"#utility.yul\":2390:2394   */\n      0x00\n        /* \"#utility.yul\":2428:2430   */\n      0x20\n        /* \"#utility.yul\":2417:2426   */\n      dup3\n        /* \"#utility.yul\":2413:2431   */\n      add\n        /* \"#utility.yul\":2405:2431   */\n      swap1\n      pop\n        /* \"#utility.yul\":2441:2512   */\n      tag_381\n        /* \"#utility.yul\":2509:2510   */\n      0x00\n        /* \"#utility.yul\":2498:2507   */\n      dup4\n        /* \"#utility.yul\":2494:2511   */\n      add\n        /* \"#utility.yul\":2485:2491   */\n      dup5\n        /* \"#utility.yul\":2441:2512   */\n      tag_286\n      jump\t// in\n    tag_381:\n        /* \"#utility.yul\":2297:2519   */\n      swap3\n      swap2\n      pop\n      pop\n      jump\t// out\n        /* \"#utility.yul\":2525:2602   */\n    tag_287:\n        /* \"#utility.yul\":2562:2569   */\n      0x00\n        /* \"#utility.yul\":2591:2596   */\n      dup2\n        /* \"#utility.yul\":2580:2596   */\n      swap1\n      pop\n        /* \"#utility.yul\":2525:2602   */\n      swap2\n      swap1\n      pop\n      jump\t// out\n        /* \"#utility.yul\":2608:2726   */\n    tag_288:\n        /* \"#utility.yul\":2695:2719   */\n      tag_384\n        /* \"#utility.yul\":2713:2718   */\n      dup2\n        /* \"#utility.yul\":2695:2719   */\n      tag_287\n      jump\t// in\n    tag_384:\n        /* \"#utility.yul\":2690:2693   */\n      dup3\n        /* \"#utility.yul\":2683:2720   */\n      mstore\n        /* \"#utility.yul\":2608:2726   */\n      pop\n      pop\n      jump\t// out\n        /* \"#utility.yul\":2732:2954   */\n    tag_40:\n        /* \"#utility.yul\":2825:2829   */\n      0x00\n        /* \"#utility.yul\":2863:2865   */\n      0x20\n        /* \"#utility.yul\":2852:2861   */\n      dup3\n        /* \"#utility.yul\":2848:2866   */\n      add\n        /* \"#utility.yul\":2840:2866   */\n      swap1\n      pop\n        /* \"#utility.yul\":2876:2947   */\n      tag_386\n        /* \"#utility.yul\":2944:2945   */\n      0x00\n        /* \"#utility.yul\":2933:2942   */\n      dup4\n        /* \"#utility.yul\":2929:2946   */\n      add\n        /* \"#utility.yul\":2920:2926   */\n      dup5\n        /* \"#utility.yul\":2876:2947   */\n      tag_288\n      jump\t// in\n    tag_386:\n        /* \"#utility.yul\":2732:2954   */\n      swap3\n      swap2\n      pop\n      pop\n      jump\t// out\n        /* \"#utility.yul\":2960:3082   */\n    tag_289:\n        /* \"#utility.yul\":3033:3057   */\n      tag_388\n        /* \"#utility.yul\":3051:3056   */\n      dup2\n        /* \"#utility.yul\":3033:3057   */\n      tag_285\n      jump\t// in\n    tag_388:\n        /* \"#utility.yul\":3026:3031   */\n      dup2\n        /* \"#utility.yul\":3023:3058   */\n      eq\n        /* \"#utility.yul\":3013:3076   */\n      tag_389\n      jumpi\n        /* \"#utility.yul\":3072:3073   */\n      0x00\n        /* \"#utility.yul\":3069:3070   */\n      dup1\n        /* \"#utility.yul\":3062:3074   */\n      revert\n        /* \"#utility.yul\":3013:3076   */\n    tag_389:\n        /* \"#utility.yul\":2960:3082   */\n      pop\n      jump\t// out\n        /* \"#utility.yul\":3088:3227   */\n    tag_290:\n        /* \"#utility.yul\":3134:3139   */\n      0x00\n        /* \"#utility.yul\":3172:3178   */\n      dup2\n        /* \"#utility.yul\":3159:3179   */\n      calldataload\n        /* \"#utility.yul\":3150:3179   */\n      swap1\n      pop\n        /* \"#utility.yul\":3188:3221   */\n      tag_391\n        /* \"#utility.yul\":3215:3220   */\n      dup2\n        /* \"#utility.yul\":3188:3221   */\n      tag_289\n      jump\t// in\n    tag_391:\n        /* \"#utility.yul\":3088:3227   */\n      swap3\n      swap2\n      pop\n      pop\n      jump\t// out\n        /* \"#utility.yul\":3233:3705   */\n    tag_44:\n        /* \"#utility.yul\":3300:3306   */\n      0x00\n        /* \"#utility.yul\":3308:3314   */\n      dup1\n        /* \"#utility.yul\":3357:3359   */\n      0x40\n        /* \"#utility.yul\":3345:3354   */\n      dup4\n        /* \"#utility.yul\":3336:3343   */\n      dup6\n        /* \"#utility.yul\":3332:3355   */\n      sub\n        /* \"#utility.yul\":3328:3360   */\n      slt\n        /* \"#utility.yul\":3325:3444   */\n      iszero\n      tag_393\n      jumpi\n        /* \"#utility.yul\":3363:3442   */\n      tag_394\n      tag_280\n      jump\t// in\n    tag_394:\n        /* \"#utility.yul\":3325:3444   */\n    tag_393:\n        /* \"#utility.yul\":3483:3484   */\n      0x00\n        /* \"#utility.yul\":3508:3560   */\n      tag_395\n        /* \"#utility.yul\":3552:3559   */\n      dup6\n        /* \"#utility.yul\":3543:3549   */\n      dup3\n        /* \"#utility.yul\":3532:3541   */\n      dup7\n        /* \"#utility.yul\":3528:3550   */\n      add\n        /* \"#utility.yul\":3508:3560   */\n      tag_284\n      jump\t// in\n    tag_395:\n        /* \"#utility.yul\":3498:3560   */\n      swap3\n      pop\n        /* \"#utility.yul\":3454:3570   */\n      pop\n        /* \"#utility.yul\":3609:3611   */\n      0x20\n        /* \"#utility.yul\":3635:3688   */\n      tag_396\n        /* \"#utility.yul\":3680:3687   */\n      dup6\n        /* \"#utility.yul\":3671:3677   */\n      dup3\n        /* \"#utility.yul\":3660:3669   */\n      dup7\n        /* \"#utility.yul\":3656:3678   */\n      add\n        /* \"#utility.yul\":3635:3688   */\n      tag_290\n      jump\t// in\n    tag_396:\n        /* \"#utility.yul\":3625:3688   */\n      swap2\n      pop\n        /* \"#utility.yul\":3580:3698   */\n      pop\n        /* \"#utility.yul\":3233:3705   */\n      swap3\n      pop\n      swap3\n      swap1\n      pop\n      jump\t// out\n        /* \"#utility.yul\":3711:3833   */\n    tag_291:\n        /* \"#utility.yul\":3784:3808   */\n      tag_398\n        /* \"#utility.yul\":3802:3807   */\n      dup2\n        /* \"#utility.yul\":3784:3808   */\n      tag_287\n      jump\t// in\n    tag_398:\n        /* \"#utility.yul\":3777:3782   */\n      dup2\n        /* \"#utility.yul\":3774:3809   */\n      eq\n        /* \"#utility.yul\":3764:3827   */\n      tag_399\n      jumpi\n        /* \"#utility.yul\":3823:3824   */\n      0x00\n        /* \"#utility.yul\":3820:3821   */\n      dup1\n        /* \"#utility.yul\":3813:3825   */\n      revert\n        /* \"#utility.yul\":3764:3827   */\n    tag_399:\n        /* \"#utility.yul\":3711:3833   */\n      pop\n      jump\t// out\n        /* \"#utility.yul\":3839:3978   */\n    tag_292:\n        /* \"#utility.yul\":3885:3890   */\n      0x00\n        /* \"#utility.yul\":3923:3929   */\n      dup2\n        /* \"#utility.yul\":3910:3930   */\n      calldataload\n        /* \"#utility.yul\":3901:3930   */\n      swap1\n      pop\n        /* \"#utility.yul\":3939:3972   */\n      tag_401\n        /* \"#utility.yul\":3966:3971   */\n      dup2\n        /* \"#utility.yul\":3939:3972   */\n      tag_291\n      jump\t// in\n    tag_401:\n        /* \"#utility.yul\":3839:3978   */\n      swap3\n      swap2\n      pop\n      pop\n      jump\t// out\n        /* \"#utility.yul\":3984:4456   */\n    tag_48:\n        /* \"#utility.yul\":4051:4057   */\n      0x00\n        /* \"#utility.yul\":4059:4065   */\n      dup1\n        /* \"#utility.yul\":4108:4110   */\n      0x40\n        /* \"#utility.yul\":4096:4105   */\n      dup4\n        /* \"#utility.yul\":4087:4094   */\n      dup6\n        /* \"#utility.yul\":4083:4106   */\n      sub\n        /* \"#utility.yul\":4079:4111   */\n      slt\n        /* \"#utility.yul\":4076:4195   */\n      iszero\n      tag_403\n      jumpi\n        /* \"#utility.yul\":4114:4193   */\n      tag_404\n      tag_280\n      jump\t// in\n    tag_404:\n        /* \"#utility.yul\":4076:4195   */\n    tag_403:\n        /* \"#utility.yul\":4234:4235   */\n      0x00\n        /* \"#utility.yul\":4259:4311   */\n      tag_405\n        /* \"#utility.yul\":4303:4310   */\n      dup6\n        /* \"#utility.yul\":4294:4300   */\n      dup3\n        /* \"#utility.yul\":4283:4292   */\n      dup7\n        /* \"#utility.yul\":4279:4301   */\n      add\n        /* \"#utility.yul\":4259:4311   */\n      tag_284\n      jump\t// in\n    tag_405:\n        /* \"#utility.yul\":4249:4311   */\n      swap3\n      pop\n        /* \"#utility.yul\":4205:4321   */\n      pop\n        /* \"#utility.yul\":4360:4362   */\n      0x20\n        /* \"#utility.yul\":4386:4439   */\n      tag_406\n        /* \"#utility.yul\":4431:4438   */\n      dup6\n        /* \"#utility.yul\":4422:4428   */\n      dup3\n        /* \"#utility.yul\":4411:4420   */\n      dup7\n        /* \"#utility.yul\":4407:4429   */\n      add\n        /* \"#utility.yul\":4386:4439   */\n      tag_292\n      jump\t// in\n    tag_406:\n        /* \"#utility.yul\":4376:4439   */\n      swap2\n      pop\n        /* \"#utility.yul\":4331:4449   */\n      pop\n        /* \"#utility.yul\":3984:4456   */\n      swap3\n      pop\n      swap3\n      swap1\n      pop\n      jump\t// out\n        /* \"#utility.yul\":4462:4579   */\n    tag_293:\n        /* \"#utility.yul\":4571:4572   */\n      0x00\n        /* \"#utility.yul\":4568:4569   */\n      dup1\n        /* \"#utility.yul\":4561:4573   */\n      revert\n        /* \"#utility.yul\":4585:4702   */\n    tag_294:\n        /* \"#utility.yul\":4694:4695   */\n      0x00\n        /* \"#utility.yul\":4691:4692   */\n      dup1\n        /* \"#utility.yul\":4684:4696   */\n      revert\n        /* \"#utility.yul\":4708:4825   */\n    tag_295:\n        /* \"#utility.yul\":4817:4818   */\n      0x00\n        /* \"#utility.yul\":4814:4815   */\n      dup1\n        /* \"#utility.yul\":4807:4819   */\n      revert\n        /* \"#utility.yul\":4844:5396   */\n    tag_296:\n        /* \"#utility.yul\":4901:4909   */\n      0x00\n        /* \"#utility.yul\":4911:4917   */\n      dup1\n        /* \"#utility.yul\":4961:4964   */\n      dup4\n        /* \"#utility.yul\":4954:4958   */\n      0x1f\n        /* \"#utility.yul\":4946:4952   */\n      dup5\n        /* \"#utility.yul\":4942:4959   */\n      add\n        /* \"#utility.yul\":4938:4965   */\n      slt\n        /* \"#utility.yul\":4928:5050   */\n      tag_411\n      jumpi\n        /* \"#utility.yul\":4969:5048   */\n      tag_412\n      tag_293\n      jump\t// in\n    tag_412:\n        /* \"#utility.yul\":4928:5050   */\n    tag_411:\n        /* \"#utility.yul\":5082:5088   */\n      dup3\n        /* \"#utility.yul\":5069:5089   */\n      calldataload\n        /* \"#utility.yul\":5059:5089   */\n      swap1\n      pop\n        /* \"#utility.yul\":5112:5130   */\n      0xffffffffffffffff\n        /* \"#utility.yul\":5104:5110   */\n      dup2\n        /* \"#utility.yul\":5101:5131   */\n      gt\n        /* \"#utility.yul\":5098:5215   */\n      iszero\n      tag_413\n      jumpi\n        /* \"#utility.yul\":5134:5213   */\n      tag_414\n      tag_294\n      jump\t// in\n    tag_414:\n        /* \"#utility.yul\":5098:5215   */\n    tag_413:\n        /* \"#utility.yul\":5248:5252   */\n      0x20\n        /* \"#utility.yul\":5240:5246   */\n      dup4\n        /* \"#utility.yul\":5236:5253   */\n      add\n        /* \"#utility.yul\":5224:5253   */\n      swap2\n      pop\n        /* \"#utility.yul\":5302:5305   */\n      dup4\n        /* \"#utility.yul\":5294:5298   */\n      0x01\n        /* \"#utility.yul\":5286:5292   */\n      dup3\n        /* \"#utility.yul\":5282:5299   */\n      mul\n        /* \"#utility.yul\":5272:5280   */\n      dup4\n        /* \"#utility.yul\":5268:5300   */\n      add\n        /* \"#utility.yul\":5265:5306   */\n      gt\n        /* \"#utility.yul\":5262:5390   */\n      iszero\n      tag_415\n      jumpi\n        /* \"#utility.yul\":5309:5388   */\n      tag_416\n      tag_295\n      jump\t// in\n    tag_416:\n        /* \"#utility.yul\":5262:5390   */\n    tag_415:\n        /* \"#utility.yul\":4844:5396   */\n      swap3\n      pop\n      swap3\n      swap1\n      pop\n      jump\t// out\n        /* \"#utility.yul\":5402:6217   */\n    tag_52:\n        /* \"#utility.yul\":5489:5495   */\n      0x00\n        /* \"#utility.yul\":5497:5503   */\n      dup1\n        /* \"#utility.yul\":5505:5511   */\n      0x00\n        /* \"#utility.yul\":5513:5519   */\n      dup1\n        /* \"#utility.yul\":5562:5564   */\n      0x60\n        /* \"#utility.yul\":5550:5559   */\n      dup6\n        /* \"#utility.yul\":5541:5548   */\n      dup8\n        /* \"#utility.yul\":5537:5560   */\n      sub\n        /* \"#utility.yul\":5533:5565   */\n      slt\n        /* \"#utility.yul\":5530:5649   */\n      iszero\n      tag_418\n      jumpi\n        /* \"#utility.yul\":5568:5647   */\n      tag_419\n      tag_280\n      jump\t// in\n    tag_419:\n        /* \"#utility.yul\":5530:5649   */\n    tag_418:\n        /* \"#utility.yul\":5688:5689   */\n      0x00\n        /* \"#utility.yul\":5713:5765   */\n      tag_420\n        /* \"#utility.yul\":5757:5764   */\n      dup8\n        /* \"#utility.yul\":5748:5754   */\n      dup3\n        /* \"#utility.yul\":5737:5746   */\n      dup9\n        /* \"#utility.yul\":5733:5755   */\n      add\n        /* \"#utility.yul\":5713:5765   */\n      tag_284\n      jump\t// in\n    tag_420:\n        /* \"#utility.yul\":5703:5765   */\n      swap5\n      pop\n        /* \"#utility.yul\":5659:5775   */\n      pop\n        /* \"#utility.yul\":5814:5816   */\n      0x20\n        /* \"#utility.yul\":5840:5893   */\n      tag_421\n        /* \"#utility.yul\":5885:5892   */\n      dup8\n        /* \"#utility.yul\":5876:5882   */\n      dup3\n        /* \"#utility.yul\":5865:5874   */\n      dup9\n        /* \"#utility.yul\":5861:5883   */\n      add\n        /* \"#utility.yul\":5840:5893   */\n      tag_290\n      jump\t// in\n    tag_421:\n        /* \"#utility.yul\":5830:5893   */\n      swap4\n      pop\n        /* \"#utility.yul\":5785:5903   */\n      pop\n        /* \"#utility.yul\":5970:5972   */\n      0x40\n        /* \"#utility.yul\":5959:5968   */\n      dup6\n        /* \"#utility.yul\":5955:5973   */\n      add\n        /* \"#utility.yul\":5942:5974   */\n      calldataload\n        /* \"#utility.yul\":6001:6019   */\n      0xffffffffffffffff\n        /* \"#utility.yul\":5993:5999   */\n      dup2\n        /* \"#utility.yul\":5990:6020   */\n      gt\n        /* \"#utility.yul\":5987:6104   */\n      iszero\n      tag_422\n      jumpi\n        /* \"#utility.yul\":6023:6102   */\n      tag_423\n      tag_281\n      jump\t// in\n    tag_423:\n        /* \"#utility.yul\":5987:6104   */\n    tag_422:\n        /* \"#utility.yul\":6136:6200   */\n      tag_424\n        /* \"#utility.yul\":6192:6199   */\n      dup8\n        /* \"#utility.yul\":6183:6189   */\n      dup3\n        /* \"#utility.yul\":6172:6181   */\n      dup9\n        /* \"#utility.yul\":6168:6190   */\n      add\n        /* \"#utility.yul\":6136:6200   */\n      tag_296\n      jump\t// in\n    tag_424:\n        /* \"#utility.yul\":6118:6200   */\n      swap3\n      pop\n      swap3\n      pop\n        /* \"#utility.yul\":5913:6210   */\n      pop\n        /* \"#utility.yul\":5402:6217   */\n      swap3\n      swap6\n      swap2\n      swap5\n      pop\n      swap3\n      pop\n      jump\t// out\n        /* \"#utility.yul\":6223:6319   */\n    tag_297:\n        /* \"#utility.yul\":6260:6267   */\n      0x00\n        /* \"#utility.yul\":6289:6313   */\n      tag_426\n        /* \"#utility.yul\":6307:6312   */\n      dup3\n        /* \"#utility.yul\":6289:6313   */\n      tag_273\n      jump\t// in\n    tag_426:\n        /* \"#utility.yul\":6278:6313   */\n      swap1\n      pop\n        /* \"#utility.yul\":6223:6319   */\n      swap2\n      swap1\n      pop\n      jump\t// out\n        /* \"#utility.yul\":6325:6443   */\n    tag_298:\n        /* \"#utility.yul\":6412:6436   */\n      tag_428\n        /* \"#utility.yul\":6430:6435   */\n      dup2\n        /* \"#utility.yul\":6412:6436   */\n      tag_297\n      jump\t// in\n    tag_428:\n        /* \"#utility.yul\":6407:6410   */\n      dup3\n        /* \"#utility.yul\":6400:6437   */\n      mstore\n        /* \"#utility.yul\":6325:6443   */\n      pop\n      pop\n      jump\t// out\n        /* \"#utility.yul\":6449:6671   */\n    tag_65:\n        /* \"#utility.yul\":6542:6546   */\n      0x00\n        /* \"#utility.yul\":6580:6582   */\n      0x20\n        /* \"#utility.yul\":6569:6578   */\n      dup3\n        /* \"#utility.yul\":6565:6583   */\n      add\n        /* \"#utility.yul\":6557:6583   */\n      swap1\n      pop\n        /* \"#utility.yul\":6593:6664   */\n      tag_430\n        /* \"#utility.yul\":6661:6662   */\n      0x00\n        /* \"#utility.yul\":6650:6659   */\n      dup4\n        /* \"#utility.yul\":6646:6663   */\n      add\n        /* \"#utility.yul\":6637:6643   */\n      dup5\n        /* \"#utility.yul\":6593:6664   */\n      tag_298\n      jump\t// in\n    tag_430:\n        /* \"#utility.yul\":6449:6671   */\n      swap3\n      swap2\n      pop\n      pop\n      jump\t// out\n        /* \"#utility.yul\":6677:6823   */\n    tag_299:\n        /* \"#utility.yul\":6747:6756   */\n      0x00\n        /* \"#utility.yul\":6780:6817   */\n      tag_432\n        /* \"#utility.yul\":6811:6816   */\n      dup3\n        /* \"#utility.yul\":6780:6817   */\n      tag_276\n      jump\t// in\n    tag_432:\n        /* \"#utility.yul\":6767:6817   */\n      swap1\n      pop\n        /* \"#utility.yul\":6677:6823   */\n      swap2\n      swap1\n      pop\n      jump\t// out\n        /* \"#utility.yul\":6829:7000   */\n    tag_300:\n        /* \"#utility.yul\":6936:6993   */\n      tag_434\n        /* \"#utility.yul\":6987:6992   */\n      dup2\n        /* \"#utility.yul\":6936:6993   */\n      tag_299\n      jump\t// in\n    tag_434:\n        /* \"#utility.yul\":6931:6934   */\n      dup3\n        /* \"#utility.yul\":6924:6994   */\n      mstore\n        /* \"#utility.yul\":6829:7000   */\n      pop\n      pop\n      jump\t// out\n        /* \"#utility.yul\":7006:7268   */\n    tag_70:\n        /* \"#utility.yul\":7119:7123   */\n      0x00\n        /* \"#utility.yul\":7157:7159   */\n      0x20\n        /* \"#utility.yul\":7146:7155   */\n      dup3\n        /* \"#utility.yul\":7142:7160   */\n      add\n        /* \"#utility.yul\":7134:7160   */\n      swap1\n      pop\n        /* \"#utility.yul\":7170:7261   */\n      tag_436\n        /* \"#utility.yul\":7258:7259   */\n      0x00\n        /* \"#utility.yul\":7247:7256   */\n      dup4\n        /* \"#utility.yul\":7243:7260   */\n      add\n        /* \"#utility.yul\":7234:7240   */\n      dup5\n        /* \"#utility.yul\":7170:7261   */\n      tag_300\n      jump\t// in\n    tag_436:\n        /* \"#utility.yul\":7006:7268   */\n      swap3\n      swap2\n      pop\n      pop\n      jump\t// out\n        /* \"#utility.yul\":7274:7396   */\n    tag_301:\n        /* \"#utility.yul\":7347:7371   */\n      tag_438\n        /* \"#utility.yul\":7365:7370   */\n      dup2\n        /* \"#utility.yul\":7347:7371   */\n      tag_297\n      jump\t// in\n    tag_438:\n        /* \"#utility.yul\":7340:7345   */\n      dup2\n        /* \"#utility.yul\":7337:7372   */\n      eq\n        /* \"#utility.yul\":7327:7390   */\n      tag_439\n      jumpi\n        /* \"#utility.yul\":7386:7387   */\n      0x00\n        /* \"#utility.yul\":7383:7384   */\n      dup1\n        /* \"#utility.yul\":7376:7388   */\n      revert\n        /* \"#utility.yul\":7327:7390   */\n    tag_439:\n        /* \"#utility.yul\":7274:7396   */\n      pop\n      jump\t// out\n        /* \"#utility.yul\":7402:7541   */\n    tag_302:\n        /* \"#utility.yul\":7448:7453   */\n      0x00\n        /* \"#utility.yul\":7486:7492   */\n      dup2\n        /* \"#utility.yul\":7473:7493   */\n      calldataload\n        /* \"#utility.yul\":7464:7493   */\n      swap1\n      pop\n        /* \"#utility.yul\":7502:7535   */\n      tag_441\n        /* \"#utility.yul\":7529:7534   */\n      dup2\n        /* \"#utility.yul\":7502:7535   */\n      tag_301\n      jump\t// in\n    tag_441:\n        /* \"#utility.yul\":7402:7541   */\n      swap3\n      swap2\n      pop\n      pop\n      jump\t// out\n        /* \"#utility.yul\":7547:8021   */\n    tag_74:\n        /* \"#utility.yul\":7615:7621   */\n      0x00\n        /* \"#utility.yul\":7623:7629   */\n      dup1\n        /* \"#utility.yul\":7672:7674   */\n      0x40\n        /* \"#utility.yul\":7660:7669   */\n      dup4\n        /* \"#utility.yul\":7651:7658   */\n      dup6\n        /* \"#utility.yul\":7647:7670   */\n      sub\n        /* \"#utility.yul\":7643:7675   */\n      slt\n        /* \"#utility.yul\":7640:7759   */\n      iszero\n      tag_443\n      jumpi\n        /* \"#utility.yul\":7678:7757   */\n      tag_444\n      tag_280\n      jump\t// in\n    tag_444:\n        /* \"#utility.yul\":7640:7759   */\n    tag_443:\n        /* \"#utility.yul\":7798:7799   */\n      0x00\n        /* \"#utility.yul\":7823:7876   */\n      tag_445\n        /* \"#utility.yul\":7868:7875   */\n      dup6\n        /* \"#utility.yul\":7859:7865   */\n      dup3\n        /* \"#utility.yul\":7848:7857   */\n      dup7\n        /* \"#utility.yul\":7844:7866   */\n      add\n        /* \"#utility.yul\":7823:7876   */\n      tag_302\n      jump\t// in\n    tag_445:\n        /* \"#utility.yul\":7813:7876   */\n      swap3\n      pop\n        /* \"#utility.yul\":7769:7886   */\n      pop\n        /* \"#utility.yul\":7925:7927   */\n      0x20\n        /* \"#utility.yul\":7951:8004   */\n      tag_446\n        /* \"#utility.yul\":7996:8003   */\n      dup6\n        /* \"#utility.yul\":7987:7993   */\n      dup3\n        /* \"#utility.yul\":7976:7985   */\n      dup7\n        /* \"#utility.yul\":7972:7994   */\n      add\n        /* \"#utility.yul\":7951:8004   */\n      tag_292\n      jump\t// in\n    tag_446:\n        /* \"#utility.yul\":7941:8004   */\n      swap2\n      pop\n        /* \"#utility.yul\":7896:8014   */\n      pop\n        /* \"#utility.yul\":7547:8021   */\n      swap3\n      pop\n      swap3\n      swap1\n      pop\n      jump\t// out\n        /* \"#utility.yul\":8027:8356   */\n    tag_79:\n        /* \"#utility.yul\":8086:8092   */\n      0x00\n        /* \"#utility.yul\":8135:8137   */\n      0x20\n        /* \"#utility.yul\":8123:8132   */\n      dup3\n        /* \"#utility.yul\":8114:8121   */\n      dup5\n        /* \"#utility.yul\":8110:8133   */\n      sub\n        /* \"#utility.yul\":8106:8138   */\n      slt\n        /* \"#utility.yul\":8103:8222   */\n      iszero\n      tag_448\n      jumpi\n        /* \"#utility.yul\":8141:8220   */\n      tag_449\n      tag_280\n      jump\t// in\n    tag_449:\n        /* \"#utility.yul\":8103:8222   */\n    tag_448:\n        /* \"#utility.yul\":8261:8262   */\n      0x00\n        /* \"#utility.yul\":8286:8339   */\n      tag_450\n        /* \"#utility.yul\":8331:8338   */\n      dup5\n        /* \"#utility.yul\":8322:8328   */\n      dup3\n        /* \"#utility.yul\":8311:8320   */\n      dup6\n        /* \"#utility.yul\":8307:8329   */\n      add\n        /* \"#utility.yul\":8286:8339   */\n      tag_302\n      jump\t// in\n    tag_450:\n        /* \"#utility.yul\":8276:8339   */\n      swap2\n      pop\n        /* \"#utility.yul\":8232:8349   */\n      pop\n        /* \"#utility.yul\":8027:8356   */\n      swap3\n      swap2\n      pop\n      pop\n      jump\t// out\n        /* \"#utility.yul\":8362:8804   */\n    tag_82:\n        /* \"#utility.yul\":8511:8515   */\n      0x00\n        /* \"#utility.yul\":8549:8551   */\n      0x60\n        /* \"#utility.yul\":8538:8547   */\n      dup3\n        /* \"#utility.yul\":8534:8552   */\n      add\n        /* \"#utility.yul\":8526:8552   */\n      swap1\n      pop\n        /* \"#utility.yul\":8562:8633   */\n      tag_452\n        /* \"#utility.yul\":8630:8631   */\n      0x00\n        /* \"#utility.yul\":8619:8628   */\n      dup4\n        /* \"#utility.yul\":8615:8632   */\n      add\n        /* \"#utility.yul\":8606:8612   */\n      dup7\n        /* \"#utility.yul\":8562:8633   */\n      tag_288\n      jump\t// in\n    tag_452:\n        /* \"#utility.yul\":8643:8715   */\n      tag_453\n        /* \"#utility.yul\":8711:8713   */\n      0x20\n        /* \"#utility.yul\":8700:8709   */\n      dup4\n        /* \"#utility.yul\":8696:8714   */\n      add\n        /* \"#utility.yul\":8687:8693   */\n      dup6\n        /* \"#utility.yul\":8643:8715   */\n      tag_288\n      jump\t// in\n    tag_453:\n        /* \"#utility.yul\":8725:8797   */\n      tag_454\n        /* \"#utility.yul\":8793:8795   */\n      0x40\n        /* \"#utility.yul\":8782:8791   */\n      dup4\n        /* \"#utility.yul\":8778:8796   */\n      add\n        /* \"#utility.yul\":8769:8775   */\n      dup5\n        /* \"#utility.yul\":8725:8797   */\n      tag_288\n      jump\t// in\n    tag_454:\n        /* \"#utility.yul\":8362:8804   */\n      swap5\n      swap4\n      pop\n      pop\n      pop\n      pop\n      jump\t// out\n        /* \"#utility.yul\":8810:8966   */\n    tag_303:\n        /* \"#utility.yul\":8890:8899   */\n      0x00\n        /* \"#utility.yul\":8923:8960   */\n      tag_456\n        /* \"#utility.yul\":8954:8959   */\n      dup3\n        /* \"#utility.yul\":8923:8960   */\n      tag_276\n      jump\t// in\n    tag_456:\n        /* \"#utility.yul\":8910:8960   */\n      swap1\n      pop\n        /* \"#utility.yul\":8810:8966   */\n      swap2\n      swap1\n      pop\n      jump\t// out\n        /* \"#utility.yul\":8972:9163   */\n    tag_304:\n        /* \"#utility.yul\":9089:9156   */\n      tag_458\n        /* \"#utility.yul\":9150:9155   */\n      dup2\n        /* \"#utility.yul\":9089:9156   */\n      tag_303\n      jump\t// in\n    tag_458:\n        /* \"#utility.yul\":9084:9087   */\n      dup3\n        /* \"#utility.yul\":9077:9157   */\n      mstore\n        /* \"#utility.yul\":8972:9163   */\n      pop\n      pop\n      jump\t// out\n        /* \"#utility.yul\":9169:9451   */\n    tag_87:\n        /* \"#utility.yul\":9292:9296   */\n      0x00\n        /* \"#utility.yul\":9330:9332   */\n      0x20\n        /* \"#utility.yul\":9319:9328   */\n      dup3\n        /* \"#utility.yul\":9315:9333   */\n      add\n        /* \"#utility.yul\":9307:9333   */\n      swap1\n      pop\n        /* \"#utility.yul\":9343:9444   */\n      tag_460\n        /* \"#utility.yul\":9441:9442   */\n      0x00\n        /* \"#utility.yul\":9430:9439   */\n      dup4\n        /* \"#utility.yul\":9426:9443   */\n      add\n        /* \"#utility.yul\":9417:9423   */\n      dup5\n        /* \"#utility.yul\":9343:9444   */\n      tag_304\n      jump\t// in\n    tag_460:\n        /* \"#utility.yul\":9169:9451   */\n      swap3\n      swap2\n      pop\n      pop\n      jump\t// out\n        /* \"#utility.yul\":9457:9603   */\n    tag_305:\n        /* \"#utility.yul\":9527:9536   */\n      0x00\n        /* \"#utility.yul\":9560:9597   */\n      tag_462\n        /* \"#utility.yul\":9591:9596   */\n      dup3\n        /* \"#utility.yul\":9560:9597   */\n      tag_276\n      jump\t// in\n    tag_462:\n        /* \"#utility.yul\":9547:9597   */\n      swap1\n      pop\n        /* \"#utility.yul\":9457:9603   */\n      swap2\n      swap1\n      pop\n      jump\t// out\n        /* \"#utility.yul\":9609:9780   */\n    tag_306:\n        /* \"#utility.yul\":9716:9773   */\n      tag_464\n        /* \"#utility.yul\":9767:9772   */\n      dup2\n        /* \"#utility.yul\":9716:9773   */\n      tag_305\n      jump\t// in\n    tag_464:\n        /* \"#utility.yul\":9711:9714   */\n      dup3\n        /* \"#utility.yul\":9704:9774   */\n      mstore\n        /* \"#utility.yul\":9609:9780   */\n      pop\n      pop\n      jump\t// out\n        /* \"#utility.yul\":9786:10048   */\n    tag_96:\n        /* \"#utility.yul\":9899:9903   */\n      0x00\n        /* \"#utility.yul\":9937:9939   */\n      0x20\n        /* \"#utility.yul\":9926:9935   */\n      dup3\n        /* \"#utility.yul\":9922:9940   */\n      add\n        /* \"#utility.yul\":9914:9940   */\n      swap1\n      pop\n        /* \"#utility.yul\":9950:10041   */\n      tag_466\n        /* \"#utility.yul\":10038:10039   */\n      0x00\n        /* \"#utility.yul\":10027:10036   */\n      dup4\n        /* \"#utility.yul\":10023:10040   */\n      add\n        /* \"#utility.yul\":10014:10020   */\n      dup5\n        /* \"#utility.yul\":9950:10041   */\n      tag_306\n      jump\t// in\n    tag_466:\n        /* \"#utility.yul\":9786:10048   */\n      swap3\n      swap2\n      pop\n      pop\n      jump\t// out\n        /* \"#utility.yul\":10054:10234   */\n    tag_307:\n        /* \"#utility.yul\":10102:10179   */\n      0x4e487b7100000000000000000000000000000000000000000000000000000000\n        /* \"#utility.yul\":10099:10100   */\n      0x00\n        /* \"#utility.yul\":10092:10180   */\n      mstore\n        /* \"#utility.yul\":10199:10203   */\n      0x11\n        /* \"#utility.yul\":10196:10197   */\n      0x04\n        /* \"#utility.yul\":10189:10204   */\n      mstore\n        /* \"#utility.yul\":10223:10227   */\n      0x24\n        /* \"#utility.yul\":10220:10221   */\n      0x00\n        /* \"#utility.yul\":10213:10228   */\n      revert\n        /* \"#utility.yul\":10240:10434   */\n    tag_102:\n        /* \"#utility.yul\":10280:10284   */\n      0x00\n        /* \"#utility.yul\":10300:10320   */\n      tag_469\n        /* \"#utility.yul\":10318:10319   */\n      dup3\n        /* \"#utility.yul\":10300:10320   */\n      tag_287\n      jump\t// in\n    tag_469:\n        /* \"#utility.yul\":10295:10320   */\n      swap2\n      pop\n        /* \"#utility.yul\":10334:10354   */\n      tag_470\n        /* \"#utility.yul\":10352:10353   */\n      dup4\n        /* \"#utility.yul\":10334:10354   */\n      tag_287\n      jump\t// in\n    tag_470:\n        /* \"#utility.yul\":10329:10354   */\n      swap3\n      pop\n        /* \"#utility.yul\":10378:10379   */\n      dup3\n        /* \"#utility.yul\":10375:10376   */\n      dup3\n        /* \"#utility.yul\":10371:10380   */\n      sub\n        /* \"#utility.yul\":10363:10380   */\n      swap1\n      pop\n        /* \"#utility.yul\":10402:10403   */\n      dup2\n        /* \"#utility.yul\":10396:10400   */\n      dup2\n        /* \"#utility.yul\":10393:10404   */\n      gt\n        /* \"#utility.yul\":10390:10427   */\n      iszero\n      tag_471\n      jumpi\n        /* \"#utility.yul\":10407:10425   */\n      tag_472\n      tag_307\n      jump\t// in\n    tag_472:\n        /* \"#utility.yul\":10390:10427   */\n    tag_471:\n        /* \"#utility.yul\":10240:10434   */\n      swap3\n      swap2\n      pop\n      pop\n      jump\t// out\n        /* \"#utility.yul\":10440:10609   */\n    tag_308:\n        /* \"#utility.yul\":10524:10535   */\n      0x00\n        /* \"#utility.yul\":10558:10564   */\n      dup3\n        /* \"#utility.yul\":10553:10556   */\n      dup3\n        /* \"#utility.yul\":10546:10565   */\n      mstore\n        /* \"#utility.yul\":10598:10602   */\n      0x20\n        /* \"#utility.yul\":10593:10596   */\n      dup3\n        /* \"#utility.yul\":10589:10603   */\n      add\n        /* \"#utility.yul\":10574:10603   */\n      swap1\n      pop\n        /* \"#utility.yul\":10440:10609   */\n      swap3\n      swap2\n      pop\n      pop\n      jump\t// out\n        /* \"#utility.yul\":10615:10788   */\n    tag_309:\n        /* \"#utility.yul\":10755:10780   */\n      0x57616974206265666f7265206e65787420616374696f6e000000000000000000\n        /* \"#utility.yul\":10751:10752   */\n      0x00\n        /* \"#utility.yul\":10743:10749   */\n      dup3\n        /* \"#utility.yul\":10739:10753   */\n      add\n        /* \"#utility.yul\":10732:10781   */\n      mstore\n        /* \"#utility.yul\":10615:10788   */\n      pop\n      jump\t// out\n        /* \"#utility.yul\":10794:11160   */\n    tag_310:\n        /* \"#utility.yul\":10936:10939   */\n      0x00\n        /* \"#utility.yul\":10957:11024   */\n      tag_476\n        /* \"#utility.yul\":11021:11023   */\n      0x17\n        /* \"#utility.yul\":11016:11019   */\n      dup4\n        /* \"#utility.yul\":10957:11024   */\n      tag_308\n      jump\t// in\n    tag_476:\n        /* \"#utility.yul\":10950:11024   */\n      swap2\n      pop\n        /* \"#utility.yul\":11033:11126   */\n      tag_477\n        /* \"#utility.yul\":11122:11125   */\n      dup3\n        /* \"#utility.yul\":11033:11126   */\n      tag_309\n      jump\t// in\n    tag_477:\n        /* \"#utility.yul\":11151:11153   */\n      0x20\n        /* \"#utility.yul\":11146:11149   */\n      dup3\n        /* \"#utility.yul\":11142:11154   */\n      add\n        /* \"#utility.yul\":11135:11154   */\n      swap1\n      pop\n        /* \"#utility.yul\":10794:11160   */\n      swap2\n      swap1\n      pop\n      jump\t// out\n        /* \"#utility.yul\":11166:11585   */\n    tag_105:\n        /* \"#utility.yul\":11332:11336   */\n      0x00\n        /* \"#utility.yul\":11370:11372   */\n      0x20\n        /* \"#utility.yul\":11359:11368   */\n      dup3\n        /* \"#utility.yul\":11355:11373   */\n      add\n        /* \"#utility.yul\":11347:11373   */\n      swap1\n      pop\n        /* \"#utility.yul\":11419:11428   */\n      dup2\n        /* \"#utility.yul\":11413:11417   */\n      dup2\n        /* \"#utility.yul\":11409:11429   */\n      sub\n        /* \"#utility.yul\":11405:11406   */\n      0x00\n        /* \"#utility.yul\":11394:11403   */\n      dup4\n        /* \"#utility.yul\":11390:11407   */\n      add\n        /* \"#utility.yul\":11383:11430   */\n      mstore\n        /* \"#utility.yul\":11447:11578   */\n      tag_479\n        /* \"#utility.yul\":11573:11577   */\n      dup2\n        /* \"#utility.yul\":11447:11578   */\n      tag_310\n      jump\t// in\n    tag_479:\n        /* \"#utility.yul\":11439:11578   */\n      swap1\n      pop\n        /* \"#utility.yul\":11166:11585   */\n      swap2\n      swap1\n      pop\n      jump\t// out\n        /* \"#utility.yul\":11591:11782   */\n    tag_107:\n        /* \"#utility.yul\":11631:11634   */\n      0x00\n        /* \"#utility.yul\":11650:11670   */\n      tag_481\n        /* \"#utility.yul\":11668:11669   */\n      dup3\n        /* \"#utility.yul\":11650:11670   */\n      tag_287\n      jump\t// in\n    tag_481:\n        /* \"#utility.yul\":11645:11670   */\n      swap2\n      pop\n        /* \"#utility.yul\":11684:11704   */\n      tag_482\n        /* \"#utility.yul\":11702:11703   */\n      dup4\n        /* \"#utility.yul\":11684:11704   */\n      tag_287\n      jump\t// in\n    tag_482:\n        /* \"#utility.yul\":11679:11704   */\n      swap3\n      pop\n        /* \"#utility.yul\":11727:11728   */\n      dup3\n        /* \"#utility.yul\":11724:11725   */\n      dup3\n        /* \"#utility.yul\":11720:11729   */\n      add\n        /* \"#utility.yul\":11713:11729   */\n      swap1\n      pop\n        /* \"#utility.yul\":11748:11751   */\n      dup1\n        /* \"#utility.yul\":11745:11746   */\n      dup3\n        /* \"#utility.yul\":11742:11752   */\n      gt\n        /* \"#utility.yul\":11739:11775   */\n      iszero\n      tag_483\n      jumpi\n        /* \"#utility.yul\":11755:11773   */\n      tag_484\n      tag_307\n      jump\t// in\n    tag_484:\n        /* \"#utility.yul\":11739:11775   */\n    tag_483:\n        /* \"#utility.yul\":11591:11782   */\n      swap3\n      swap2\n      pop\n      pop\n      jump\t// out\n        /* \"#utility.yul\":11788:12198   */\n    tag_109:\n        /* \"#utility.yul\":11828:11835   */\n      0x00\n        /* \"#utility.yul\":11851:11871   */\n      tag_486\n        /* \"#utility.yul\":11869:11870   */\n      dup3\n        /* \"#utility.yul\":11851:11871   */\n      tag_287\n      jump\t// in\n    tag_486:\n        /* \"#utility.yul\":11846:11871   */\n      swap2\n      pop\n        /* \"#utility.yul\":11885:11905   */\n      tag_487\n        /* \"#utility.yul\":11903:11904   */\n      dup4\n        /* \"#utility.yul\":11885:11905   */\n      tag_287\n      jump\t// in\n    tag_487:\n        /* \"#utility.yul\":11880:11905   */\n      swap3\n      pop\n        /* \"#utility.yul\":11940:11941   */\n      dup3\n        /* \"#utility.yul\":11937:11938   */\n      dup3\n        /* \"#utility.yul\":11933:11942   */\n      mul\n        /* \"#utility.yul\":11962:11992   */\n      tag_488\n        /* \"#utility.yul\":11980:11991   */\n      dup2\n        /* \"#utility.yul\":11962:11992   */\n      tag_287\n      jump\t// in\n    tag_488:\n        /* \"#utility.yul\":11951:11992   */\n      swap2\n      pop\n        /* \"#utility.yul\":12141:12142   */\n      dup3\n        /* \"#utility.yul\":12132:12139   */\n      dup3\n        /* \"#utility.yul\":12128:12143   */\n      div\n        /* \"#utility.yul\":12125:12126   */\n      dup5\n        /* \"#utility.yul\":12122:12144   */\n      eq\n        /* \"#utility.yul\":12102:12103   */\n      dup4\n        /* \"#utility.yul\":12095:12104   */\n      iszero\n        /* \"#utility.yul\":12075:12158   */\n      or\n        /* \"#utility.yul\":12052:12191   */\n      tag_489\n      jumpi\n        /* \"#utility.yul\":12171:12189   */\n      tag_490\n      tag_307\n      jump\t// in\n    tag_490:\n        /* \"#utility.yul\":12052:12191   */\n    tag_489:\n        /* \"#utility.yul\":11836:12198   */\n      pop\n        /* \"#utility.yul\":11788:12198   */\n      swap3\n      swap2\n      pop\n      pop\n      jump\t// out\n        /* \"#utility.yul\":12204:12347   */\n    tag_311:\n        /* \"#utility.yul\":12261:12266   */\n      0x00\n        /* \"#utility.yul\":12292:12298   */\n      dup2\n        /* \"#utility.yul\":12286:12299   */\n      mload\n        /* \"#utility.yul\":12277:12299   */\n      swap1\n      pop\n        /* \"#utility.yul\":12308:12341   */\n      tag_492\n        /* \"#utility.yul\":12335:12340   */\n      dup2\n        /* \"#utility.yul\":12308:12341   */\n      tag_291\n      jump\t// in\n    tag_492:\n        /* \"#utility.yul\":12204:12347   */\n      swap3\n      swap2\n      pop\n      pop\n      jump\t// out\n        /* \"#utility.yul\":12353:12704   */\n    tag_114:\n        /* \"#utility.yul\":12423:12429   */\n      0x00\n        /* \"#utility.yul\":12472:12474   */\n      0x20\n        /* \"#utility.yul\":12460:12469   */\n      dup3\n        /* \"#utility.yul\":12451:12458   */\n      dup5\n        /* \"#utility.yul\":12447:12470   */\n      sub\n        /* \"#utility.yul\":12443:12475   */\n      slt\n        /* \"#utility.yul\":12440:12559   */\n      iszero\n      tag_494\n      jumpi\n        /* \"#utility.yul\":12478:12557   */\n      tag_495\n      tag_280\n      jump\t// in\n    tag_495:\n        /* \"#utility.yul\":12440:12559   */\n    tag_494:\n        /* \"#utility.yul\":12598:12599   */\n      0x00\n        /* \"#utility.yul\":12623:12687   */\n      tag_496\n        /* \"#utility.yul\":12679:12686   */\n      dup5\n        /* \"#utility.yul\":12670:12676   */\n      dup3\n        /* \"#utility.yul\":12659:12668   */\n      dup6\n        /* \"#utility.yul\":12655:12677   */\n      add\n        /* \"#utility.yul\":12623:12687   */\n      tag_311\n      jump\t// in\n    tag_496:\n        /* \"#utility.yul\":12613:12687   */\n      swap2\n      pop\n        /* \"#utility.yul\":12569:12697   */\n      pop\n        /* \"#utility.yul\":12353:12704   */\n      swap3\n      swap2\n      pop\n      pop\n      jump\t// out\n        /* \"#utility.yul\":12710:12879   */\n    tag_312:\n        /* \"#utility.yul\":12850:12871   */\n      0x496e73756666696369656e7420746f6b656e7300000000000000000000000000\n        /* \"#utility.yul\":12846:12847   */\n      0x00\n        /* \"#utility.yul\":12838:12844   */\n      dup3\n        /* \"#utility.yul\":12834:12848   */\n      add\n        /* \"#utility.yul\":12827:12872   */\n      mstore\n        /* \"#utility.yul\":12710:12879   */\n      pop\n      jump\t// out\n        /* \"#utility.yul\":12885:13251   */\n    tag_313:\n        /* \"#utility.yul\":13027:13030   */\n      0x00\n        /* \"#utility.yul\":13048:13115   */\n      tag_499\n        /* \"#utility.yul\":13112:13114   */\n      0x13\n        /* \"#utility.yul\":13107:13110   */\n      dup4\n        /* \"#utility.yul\":13048:13115   */\n      tag_308\n      jump\t// in\n    tag_499:\n        /* \"#utility.yul\":13041:13115   */\n      swap2\n      pop\n        /* \"#utility.yul\":13124:13217   */\n      tag_500\n        /* \"#utility.yul\":13213:13216   */\n      dup3\n        /* \"#utility.yul\":13124:13217   */\n      tag_312\n      jump\t// in\n    tag_500:\n        /* \"#utility.yul\":13242:13244   */\n      0x20\n        /* \"#utility.yul\":13237:13240   */\n      dup3\n        /* \"#utility.yul\":13233:13245   */\n      add\n        /* \"#utility.yul\":13226:13245   */\n      swap1\n      pop\n        /* \"#utility.yul\":12885:13251   */\n      swap2\n      swap1\n      pop\n      jump\t// out\n        /* \"#utility.yul\":13257:13676   */\n    tag_117:\n        /* \"#utility.yul\":13423:13427   */\n      0x00\n        /* \"#utility.yul\":13461:13463   */\n      0x20\n        /* \"#utility.yul\":13450:13459   */\n      dup3\n        /* \"#utility.yul\":13446:13464   */\n      add\n        /* \"#utility.yul\":13438:13464   */\n      swap1\n      pop\n        /* \"#utility.yul\":13510:13519   */\n      dup2\n        /* \"#utility.yul\":13504:13508   */\n      dup2\n        /* \"#utility.yul\":13500:13520   */\n      sub\n        /* \"#utility.yul\":13496:13497   */\n      0x00\n        /* \"#utility.yul\":13485:13494   */\n      dup4\n        /* \"#utility.yul\":13481:13498   */\n      add\n        /* \"#utility.yul\":13474:13521   */\n      mstore\n        /* \"#utility.yul\":13538:13669   */\n      tag_502\n        /* \"#utility.yul\":13664:13668   */\n      dup2\n        /* \"#utility.yul\":13538:13669   */\n      tag_313\n      jump\t// in\n    tag_502:\n        /* \"#utility.yul\":13530:13669   */\n      swap1\n      pop\n        /* \"#utility.yul\":13257:13676   */\n      swap2\n      swap1\n      pop\n      jump\t// out\n        /* \"#utility.yul\":13682:14014   */\n    tag_119:\n        /* \"#utility.yul\":13803:13807   */\n      0x00\n        /* \"#utility.yul\":13841:13843   */\n      0x40\n        /* \"#utility.yul\":13830:13839   */\n      dup3\n        /* \"#utility.yul\":13826:13844   */\n      add\n        /* \"#utility.yul\":13818:13844   */\n      swap1\n      pop\n        /* \"#utility.yul\":13854:13925   */\n      tag_504\n        /* \"#utility.yul\":13922:13923   */\n      0x00\n        /* \"#utility.yul\":13911:13920   */\n      dup4\n        /* \"#utility.yul\":13907:13924   */\n      add\n        /* \"#utility.yul\":13898:13904   */\n      dup6\n        /* \"#utility.yul\":13854:13925   */\n      tag_298\n      jump\t// in\n    tag_504:\n        /* \"#utility.yul\":13935:14007   */\n      tag_505\n        /* \"#utility.yul\":14003:14005   */\n      0x20\n        /* \"#utility.yul\":13992:14001   */\n      dup4\n        /* \"#utility.yul\":13988:14006   */\n      add\n        /* \"#utility.yul\":13979:13985   */\n      dup5\n        /* \"#utility.yul\":13935:14007   */\n      tag_288\n      jump\t// in\n    tag_505:\n        /* \"#utility.yul\":13682:14014   */\n      swap4\n      swap3\n      pop\n      pop\n      pop\n      jump\t// out\n        /* \"#utility.yul\":14020:14352   */\n    tag_134:\n        /* \"#utility.yul\":14141:14145   */\n      0x00\n        /* \"#utility.yul\":14179:14181   */\n      0x40\n        /* \"#utility.yul\":14168:14177   */\n      dup3\n        /* \"#utility.yul\":14164:14182   */\n      add\n        /* \"#utility.yul\":14156:14182   */\n      swap1\n      pop\n        /* \"#utility.yul\":14192:14263   */\n      tag_507\n        /* \"#utility.yul\":14260:14261   */\n      0x00\n        /* \"#utility.yul\":14249:14258   */\n      dup4\n        /* \"#utility.yul\":14245:14262   */\n      add\n        /* \"#utility.yul\":14236:14242   */\n      dup6\n        /* \"#utility.yul\":14192:14263   */\n      tag_288\n      jump\t// in\n    tag_507:\n        /* \"#utility.yul\":14273:14345   */\n      tag_508\n        /* \"#utility.yul\":14341:14343   */\n      0x20\n        /* \"#utility.yul\":14330:14339   */\n      dup4\n        /* \"#utility.yul\":14326:14344   */\n      add\n        /* \"#utility.yul\":14317:14323   */\n      dup5\n        /* \"#utility.yul\":14273:14345   */\n      tag_288\n      jump\t// in\n    tag_508:\n        /* \"#utility.yul\":14020:14352   */\n      swap4\n      swap3\n      pop\n      pop\n      pop\n      jump\t// out\n        /* \"#utility.yul\":14358:14501   */\n    tag_314:\n        /* \"#utility.yul\":14415:14420   */\n      0x00\n        /* \"#utility.yul\":14446:14452   */\n      dup2\n        /* \"#utility.yul\":14440:14453   */\n      mload\n        /* \"#utility.yul\":14431:14453   */\n      swap1\n      pop\n        /* \"#utility.yul\":14462:14495   */\n      tag_510\n        /* \"#utility.yul\":14489:14494   */\n      dup2\n        /* \"#utility.yul\":14462:14495   */\n      tag_301\n      jump\t// in\n    tag_510:\n        /* \"#utility.yul\":14358:14501   */\n      swap3\n      swap2\n      pop\n      pop\n      jump\t// out\n        /* \"#utility.yul\":14507:14858   */\n    tag_156:\n        /* \"#utility.yul\":14577:14583   */\n      0x00\n        /* \"#utility.yul\":14626:14628   */\n      0x20\n        /* \"#utility.yul\":14614:14623   */\n      dup3\n        /* \"#utility.yul\":14605:14612   */\n      dup5\n        /* \"#utility.yul\":14601:14624   */\n      sub\n        /* \"#utility.yul\":14597:14629   */\n      slt\n        /* \"#utility.yul\":14594:14713   */\n      iszero\n      tag_512\n      jumpi\n        /* \"#utility.yul\":14632:14711   */\n      tag_513\n      tag_280\n      jump\t// in\n    tag_513:\n        /* \"#utility.yul\":14594:14713   */\n    tag_512:\n        /* \"#utility.yul\":14752:14753   */\n      0x00\n        /* \"#utility.yul\":14777:14841   */\n      tag_514\n        /* \"#utility.yul\":14833:14840   */\n      dup5\n        /* \"#utility.yul\":14824:14830   */\n      dup3\n        /* \"#utility.yul\":14813:14822   */\n      dup6\n        /* \"#utility.yul\":14809:14831   */\n      add\n        /* \"#utility.yul\":14777:14841   */\n      tag_314\n      jump\t// in\n    tag_514:\n        /* \"#utility.yul\":14767:14841   */\n      swap2\n      pop\n        /* \"#utility.yul\":14723:14851   */\n      pop\n        /* \"#utility.yul\":14507:14858   */\n      swap3\n      swap2\n      pop\n      pop\n      jump\t// out\n        /* \"#utility.yul\":14864:15040   */\n    tag_315:\n        /* \"#utility.yul\":15004:15032   */\n      0x4e6f7420746865206f776e6572206f6620746869732066697368000000000000\n        /* \"#utility.yul\":15000:15001   */\n      0x00\n        /* \"#utility.yul\":14992:14998   */\n      dup3\n        /* \"#utility.yul\":14988:15002   */\n      add\n        /* \"#utility.yul\":14981:15033   */\n      mstore\n        /* \"#utility.yul\":14864:15040   */\n      pop\n      jump\t// out\n        /* \"#utility.yul\":15046:15412   */\n    tag_316:\n        /* \"#utility.yul\":15188:15191   */\n      0x00\n        /* \"#utility.yul\":15209:15276   */\n      tag_517\n        /* \"#utility.yul\":15273:15275   */\n      0x1a\n        /* \"#utility.yul\":15268:15271   */\n      dup4\n        /* \"#utility.yul\":15209:15276   */\n      tag_308\n      jump\t// in\n    tag_517:\n        /* \"#utility.yul\":15202:15276   */\n      swap2\n      pop\n        /* \"#utility.yul\":15285:15378   */\n      tag_518\n        /* \"#utility.yul\":15374:15377   */\n      dup3\n        /* \"#utility.yul\":15285:15378   */\n      tag_315\n      jump\t// in\n    tag_518:\n        /* \"#utility.yul\":15403:15405   */\n      0x20\n        /* \"#utility.yul\":15398:15401   */\n      dup3\n        /* \"#utility.yul\":15394:15406   */\n      add\n        /* \"#utility.yul\":15387:15406   */\n      swap1\n      pop\n        /* \"#utility.yul\":15046:15412   */\n      swap2\n      swap1\n      pop\n      jump\t// out\n        /* \"#utility.yul\":15418:15837   */\n    tag_159:\n        /* \"#utility.yul\":15584:15588   */\n      0x00\n        /* \"#utility.yul\":15622:15624   */\n      0x20\n        /* \"#utility.yul\":15611:15620   */\n      dup3\n        /* \"#utility.yul\":15607:15625   */\n      add\n        /* \"#utility.yul\":15599:15625   */\n      swap1\n      pop\n        /* \"#utility.yul\":15671:15680   */\n      dup2\n        /* \"#utility.yul\":15665:15669   */\n      dup2\n        /* \"#utility.yul\":15661:15681   */\n      sub\n        /* \"#utility.yul\":15657:15658   */\n      0x00\n        /* \"#utility.yul\":15646:15655   */\n      dup4\n        /* \"#utility.yul\":15642:15659   */\n      add\n        /* \"#utility.yul\":15635:15682   */\n      mstore\n        /* \"#utility.yul\":15699:15830   */\n      tag_520\n        /* \"#utility.yul\":15825:15829   */\n      dup2\n        /* \"#utility.yul\":15699:15830   */\n      tag_316\n      jump\t// in\n    tag_520:\n        /* \"#utility.yul\":15691:15830   */\n      swap1\n      pop\n        /* \"#utility.yul\":15418:15837   */\n      swap2\n      swap1\n      pop\n      jump\t// out\n        /* \"#utility.yul\":15843:15958   */\n    tag_317:\n        /* \"#utility.yul\":15928:15951   */\n      tag_522\n        /* \"#utility.yul\":15945:15950   */\n      dup2\n        /* \"#utility.yul\":15928:15951   */\n      tag_282\n      jump\t// in\n    tag_522:\n        /* \"#utility.yul\":15923:15926   */\n      dup3\n        /* \"#utility.yul\":15916:15952   */\n      mstore\n        /* \"#utility.yul\":15843:15958   */\n      pop\n      pop\n      jump\t// out\n        /* \"#utility.yul\":15964:16062   */\n    tag_318:\n        /* \"#utility.yul\":16015:16021   */\n      0x00\n        /* \"#utility.yul\":16049:16054   */\n      dup2\n        /* \"#utility.yul\":16043:16055   */\n      mload\n        /* \"#utility.yul\":16033:16055   */\n      swap1\n      pop\n        /* \"#utility.yul\":15964:16062   */\n      swap2\n      swap1\n      pop\n      jump\t// out\n        /* \"#utility.yul\":16068:16236   */\n    tag_319:\n        /* \"#utility.yul\":16151:16162   */\n      0x00\n        /* \"#utility.yul\":16185:16191   */\n      dup3\n        /* \"#utility.yul\":16180:16183   */\n      dup3\n        /* \"#utility.yul\":16173:16192   */\n      mstore\n        /* \"#utility.yul\":16225:16229   */\n      0x20\n        /* \"#utility.yul\":16220:16223   */\n      dup3\n        /* \"#utility.yul\":16216:16230   */\n      add\n        /* \"#utility.yul\":16201:16230   */\n      swap1\n      pop\n        /* \"#utility.yul\":16068:16236   */\n      swap3\n      swap2\n      pop\n      pop\n      jump\t// out\n        /* \"#utility.yul\":16242:16488   */\n    tag_320:\n        /* \"#utility.yul\":16323:16324   */\n      0x00\n        /* \"#utility.yul\":16333:16446   */\n    tag_526:\n        /* \"#utility.yul\":16347:16353   */\n      dup4\n        /* \"#utility.yul\":16344:16345   */\n      dup2\n        /* \"#utility.yul\":16341:16354   */\n      lt\n        /* \"#utility.yul\":16333:16446   */\n      iszero\n      tag_528\n      jumpi\n        /* \"#utility.yul\":16432:16433   */\n      dup1\n        /* \"#utility.yul\":16427:16430   */\n      dup3\n        /* \"#utility.yul\":16423:16434   */\n      add\n        /* \"#utility.yul\":16417:16435   */\n      mload\n        /* \"#utility.yul\":16413:16414   */\n      dup2\n        /* \"#utility.yul\":16408:16411   */\n      dup5\n        /* \"#utility.yul\":16404:16415   */\n      add\n        /* \"#utility.yul\":16397:16436   */\n      mstore\n        /* \"#utility.yul\":16369:16371   */\n      0x20\n        /* \"#utility.yul\":16366:16367   */\n      dup2\n        /* \"#utility.yul\":16362:16372   */\n      add\n        /* \"#utility.yul\":16357:16372   */\n      swap1\n      pop\n        /* \"#utility.yul\":16333:16446   */\n      jump(tag_526)\n    tag_528:\n        /* \"#utility.yul\":16480:16481   */\n      0x00\n        /* \"#utility.yul\":16471:16477   */\n      dup5\n        /* \"#utility.yul\":16466:16469   */\n      dup5\n        /* \"#utility.yul\":16462:16478   */\n      add\n        /* \"#utility.yul\":16455:16482   */\n      mstore\n        /* \"#utility.yul\":16304:16488   */\n      pop\n        /* \"#utility.yul\":16242:16488   */\n      pop\n      pop\n      pop\n      jump\t// out\n        /* \"#utility.yul\":16494:16596   */\n    tag_321:\n        /* \"#utility.yul\":16535:16541   */\n      0x00\n        /* \"#utility.yul\":16586:16588   */\n      0x1f\n        /* \"#utility.yul\":16582:16589   */\n      not\n        /* \"#utility.yul\":16577:16579   */\n      0x1f\n        /* \"#utility.yul\":16570:16575   */\n      dup4\n        /* \"#utility.yul\":16566:16580   */\n      add\n        /* \"#utility.yul\":16562:16590   */\n      and\n        /* \"#utility.yul\":16552:16590   */\n      swap1\n      pop\n        /* \"#utility.yul\":16494:16596   */\n      swap2\n      swap1\n      pop\n      jump\t// out\n        /* \"#utility.yul\":16602:16975   */\n    tag_322:\n        /* \"#utility.yul\":16688:16691   */\n      0x00\n        /* \"#utility.yul\":16716:16754   */\n      tag_531\n        /* \"#utility.yul\":16748:16753   */\n      dup3\n        /* \"#utility.yul\":16716:16754   */\n      tag_318\n      jump\t// in\n    tag_531:\n        /* \"#utility.yul\":16770:16840   */\n      tag_532\n        /* \"#utility.yul\":16833:16839   */\n      dup2\n        /* \"#utility.yul\":16828:16831   */\n      dup6\n        /* \"#utility.yul\":16770:16840   */\n      tag_319\n      jump\t// in\n    tag_532:\n        /* \"#utility.yul\":16763:16840   */\n      swap4\n      pop\n        /* \"#utility.yul\":16849:16914   */\n      tag_533\n        /* \"#utility.yul\":16907:16913   */\n      dup2\n        /* \"#utility.yul\":16902:16905   */\n      dup6\n        /* \"#utility.yul\":16895:16899   */\n      0x20\n        /* \"#utility.yul\":16888:16893   */\n      dup7\n        /* \"#utility.yul\":16884:16900   */\n      add\n        /* \"#utility.yul\":16849:16914   */\n      tag_320\n      jump\t// in\n    tag_533:\n        /* \"#utility.yul\":16939:16968   */\n      tag_534\n        /* \"#utility.yul\":16961:16967   */\n      dup2\n        /* \"#utility.yul\":16939:16968   */\n      tag_321\n      jump\t// in\n    tag_534:\n        /* \"#utility.yul\":16934:16937   */\n      dup5\n        /* \"#utility.yul\":16930:16969   */\n      add\n        /* \"#utility.yul\":16923:16969   */\n      swap2\n      pop\n        /* \"#utility.yul\":16692:16975   */\n      pop\n        /* \"#utility.yul\":16602:16975   */\n      swap3\n      swap2\n      pop\n      pop\n      jump\t// out\n        /* \"#utility.yul\":16981:17506   */\n    tag_166:\n        /* \"#utility.yul\":17146:17150   */\n      0x00\n        /* \"#utility.yul\":17184:17186   */\n      0x60\n        /* \"#utility.yul\":17173:17182   */\n      dup3\n        /* \"#utility.yul\":17169:17187   */\n      add\n        /* \"#utility.yul\":17161:17187   */\n      swap1\n      pop\n        /* \"#utility.yul\":17197:17266   */\n      tag_536\n        /* \"#utility.yul\":17263:17264   */\n      0x00\n        /* \"#utility.yul\":17252:17261   */\n      dup4\n        /* \"#utility.yul\":17248:17265   */\n      add\n        /* \"#utility.yul\":17239:17245   */\n      dup7\n        /* \"#utility.yul\":17197:17266   */\n      tag_317\n      jump\t// in\n    tag_536:\n        /* \"#utility.yul\":17276:17348   */\n      tag_537\n        /* \"#utility.yul\":17344:17346   */\n      0x20\n        /* \"#utility.yul\":17333:17342   */\n      dup4\n        /* \"#utility.yul\":17329:17347   */\n      add\n        /* \"#utility.yul\":17320:17326   */\n      dup6\n        /* \"#utility.yul\":17276:17348   */\n      tag_286\n      jump\t// in\n    tag_537:\n        /* \"#utility.yul\":17395:17404   */\n      dup2\n        /* \"#utility.yul\":17389:17393   */\n      dup2\n        /* \"#utility.yul\":17385:17405   */\n      sub\n        /* \"#utility.yul\":17380:17382   */\n      0x40\n        /* \"#utility.yul\":17369:17378   */\n      dup4\n        /* \"#utility.yul\":17365:17383   */\n      add\n        /* \"#utility.yul\":17358:17406   */\n      mstore\n        /* \"#utility.yul\":17423:17499   */\n      tag_538\n        /* \"#utility.yul\":17494:17498   */\n      dup2\n        /* \"#utility.yul\":17485:17491   */\n      dup5\n        /* \"#utility.yul\":17423:17499   */\n      tag_322\n      jump\t// in\n    tag_538:\n        /* \"#utility.yul\":17415:17499   */\n      swap1\n      pop\n        /* \"#utility.yul\":16981:17506   */\n      swap5\n      swap4\n      pop\n      pop\n      pop\n      pop\n      jump\t// out\n        /* \"#utility.yul\":17512:17655   */\n    tag_323:\n        /* \"#utility.yul\":17569:17574   */\n      0x00\n        /* \"#utility.yul\":17600:17606   */\n      dup2\n        /* \"#utility.yul\":17594:17607   */\n      mload\n        /* \"#utility.yul\":17585:17607   */\n      swap1\n      pop\n        /* \"#utility.yul\":17616:17649   */\n      tag_540\n        /* \"#utility.yul\":17643:17648   */\n      dup2\n        /* \"#utility.yul\":17616:17649   */\n      tag_289\n      jump\t// in\n    tag_540:\n        /* \"#utility.yul\":17512:17655   */\n      swap3\n      swap2\n      pop\n      pop\n      jump\t// out\n        /* \"#utility.yul\":17661:18012   */\n    tag_170:\n        /* \"#utility.yul\":17731:17737   */\n      0x00\n        /* \"#utility.yul\":17780:17782   */\n      0x20\n        /* \"#utility.yul\":17768:17777   */\n      dup3\n        /* \"#utility.yul\":17759:17766   */\n      dup5\n        /* \"#utility.yul\":17755:17778   */\n      sub\n        /* \"#utility.yul\":17751:17783   */\n      slt\n        /* \"#utility.yul\":17748:17867   */\n      iszero\n      tag_542\n      jumpi\n        /* \"#utility.yul\":17786:17865   */\n      tag_543\n      tag_280\n      jump\t// in\n    tag_543:\n        /* \"#utility.yul\":17748:17867   */\n    tag_542:\n        /* \"#utility.yul\":17906:17907   */\n      0x00\n        /* \"#utility.yul\":17931:17995   */\n      tag_544\n        /* \"#utility.yul\":17987:17994   */\n      dup5\n        /* \"#utility.yul\":17978:17984   */\n      dup3\n        /* \"#utility.yul\":17967:17976   */\n      dup6\n        /* \"#utility.yul\":17963:17985   */\n      add\n        /* \"#utility.yul\":17931:17995   */\n      tag_323\n      jump\t// in\n    tag_544:\n        /* \"#utility.yul\":17921:17995   */\n      swap2\n      pop\n        /* \"#utility.yul\":17877:18005   */\n      pop\n        /* \"#utility.yul\":17661:18012   */\n      swap3\n      swap2\n      pop\n      pop\n      jump\t// out\n        /* \"#utility.yul\":18018:18346   */\n    tag_172:\n        /* \"#utility.yul\":18137:18141   */\n      0x00\n        /* \"#utility.yul\":18175:18177   */\n      0x40\n        /* \"#utility.yul\":18164:18173   */\n      dup3\n        /* \"#utility.yul\":18160:18178   */\n      add\n        /* \"#utility.yul\":18152:18178   */\n      swap1\n      pop\n        /* \"#utility.yul\":18188:18257   */\n      tag_546\n        /* \"#utility.yul\":18254:18255   */\n      0x00\n        /* \"#utility.yul\":18243:18252   */\n      dup4\n        /* \"#utility.yul\":18239:18256   */\n      add\n        /* \"#utility.yul\":18230:18236   */\n      dup6\n        /* \"#utility.yul\":18188:18257   */\n      tag_317\n      jump\t// in\n    tag_546:\n        /* \"#utility.yul\":18267:18339   */\n      tag_547\n        /* \"#utility.yul\":18335:18337   */\n      0x20\n        /* \"#utility.yul\":18324:18333   */\n      dup4\n        /* \"#utility.yul\":18320:18338   */\n      add\n        /* \"#utility.yul\":18311:18317   */\n      dup5\n        /* \"#utility.yul\":18267:18339   */\n      tag_288\n      jump\t// in\n    tag_547:\n        /* \"#utility.yul\":18018:18346   */\n      swap4\n      swap3\n      pop\n      pop\n      pop\n      jump\t// out\n        /* \"#utility.yul\":18352:18574   */\n    tag_324:\n        /* \"#utility.yul\":18492:18526   */\n      0x496e73756666696369656e7420696e746572636861696e20676173207061796d\n        /* \"#utility.yul\":18488:18489   */\n      0x00\n        /* \"#utility.yul\":18480:18486   */\n      dup3\n        /* \"#utility.yul\":18476:18490   */\n      add\n        /* \"#utility.yul\":18469:18527   */\n      mstore\n        /* \"#utility.yul\":18561:18566   */\n      0x656e740000000000000000000000000000000000000000000000000000000000\n        /* \"#utility.yul\":18556:18558   */\n      0x20\n        /* \"#utility.yul\":18548:18554   */\n      dup3\n        /* \"#utility.yul\":18544:18559   */\n      add\n        /* \"#utility.yul\":18537:18567   */\n      mstore\n        /* \"#utility.yul\":18352:18574   */\n      pop\n      jump\t// out\n        /* \"#utility.yul\":18580:18946   */\n    tag_325:\n        /* \"#utility.yul\":18722:18725   */\n      0x00\n        /* \"#utility.yul\":18743:18810   */\n      tag_550\n        /* \"#utility.yul\":18807:18809   */\n      0x23\n        /* \"#utility.yul\":18802:18805   */\n      dup4\n        /* \"#utility.yul\":18743:18810   */\n      tag_308\n      jump\t// in\n    tag_550:\n        /* \"#utility.yul\":18736:18810   */\n      swap2\n      pop\n        /* \"#utility.yul\":18819:18912   */\n      tag_551\n        /* \"#utility.yul\":18908:18911   */\n      dup3\n        /* \"#utility.yul\":18819:18912   */\n      tag_324\n      jump\t// in\n    tag_551:\n        /* \"#utility.yul\":18937:18939   */\n      0x40\n        /* \"#utility.yul\":18932:18935   */\n      dup3\n        /* \"#utility.yul\":18928:18940   */\n      add\n        /* \"#utility.yul\":18921:18940   */\n      swap1\n      pop\n        /* \"#utility.yul\":18580:18946   */\n      swap2\n      swap1\n      pop\n      jump\t// out\n        /* \"#utility.yul\":18952:19371   */\n    tag_178:\n        /* \"#utility.yul\":19118:19122   */\n      0x00\n        /* \"#utility.yul\":19156:19158   */\n      0x20\n        /* \"#utility.yul\":19145:19154   */\n      dup3\n        /* \"#utility.yul\":19141:19159   */\n      add\n        /* \"#utility.yul\":19133:19159   */\n      swap1\n      pop\n        /* \"#utility.yul\":19205:19214   */\n      dup2\n        /* \"#utility.yul\":19199:19203   */\n      dup2\n        /* \"#utility.yul\":19195:19215   */\n      sub\n        /* \"#utility.yul\":19191:19192   */\n      0x00\n        /* \"#utility.yul\":19180:19189   */\n      dup4\n        /* \"#utility.yul\":19176:19193   */\n      add\n        /* \"#utility.yul\":19169:19216   */\n      mstore\n        /* \"#utility.yul\":19233:19364   */\n      tag_553\n        /* \"#utility.yul\":19359:19363   */\n      dup2\n        /* \"#utility.yul\":19233:19364   */\n      tag_325\n      jump\t// in\n    tag_553:\n        /* \"#utility.yul\":19225:19364   */\n      swap1\n      pop\n        /* \"#utility.yul\":18952:19371   */\n      swap2\n      swap1\n      pop\n      jump\t// out\n        /* \"#utility.yul\":19377:19926   */\n    tag_180:\n        /* \"#utility.yul\":19552:19556   */\n      0x00\n        /* \"#utility.yul\":19590:19593   */\n      0x80\n        /* \"#utility.yul\":19579:19588   */\n      dup3\n        /* \"#utility.yul\":19575:19594   */\n      add\n        /* \"#utility.yul\":19567:19594   */\n      swap1\n      pop\n        /* \"#utility.yul\":19604:19675   */\n      tag_555\n        /* \"#utility.yul\":19672:19673   */\n      0x00\n        /* \"#utility.yul\":19661:19670   */\n      dup4\n        /* \"#utility.yul\":19657:19674   */\n      add\n        /* \"#utility.yul\":19648:19654   */\n      dup8\n        /* \"#utility.yul\":19604:19675   */\n      tag_286\n      jump\t// in\n    tag_555:\n        /* \"#utility.yul\":19685:19755   */\n      tag_556\n        /* \"#utility.yul\":19751:19753   */\n      0x20\n        /* \"#utility.yul\":19740:19749   */\n      dup4\n        /* \"#utility.yul\":19736:19754   */\n      add\n        /* \"#utility.yul\":19727:19733   */\n      dup7\n        /* \"#utility.yul\":19685:19755   */\n      tag_317\n      jump\t// in\n    tag_556:\n        /* \"#utility.yul\":19765:19837   */\n      tag_557\n        /* \"#utility.yul\":19833:19835   */\n      0x40\n        /* \"#utility.yul\":19822:19831   */\n      dup4\n        /* \"#utility.yul\":19818:19836   */\n      add\n        /* \"#utility.yul\":19809:19815   */\n      dup6\n        /* \"#utility.yul\":19765:19837   */\n      tag_288\n      jump\t// in\n    tag_557:\n        /* \"#utility.yul\":19847:19919   */\n      tag_558\n        /* \"#utility.yul\":19915:19917   */\n      0x60\n        /* \"#utility.yul\":19904:19913   */\n      dup4\n        /* \"#utility.yul\":19900:19918   */\n      add\n        /* \"#utility.yul\":19891:19897   */\n      dup5\n        /* \"#utility.yul\":19847:19919   */\n      tag_298\n      jump\t// in\n    tag_558:\n        /* \"#utility.yul\":19377:19926   */\n      swap6\n      swap5\n      pop\n      pop\n      pop\n      pop\n      pop\n      jump\t// out\n        /* \"#utility.yul\":19932:20370   */\n    tag_189:\n        /* \"#utility.yul\":20079:20083   */\n      0x00\n        /* \"#utility.yul\":20117:20119   */\n      0x60\n        /* \"#utility.yul\":20106:20115   */\n      dup3\n        /* \"#utility.yul\":20102:20120   */\n      add\n        /* \"#utility.yul\":20094:20120   */\n      swap1\n      pop\n        /* \"#utility.yul\":20130:20199   */\n      tag_560\n        /* \"#utility.yul\":20196:20197   */\n      0x00\n        /* \"#utility.yul\":20185:20194   */\n      dup4\n        /* \"#utility.yul\":20181:20198   */\n      add\n        /* \"#utility.yul\":20172:20178   */\n      dup7\n        /* \"#utility.yul\":20130:20199   */\n      tag_317\n      jump\t// in\n    tag_560:\n        /* \"#utility.yul\":20209:20281   */\n      tag_561\n        /* \"#utility.yul\":20277:20279   */\n      0x20\n        /* \"#utility.yul\":20266:20275   */\n      dup4\n        /* \"#utility.yul\":20262:20280   */\n      add\n        /* \"#utility.yul\":20253:20259   */\n      dup6\n        /* \"#utility.yul\":20209:20281   */\n      tag_298\n      jump\t// in\n    tag_561:\n        /* \"#utility.yul\":20291:20363   */\n      tag_562\n        /* \"#utility.yul\":20359:20361   */\n      0x40\n        /* \"#utility.yul\":20348:20357   */\n      dup4\n        /* \"#utility.yul\":20344:20362   */\n      add\n        /* \"#utility.yul\":20335:20341   */\n      dup5\n        /* \"#utility.yul\":20291:20363   */\n      tag_288\n      jump\t// in\n    tag_562:\n        /* \"#utility.yul\":19932:20370   */\n      swap5\n      swap4\n      pop\n      pop\n      pop\n      pop\n      jump\t// out\n        /* \"#utility.yul\":20376:20547   */\n    tag_326:\n        /* \"#utility.yul\":20516:20539   */\n      0x4f6e6c79206d61696c626f782063616e2063616c6c0000000000000000000000\n        /* \"#utility.yul\":20512:20513   */\n      0x00\n        /* \"#utility.yul\":20504:20510   */\n      dup3\n        /* \"#utility.yul\":20500:20514   */\n      add\n        /* \"#utility.yul\":20493:20540   */\n      mstore\n        /* \"#utility.yul\":20376:20547   */\n      pop\n      jump\t// out\n        /* \"#utility.yul\":20553:20919   */\n    tag_327:\n        /* \"#utility.yul\":20695:20698   */\n      0x00\n        /* \"#utility.yul\":20716:20783   */\n      tag_565\n        /* \"#utility.yul\":20780:20782   */\n      0x15\n        /* \"#utility.yul\":20775:20778   */\n      dup4\n        /* \"#utility.yul\":20716:20783   */\n      tag_308\n      jump\t// in\n    tag_565:\n        /* \"#utility.yul\":20709:20783   */\n      swap2\n      pop\n        /* \"#utility.yul\":20792:20885   */\n      tag_566\n        /* \"#utility.yul\":20881:20884   */\n      dup3\n        /* \"#utility.yul\":20792:20885   */\n      tag_326\n      jump\t// in\n    tag_566:\n        /* \"#utility.yul\":20910:20912   */\n      0x20\n        /* \"#utility.yul\":20905:20908   */\n      dup3\n        /* \"#utility.yul\":20901:20913   */\n      add\n        /* \"#utility.yul\":20894:20913   */\n      swap1\n      pop\n        /* \"#utility.yul\":20553:20919   */\n      swap2\n      swap1\n      pop\n      jump\t// out\n        /* \"#utility.yul\":20925:21344   */\n    tag_194:\n        /* \"#utility.yul\":21091:21095   */\n      0x00\n        /* \"#utility.yul\":21129:21131   */\n      0x20\n        /* \"#utility.yul\":21118:21127   */\n      dup3\n        /* \"#utility.yul\":21114:21132   */\n      add\n        /* \"#utility.yul\":21106:21132   */\n      swap1\n      pop\n        /* \"#utility.yul\":21178:21187   */\n      dup2\n        /* \"#utility.yul\":21172:21176   */\n      dup2\n        /* \"#utility.yul\":21168:21188   */\n      sub\n        /* \"#utility.yul\":21164:21165   */\n      0x00\n        /* \"#utility.yul\":21153:21162   */\n      dup4\n        /* \"#utility.yul\":21149:21166   */\n      add\n        /* \"#utility.yul\":21142:21189   */\n      mstore\n        /* \"#utility.yul\":21206:21337   */\n      tag_568\n        /* \"#utility.yul\":21332:21336   */\n      dup2\n        /* \"#utility.yul\":21206:21337   */\n      tag_327\n      jump\t// in\n    tag_568:\n        /* \"#utility.yul\":21198:21337   */\n      swap1\n      pop\n        /* \"#utility.yul\":20925:21344   */\n      swap2\n      swap1\n      pop\n      jump\t// out\n        /* \"#utility.yul\":21350:21520   */\n    tag_328:\n        /* \"#utility.yul\":21490:21512   */\n      0x4e6f74206120747275737465642072656d6f7465000000000000000000000000\n        /* \"#utility.yul\":21486:21487   */\n      0x00\n        /* \"#utility.yul\":21478:21484   */\n      dup3\n        /* \"#utility.yul\":21474:21488   */\n      add\n        /* \"#utility.yul\":21467:21513   */\n      mstore\n        /* \"#utility.yul\":21350:21520   */\n      pop\n      jump\t// out\n        /* \"#utility.yul\":21526:21892   */\n    tag_329:\n        /* \"#utility.yul\":21668:21671   */\n      0x00\n        /* \"#utility.yul\":21689:21756   */\n      tag_571\n        /* \"#utility.yul\":21753:21755   */\n      0x14\n        /* \"#utility.yul\":21748:21751   */\n      dup4\n        /* \"#utility.yul\":21689:21756   */\n      tag_308\n      jump\t// in\n    tag_571:\n        /* \"#utility.yul\":21682:21756   */\n      swap2\n      pop\n        /* \"#utility.yul\":21765:21858   */\n      tag_572\n        /* \"#utility.yul\":21854:21857   */\n      dup3\n        /* \"#utility.yul\":21765:21858   */\n      tag_328\n      jump\t// in\n    tag_572:\n        /* \"#utility.yul\":21883:21885   */\n      0x20\n        /* \"#utility.yul\":21878:21881   */\n      dup3\n        /* \"#utility.yul\":21874:21886   */\n      add\n        /* \"#utility.yul\":21867:21886   */\n      swap1\n      pop\n        /* \"#utility.yul\":21526:21892   */\n      swap2\n      swap1\n      pop\n      jump\t// out\n        /* \"#utility.yul\":21898:22317   */\n    tag_197:\n        /* \"#utility.yul\":22064:22068   */\n      0x00\n        /* \"#utility.yul\":22102:22104   */\n      0x20\n        /* \"#utility.yul\":22091:22100   */\n      dup3\n        /* \"#utility.yul\":22087:22105   */\n      add\n        /* \"#utility.yul\":22079:22105   */\n      swap1\n      pop\n        /* \"#utility.yul\":22151:22160   */\n      dup2\n        /* \"#utility.yul\":22145:22149   */\n      dup2\n        /* \"#utility.yul\":22141:22161   */\n      sub\n        /* \"#utility.yul\":22137:22138   */\n      0x00\n        /* \"#utility.yul\":22126:22135   */\n      dup4\n        /* \"#utility.yul\":22122:22139   */\n      add\n        /* \"#utility.yul\":22115:22162   */\n      mstore\n        /* \"#utility.yul\":22179:22310   */\n      tag_574\n        /* \"#utility.yul\":22305:22309   */\n      dup2\n        /* \"#utility.yul\":22179:22310   */\n      tag_329\n      jump\t// in\n    tag_574:\n        /* \"#utility.yul\":22171:22310   */\n      swap1\n      pop\n        /* \"#utility.yul\":21898:22317   */\n      swap2\n      swap1\n      pop\n      jump\t// out\n        /* \"#utility.yul\":22323:22427   */\n    tag_330:\n        /* \"#utility.yul\":22368:22375   */\n      0x00\n        /* \"#utility.yul\":22397:22421   */\n      tag_576\n        /* \"#utility.yul\":22415:22420   */\n      dup3\n        /* \"#utility.yul\":22397:22421   */\n      tag_273\n      jump\t// in\n    tag_576:\n        /* \"#utility.yul\":22386:22421   */\n      swap1\n      pop\n        /* \"#utility.yul\":22323:22427   */\n      swap2\n      swap1\n      pop\n      jump\t// out\n        /* \"#utility.yul\":22433:22571   */\n    tag_331:\n        /* \"#utility.yul\":22514:22546   */\n      tag_578\n        /* \"#utility.yul\":22540:22545   */\n      dup2\n        /* \"#utility.yul\":22514:22546   */\n      tag_330\n      jump\t// in\n    tag_578:\n        /* \"#utility.yul\":22507:22512   */\n      dup2\n        /* \"#utility.yul\":22504:22547   */\n      eq\n        /* \"#utility.yul\":22494:22565   */\n      tag_579\n      jumpi\n        /* \"#utility.yul\":22561:22562   */\n      0x00\n        /* \"#utility.yul\":22558:22559   */\n      dup1\n        /* \"#utility.yul\":22551:22563   */\n      revert\n        /* \"#utility.yul\":22494:22565   */\n    tag_579:\n        /* \"#utility.yul\":22433:22571   */\n      pop\n      jump\t// out\n        /* \"#utility.yul\":22577:22732   */\n    tag_332:\n        /* \"#utility.yul\":22631:22636   */\n      0x00\n        /* \"#utility.yul\":22669:22675   */\n      dup2\n        /* \"#utility.yul\":22656:22676   */\n      calldataload\n        /* \"#utility.yul\":22647:22676   */\n      swap1\n      pop\n        /* \"#utility.yul\":22685:22726   */\n      tag_581\n        /* \"#utility.yul\":22720:22725   */\n      dup2\n        /* \"#utility.yul\":22685:22726   */\n      tag_331\n      jump\t// in\n    tag_581:\n        /* \"#utility.yul\":22577:22732   */\n      swap3\n      swap2\n      pop\n      pop\n      jump\t// out\n        /* \"#utility.yul\":22738:23228   */\n    tag_199:\n        /* \"#utility.yul\":22814:22820   */\n      0x00\n        /* \"#utility.yul\":22822:22828   */\n      dup1\n        /* \"#utility.yul\":22871:22873   */\n      0x40\n        /* \"#utility.yul\":22859:22868   */\n      dup4\n        /* \"#utility.yul\":22850:22857   */\n      dup6\n        /* \"#utility.yul\":22846:22869   */\n      sub\n        /* \"#utility.yul\":22842:22874   */\n      slt\n        /* \"#utility.yul\":22839:22958   */\n      iszero\n      tag_583\n      jumpi\n        /* \"#utility.yul\":22877:22956   */\n      tag_584\n      tag_280\n      jump\t// in\n    tag_584:\n        /* \"#utility.yul\":22839:22958   */\n    tag_583:\n        /* \"#utility.yul\":22997:22998   */\n      0x00\n        /* \"#utility.yul\":23022:23083   */\n      tag_585\n        /* \"#utility.yul\":23075:23082   */\n      dup6\n        /* \"#utility.yul\":23066:23072   */\n      dup3\n        /* \"#utility.yul\":23055:23064   */\n      dup7\n        /* \"#utility.yul\":23051:23073   */\n      add\n        /* \"#utility.yul\":23022:23083   */\n      tag_332\n      jump\t// in\n    tag_585:\n        /* \"#utility.yul\":23012:23083   */\n      swap3\n      pop\n        /* \"#utility.yul\":22968:23093   */\n      pop\n        /* \"#utility.yul\":23132:23134   */\n      0x20\n        /* \"#utility.yul\":23158:23211   */\n      tag_586\n        /* \"#utility.yul\":23203:23210   */\n      dup6\n        /* \"#utility.yul\":23194:23200   */\n      dup3\n        /* \"#utility.yul\":23183:23192   */\n      dup7\n        /* \"#utility.yul\":23179:23201   */\n      add\n        /* \"#utility.yul\":23158:23211   */\n      tag_292\n      jump\t// in\n    tag_586:\n        /* \"#utility.yul\":23148:23211   */\n      swap2\n      pop\n        /* \"#utility.yul\":23103:23221   */\n      pop\n        /* \"#utility.yul\":22738:23228   */\n      swap3\n      pop\n      swap3\n      swap1\n      pop\n      jump\t// out\n        /* \"#utility.yul\":23234:23333   */\n    tag_333:\n        /* \"#utility.yul\":23286:23292   */\n      0x00\n        /* \"#utility.yul\":23320:23325   */\n      dup2\n        /* \"#utility.yul\":23314:23326   */\n      mload\n        /* \"#utility.yul\":23304:23326   */\n      swap1\n      pop\n        /* \"#utility.yul\":23234:23333   */\n      swap2\n      swap1\n      pop\n      jump\t// out\n        /* \"#utility.yul\":23339:23716   */\n    tag_334:\n        /* \"#utility.yul\":23427:23430   */\n      0x00\n        /* \"#utility.yul\":23455:23494   */\n      tag_589\n        /* \"#utility.yul\":23488:23493   */\n      dup3\n        /* \"#utility.yul\":23455:23494   */\n      tag_333\n      jump\t// in\n    tag_589:\n        /* \"#utility.yul\":23510:23581   */\n      tag_590\n        /* \"#utility.yul\":23574:23580   */\n      dup2\n        /* \"#utility.yul\":23569:23572   */\n      dup6\n        /* \"#utility.yul\":23510:23581   */\n      tag_308\n      jump\t// in\n    tag_590:\n        /* \"#utility.yul\":23503:23581   */\n      swap4\n      pop\n        /* \"#utility.yul\":23590:23655   */\n      tag_591\n        /* \"#utility.yul\":23648:23654   */\n      dup2\n        /* \"#utility.yul\":23643:23646   */\n      dup6\n        /* \"#utility.yul\":23636:23640   */\n      0x20\n        /* \"#utility.yul\":23629:23634   */\n      dup7\n        /* \"#utility.yul\":23625:23641   */\n      add\n        /* \"#utility.yul\":23590:23655   */\n      tag_320\n      jump\t// in\n    tag_591:\n        /* \"#utility.yul\":23680:23709   */\n      tag_592\n        /* \"#utility.yul\":23702:23708   */\n      dup2\n        /* \"#utility.yul\":23680:23709   */\n      tag_321\n      jump\t// in\n    tag_592:\n        /* \"#utility.yul\":23675:23678   */\n      dup5\n        /* \"#utility.yul\":23671:23710   */\n      add\n        /* \"#utility.yul\":23664:23710   */\n      swap2\n      pop\n        /* \"#utility.yul\":23431:23716   */\n      pop\n        /* \"#utility.yul\":23339:23716   */\n      swap3\n      swap2\n      pop\n      pop\n      jump\t// out\n        /* \"#utility.yul\":23722:24366   */\n    tag_203:\n        /* \"#utility.yul\":23919:23923   */\n      0x00\n        /* \"#utility.yul\":23957:23960   */\n      0x80\n        /* \"#utility.yul\":23946:23955   */\n      dup3\n        /* \"#utility.yul\":23942:23961   */\n      add\n        /* \"#utility.yul\":23934:23961   */\n      swap1\n      pop\n        /* \"#utility.yul\":23971:24042   */\n      tag_594\n        /* \"#utility.yul\":24039:24040   */\n      0x00\n        /* \"#utility.yul\":24028:24037   */\n      dup4\n        /* \"#utility.yul\":24024:24041   */\n      add\n        /* \"#utility.yul\":24015:24021   */\n      dup8\n        /* \"#utility.yul\":23971:24042   */\n      tag_298\n      jump\t// in\n    tag_594:\n        /* \"#utility.yul\":24089:24098   */\n      dup2\n        /* \"#utility.yul\":24083:24087   */\n      dup2\n        /* \"#utility.yul\":24079:24099   */\n      sub\n        /* \"#utility.yul\":24074:24076   */\n      0x20\n        /* \"#utility.yul\":24063:24072   */\n      dup4\n        /* \"#utility.yul\":24059:24077   */\n      add\n        /* \"#utility.yul\":24052:24100   */\n      mstore\n        /* \"#utility.yul\":24117:24195   */\n      tag_595\n        /* \"#utility.yul\":24190:24194   */\n      dup2\n        /* \"#utility.yul\":24181:24187   */\n      dup7\n        /* \"#utility.yul\":24117:24195   */\n      tag_334\n      jump\t// in\n    tag_595:\n        /* \"#utility.yul\":24109:24195   */\n      swap1\n      pop\n        /* \"#utility.yul\":24205:24277   */\n      tag_596\n        /* \"#utility.yul\":24273:24275   */\n      0x40\n        /* \"#utility.yul\":24262:24271   */\n      dup4\n        /* \"#utility.yul\":24258:24276   */\n      add\n        /* \"#utility.yul\":24249:24255   */\n      dup6\n        /* \"#utility.yul\":24205:24277   */\n      tag_288\n      jump\t// in\n    tag_596:\n        /* \"#utility.yul\":24287:24359   */\n      tag_597\n        /* \"#utility.yul\":24355:24357   */\n      0x60\n        /* \"#utility.yul\":24344:24353   */\n      dup4\n        /* \"#utility.yul\":24340:24358   */\n      add\n        /* \"#utility.yul\":24331:24337   */\n      dup5\n        /* \"#utility.yul\":24287:24359   */\n      tag_288\n      jump\t// in\n    tag_597:\n        /* \"#utility.yul\":23722:24366   */\n      swap6\n      swap5\n      pop\n      pop\n      pop\n      pop\n      pop\n      jump\t// out\n        /* \"#utility.yul\":24372:24462   */\n    tag_335:\n        /* \"#utility.yul\":24406:24413   */\n      0x00\n        /* \"#utility.yul\":24449:24454   */\n      dup2\n        /* \"#utility.yul\":24442:24455   */\n      iszero\n        /* \"#utility.yul\":24435:24456   */\n      iszero\n        /* \"#utility.yul\":24424:24456   */\n      swap1\n      pop\n        /* \"#utility.yul\":24372:24462   */\n      swap2\n      swap1\n      pop\n      jump\t// out\n        /* \"#utility.yul\":24468:24584   */\n    tag_336:\n        /* \"#utility.yul\":24538:24559   */\n      tag_600\n        /* \"#utility.yul\":24553:24558   */\n      dup2\n        /* \"#utility.yul\":24538:24559   */\n      tag_335\n      jump\t// in\n    tag_600:\n        /* \"#utility.yul\":24531:24536   */\n      dup2\n        /* \"#utility.yul\":24528:24560   */\n      eq\n        /* \"#utility.yul\":24518:24578   */\n      tag_601\n      jumpi\n        /* \"#utility.yul\":24574:24575   */\n      0x00\n        /* \"#utility.yul\":24571:24572   */\n      dup1\n        /* \"#utility.yul\":24564:24576   */\n      revert\n        /* \"#utility.yul\":24518:24578   */\n    tag_601:\n        /* \"#utility.yul\":24468:24584   */\n      pop\n      jump\t// out\n        /* \"#utility.yul\":24590:24727   */\n    tag_337:\n        /* \"#utility.yul\":24644:24649   */\n      0x00\n        /* \"#utility.yul\":24675:24681   */\n      dup2\n        /* \"#utility.yul\":24669:24682   */\n      mload\n        /* \"#utility.yul\":24660:24682   */\n      swap1\n      pop\n        /* \"#utility.yul\":24691:24721   */\n      tag_603\n        /* \"#utility.yul\":24715:24720   */\n      dup2\n        /* \"#utility.yul\":24691:24721   */\n      tag_336\n      jump\t// in\n    tag_603:\n        /* \"#utility.yul\":24590:24727   */\n      swap3\n      swap2\n      pop\n      pop\n      jump\t// out\n        /* \"#utility.yul\":24733:25078   */\n    tag_229:\n        /* \"#utility.yul\":24800:24806   */\n      0x00\n        /* \"#utility.yul\":24849:24851   */\n      0x20\n        /* \"#utility.yul\":24837:24846   */\n      dup3\n        /* \"#utility.yul\":24828:24835   */\n      dup5\n        /* \"#utility.yul\":24824:24847   */\n      sub\n        /* \"#utility.yul\":24820:24852   */\n      slt\n        /* \"#utility.yul\":24817:24936   */\n      iszero\n      tag_605\n      jumpi\n        /* \"#utility.yul\":24855:24934   */\n      tag_606\n      tag_280\n      jump\t// in\n    tag_606:\n        /* \"#utility.yul\":24817:24936   */\n    tag_605:\n        /* \"#utility.yul\":24975:24976   */\n      0x00\n        /* \"#utility.yul\":25000:25061   */\n      tag_607\n        /* \"#utility.yul\":25053:25060   */\n      dup5\n        /* \"#utility.yul\":25044:25050   */\n      dup3\n        /* \"#utility.yul\":25033:25042   */\n      dup6\n        /* \"#utility.yul\":25029:25051   */\n      add\n        /* \"#utility.yul\":25000:25061   */\n      tag_337\n      jump\t// in\n    tag_607:\n        /* \"#utility.yul\":24990:25061   */\n      swap2\n      pop\n        /* \"#utility.yul\":24946:25071   */\n      pop\n        /* \"#utility.yul\":24733:25078   */\n      swap3\n      swap2\n      pop\n      pop\n      jump\t// out\n        /* \"#utility.yul\":25084:25249   */\n    tag_338:\n        /* \"#utility.yul\":25224:25241   */\n      0x5472616e73666572206661696c65640000000000000000000000000000000000\n        /* \"#utility.yul\":25220:25221   */\n      0x00\n        /* \"#utility.yul\":25212:25218   */\n      dup3\n        /* \"#utility.yul\":25208:25222   */\n      add\n        /* \"#utility.yul\":25201:25242   */\n      mstore\n        /* \"#utility.yul\":25084:25249   */\n      pop\n      jump\t// out\n        /* \"#utility.yul\":25255:25621   */\n    tag_339:\n        /* \"#utility.yul\":25397:25400   */\n      0x00\n        /* \"#utility.yul\":25418:25485   */\n      tag_610\n        /* \"#utility.yul\":25482:25484   */\n      0x0f\n        /* \"#utility.yul\":25477:25480   */\n      dup4\n        /* \"#utility.yul\":25418:25485   */\n      tag_308\n      jump\t// in\n    tag_610:\n        /* \"#utility.yul\":25411:25485   */\n      swap2\n      pop\n        /* \"#utility.yul\":25494:25587   */\n      tag_611\n        /* \"#utility.yul\":25583:25586   */\n      dup3\n        /* \"#utility.yul\":25494:25587   */\n      tag_338\n      jump\t// in\n    tag_611:\n        /* \"#utility.yul\":25612:25614   */\n      0x20\n        /* \"#utility.yul\":25607:25610   */\n      dup3\n        /* \"#utility.yul\":25603:25615   */\n      add\n        /* \"#utility.yul\":25596:25615   */\n      swap1\n      pop\n        /* \"#utility.yul\":25255:25621   */\n      swap2\n      swap1\n      pop\n      jump\t// out\n        /* \"#utility.yul\":25627:26046   */\n    tag_232:\n        /* \"#utility.yul\":25793:25797   */\n      0x00\n        /* \"#utility.yul\":25831:25833   */\n      0x20\n        /* \"#utility.yul\":25820:25829   */\n      dup3\n        /* \"#utility.yul\":25816:25834   */\n      add\n        /* \"#utility.yul\":25808:25834   */\n      swap1\n      pop\n        /* \"#utility.yul\":25880:25889   */\n      dup2\n        /* \"#utility.yul\":25874:25878   */\n      dup2\n        /* \"#utility.yul\":25870:25890   */\n      sub\n        /* \"#utility.yul\":25866:25867   */\n      0x00\n        /* \"#utility.yul\":25855:25864   */\n      dup4\n        /* \"#utility.yul\":25851:25868   */\n      add\n        /* \"#utility.yul\":25844:25891   */\n      mstore\n        /* \"#utility.yul\":25908:26039   */\n      tag_613\n        /* \"#utility.yul\":26034:26038   */\n      dup2\n        /* \"#utility.yul\":25908:26039   */\n      tag_339\n      jump\t// in\n    tag_613:\n        /* \"#utility.yul\":25900:26039   */\n      swap1\n      pop\n        /* \"#utility.yul\":25627:26046   */\n      swap2\n      swap1\n      pop\n      jump\t// out\n        /* \"#utility.yul\":26052:26233   */\n    tag_340:\n        /* \"#utility.yul\":26192:26225   */\n      0x5265656e7472616e637947756172643a207265656e7472616e742063616c6c00\n        /* \"#utility.yul\":26188:26189   */\n      0x00\n        /* \"#utility.yul\":26180:26186   */\n      dup3\n        /* \"#utility.yul\":26176:26190   */\n      add\n        /* \"#utility.yul\":26169:26226   */\n      mstore\n        /* \"#utility.yul\":26052:26233   */\n      pop\n      jump\t// out\n        /* \"#utility.yul\":26239:26605   */\n    tag_341:\n        /* \"#utility.yul\":26381:26384   */\n      0x00\n        /* \"#utility.yul\":26402:26469   */\n      tag_616\n        /* \"#utility.yul\":26466:26468   */\n      0x1f\n        /* \"#utility.yul\":26461:26464   */\n      dup4\n        /* \"#utility.yul\":26402:26469   */\n      tag_308\n      jump\t// in\n    tag_616:\n        /* \"#utility.yul\":26395:26469   */\n      swap2\n      pop\n        /* \"#utility.yul\":26478:26571   */\n      tag_617\n        /* \"#utility.yul\":26567:26570   */\n      dup3\n        /* \"#utility.yul\":26478:26571   */\n      tag_340\n      jump\t// in\n    tag_617:\n        /* \"#utility.yul\":26596:26598   */\n      0x20\n        /* \"#utility.yul\":26591:26594   */\n      dup3\n        /* \"#utility.yul\":26587:26599   */\n      add\n        /* \"#utility.yul\":26580:26599   */\n      swap1\n      pop\n        /* \"#utility.yul\":26239:26605   */\n      swap2\n      swap1\n      pop\n      jump\t// out\n        /* \"#utility.yul\":26611:27030   */\n    tag_242:\n        /* \"#utility.yul\":26777:26781   */\n      0x00\n        /* \"#utility.yul\":26815:26817   */\n      0x20\n        /* \"#utility.yul\":26804:26813   */\n      dup3\n        /* \"#utility.yul\":26800:26818   */\n      add\n        /* \"#utility.yul\":26792:26818   */\n      swap1\n      pop\n        /* \"#utility.yul\":26864:26873   */\n      dup2\n        /* \"#utility.yul\":26858:26862   */\n      dup2\n        /* \"#utility.yul\":26854:26874   */\n      sub\n        /* \"#utility.yul\":26850:26851   */\n      0x00\n        /* \"#utility.yul\":26839:26848   */\n      dup4\n        /* \"#utility.yul\":26835:26852   */\n      add\n        /* \"#utility.yul\":26828:26875   */\n      mstore\n        /* \"#utility.yul\":26892:27023   */\n      tag_619\n        /* \"#utility.yul\":27018:27022   */\n      dup2\n        /* \"#utility.yul\":26892:27023   */\n      tag_341\n      jump\t// in\n    tag_619:\n        /* \"#utility.yul\":26884:27023   */\n      swap1\n      pop\n        /* \"#utility.yul\":26611:27030   */\n      swap2\n      swap1\n      pop\n      jump\t// out\n        /* \"#utility.yul\":27036:27115   */\n    tag_342:\n        /* \"#utility.yul\":27075:27082   */\n      0x00\n        /* \"#utility.yul\":27104:27109   */\n      dup2\n        /* \"#utility.yul\":27093:27109   */\n      swap1\n      pop\n        /* \"#utility.yul\":27036:27115   */\n      swap2\n      swap1\n      pop\n      jump\t// out\n        /* \"#utility.yul\":27121:27278   */\n    tag_343:\n        /* \"#utility.yul\":27226:27271   */\n      tag_622\n        /* \"#utility.yul\":27246:27270   */\n      tag_623\n        /* \"#utility.yul\":27264:27269   */\n      dup3\n        /* \"#utility.yul\":27246:27270   */\n      tag_287\n      jump\t// in\n    tag_623:\n        /* \"#utility.yul\":27226:27271   */\n      tag_342\n      jump\t// in\n    tag_622:\n        /* \"#utility.yul\":27221:27224   */\n      dup3\n        /* \"#utility.yul\":27214:27272   */\n      mstore\n        /* \"#utility.yul\":27121:27278   */\n      pop\n      pop\n      jump\t// out\n        /* \"#utility.yul\":27284:27378   */\n    tag_344:\n        /* \"#utility.yul\":27317:27325   */\n      0x00\n        /* \"#utility.yul\":27365:27370   */\n      dup2\n        /* \"#utility.yul\":27361:27363   */\n      0x60\n        /* \"#utility.yul\":27357:27371   */\n      shl\n        /* \"#utility.yul\":27336:27371   */\n      swap1\n      pop\n        /* \"#utility.yul\":27284:27378   */\n      swap2\n      swap1\n      pop\n      jump\t// out\n        /* \"#utility.yul\":27384:27478   */\n    tag_345:\n        /* \"#utility.yul\":27423:27430   */\n      0x00\n        /* \"#utility.yul\":27452:27472   */\n      tag_626\n        /* \"#utility.yul\":27466:27471   */\n      dup3\n        /* \"#utility.yul\":27452:27472   */\n      tag_344\n      jump\t// in\n    tag_626:\n        /* \"#utility.yul\":27441:27472   */\n      swap1\n      pop\n        /* \"#utility.yul\":27384:27478   */\n      swap2\n      swap1\n      pop\n      jump\t// out\n        /* \"#utility.yul\":27484:27584   */\n    tag_346:\n        /* \"#utility.yul\":27523:27530   */\n      0x00\n        /* \"#utility.yul\":27552:27578   */\n      tag_628\n        /* \"#utility.yul\":27572:27577   */\n      dup3\n        /* \"#utility.yul\":27552:27578   */\n      tag_345\n      jump\t// in\n    tag_628:\n        /* \"#utility.yul\":27541:27578   */\n      swap1\n      pop\n        /* \"#utility.yul\":27484:27584   */\n      swap2\n      swap1\n      pop\n      jump\t// out\n        /* \"#utility.yul\":27590:27747   */\n    tag_347:\n        /* \"#utility.yul\":27695:27740   */\n      tag_630\n        /* \"#utility.yul\":27715:27739   */\n      tag_631\n        /* \"#utility.yul\":27733:27738   */\n      dup3\n        /* \"#utility.yul\":27715:27739   */\n      tag_297\n      jump\t// in\n    tag_631:\n        /* \"#utility.yul\":27695:27740   */\n      tag_346\n      jump\t// in\n    tag_630:\n        /* \"#utility.yul\":27690:27693   */\n      dup3\n        /* \"#utility.yul\":27683:27741   */\n      mstore\n        /* \"#utility.yul\":27590:27747   */\n      pop\n      pop\n      jump\t// out\n        /* \"#utility.yul\":27753:28291   */\n    tag_245:\n        /* \"#utility.yul\":27921:27924   */\n      0x00\n        /* \"#utility.yul\":27936:28011   */\n      tag_633\n        /* \"#utility.yul\":28007:28010   */\n      dup3\n        /* \"#utility.yul\":27998:28004   */\n      dup7\n        /* \"#utility.yul\":27936:28011   */\n      tag_343\n      jump\t// in\n    tag_633:\n        /* \"#utility.yul\":28036:28038   */\n      0x20\n        /* \"#utility.yul\":28031:28034   */\n      dup3\n        /* \"#utility.yul\":28027:28039   */\n      add\n        /* \"#utility.yul\":28020:28039   */\n      swap2\n      pop\n        /* \"#utility.yul\":28049:28124   */\n      tag_634\n        /* \"#utility.yul\":28120:28123   */\n      dup3\n        /* \"#utility.yul\":28111:28117   */\n      dup6\n        /* \"#utility.yul\":28049:28124   */\n      tag_347\n      jump\t// in\n    tag_634:\n        /* \"#utility.yul\":28149:28151   */\n      0x14\n        /* \"#utility.yul\":28144:28147   */\n      dup3\n        /* \"#utility.yul\":28140:28152   */\n      add\n        /* \"#utility.yul\":28133:28152   */\n      swap2\n      pop\n        /* \"#utility.yul\":28162:28237   */\n      tag_635\n        /* \"#utility.yul\":28233:28236   */\n      dup3\n        /* \"#utility.yul\":28224:28230   */\n      dup5\n        /* \"#utility.yul\":28162:28237   */\n      tag_343\n      jump\t// in\n    tag_635:\n        /* \"#utility.yul\":28262:28264   */\n      0x20\n        /* \"#utility.yul\":28257:28260   */\n      dup3\n        /* \"#utility.yul\":28253:28265   */\n      add\n        /* \"#utility.yul\":28246:28265   */\n      swap2\n      pop\n        /* \"#utility.yul\":28282:28285   */\n      dup2\n        /* \"#utility.yul\":28275:28285   */\n      swap1\n      pop\n        /* \"#utility.yul\":27753:28291   */\n      swap5\n      swap4\n      pop\n      pop\n      pop\n      pop\n      jump\t// out\n        /* \"#utility.yul\":28297:28477   */\n    tag_348:\n        /* \"#utility.yul\":28345:28422   */\n      0x4e487b7100000000000000000000000000000000000000000000000000000000\n        /* \"#utility.yul\":28342:28343   */\n      0x00\n        /* \"#utility.yul\":28335:28423   */\n      mstore\n        /* \"#utility.yul\":28442:28446   */\n      0x12\n        /* \"#utility.yul\":28439:28440   */\n      0x04\n        /* \"#utility.yul\":28432:28447   */\n      mstore\n        /* \"#utility.yul\":28466:28470   */\n      0x24\n        /* \"#utility.yul\":28463:28464   */\n      0x00\n        /* \"#utility.yul\":28456:28471   */\n      revert\n        /* \"#utility.yul\":28483:28659   */\n    tag_248:\n        /* \"#utility.yul\":28515:28516   */\n      0x00\n        /* \"#utility.yul\":28532:28552   */\n      tag_638\n        /* \"#utility.yul\":28550:28551   */\n      dup3\n        /* \"#utility.yul\":28532:28552   */\n      tag_287\n      jump\t// in\n    tag_638:\n        /* \"#utility.yul\":28527:28552   */\n      swap2\n      pop\n        /* \"#utility.yul\":28566:28586   */\n      tag_639\n        /* \"#utility.yul\":28584:28585   */\n      dup4\n        /* \"#utility.yul\":28566:28586   */\n      tag_287\n      jump\t// in\n    tag_639:\n        /* \"#utility.yul\":28561:28586   */\n      swap3\n      pop\n        /* \"#utility.yul\":28605:28606   */\n      dup3\n        /* \"#utility.yul\":28595:28630   */\n      tag_640\n      jumpi\n        /* \"#utility.yul\":28610:28628   */\n      tag_641\n      tag_348\n      jump\t// in\n    tag_641:\n        /* \"#utility.yul\":28595:28630   */\n    tag_640:\n        /* \"#utility.yul\":28651:28652   */\n      dup3\n        /* \"#utility.yul\":28648:28649   */\n      dup3\n        /* \"#utility.yul\":28644:28653   */\n      mod\n        /* \"#utility.yul\":28639:28653   */\n      swap1\n      pop\n        /* \"#utility.yul\":28483:28659   */\n      swap3\n      swap2\n      pop\n      pop\n      jump\t// out\n        /* \"#utility.yul\":28665:29062   */\n    tag_262:\n        /* \"#utility.yul\":28805:28808   */\n      0x00\n        /* \"#utility.yul\":28820:28895   */\n      tag_643\n        /* \"#utility.yul\":28891:28894   */\n      dup3\n        /* \"#utility.yul\":28882:28888   */\n      dup6\n        /* \"#utility.yul\":28820:28895   */\n      tag_343\n      jump\t// in\n    tag_643:\n        /* \"#utility.yul\":28920:28922   */\n      0x20\n        /* \"#utility.yul\":28915:28918   */\n      dup3\n        /* \"#utility.yul\":28911:28923   */\n      add\n        /* \"#utility.yul\":28904:28923   */\n      swap2\n      pop\n        /* \"#utility.yul\":28933:29008   */\n      tag_644\n        /* \"#utility.yul\":29004:29007   */\n      dup3\n        /* \"#utility.yul\":28995:29001   */\n      dup5\n        /* \"#utility.yul\":28933:29008   */\n      tag_347\n      jump\t// in\n    tag_644:\n        /* \"#utility.yul\":29033:29035   */\n      0x14\n        /* \"#utility.yul\":29028:29031   */\n      dup3\n        /* \"#utility.yul\":29024:29036   */\n      add\n        /* \"#utility.yul\":29017:29036   */\n      swap2\n      pop\n        /* \"#utility.yul\":29053:29056   */\n      dup2\n        /* \"#utility.yul\":29046:29056   */\n      swap1\n      pop\n        /* \"#utility.yul\":28665:29062   */\n      swap4\n      swap3\n      pop\n      pop\n      pop\n      jump\t// out\n        /* \"#utility.yul\":29068:29248   */\n    tag_266:\n        /* \"#utility.yul\":29116:29193   */\n      0x4e487b7100000000000000000000000000000000000000000000000000000000\n        /* \"#utility.yul\":29113:29114   */\n      0x00\n        /* \"#utility.yul\":29106:29194   */\n      mstore\n        /* \"#utility.yul\":29213:29217   */\n      0x32\n        /* \"#utility.yul\":29210:29211   */\n      0x04\n        /* \"#utility.yul\":29203:29218   */\n      mstore\n        /* \"#utility.yul\":29237:29241   */\n      0x24\n        /* \"#utility.yul\":29234:29235   */\n      0x00\n        /* \"#utility.yul\":29227:29242   */\n      revert\n\n    auxdata: 0xa2646970667358221220d0948301b7e64dadec555bc330cabe2d2cf463115a15c77bfe230da1f3dca2b464736f6c63430008180033\n}\n",
				"bytecode": {
					"linkReferences": {},
					"object": "608060405234801562000010575f80fd5b50604051620027a7380380620027a78339818101604052810190620000369190620002f3565b335f73ffffffffffffffffffffffffffffffffffffffff168173ffffffffffffffffffffffffffffffffffffffff1603620000aa575f6040517f1e4fbdf7000000000000000000000000000000000000000000000000000000008152600401620000a1919062000373565b60405180910390fd5b620000bb81620001cd60201b60201c565b50600180819055508360025f6101000a81548173ffffffffffffffffffffffffffffffffffffffff021916908373ffffffffffffffffffffffffffffffffffffffff1602179055508260035f6101000a81548173ffffffffffffffffffffffffffffffffffffffff021916908373ffffffffffffffffffffffffffffffffffffffff1602179055508160045f6101000a81548173ffffffffffffffffffffffffffffffffffffffff021916908373ffffffffffffffffffffffffffffffffffffffff1602179055508060055f6101000a81548173ffffffffffffffffffffffffffffffffffffffff021916908373ffffffffffffffffffffffffffffffffffffffff160217905550505050506200038e565b5f805f9054906101000a900473ffffffffffffffffffffffffffffffffffffffff169050815f806101000a81548173ffffffffffffffffffffffffffffffffffffffff021916908373ffffffffffffffffffffffffffffffffffffffff1602179055508173ffffffffffffffffffffffffffffffffffffffff168173ffffffffffffffffffffffffffffffffffffffff167f8be0079c531659141344cd1fd0a4f28419497f9722a3daafe3b4186f6b6457e060405160405180910390a35050565b5f80fd5b5f73ffffffffffffffffffffffffffffffffffffffff82169050919050565b5f620002bd8262000292565b9050919050565b620002cf81620002b1565b8114620002da575f80fd5b50565b5f81519050620002ed81620002c4565b92915050565b5f805f80608085870312156200030e576200030d6200028e565b5b5f6200031d87828801620002dd565b94505060206200033087828801620002dd565b93505060406200034387828801620002dd565b92505060606200035687828801620002dd565b91505092959194509250565b6200036d81620002b1565b82525050565b5f602082019050620003885f83018462000362565b92915050565b61240b806200039c5f395ff3fe6080604052600436106100f1575f3560e01c8063715018a611610089578063d15e55b711610058578063d15e55b7146102b7578063f28b2daa146102f5578063f2fde38b1461031f578063f7c618c114610347576100f1565b8063715018a6146102255780638da5cb5b1461023b578063959da2cf14610265578063a1db97821461028f576100f1565b80632bda3e0b116100c55780632bda3e0b1461019b5780632c40ae85146101c357806356d5d475146101df578063602e5a9e146101fb576100f1565b80626228dc146100f55780631a6e4db41461010b5780631d187c501461013557806322009af614610171575b5f80fd5b348015610100575f80fd5b50610109610371565b005b348015610116575f80fd5b5061011f610791565b60405161012c919061161c565b60405180910390f35b348015610140575f80fd5b5061015b60048036038101906101569190611676565b6107b6565b60405161016891906116b9565b60405180910390f35b34801561017c575f80fd5b506101856107cb565b60405161019291906116ea565b60405180910390f35b3480156101a6575f80fd5b506101c160048036038101906101bc919061172d565b6107d7565b005b6101dd60048036038101906101d89190611795565b610805565b005b6101f960048036038101906101f49190611834565b610c97565b005b348015610206575f80fd5b5061020f610f7f565b60405161021c91906116ea565b60405180910390f35b348015610230575f80fd5b50610239610f8b565b005b348015610246575f80fd5b5061024f610f9e565b60405161025c91906118c5565b60405180910390f35b348015610270575f80fd5b50610279610fc5565b60405161028691906118fe565b60405180910390f35b34801561029a575f80fd5b506102b560048036038101906102b09190611941565b610fea565b005b3480156102c2575f80fd5b506102dd60048036038101906102d8919061197f565b6110b7565b6040516102ec939291906119aa565b60405180910390f35b348015610300575f80fd5b506103096110dd565b60405161031691906119ff565b60405180910390f35b34801561032a575f80fd5b506103456004803603810190610340919061197f565b611102565b005b348015610352575f80fd5b5061035b611186565b6040516103689190611a38565b60405180910390f35b6103796111ab565b5f60075f3373ffffffffffffffffffffffffffffffffffffffff1673ffffffffffffffffffffffffffffffffffffffff1681526020019081526020015f209050603c8160020154426103cb9190611a7e565b101561040c576040517f08c379a000000000000000000000000000000000000000000000000000000000815260040161040390611b0b565b60405180910390fd5b5f6001826001015461041e9190611b29565b678ac7230489e800006104319190611b5c565b90508060025f9054906101000a900473ffffffffffffffffffffffffffffffffffffffff1673ffffffffffffffffffffffffffffffffffffffff166370a08231336040518263ffffffff1660e01b815260040161048e91906118c5565b602060405180830381865afa1580156104a9573d5f803e3d5ffd5b505050506040513d601f19601f820116820180604052508101906104cd9190611bb1565b101561050e576040517f08c379a000000000000000000000000000000000000000000000000000000000815260040161050590611c26565b60405180910390fd5b60025f9054906101000a900473ffffffffffffffffffffffffffffffffffffffff1673ffffffffffffffffffffffffffffffffffffffff166379cc679033836040518363ffffffff1660e01b815260040161056a929190611c44565b5f604051808303815f87803b158015610581575f80fd5b505af1158015610593573d5f803e3d5ffd5b505050505f6105a583600101546111fa565b905082600101548111610751575f6105bc82611257565b905060025f9054906101000a900473ffffffffffffffffffffffffffffffffffffffff1673ffffffffffffffffffffffffffffffffffffffff16639a49090e33836040518363ffffffff1660e01b815260040161061a929190611c44565b5f604051808303815f87803b158015610631575f80fd5b505af1158015610643573d5f803e3d5ffd5b5050505080845f015f8282546106599190611b29565b925050819055503373ffffffffffffffffffffffffffffffffffffffff167fd17ba01607a01cd2603cccd4413f658442e41dd750b0722c4398589f1c80a6c383836040516106a8929190611c6b565b60405180910390a2670de0b6b3a7640000606485600101546106ca9190611b5c565b6106d49190611b5c565b845f01541061074b576001846001015f8282546106f19190611b29565b925050819055503373ffffffffffffffffffffffffffffffffffffffff167fdee7109003cf6cd3cb1b552819b438487a03ca336b5dfb3d823fcd9174549be6856001015460405161074291906116ea565b60405180910390a25b5061077b565b60018360010154111561077a576001836001015f8282546107729190611a7e565b925050819055505b5b42836002018190555050505061078f611273565b565b60045f9054906101000a900473ffffffffffffffffffffffffffffffffffffffff1681565b6006602052805f5260405f205f915090505481565b674563918244f4000081565b6107df61127c565b8060065f8463ffffffff1663ffffffff1681526020019081526020015f20819055505050565b61080d6111ab565b3373ffffffffffffffffffffffffffffffffffffffff1660035f9054906101000a900473ffffffffffffffffffffffffffffffffffffffff1673ffffffffffffffffffffffffffffffffffffffff16636352211e836040518263ffffffff1660e01b815260040161087e91906116ea565b602060405180830381865afa158015610899573d5f803e3d5ffd5b505050506040513d601f19601f820116820180604052508101906108bd9190611ca6565b73ffffffffffffffffffffffffffffffffffffffff1614610913576040517f08c379a000000000000000000000000000000000000000000000000000000000815260040161090a90611d1b565b60405180910390fd5b60035f9054906101000a900473ffffffffffffffffffffffffffffffffffffffff1673ffffffffffffffffffffffffffffffffffffffff1663042c49be826040518263ffffffff1660e01b815260040161096d91906116ea565b5f604051808303815f87803b158015610984575f80fd5b505af1158015610996573d5f803e3d5ffd5b505050505f33826040516020016109ae929190611c44565b60405160208183030381529060405290505f60045f9054906101000a900473ffffffffffffffffffffffffffffffffffffffff1673ffffffffffffffffffffffffffffffffffffffff1663fa31de018560065f8863ffffffff1663ffffffff1681526020019081526020015f2054856040518463ffffffff1660e01b8152600401610a3b93929190611dd2565b6020604051808303815f875af1158015610a57573d5f803e3d5ffd5b505050506040513d601f19601f82011682018060405250810190610a7b9190611e22565b90505f620493e090505f60055f9054906101000a900473ffffffffffffffffffffffffffffffffffffffff1673ffffffffffffffffffffffffffffffffffffffff1663a692979387846040518363ffffffff1660e01b8152600401610ae1929190611e4d565b602060405180830381865afa158015610afc573d5f803e3d5ffd5b505050506040513d601f19601f82011682018060405250810190610b209190611bb1565b905080341015610b65576040517f08c379a0000000000000000000000000000000000000000000000000000000008152600401610b5c90611ee4565b60405180910390fd5b60055f9054906101000a900473ffffffffffffffffffffffffffffffffffffffff1673ffffffffffffffffffffffffffffffffffffffff166311bf2c1882858986336040518663ffffffff1660e01b8152600401610bc69493929190611f02565b5f604051808303818588803b158015610bdd575f80fd5b505af1158015610bef573d5f803e3d5ffd5b505050505080341115610c4c573373ffffffffffffffffffffffffffffffffffffffff166108fc8234610c229190611a7e565b90811502906040515f60405180830381858888f19350505050158015610c4a573d5f803e3d5ffd5b505b7f89f6d4f38490c20591252d044c714d8b7865b86278d85fef20cd3b6f37ab5bda863387604051610c7f93929190611f45565b60405180910390a150505050610c93611273565b5050565b60045f9054906101000a900473ffffffffffffffffffffffffffffffffffffffff1673ffffffffffffffffffffffffffffffffffffffff163373ffffffffffffffffffffffffffffffffffffffff1614610d26576040517f08c379a0000000000000000000000000000000000000000000000000000000008152600401610d1d90611fc4565b60405180910390fd5b60065f8563ffffffff1663ffffffff1681526020019081526020015f20548314610d85576040517f08c379a0000000000000000000000000000000000000000000000000000000008152600401610d7c9061202c565b60405180910390fd5b5f808383810190610d969190612085565b915091505f805f610da5611303565b92509250925060035f9054906101000a900473ffffffffffffffffffffffffffffffffffffffff1673ffffffffffffffffffffffffffffffffffffffff1663d0a5f756868585856040518563ffffffff1660e01b8152600401610e0b9493929190612105565b5f604051808303815f87803b158015610e22575f80fd5b505af1158015610e34573d5f803e3d5ffd5b505050505f60075f8773ffffffffffffffffffffffffffffffffffffffff1673ffffffffffffffffffffffffffffffffffffffff1681526020019081526020015f209050600a83610e859190611b5c565b815f015f828254610e969190611b29565b92505081905550670de0b6b3a764000060648260010154610eb79190611b5c565b610ec19190611b5c565b815f015410610f38576001816001015f828254610ede9190611b29565b925050819055508573ffffffffffffffffffffffffffffffffffffffff167fdee7109003cf6cd3cb1b552819b438487a03ca336b5dfb3d823fcd9174549be68260010154604051610f2f91906116ea565b60405180910390a25b7f89f6d4f38490c20591252d044c714d8b7865b86278d85fef20cd3b6f37ab5bda8a8787604051610f6b93929190611f45565b60405180910390a150505050505050505050565b678ac7230489e8000081565b610f9361127c565b610f9c5f6114da565b565b5f805f9054906101000a900473ffffffffffffffffffffffffffffffffffffffff16905090565b60035f9054906101000a900473ffffffffffffffffffffffffffffffffffffffff1681565b610ff261127c565b8173ffffffffffffffffffffffffffffffffffffffff1663a9059cbb611016610f9e565b836040518363ffffffff1660e01b8152600401611034929190611c44565b6020604051808303815f875af1158015611050573d5f803e3d5ffd5b505050506040513d601f19601f820116820180604052508101906110749190612184565b6110b3576040517f08c379a00000000000000000000000000000000000000000000000000000000081526004016110aa906121f9565b60405180910390fd5b5050565b6007602052805f5260405f205f91509050805f0154908060010154908060020154905083565b60055f9054906101000a900473ffffffffffffffffffffffffffffffffffffffff1681565b61110a61127c565b5f73ffffffffffffffffffffffffffffffffffffffff168173ffffffffffffffffffffffffffffffffffffffff160361117a575f6040517f1e4fbdf700000000000000000000000000000000000000000000000000000000815260040161117191906118c5565b60405180910390fd5b611183816114da565b50565b60025f9054906101000a900473ffffffffffffffffffffffffffffffffffffffff1681565b6002600154036111f0576040517f08c379a00000000000000000000000000000000000000000000000000000000081526004016111e790612261565b60405180910390fd5b6002600181905550565b5f80423384604051602001611211939291906122e4565b604051602081830303815290604052805190602001205f1c9050600160028461123a9190611b5c565b82611245919061234d565b61124f9190611b29565b915050919050565b5f81674563918244f4000061126c9190611b5c565b9050919050565b60018081905550565b61128461159b565b73ffffffffffffffffffffffffffffffffffffffff166112a2610f9e565b73ffffffffffffffffffffffffffffffffffffffff1614611301576112c561159b565b6040517f118cdaa70000000000000000000000000000000000000000000000000000000081526004016112f891906118c5565b60405180910390fd5b565b60605f805f423360405160200161131b92919061237d565b604051602081830303815290604052805190602001205f1c90505f6040518060a001604052806040518060400160405280600481526020017f54756e610000000000000000000000000000000000000000000000000000000081525081526020016040518060400160405280600681526020017f53616c6d6f6e000000000000000000000000000000000000000000000000000081525081526020016040518060400160405280600581526020017f54726f757400000000000000000000000000000000000000000000000000000081525081526020016040518060400160405280600481526020017f426173730000000000000000000000000000000000000000000000000000000081525081526020016040518060400160405280600781526020017f436174666973680000000000000000000000000000000000000000000000000081525081525090505f81600584611477919061234d565b60058110611488576114876123a8565b5b602002015190505f600160648561149f919061234d565b6114a99190611b29565b90505f60016005866114bb919061234d565b6114c59190611b29565b90508282829750975097505050505050909192565b5f805f9054906101000a900473ffffffffffffffffffffffffffffffffffffffff169050815f806101000a81548173ffffffffffffffffffffffffffffffffffffffff021916908373ffffffffffffffffffffffffffffffffffffffff1602179055508173ffffffffffffffffffffffffffffffffffffffff168173ffffffffffffffffffffffffffffffffffffffff167f8be0079c531659141344cd1fd0a4f28419497f9722a3daafe3b4186f6b6457e060405160405180910390a35050565b5f33905090565b5f73ffffffffffffffffffffffffffffffffffffffff82169050919050565b5f819050919050565b5f6115e46115df6115da846115a2565b6115c1565b6115a2565b9050919050565b5f6115f5826115ca565b9050919050565b5f611606826115eb565b9050919050565b611616816115fc565b82525050565b5f60208201905061162f5f83018461160d565b92915050565b5f80fd5b5f80fd5b5f63ffffffff82169050919050565b6116558161163d565b811461165f575f80fd5b50565b5f813590506116708161164c565b92915050565b5f6020828403121561168b5761168a611635565b5b5f61169884828501611662565b91505092915050565b5f819050919050565b6116b3816116a1565b82525050565b5f6020820190506116cc5f8301846116aa565b92915050565b5f819050919050565b6116e4816116d2565b82525050565b5f6020820190506116fd5f8301846116db565b92915050565b61170c816116a1565b8114611716575f80fd5b50565b5f8135905061172781611703565b92915050565b5f806040838503121561174357611742611635565b5b5f61175085828601611662565b925050602061176185828601611719565b9150509250929050565b611774816116d2565b811461177e575f80fd5b50565b5f8135905061178f8161176b565b92915050565b5f80604083850312156117ab576117aa611635565b5b5f6117b885828601611662565b92505060206117c985828601611781565b9150509250929050565b5f80fd5b5f80fd5b5f80fd5b5f8083601f8401126117f4576117f36117d3565b5b8235905067ffffffffffffffff811115611811576118106117d7565b5b60208301915083600182028301111561182d5761182c6117db565b5b9250929050565b5f805f806060858703121561184c5761184b611635565b5b5f61185987828801611662565b945050602061186a87828801611719565b935050604085013567ffffffffffffffff81111561188b5761188a611639565b5b611897878288016117df565b925092505092959194509250565b5f6118af826115a2565b9050919050565b6118bf816118a5565b82525050565b5f6020820190506118d85f8301846118b6565b92915050565b5f6118e8826115eb565b9050919050565b6118f8816118de565b82525050565b5f6020820190506119115f8301846118ef565b92915050565b611920816118a5565b811461192a575f80fd5b50565b5f8135905061193b81611917565b92915050565b5f806040838503121561195757611956611635565b5b5f6119648582860161192d565b925050602061197585828601611781565b9150509250929050565b5f6020828403121561199457611993611635565b5b5f6119a18482850161192d565b91505092915050565b5f6060820190506119bd5f8301866116db565b6119ca60208301856116db565b6119d760408301846116db565b949350505050565b5f6119e9826115eb565b9050919050565b6119f9816119df565b82525050565b5f602082019050611a125f8301846119f0565b92915050565b5f611a22826115eb565b9050919050565b611a3281611a18565b82525050565b5f602082019050611a4b5f830184611a29565b92915050565b7f4e487b71000000000000000000000000000000000000000000000000000000005f52601160045260245ffd5b5f611a88826116d2565b9150611a93836116d2565b9250828203905081811115611aab57611aaa611a51565b5b92915050565b5f82825260208201905092915050565b7f57616974206265666f7265206e65787420616374696f6e0000000000000000005f82015250565b5f611af5601783611ab1565b9150611b0082611ac1565b602082019050919050565b5f6020820190508181035f830152611b2281611ae9565b9050919050565b5f611b33826116d2565b9150611b3e836116d2565b9250828201905080821115611b5657611b55611a51565b5b92915050565b5f611b66826116d2565b9150611b71836116d2565b9250828202611b7f816116d2565b91508282048414831517611b9657611b95611a51565b5b5092915050565b5f81519050611bab8161176b565b92915050565b5f60208284031215611bc657611bc5611635565b5b5f611bd384828501611b9d565b91505092915050565b7f496e73756666696369656e7420746f6b656e73000000000000000000000000005f82015250565b5f611c10601383611ab1565b9150611c1b82611bdc565b602082019050919050565b5f6020820190508181035f830152611c3d81611c04565b9050919050565b5f604082019050611c575f8301856118b6565b611c6460208301846116db565b9392505050565b5f604082019050611c7e5f8301856116db565b611c8b60208301846116db565b9392505050565b5f81519050611ca081611917565b92915050565b5f60208284031215611cbb57611cba611635565b5b5f611cc884828501611c92565b91505092915050565b7f4e6f7420746865206f776e6572206f66207468697320666973680000000000005f82015250565b5f611d05601a83611ab1565b9150611d1082611cd1565b602082019050919050565b5f6020820190508181035f830152611d3281611cf9565b9050919050565b611d428161163d565b82525050565b5f81519050919050565b5f82825260208201905092915050565b5f5b83811015611d7f578082015181840152602081019050611d64565b5f8484015250505050565b5f601f19601f8301169050919050565b5f611da482611d48565b611dae8185611d52565b9350611dbe818560208601611d62565b611dc781611d8a565b840191505092915050565b5f606082019050611de55f830186611d39565b611df260208301856116aa565b8181036040830152611e048184611d9a565b9050949350505050565b5f81519050611e1c81611703565b92915050565b5f60208284031215611e3757611e36611635565b5b5f611e4484828501611e0e565b91505092915050565b5f604082019050611e605f830185611d39565b611e6d60208301846116db565b9392505050565b7f496e73756666696369656e7420696e746572636861696e20676173207061796d5f8201527f656e740000000000000000000000000000000000000000000000000000000000602082015250565b5f611ece602383611ab1565b9150611ed982611e74565b604082019050919050565b5f6020820190508181035f830152611efb81611ec2565b9050919050565b5f608082019050611f155f8301876116aa565b611f226020830186611d39565b611f2f60408301856116db565b611f3c60608301846118b6565b95945050505050565b5f606082019050611f585f830186611d39565b611f6560208301856118b6565b611f7260408301846116db565b949350505050565b7f4f6e6c79206d61696c626f782063616e2063616c6c00000000000000000000005f82015250565b5f611fae601583611ab1565b9150611fb982611f7a565b602082019050919050565b5f6020820190508181035f830152611fdb81611fa2565b9050919050565b7f4e6f74206120747275737465642072656d6f74650000000000000000000000005f82015250565b5f612016601483611ab1565b915061202182611fe2565b602082019050919050565b5f6020820190508181035f8301526120438161200a565b9050919050565b5f612054826115a2565b9050919050565b6120648161204a565b811461206e575f80fd5b50565b5f8135905061207f8161205b565b92915050565b5f806040838503121561209b5761209a611635565b5b5f6120a885828601612071565b92505060206120b985828601611781565b9150509250929050565b5f81519050919050565b5f6120d7826120c3565b6120e18185611ab1565b93506120f1818560208601611d62565b6120fa81611d8a565b840191505092915050565b5f6080820190506121185f8301876118b6565b818103602083015261212a81866120cd565b905061213960408301856116db565b61214660608301846116db565b95945050505050565b5f8115159050919050565b6121638161214f565b811461216d575f80fd5b50565b5f8151905061217e8161215a565b92915050565b5f6020828403121561219957612198611635565b5b5f6121a684828501612170565b91505092915050565b7f5472616e73666572206661696c656400000000000000000000000000000000005f82015250565b5f6121e3600f83611ab1565b91506121ee826121af565b602082019050919050565b5f6020820190508181035f830152612210816121d7565b9050919050565b7f5265656e7472616e637947756172643a207265656e7472616e742063616c6c005f82015250565b5f61224b601f83611ab1565b915061225682612217565b602082019050919050565b5f6020820190508181035f8301526122788161223f565b9050919050565b5f819050919050565b612299612294826116d2565b61227f565b82525050565b5f8160601b9050919050565b5f6122b58261229f565b9050919050565b5f6122c6826122ab565b9050919050565b6122de6122d9826118a5565b6122bc565b82525050565b5f6122ef8286612288565b6020820191506122ff82856122cd565b60148201915061230f8284612288565b602082019150819050949350505050565b7f4e487b71000000000000000000000000000000000000000000000000000000005f52601260045260245ffd5b5f612357826116d2565b9150612362836116d2565b92508261237257612371612320565b5b828206905092915050565b5f6123888285612288565b60208201915061239882846122cd565b6014820191508190509392505050565b7f4e487b71000000000000000000000000000000000000000000000000000000005f52603260045260245ffdfea2646970667358221220d0948301b7e64dadec555bc330cabe2d2cf463115a15c77bfe230da1f3dca2b464736f6c63430008180033",
					"opcodes": "PUSH1 0x80 PUSH1 0x40 MSTORE CALLVALUE DUP1 ISZERO PUSH3 0x10 JUMPI PUSH0 DUP1 REVERT JUMPDEST POP PUSH1 0x40 MLOAD PUSH3 0x27A7 CODESIZE SUB DUP1 PUSH3 0x27A7 DUP4 CODECOPY DUP2 DUP2 ADD PUSH1 0x40 MSTORE DUP2 ADD SWAP1 PUSH3 0x36 SWAP2 SWAP1 PUSH3 0x2F3 JUMP JUMPDEST CALLER PUSH0 PUSH20 0xFFFFFFFFFFFFFFFFFFFFFFFFFFFFFFFFFFFFFFFF AND DUP2 PUSH20 0xFFFFFFFFFFFFFFFFFFFFFFFFFFFFFFFFFFFFFFFF AND SUB PUSH3 0xAA JUMPI PUSH0 PUSH1 0x40 MLOAD PUSH32 0x1E4FBDF700000000000000000000000000000000000000000000000000000000 DUP2 MSTORE PUSH1 0x4 ADD PUSH3 0xA1 SWAP2 SWAP1 PUSH3 0x373 JUMP JUMPDEST PUSH1 0x40 MLOAD DUP1 SWAP2 SUB SWAP1 REVERT JUMPDEST PUSH3 0xBB DUP2 PUSH3 0x1CD PUSH1 0x20 SHL PUSH1 0x20 SHR JUMP JUMPDEST POP PUSH1 0x1 DUP1 DUP2 SWAP1 SSTORE POP DUP4 PUSH1 0x2 PUSH0 PUSH2 0x100 EXP DUP2 SLOAD DUP2 PUSH20 0xFFFFFFFFFFFFFFFFFFFFFFFFFFFFFFFFFFFFFFFF MUL NOT AND SWAP1 DUP4 PUSH20 0xFFFFFFFFFFFFFFFFFFFFFFFFFFFFFFFFFFFFFFFF AND MUL OR SWAP1 SSTORE POP DUP3 PUSH1 0x3 PUSH0 PUSH2 0x100 EXP DUP2 SLOAD DUP2 PUSH20 0xFFFFFFFFFFFFFFFFFFFFFFFFFFFFFFFFFFFFFFFF MUL NOT AND SWAP1 DUP4 PUSH20 0xFFFFFFFFFFFFFFFFFFFFFFFFFFFFFFFFFFFFFFFF AND MUL OR SWAP1 SSTORE POP DUP2 PUSH1 0x4 PUSH0 PUSH2 0x100 EXP DUP2 SLOAD DUP2 PUSH20 0xFFFFFFFFFFFFFFFFFFFFFFFFFFFFFFFFFFFFFFFF MUL NOT AND SWAP1 DUP4 PUSH20 0xFFFFFFFFFFFFFFFFFFFFFFFFFFFFFFFFFFFFFFFF AND MUL OR SWAP1 SSTORE POP DUP1 PUSH1 0x5 PUSH0 PUSH2 0x100 EXP DUP2 SLOAD DUP2 PUSH20 0xFFFFFFFFFFFFFFFFFFFFFFFFFFFFFFFFFFFFFFFF MUL NOT AND SWAP1 DUP4 PUSH20 0xFFFFFFFFFFFFFFFFFFFFFFFFFFFFFFFFFFFFFFFF AND MUL OR SWAP1 SSTORE POP POP POP POP POP PUSH3 0x38E JUMP JUMPDEST PUSH0 DUP1 PUSH0 SWAP1 SLOAD SWAP1 PUSH2 0x100 EXP SWAP1 DIV PUSH20 0xFFFFFFFFFFFFFFFFFFFFFFFFFFFFFFFFFFFFFFFF AND SWAP1 POP DUP2 PUSH0 DUP1 PUSH2 0x100 EXP DUP2 SLOAD DUP2 PUSH20 0xFFFFFFFFFFFFFFFFFFFFFFFFFFFFFFFFFFFFFFFF MUL NOT AND SWAP1 DUP4 PUSH20 0xFFFFFFFFFFFFFFFFFFFFFFFFFFFFFFFFFFFFFFFF AND MUL OR SWAP1 SSTORE POP DUP2 PUSH20 0xFFFFFFFFFFFFFFFFFFFFFFFFFFFFFFFFFFFFFFFF AND DUP2 PUSH20 0xFFFFFFFFFFFFFFFFFFFFFFFFFFFFFFFFFFFFFFFF AND PUSH32 0x8BE0079C531659141344CD1FD0A4F28419497F9722A3DAAFE3B4186F6B6457E0 PUSH1 0x40 MLOAD PUSH1 0x40 MLOAD DUP1 SWAP2 SUB SWAP1 LOG3 POP POP JUMP JUMPDEST PUSH0 DUP1 REVERT JUMPDEST PUSH0 PUSH20 0xFFFFFFFFFFFFFFFFFFFFFFFFFFFFFFFFFFFFFFFF DUP3 AND SWAP1 POP SWAP2 SWAP1 POP JUMP JUMPDEST PUSH0 PUSH3 0x2BD DUP3 PUSH3 0x292 JUMP JUMPDEST SWAP1 POP SWAP2 SWAP1 POP JUMP JUMPDEST PUSH3 0x2CF DUP2 PUSH3 0x2B1 JUMP JUMPDEST DUP2 EQ PUSH3 0x2DA JUMPI PUSH0 DUP1 REVERT JUMPDEST POP JUMP JUMPDEST PUSH0 DUP2 MLOAD SWAP1 POP PUSH3 0x2ED DUP2 PUSH3 0x2C4 JUMP JUMPDEST SWAP3 SWAP2 POP POP JUMP JUMPDEST PUSH0 DUP1 PUSH0 DUP1 PUSH1 0x80 DUP6 DUP8 SUB SLT ISZERO PUSH3 0x30E JUMPI PUSH3 0x30D PUSH3 0x28E JUMP JUMPDEST JUMPDEST PUSH0 PUSH3 0x31D DUP8 DUP3 DUP9 ADD PUSH3 0x2DD JUMP JUMPDEST SWAP5 POP POP PUSH1 0x20 PUSH3 0x330 DUP8 DUP3 DUP9 ADD PUSH3 0x2DD JUMP JUMPDEST SWAP4 POP POP PUSH1 0x40 PUSH3 0x343 DUP8 DUP3 DUP9 ADD PUSH3 0x2DD JUMP JUMPDEST SWAP3 POP POP PUSH1 0x60 PUSH3 0x356 DUP8 DUP3 DUP9 ADD PUSH3 0x2DD JUMP JUMPDEST SWAP2 POP POP SWAP3 SWAP6 SWAP2 SWAP5 POP SWAP3 POP JUMP JUMPDEST PUSH3 0x36D DUP2 PUSH3 0x2B1 JUMP JUMPDEST DUP3 MSTORE POP POP JUMP JUMPDEST PUSH0 PUSH1 0x20 DUP3 ADD SWAP1 POP PUSH3 0x388 PUSH0 DUP4 ADD DUP5 PUSH3 0x362 JUMP JUMPDEST SWAP3 SWAP2 POP POP JUMP JUMPDEST PUSH2 0x240B DUP1 PUSH3 0x39C PUSH0 CODECOPY PUSH0 RETURN INVALID PUSH1 0x80 PUSH1 0x40 MSTORE PUSH1 0x4 CALLDATASIZE LT PUSH2 0xF1 JUMPI PUSH0 CALLDATALOAD PUSH1 0xE0 SHR DUP1 PUSH4 0x715018A6 GT PUSH2 0x89 JUMPI DUP1 PUSH4 0xD15E55B7 GT PUSH2 0x58 JUMPI DUP1 PUSH4 0xD15E55B7 EQ PUSH2 0x2B7 JUMPI DUP1 PUSH4 0xF28B2DAA EQ PUSH2 0x2F5 JUMPI DUP1 PUSH4 0xF2FDE38B EQ PUSH2 0x31F JUMPI DUP1 PUSH4 0xF7C618C1 EQ PUSH2 0x347 JUMPI PUSH2 0xF1 JUMP JUMPDEST DUP1 PUSH4 0x715018A6 EQ PUSH2 0x225 JUMPI DUP1 PUSH4 0x8DA5CB5B EQ PUSH2 0x23B JUMPI DUP1 PUSH4 0x959DA2CF EQ PUSH2 0x265 JUMPI DUP1 PUSH4 0xA1DB9782 EQ PUSH2 0x28F JUMPI PUSH2 0xF1 JUMP JUMPDEST DUP1 PUSH4 0x2BDA3E0B GT PUSH2 0xC5 JUMPI DUP1 PUSH4 0x2BDA3E0B EQ PUSH2 0x19B JUMPI DUP1 PUSH4 0x2C40AE85 EQ PUSH2 0x1C3 JUMPI DUP1 PUSH4 0x56D5D475 EQ PUSH2 0x1DF JUMPI DUP1 PUSH4 0x602E5A9E EQ PUSH2 0x1FB JUMPI PUSH2 0xF1 JUMP JUMPDEST DUP1 PUSH3 0x6228DC EQ PUSH2 0xF5 JUMPI DUP1 PUSH4 0x1A6E4DB4 EQ PUSH2 0x10B JUMPI DUP1 PUSH4 0x1D187C50 EQ PUSH2 0x135 JUMPI DUP1 PUSH4 0x22009AF6 EQ PUSH2 0x171 JUMPI JUMPDEST PUSH0 DUP1 REVERT JUMPDEST CALLVALUE DUP1 ISZERO PUSH2 0x100 JUMPI PUSH0 DUP1 REVERT JUMPDEST POP PUSH2 0x109 PUSH2 0x371 JUMP JUMPDEST STOP JUMPDEST CALLVALUE DUP1 ISZERO PUSH2 0x116 JUMPI PUSH0 DUP1 REVERT JUMPDEST POP PUSH2 0x11F PUSH2 0x791 JUMP JUMPDEST PUSH1 0x40 MLOAD PUSH2 0x12C SWAP2 SWAP1 PUSH2 0x161C JUMP JUMPDEST PUSH1 0x40 MLOAD DUP1 SWAP2 SUB SWAP1 RETURN JUMPDEST CALLVALUE DUP1 ISZERO PUSH2 0x140 JUMPI PUSH0 DUP1 REVERT JUMPDEST POP PUSH2 0x15B PUSH1 0x4 DUP1 CALLDATASIZE SUB DUP2 ADD SWAP1 PUSH2 0x156 SWAP2 SWAP1 PUSH2 0x1676 JUMP JUMPDEST PUSH2 0x7B6 JUMP JUMPDEST PUSH1 0x40 MLOAD PUSH2 0x168 SWAP2 SWAP1 PUSH2 0x16B9 JUMP JUMPDEST PUSH1 0x40 MLOAD DUP1 SWAP2 SUB SWAP1 RETURN JUMPDEST CALLVALUE DUP1 ISZERO PUSH2 0x17C JUMPI PUSH0 DUP1 REVERT JUMPDEST POP PUSH2 0x185 PUSH2 0x7CB JUMP JUMPDEST PUSH1 0x40 MLOAD PUSH2 0x192 SWAP2 SWAP1 PUSH2 0x16EA JUMP JUMPDEST PUSH1 0x40 MLOAD DUP1 SWAP2 SUB SWAP1 RETURN JUMPDEST CALLVALUE DUP1 ISZERO PUSH2 0x1A6 JUMPI PUSH0 DUP1 REVERT JUMPDEST POP PUSH2 0x1C1 PUSH1 0x4 DUP1 CALLDATASIZE SUB DUP2 ADD SWAP1 PUSH2 0x1BC SWAP2 SWAP1 PUSH2 0x172D JUMP JUMPDEST PUSH2 0x7D7 JUMP JUMPDEST STOP JUMPDEST PUSH2 0x1DD PUSH1 0x4 DUP1 CALLDATASIZE SUB DUP2 ADD SWAP1 PUSH2 0x1D8 SWAP2 SWAP1 PUSH2 0x1795 JUMP JUMPDEST PUSH2 0x805 JUMP JUMPDEST STOP JUMPDEST PUSH2 0x1F9 PUSH1 0x4 DUP1 CALLDATASIZE SUB DUP2 ADD SWAP1 PUSH2 0x1F4 SWAP2 SWAP1 PUSH2 0x1834 JUMP JUMPDEST PUSH2 0xC97 JUMP JUMPDEST STOP JUMPDEST CALLVALUE DUP1 ISZERO PUSH2 0x206 JUMPI PUSH0 DUP1 REVERT JUMPDEST POP PUSH2 0x20F PUSH2 0xF7F JUMP JUMPDEST PUSH1 0x40 MLOAD PUSH2 0x21C SWAP2 SWAP1 PUSH2 0x16EA JUMP JUMPDEST PUSH1 0x40 MLOAD DUP1 SWAP2 SUB SWAP1 RETURN JUMPDEST CALLVALUE DUP1 ISZERO PUSH2 0x230 JUMPI PUSH0 DUP1 REVERT JUMPDEST POP PUSH2 0x239 PUSH2 0xF8B JUMP JUMPDEST STOP JUMPDEST CALLVALUE DUP1 ISZERO PUSH2 0x246 JUMPI PUSH0 DUP1 REVERT JUMPDEST POP PUSH2 0x24F PUSH2 0xF9E JUMP JUMPDEST PUSH1 0x40 MLOAD PUSH2 0x25C SWAP2 SWAP1 PUSH2 0x18C5 JUMP JUMPDEST PUSH1 0x40 MLOAD DUP1 SWAP2 SUB SWAP1 RETURN JUMPDEST CALLVALUE DUP1 ISZERO PUSH2 0x270 JUMPI PUSH0 DUP1 REVERT JUMPDEST POP PUSH2 0x279 PUSH2 0xFC5 JUMP JUMPDEST PUSH1 0x40 MLOAD PUSH2 0x286 SWAP2 SWAP1 PUSH2 0x18FE JUMP JUMPDEST PUSH1 0x40 MLOAD DUP1 SWAP2 SUB SWAP1 RETURN JUMPDEST CALLVALUE DUP1 ISZERO PUSH2 0x29A JUMPI PUSH0 DUP1 REVERT JUMPDEST POP PUSH2 0x2B5 PUSH1 0x4 DUP1 CALLDATASIZE SUB DUP2 ADD SWAP1 PUSH2 0x2B0 SWAP2 SWAP1 PUSH2 0x1941 JUMP JUMPDEST PUSH2 0xFEA JUMP JUMPDEST STOP JUMPDEST CALLVALUE DUP1 ISZERO PUSH2 0x2C2 JUMPI PUSH0 DUP1 REVERT JUMPDEST POP PUSH2 0x2DD PUSH1 0x4 DUP1 CALLDATASIZE SUB DUP2 ADD SWAP1 PUSH2 0x2D8 SWAP2 SWAP1 PUSH2 0x197F JUMP JUMPDEST PUSH2 0x10B7 JUMP JUMPDEST PUSH1 0x40 MLOAD PUSH2 0x2EC SWAP4 SWAP3 SWAP2 SWAP1 PUSH2 0x19AA JUMP JUMPDEST PUSH1 0x40 MLOAD DUP1 SWAP2 SUB SWAP1 RETURN JUMPDEST CALLVALUE DUP1 ISZERO PUSH2 0x300 JUMPI PUSH0 DUP1 REVERT JUMPDEST POP PUSH2 0x309 PUSH2 0x10DD JUMP JUMPDEST PUSH1 0x40 MLOAD PUSH2 0x316 SWAP2 SWAP1 PUSH2 0x19FF JUMP JUMPDEST PUSH1 0x40 MLOAD DUP1 SWAP2 SUB SWAP1 RETURN JUMPDEST CALLVALUE DUP1 ISZERO PUSH2 0x32A JUMPI PUSH0 DUP1 REVERT JUMPDEST POP PUSH2 0x345 PUSH1 0x4 DUP1 CALLDATASIZE SUB DUP2 ADD SWAP1 PUSH2 0x340 SWAP2 SWAP1 PUSH2 0x197F JUMP JUMPDEST PUSH2 0x1102 JUMP JUMPDEST STOP JUMPDEST CALLVALUE DUP1 ISZERO PUSH2 0x352 JUMPI PUSH0 DUP1 REVERT JUMPDEST POP PUSH2 0x35B PUSH2 0x1186 JUMP JUMPDEST PUSH1 0x40 MLOAD PUSH2 0x368 SWAP2 SWAP1 PUSH2 0x1A38 JUMP JUMPDEST PUSH1 0x40 MLOAD DUP1 SWAP2 SUB SWAP1 RETURN JUMPDEST PUSH2 0x379 PUSH2 0x11AB JUMP JUMPDEST PUSH0 PUSH1 0x7 PUSH0 CALLER PUSH20 0xFFFFFFFFFFFFFFFFFFFFFFFFFFFFFFFFFFFFFFFF AND PUSH20 0xFFFFFFFFFFFFFFFFFFFFFFFFFFFFFFFFFFFFFFFF AND DUP2 MSTORE PUSH1 0x20 ADD SWAP1 DUP2 MSTORE PUSH1 0x20 ADD PUSH0 KECCAK256 SWAP1 POP PUSH1 0x3C DUP2 PUSH1 0x2 ADD SLOAD TIMESTAMP PUSH2 0x3CB SWAP2 SWAP1 PUSH2 0x1A7E JUMP JUMPDEST LT ISZERO PUSH2 0x40C JUMPI PUSH1 0x40 MLOAD PUSH32 0x8C379A000000000000000000000000000000000000000000000000000000000 DUP2 MSTORE PUSH1 0x4 ADD PUSH2 0x403 SWAP1 PUSH2 0x1B0B JUMP JUMPDEST PUSH1 0x40 MLOAD DUP1 SWAP2 SUB SWAP1 REVERT JUMPDEST PUSH0 PUSH1 0x1 DUP3 PUSH1 0x1 ADD SLOAD PUSH2 0x41E SWAP2 SWAP1 PUSH2 0x1B29 JUMP JUMPDEST PUSH8 0x8AC7230489E80000 PUSH2 0x431 SWAP2 SWAP1 PUSH2 0x1B5C JUMP JUMPDEST SWAP1 POP DUP1 PUSH1 0x2 PUSH0 SWAP1 SLOAD SWAP1 PUSH2 0x100 EXP SWAP1 DIV PUSH20 0xFFFFFFFFFFFFFFFFFFFFFFFFFFFFFFFFFFFFFFFF AND PUSH20 0xFFFFFFFFFFFFFFFFFFFFFFFFFFFFFFFFFFFFFFFF AND PUSH4 0x70A08231 CALLER PUSH1 0x40 MLOAD DUP3 PUSH4 0xFFFFFFFF AND PUSH1 0xE0 SHL DUP2 MSTORE PUSH1 0x4 ADD PUSH2 0x48E SWAP2 SWAP1 PUSH2 0x18C5 JUMP JUMPDEST PUSH1 0x20 PUSH1 0x40 MLOAD DUP1 DUP4 SUB DUP2 DUP7 GAS STATICCALL ISZERO DUP1 ISZERO PUSH2 0x4A9 JUMPI RETURNDATASIZE PUSH0 DUP1 RETURNDATACOPY RETURNDATASIZE PUSH0 REVERT JUMPDEST POP POP POP POP PUSH1 0x40 MLOAD RETURNDATASIZE PUSH1 0x1F NOT PUSH1 0x1F DUP3 ADD AND DUP3 ADD DUP1 PUSH1 0x40 MSTORE POP DUP2 ADD SWAP1 PUSH2 0x4CD SWAP2 SWAP1 PUSH2 0x1BB1 JUMP JUMPDEST LT ISZERO PUSH2 0x50E JUMPI PUSH1 0x40 MLOAD PUSH32 0x8C379A000000000000000000000000000000000000000000000000000000000 DUP2 MSTORE PUSH1 0x4 ADD PUSH2 0x505 SWAP1 PUSH2 0x1C26 JUMP JUMPDEST PUSH1 0x40 MLOAD DUP1 SWAP2 SUB SWAP1 REVERT JUMPDEST PUSH1 0x2 PUSH0 SWAP1 SLOAD SWAP1 PUSH2 0x100 EXP SWAP1 DIV PUSH20 0xFFFFFFFFFFFFFFFFFFFFFFFFFFFFFFFFFFFFFFFF AND PUSH20 0xFFFFFFFFFFFFFFFFFFFFFFFFFFFFFFFFFFFFFFFF AND PUSH4 0x79CC6790 CALLER DUP4 PUSH1 0x40 MLOAD DUP4 PUSH4 0xFFFFFFFF AND PUSH1 0xE0 SHL DUP2 MSTORE PUSH1 0x4 ADD PUSH2 0x56A SWAP3 SWAP2 SWAP1 PUSH2 0x1C44 JUMP JUMPDEST PUSH0 PUSH1 0x40 MLOAD DUP1 DUP4 SUB DUP2 PUSH0 DUP8 DUP1 EXTCODESIZE ISZERO DUP1 ISZERO PUSH2 0x581 JUMPI PUSH0 DUP1 REVERT JUMPDEST POP GAS CALL ISZERO DUP1 ISZERO PUSH2 0x593 JUMPI RETURNDATASIZE PUSH0 DUP1 RETURNDATACOPY RETURNDATASIZE PUSH0 REVERT JUMPDEST POP POP POP POP PUSH0 PUSH2 0x5A5 DUP4 PUSH1 0x1 ADD SLOAD PUSH2 0x11FA JUMP JUMPDEST SWAP1 POP DUP3 PUSH1 0x1 ADD SLOAD DUP2 GT PUSH2 0x751 JUMPI PUSH0 PUSH2 0x5BC DUP3 PUSH2 0x1257 JUMP JUMPDEST SWAP1 POP PUSH1 0x2 PUSH0 SWAP1 SLOAD SWAP1 PUSH2 0x100 EXP SWAP1 DIV PUSH20 0xFFFFFFFFFFFFFFFFFFFFFFFFFFFFFFFFFFFFFFFF AND PUSH20 0xFFFFFFFFFFFFFFFFFFFFFFFFFFFFFFFFFFFFFFFF AND PUSH4 0x9A49090E CALLER DUP4 PUSH1 0x40 MLOAD DUP4 PUSH4 0xFFFFFFFF AND PUSH1 0xE0 SHL DUP2 MSTORE PUSH1 0x4 ADD PUSH2 0x61A SWAP3 SWAP2 SWAP1 PUSH2 0x1C44 JUMP JUMPDEST PUSH0 PUSH1 0x40 MLOAD DUP1 DUP4 SUB DUP2 PUSH0 DUP8 DUP1 EXTCODESIZE ISZERO DUP1 ISZERO PUSH2 0x631 JUMPI PUSH0 DUP1 REVERT JUMPDEST POP GAS CALL ISZERO DUP1 ISZERO PUSH2 0x643 JUMPI RETURNDATASIZE PUSH0 DUP1 RETURNDATACOPY RETURNDATASIZE PUSH0 REVERT JUMPDEST POP POP POP POP DUP1 DUP5 PUSH0 ADD PUSH0 DUP3 DUP3 SLOAD PUSH2 0x659 SWAP2 SWAP1 PUSH2 0x1B29 JUMP JUMPDEST SWAP3 POP POP DUP2 SWAP1 SSTORE POP CALLER PUSH20 0xFFFFFFFFFFFFFFFFFFFFFFFFFFFFFFFFFFFFFFFF AND PUSH32 0xD17BA01607A01CD2603CCCD4413F658442E41DD750B0722C4398589F1C80A6C3 DUP4 DUP4 PUSH1 0x40 MLOAD PUSH2 0x6A8 SWAP3 SWAP2 SWAP1 PUSH2 0x1C6B JUMP JUMPDEST PUSH1 0x40 MLOAD DUP1 SWAP2 SUB SWAP1 LOG2 PUSH8 0xDE0B6B3A7640000 PUSH1 0x64 DUP6 PUSH1 0x1 ADD SLOAD PUSH2 0x6CA SWAP2 SWAP1 PUSH2 0x1B5C JUMP JUMPDEST PUSH2 0x6D4 SWAP2 SWAP1 PUSH2 0x1B5C JUMP JUMPDEST DUP5 PUSH0 ADD SLOAD LT PUSH2 0x74B JUMPI PUSH1 0x1 DUP5 PUSH1 0x1 ADD PUSH0 DUP3 DUP3 SLOAD PUSH2 0x6F1 SWAP2 SWAP1 PUSH2 0x1B29 JUMP JUMPDEST SWAP3 POP POP DUP2 SWAP1 SSTORE POP CALLER PUSH20 0xFFFFFFFFFFFFFFFFFFFFFFFFFFFFFFFFFFFFFFFF AND PUSH32 0xDEE7109003CF6CD3CB1B552819B438487A03CA336B5DFB3D823FCD9174549BE6 DUP6 PUSH1 0x1 ADD SLOAD PUSH1 0x40 MLOAD PUSH2 0x742 SWAP2 SWAP1 PUSH2 0x16EA JUMP JUMPDEST PUSH1 0x40 MLOAD DUP1 SWAP2 SUB SWAP1 LOG2 JUMPDEST POP PUSH2 0x77B JUMP JUMPDEST PUSH1 0x1 DUP4 PUSH1 0x1 ADD SLOAD GT ISZERO PUSH2 0x77A JUMPI PUSH1 0x1 DUP4 PUSH1 0x1 ADD PUSH0 DUP3 DUP3 SLOAD PUSH2 0x772 SWAP2 SWAP1 PUSH2 0x1A7E JUMP JUMPDEST SWAP3 POP POP DUP2 SWAP1 SSTORE POP JUMPDEST JUMPDEST TIMESTAMP DUP4 PUSH1 0x2 ADD DUP2 SWAP1 SSTORE POP POP POP POP PUSH2 0x78F PUSH2 0x1273 JUMP JUMPDEST JUMP JUMPDEST PUSH1 0x4 PUSH0 SWAP1 SLOAD SWAP1 PUSH2 0x100 EXP SWAP1 DIV PUSH20 0xFFFFFFFFFFFFFFFFFFFFFFFFFFFFFFFFFFFFFFFF AND DUP2 JUMP JUMPDEST PUSH1 0x6 PUSH1 0x20 MSTORE DUP1 PUSH0 MSTORE PUSH1 0x40 PUSH0 KECCAK256 PUSH0 SWAP2 POP SWAP1 POP SLOAD DUP2 JUMP JUMPDEST PUSH8 0x4563918244F40000 DUP2 JUMP JUMPDEST PUSH2 0x7DF PUSH2 0x127C JUMP JUMPDEST DUP1 PUSH1 0x6 PUSH0 DUP5 PUSH4 0xFFFFFFFF AND PUSH4 0xFFFFFFFF AND DUP2 MSTORE PUSH1 0x20 ADD SWAP1 DUP2 MSTORE PUSH1 0x20 ADD PUSH0 KECCAK256 DUP2 SWAP1 SSTORE POP POP POP JUMP JUMPDEST PUSH2 0x80D PUSH2 0x11AB JUMP JUMPDEST CALLER PUSH20 0xFFFFFFFFFFFFFFFFFFFFFFFFFFFFFFFFFFFFFFFF AND PUSH1 0x3 PUSH0 SWAP1 SLOAD SWAP1 PUSH2 0x100 EXP SWAP1 DIV PUSH20 0xFFFFFFFFFFFFFFFFFFFFFFFFFFFFFFFFFFFFFFFF AND PUSH20 0xFFFFFFFFFFFFFFFFFFFFFFFFFFFFFFFFFFFFFFFF AND PUSH4 0x6352211E DUP4 PUSH1 0x40 MLOAD DUP3 PUSH4 0xFFFFFFFF AND PUSH1 0xE0 SHL DUP2 MSTORE PUSH1 0x4 ADD PUSH2 0x87E SWAP2 SWAP1 PUSH2 0x16EA JUMP JUMPDEST PUSH1 0x20 PUSH1 0x40 MLOAD DUP1 DUP4 SUB DUP2 DUP7 GAS STATICCALL ISZERO DUP1 ISZERO PUSH2 0x899 JUMPI RETURNDATASIZE PUSH0 DUP1 RETURNDATACOPY RETURNDATASIZE PUSH0 REVERT JUMPDEST POP POP POP POP PUSH1 0x40 MLOAD RETURNDATASIZE PUSH1 0x1F NOT PUSH1 0x1F DUP3 ADD AND DUP3 ADD DUP1 PUSH1 0x40 MSTORE POP DUP2 ADD SWAP1 PUSH2 0x8BD SWAP2 SWAP1 PUSH2 0x1CA6 JUMP JUMPDEST PUSH20 0xFFFFFFFFFFFFFFFFFFFFFFFFFFFFFFFFFFFFFFFF AND EQ PUSH2 0x913 JUMPI PUSH1 0x40 MLOAD PUSH32 0x8C379A000000000000000000000000000000000000000000000000000000000 DUP2 MSTORE PUSH1 0x4 ADD PUSH2 0x90A SWAP1 PUSH2 0x1D1B JUMP JUMPDEST PUSH1 0x40 MLOAD DUP1 SWAP2 SUB SWAP1 REVERT JUMPDEST PUSH1 0x3 PUSH0 SWAP1 SLOAD SWAP1 PUSH2 0x100 EXP SWAP1 DIV PUSH20 0xFFFFFFFFFFFFFFFFFFFFFFFFFFFFFFFFFFFFFFFF AND PUSH20 0xFFFFFFFFFFFFFFFFFFFFFFFFFFFFFFFFFFFFFFFF AND PUSH4 0x42C49BE DUP3 PUSH1 0x40 MLOAD DUP3 PUSH4 0xFFFFFFFF AND PUSH1 0xE0 SHL DUP2 MSTORE PUSH1 0x4 ADD PUSH2 0x96D SWAP2 SWAP1 PUSH2 0x16EA JUMP JUMPDEST PUSH0 PUSH1 0x40 MLOAD DUP1 DUP4 SUB DUP2 PUSH0 DUP8 DUP1 EXTCODESIZE ISZERO DUP1 ISZERO PUSH2 0x984 JUMPI PUSH0 DUP1 REVERT JUMPDEST POP GAS CALL ISZERO DUP1 ISZERO PUSH2 0x996 JUMPI RETURNDATASIZE PUSH0 DUP1 RETURNDATACOPY RETURNDATASIZE PUSH0 REVERT JUMPDEST POP POP POP POP PUSH0 CALLER DUP3 PUSH1 0x40 MLOAD PUSH1 0x20 ADD PUSH2 0x9AE SWAP3 SWAP2 SWAP1 PUSH2 0x1C44 JUMP JUMPDEST PUSH1 0x40 MLOAD PUSH1 0x20 DUP2 DUP4 SUB SUB DUP2 MSTORE SWAP1 PUSH1 0x40 MSTORE SWAP1 POP PUSH0 PUSH1 0x4 PUSH0 SWAP1 SLOAD SWAP1 PUSH2 0x100 EXP SWAP1 DIV PUSH20 0xFFFFFFFFFFFFFFFFFFFFFFFFFFFFFFFFFFFFFFFF AND PUSH20 0xFFFFFFFFFFFFFFFFFFFFFFFFFFFFFFFFFFFFFFFF AND PUSH4 0xFA31DE01 DUP6 PUSH1 0x6 PUSH0 DUP9 PUSH4 0xFFFFFFFF AND PUSH4 0xFFFFFFFF AND DUP2 MSTORE PUSH1 0x20 ADD SWAP1 DUP2 MSTORE PUSH1 0x20 ADD PUSH0 KECCAK256 SLOAD DUP6 PUSH1 0x40 MLOAD DUP5 PUSH4 0xFFFFFFFF AND PUSH1 0xE0 SHL DUP2 MSTORE PUSH1 0x4 ADD PUSH2 0xA3B SWAP4 SWAP3 SWAP2 SWAP1 PUSH2 0x1DD2 JUMP JUMPDEST PUSH1 0x20 PUSH1 0x40 MLOAD DUP1 DUP4 SUB DUP2 PUSH0 DUP8 GAS CALL ISZERO DUP1 ISZERO PUSH2 0xA57 JUMPI RETURNDATASIZE PUSH0 DUP1 RETURNDATACOPY RETURNDATASIZE PUSH0 REVERT JUMPDEST POP POP POP POP PUSH1 0x40 MLOAD RETURNDATASIZE PUSH1 0x1F NOT PUSH1 0x1F DUP3 ADD AND DUP3 ADD DUP1 PUSH1 0x40 MSTORE POP DUP2 ADD SWAP1 PUSH2 0xA7B SWAP2 SWAP1 PUSH2 0x1E22 JUMP JUMPDEST SWAP1 POP PUSH0 PUSH3 0x493E0 SWAP1 POP PUSH0 PUSH1 0x5 PUSH0 SWAP1 SLOAD SWAP1 PUSH2 0x100 EXP SWAP1 DIV PUSH20 0xFFFFFFFFFFFFFFFFFFFFFFFFFFFFFFFFFFFFFFFF AND PUSH20 0xFFFFFFFFFFFFFFFFFFFFFFFFFFFFFFFFFFFFFFFF AND PUSH4 0xA6929793 DUP8 DUP5 PUSH1 0x40 MLOAD DUP4 PUSH4 0xFFFFFFFF AND PUSH1 0xE0 SHL DUP2 MSTORE PUSH1 0x4 ADD PUSH2 0xAE1 SWAP3 SWAP2 SWAP1 PUSH2 0x1E4D JUMP JUMPDEST PUSH1 0x20 PUSH1 0x40 MLOAD DUP1 DUP4 SUB DUP2 DUP7 GAS STATICCALL ISZERO DUP1 ISZERO PUSH2 0xAFC JUMPI RETURNDATASIZE PUSH0 DUP1 RETURNDATACOPY RETURNDATASIZE PUSH0 REVERT JUMPDEST POP POP POP POP PUSH1 0x40 MLOAD RETURNDATASIZE PUSH1 0x1F NOT PUSH1 0x1F DUP3 ADD AND DUP3 ADD DUP1 PUSH1 0x40 MSTORE POP DUP2 ADD SWAP1 PUSH2 0xB20 SWAP2 SWAP1 PUSH2 0x1BB1 JUMP JUMPDEST SWAP1 POP DUP1 CALLVALUE LT ISZERO PUSH2 0xB65 JUMPI PUSH1 0x40 MLOAD PUSH32 0x8C379A000000000000000000000000000000000000000000000000000000000 DUP2 MSTORE PUSH1 0x4 ADD PUSH2 0xB5C SWAP1 PUSH2 0x1EE4 JUMP JUMPDEST PUSH1 0x40 MLOAD DUP1 SWAP2 SUB SWAP1 REVERT JUMPDEST PUSH1 0x5 PUSH0 SWAP1 SLOAD SWAP1 PUSH2 0x100 EXP SWAP1 DIV PUSH20 0xFFFFFFFFFFFFFFFFFFFFFFFFFFFFFFFFFFFFFFFF AND PUSH20 0xFFFFFFFFFFFFFFFFFFFFFFFFFFFFFFFFFFFFFFFF AND PUSH4 0x11BF2C18 DUP3 DUP6 DUP10 DUP7 CALLER PUSH1 0x40 MLOAD DUP7 PUSH4 0xFFFFFFFF AND PUSH1 0xE0 SHL DUP2 MSTORE PUSH1 0x4 ADD PUSH2 0xBC6 SWAP5 SWAP4 SWAP3 SWAP2 SWAP1 PUSH2 0x1F02 JUMP JUMPDEST PUSH0 PUSH1 0x40 MLOAD DUP1 DUP4 SUB DUP2 DUP6 DUP9 DUP1 EXTCODESIZE ISZERO DUP1 ISZERO PUSH2 0xBDD JUMPI PUSH0 DUP1 REVERT JUMPDEST POP GAS CALL ISZERO DUP1 ISZERO PUSH2 0xBEF JUMPI RETURNDATASIZE PUSH0 DUP1 RETURNDATACOPY RETURNDATASIZE PUSH0 REVERT JUMPDEST POP POP POP POP POP DUP1 CALLVALUE GT ISZERO PUSH2 0xC4C JUMPI CALLER PUSH20 0xFFFFFFFFFFFFFFFFFFFFFFFFFFFFFFFFFFFFFFFF AND PUSH2 0x8FC DUP3 CALLVALUE PUSH2 0xC22 SWAP2 SWAP1 PUSH2 0x1A7E JUMP JUMPDEST SWAP1 DUP2 ISZERO MUL SWAP1 PUSH1 0x40 MLOAD PUSH0 PUSH1 0x40 MLOAD DUP1 DUP4 SUB DUP2 DUP6 DUP9 DUP9 CALL SWAP4 POP POP POP POP ISZERO DUP1 ISZERO PUSH2 0xC4A JUMPI RETURNDATASIZE PUSH0 DUP1 RETURNDATACOPY RETURNDATASIZE PUSH0 REVERT JUMPDEST POP JUMPDEST PUSH32 0x89F6D4F38490C20591252D044C714D8B7865B86278D85FEF20CD3B6F37AB5BDA DUP7 CALLER DUP8 PUSH1 0x40 MLOAD PUSH2 0xC7F SWAP4 SWAP3 SWAP2 SWAP1 PUSH2 0x1F45 JUMP JUMPDEST PUSH1 0x40 MLOAD DUP1 SWAP2 SUB SWAP1 LOG1 POP POP POP POP PUSH2 0xC93 PUSH2 0x1273 JUMP JUMPDEST POP POP JUMP JUMPDEST PUSH1 0x4 PUSH0 SWAP1 SLOAD SWAP1 PUSH2 0x100 EXP SWAP1 DIV PUSH20 0xFFFFFFFFFFFFFFFFFFFFFFFFFFFFFFFFFFFFFFFF AND PUSH20 0xFFFFFFFFFFFFFFFFFFFFFFFFFFFFFFFFFFFFFFFF AND CALLER PUSH20 0xFFFFFFFFFFFFFFFFFFFFFFFFFFFFFFFFFFFFFFFF AND EQ PUSH2 0xD26 JUMPI PUSH1 0x40 MLOAD PUSH32 0x8C379A000000000000000000000000000000000000000000000000000000000 DUP2 MSTORE PUSH1 0x4 ADD PUSH2 0xD1D SWAP1 PUSH2 0x1FC4 JUMP JUMPDEST PUSH1 0x40 MLOAD DUP1 SWAP2 SUB SWAP1 REVERT JUMPDEST PUSH1 0x6 PUSH0 DUP6 PUSH4 0xFFFFFFFF AND PUSH4 0xFFFFFFFF AND DUP2 MSTORE PUSH1 0x20 ADD SWAP1 DUP2 MSTORE PUSH1 0x20 ADD PUSH0 KECCAK256 SLOAD DUP4 EQ PUSH2 0xD85 JUMPI PUSH1 0x40 MLOAD PUSH32 0x8C379A000000000000000000000000000000000000000000000000000000000 DUP2 MSTORE PUSH1 0x4 ADD PUSH2 0xD7C SWAP1 PUSH2 0x202C JUMP JUMPDEST PUSH1 0x40 MLOAD DUP1 SWAP2 SUB SWAP1 REVERT JUMPDEST PUSH0 DUP1 DUP4 DUP4 DUP2 ADD SWAP1 PUSH2 0xD96 SWAP2 SWAP1 PUSH2 0x2085 JUMP JUMPDEST SWAP2 POP SWAP2 POP PUSH0 DUP1 PUSH0 PUSH2 0xDA5 PUSH2 0x1303 JUMP JUMPDEST SWAP3 POP SWAP3 POP SWAP3 POP PUSH1 0x3 PUSH0 SWAP1 SLOAD SWAP1 PUSH2 0x100 EXP SWAP1 DIV PUSH20 0xFFFFFFFFFFFFFFFFFFFFFFFFFFFFFFFFFFFFFFFF AND PUSH20 0xFFFFFFFFFFFFFFFFFFFFFFFFFFFFFFFFFFFFFFFF AND PUSH4 0xD0A5F756 DUP7 DUP6 DUP6 DUP6 PUSH1 0x40 MLOAD DUP6 PUSH4 0xFFFFFFFF AND PUSH1 0xE0 SHL DUP2 MSTORE PUSH1 0x4 ADD PUSH2 0xE0B SWAP5 SWAP4 SWAP3 SWAP2 SWAP1 PUSH2 0x2105 JUMP JUMPDEST PUSH0 PUSH1 0x40 MLOAD DUP1 DUP4 SUB DUP2 PUSH0 DUP8 DUP1 EXTCODESIZE ISZERO DUP1 ISZERO PUSH2 0xE22 JUMPI PUSH0 DUP1 REVERT JUMPDEST POP GAS CALL ISZERO DUP1 ISZERO PUSH2 0xE34 JUMPI RETURNDATASIZE PUSH0 DUP1 RETURNDATACOPY RETURNDATASIZE PUSH0 REVERT JUMPDEST POP POP POP POP PUSH0 PUSH1 0x7 PUSH0 DUP8 PUSH20 0xFFFFFFFFFFFFFFFFFFFFFFFFFFFFFFFFFFFFFFFF AND PUSH20 0xFFFFFFFFFFFFFFFFFFFFFFFFFFFFFFFFFFFFFFFF AND DUP2 MSTORE PUSH1 0x20 ADD SWAP1 DUP2 MSTORE PUSH1 0x20 ADD PUSH0 KECCAK256 SWAP1 POP PUSH1 0xA DUP4 PUSH2 0xE85 SWAP2 SWAP1 PUSH2 0x1B5C JUMP JUMPDEST DUP2 PUSH0 ADD PUSH0 DUP3 DUP3 SLOAD PUSH2 0xE96 SWAP2 SWAP1 PUSH2 0x1B29 JUMP JUMPDEST SWAP3 POP POP DUP2 SWAP1 SSTORE POP PUSH8 0xDE0B6B3A7640000 PUSH1 0x64 DUP3 PUSH1 0x1 ADD SLOAD PUSH2 0xEB7 SWAP2 SWAP1 PUSH2 0x1B5C JUMP JUMPDEST PUSH2 0xEC1 SWAP2 SWAP1 PUSH2 0x1B5C JUMP JUMPDEST DUP2 PUSH0 ADD SLOAD LT PUSH2 0xF38 JUMPI PUSH1 0x1 DUP2 PUSH1 0x1 ADD PUSH0 DUP3 DUP3 SLOAD PUSH2 0xEDE SWAP2 SWAP1 PUSH2 0x1B29 JUMP JUMPDEST SWAP3 POP POP DUP2 SWAP1 SSTORE POP DUP6 PUSH20 0xFFFFFFFFFFFFFFFFFFFFFFFFFFFFFFFFFFFFFFFF AND PUSH32 0xDEE7109003CF6CD3CB1B552819B438487A03CA336B5DFB3D823FCD9174549BE6 DUP3 PUSH1 0x1 ADD SLOAD PUSH1 0x40 MLOAD PUSH2 0xF2F SWAP2 SWAP1 PUSH2 0x16EA JUMP JUMPDEST PUSH1 0x40 MLOAD DUP1 SWAP2 SUB SWAP1 LOG2 JUMPDEST PUSH32 0x89F6D4F38490C20591252D044C714D8B7865B86278D85FEF20CD3B6F37AB5BDA DUP11 DUP8 DUP8 PUSH1 0x40 MLOAD PUSH2 0xF6B SWAP4 SWAP3 SWAP2 SWAP1 PUSH2 0x1F45 JUMP JUMPDEST PUSH1 0x40 MLOAD DUP1 SWAP2 SUB SWAP1 LOG1 POP POP POP POP POP POP POP POP POP POP JUMP JUMPDEST PUSH8 0x8AC7230489E80000 DUP2 JUMP JUMPDEST PUSH2 0xF93 PUSH2 0x127C JUMP JUMPDEST PUSH2 0xF9C PUSH0 PUSH2 0x14DA JUMP JUMPDEST JUMP JUMPDEST PUSH0 DUP1 PUSH0 SWAP1 SLOAD SWAP1 PUSH2 0x100 EXP SWAP1 DIV PUSH20 0xFFFFFFFFFFFFFFFFFFFFFFFFFFFFFFFFFFFFFFFF AND SWAP1 POP SWAP1 JUMP JUMPDEST PUSH1 0x3 PUSH0 SWAP1 SLOAD SWAP1 PUSH2 0x100 EXP SWAP1 DIV PUSH20 0xFFFFFFFFFFFFFFFFFFFFFFFFFFFFFFFFFFFFFFFF AND DUP2 JUMP JUMPDEST PUSH2 0xFF2 PUSH2 0x127C JUMP JUMPDEST DUP2 PUSH20 0xFFFFFFFFFFFFFFFFFFFFFFFFFFFFFFFFFFFFFFFF AND PUSH4 0xA9059CBB PUSH2 0x1016 PUSH2 0xF9E JUMP JUMPDEST DUP4 PUSH1 0x40 MLOAD DUP4 PUSH4 0xFFFFFFFF AND PUSH1 0xE0 SHL DUP2 MSTORE PUSH1 0x4 ADD PUSH2 0x1034 SWAP3 SWAP2 SWAP1 PUSH2 0x1C44 JUMP JUMPDEST PUSH1 0x20 PUSH1 0x40 MLOAD DUP1 DUP4 SUB DUP2 PUSH0 DUP8 GAS CALL ISZERO DUP1 ISZERO PUSH2 0x1050 JUMPI RETURNDATASIZE PUSH0 DUP1 RETURNDATACOPY RETURNDATASIZE PUSH0 REVERT JUMPDEST POP POP POP POP PUSH1 0x40 MLOAD RETURNDATASIZE PUSH1 0x1F NOT PUSH1 0x1F DUP3 ADD AND DUP3 ADD DUP1 PUSH1 0x40 MSTORE POP DUP2 ADD SWAP1 PUSH2 0x1074 SWAP2 SWAP1 PUSH2 0x2184 JUMP JUMPDEST PUSH2 0x10B3 JUMPI PUSH1 0x40 MLOAD PUSH32 0x8C379A000000000000000000000000000000000000000000000000000000000 DUP2 MSTORE PUSH1 0x4 ADD PUSH2 0x10AA SWAP1 PUSH2 0x21F9 JUMP JUMPDEST PUSH1 0x40 MLOAD DUP1 SWAP2 SUB SWAP1 REVERT JUMPDEST POP POP JUMP JUMPDEST PUSH1 0x7 PUSH1 0x20 MSTORE DUP1 PUSH0 MSTORE PUSH1 0x40 PUSH0 KECCAK256 PUSH0 SWAP2 POP SWAP1 POP DUP1 PUSH0 ADD SLOAD SWAP1 DUP1 PUSH1 0x1 ADD SLOAD SWAP1 DUP1 PUSH1 0x2 ADD SLOAD SWAP1 POP DUP4 JUMP JUMPDEST PUSH1 0x5 PUSH0 SWAP1 SLOAD SWAP1 PUSH2 0x100 EXP SWAP1 DIV PUSH20 0xFFFFFFFFFFFFFFFFFFFFFFFFFFFFFFFFFFFFFFFF AND DUP2 JUMP JUMPDEST PUSH2 0x110A PUSH2 0x127C JUMP JUMPDEST PUSH0 PUSH20 0xFFFFFFFFFFFFFFFFFFFFFFFFFFFFFFFFFFFFFFFF AND DUP2 PUSH20 0xFFFFFFFFFFFFFFFFFFFFFFFFFFFFFFFFFFFFFFFF AND SUB PUSH2 0x117A JUMPI PUSH0 PUSH1 0x40 MLOAD PUSH32 0x1E4FBDF700000000000000000000000000000000000000000000000000000000 DUP2 MSTORE PUSH1 0x4 ADD PUSH2 0x1171 SWAP2 SWAP1 PUSH2 0x18C5 JUMP JUMPDEST PUSH1 0x40 MLOAD DUP1 SWAP2 SUB SWAP1 REVERT JUMPDEST PUSH2 0x1183 DUP2 PUSH2 0x14DA JUMP JUMPDEST POP JUMP JUMPDEST PUSH1 0x2 PUSH0 SWAP1 SLOAD SWAP1 PUSH2 0x100 EXP SWAP1 DIV PUSH20 0xFFFFFFFFFFFFFFFFFFFFFFFFFFFFFFFFFFFFFFFF AND DUP2 JUMP JUMPDEST PUSH1 0x2 PUSH1 0x1 SLOAD SUB PUSH2 0x11F0 JUMPI PUSH1 0x40 MLOAD PUSH32 0x8C379A000000000000000000000000000000000000000000000000000000000 DUP2 MSTORE PUSH1 0x4 ADD PUSH2 0x11E7 SWAP1 PUSH2 0x2261 JUMP JUMPDEST PUSH1 0x40 MLOAD DUP1 SWAP2 SUB SWAP1 REVERT JUMPDEST PUSH1 0x2 PUSH1 0x1 DUP2 SWAP1 SSTORE POP JUMP JUMPDEST PUSH0 DUP1 TIMESTAMP CALLER DUP5 PUSH1 0x40 MLOAD PUSH1 0x20 ADD PUSH2 0x1211 SWAP4 SWAP3 SWAP2 SWAP1 PUSH2 0x22E4 JUMP JUMPDEST PUSH1 0x40 MLOAD PUSH1 0x20 DUP2 DUP4 SUB SUB DUP2 MSTORE SWAP1 PUSH1 0x40 MSTORE DUP1 MLOAD SWAP1 PUSH1 0x20 ADD KECCAK256 PUSH0 SHR SWAP1 POP PUSH1 0x1 PUSH1 0x2 DUP5 PUSH2 0x123A SWAP2 SWAP1 PUSH2 0x1B5C JUMP JUMPDEST DUP3 PUSH2 0x1245 SWAP2 SWAP1 PUSH2 0x234D JUMP JUMPDEST PUSH2 0x124F SWAP2 SWAP1 PUSH2 0x1B29 JUMP JUMPDEST SWAP2 POP POP SWAP2 SWAP1 POP JUMP JUMPDEST PUSH0 DUP2 PUSH8 0x4563918244F40000 PUSH2 0x126C SWAP2 SWAP1 PUSH2 0x1B5C JUMP JUMPDEST SWAP1 POP SWAP2 SWAP1 POP JUMP JUMPDEST PUSH1 0x1 DUP1 DUP2 SWAP1 SSTORE POP JUMP JUMPDEST PUSH2 0x1284 PUSH2 0x159B JUMP JUMPDEST PUSH20 0xFFFFFFFFFFFFFFFFFFFFFFFFFFFFFFFFFFFFFFFF AND PUSH2 0x12A2 PUSH2 0xF9E JUMP JUMPDEST PUSH20 0xFFFFFFFFFFFFFFFFFFFFFFFFFFFFFFFFFFFFFFFF AND EQ PUSH2 0x1301 JUMPI PUSH2 0x12C5 PUSH2 0x159B JUMP JUMPDEST PUSH1 0x40 MLOAD PUSH32 0x118CDAA700000000000000000000000000000000000000000000000000000000 DUP2 MSTORE PUSH1 0x4 ADD PUSH2 0x12F8 SWAP2 SWAP1 PUSH2 0x18C5 JUMP JUMPDEST PUSH1 0x40 MLOAD DUP1 SWAP2 SUB SWAP1 REVERT JUMPDEST JUMP JUMPDEST PUSH1 0x60 PUSH0 DUP1 PUSH0 TIMESTAMP CALLER PUSH1 0x40 MLOAD PUSH1 0x20 ADD PUSH2 0x131B SWAP3 SWAP2 SWAP1 PUSH2 0x237D JUMP JUMPDEST PUSH1 0x40 MLOAD PUSH1 0x20 DUP2 DUP4 SUB SUB DUP2 MSTORE SWAP1 PUSH1 0x40 MSTORE DUP1 MLOAD SWAP1 PUSH1 0x20 ADD KECCAK256 PUSH0 SHR SWAP1 POP PUSH0 PUSH1 0x40 MLOAD DUP1 PUSH1 0xA0 ADD PUSH1 0x40 MSTORE DUP1 PUSH1 0x40 MLOAD DUP1 PUSH1 0x40 ADD PUSH1 0x40 MSTORE DUP1 PUSH1 0x4 DUP2 MSTORE PUSH1 0x20 ADD PUSH32 0x54756E6100000000000000000000000000000000000000000000000000000000 DUP2 MSTORE POP DUP2 MSTORE PUSH1 0x20 ADD PUSH1 0x40 MLOAD DUP1 PUSH1 0x40 ADD PUSH1 0x40 MSTORE DUP1 PUSH1 0x6 DUP2 MSTORE PUSH1 0x20 ADD PUSH32 0x53616C6D6F6E0000000000000000000000000000000000000000000000000000 DUP2 MSTORE POP DUP2 MSTORE PUSH1 0x20 ADD PUSH1 0x40 MLOAD DUP1 PUSH1 0x40 ADD PUSH1 0x40 MSTORE DUP1 PUSH1 0x5 DUP2 MSTORE PUSH1 0x20 ADD PUSH32 0x54726F7574000000000000000000000000000000000000000000000000000000 DUP2 MSTORE POP DUP2 MSTORE PUSH1 0x20 ADD PUSH1 0x40 MLOAD DUP1 PUSH1 0x40 ADD PUSH1 0x40 MSTORE DUP1 PUSH1 0x4 DUP2 MSTORE PUSH1 0x20 ADD PUSH32 0x4261737300000000000000000000000000000000000000000000000000000000 DUP2 MSTORE POP DUP2 MSTORE PUSH1 0x20 ADD PUSH1 0x40 MLOAD DUP1 PUSH1 0x40 ADD PUSH1 0x40 MSTORE DUP1 PUSH1 0x7 DUP2 MSTORE PUSH1 0x20 ADD PUSH32 0x4361746669736800000000000000000000000000000000000000000000000000 DUP2 MSTORE POP DUP2 MSTORE POP SWAP1 POP PUSH0 DUP2 PUSH1 0x5 DUP5 PUSH2 0x1477 SWAP2 SWAP1 PUSH2 0x234D JUMP JUMPDEST PUSH1 0x5 DUP2 LT PUSH2 0x1488 JUMPI PUSH2 0x1487 PUSH2 0x23A8 JUMP JUMPDEST JUMPDEST PUSH1 0x20 MUL ADD MLOAD SWAP1 POP PUSH0 PUSH1 0x1 PUSH1 0x64 DUP6 PUSH2 0x149F SWAP2 SWAP1 PUSH2 0x234D JUMP JUMPDEST PUSH2 0x14A9 SWAP2 SWAP1 PUSH2 0x1B29 JUMP JUMPDEST SWAP1 POP PUSH0 PUSH1 0x1 PUSH1 0x5 DUP7 PUSH2 0x14BB SWAP2 SWAP1 PUSH2 0x234D JUMP JUMPDEST PUSH2 0x14C5 SWAP2 SWAP1 PUSH2 0x1B29 JUMP JUMPDEST SWAP1 POP DUP3 DUP3 DUP3 SWAP8 POP SWAP8 POP SWAP8 POP POP POP POP POP POP SWAP1 SWAP2 SWAP3 JUMP JUMPDEST PUSH0 DUP1 PUSH0 SWAP1 SLOAD SWAP1 PUSH2 0x100 EXP SWAP1 DIV PUSH20 0xFFFFFFFFFFFFFFFFFFFFFFFFFFFFFFFFFFFFFFFF AND SWAP1 POP DUP2 PUSH0 DUP1 PUSH2 0x100 EXP DUP2 SLOAD DUP2 PUSH20 0xFFFFFFFFFFFFFFFFFFFFFFFFFFFFFFFFFFFFFFFF MUL NOT AND SWAP1 DUP4 PUSH20 0xFFFFFFFFFFFFFFFFFFFFFFFFFFFFFFFFFFFFFFFF AND MUL OR SWAP1 SSTORE POP DUP2 PUSH20 0xFFFFFFFFFFFFFFFFFFFFFFFFFFFFFFFFFFFFFFFF AND DUP2 PUSH20 0xFFFFFFFFFFFFFFFFFFFFFFFFFFFFFFFFFFFFFFFF AND PUSH32 0x8BE0079C531659141344CD1FD0A4F28419497F9722A3DAAFE3B4186F6B6457E0 PUSH1 0x40 MLOAD PUSH1 0x40 MLOAD DUP1 SWAP2 SUB SWAP1 LOG3 POP POP JUMP JUMPDEST PUSH0 CALLER SWAP1 POP SWAP1 JUMP JUMPDEST PUSH0 PUSH20 0xFFFFFFFFFFFFFFFFFFFFFFFFFFFFFFFFFFFFFFFF DUP3 AND SWAP1 POP SWAP2 SWAP1 POP JUMP JUMPDEST PUSH0 DUP2 SWAP1 POP SWAP2 SWAP1 POP JUMP JUMPDEST PUSH0 PUSH2 0x15E4 PUSH2 0x15DF PUSH2 0x15DA DUP5 PUSH2 0x15A2 JUMP JUMPDEST PUSH2 0x15C1 JUMP JUMPDEST PUSH2 0x15A2 JUMP JUMPDEST SWAP1 POP SWAP2 SWAP1 POP JUMP JUMPDEST PUSH0 PUSH2 0x15F5 DUP3 PUSH2 0x15CA JUMP JUMPDEST SWAP1 POP SWAP2 SWAP1 POP JUMP JUMPDEST PUSH0 PUSH2 0x1606 DUP3 PUSH2 0x15EB JUMP JUMPDEST SWAP1 POP SWAP2 SWAP1 POP JUMP JUMPDEST PUSH2 0x1616 DUP2 PUSH2 0x15FC JUMP JUMPDEST DUP3 MSTORE POP POP JUMP JUMPDEST PUSH0 PUSH1 0x20 DUP3 ADD SWAP1 POP PUSH2 0x162F PUSH0 DUP4 ADD DUP5 PUSH2 0x160D JUMP JUMPDEST SWAP3 SWAP2 POP POP JUMP JUMPDEST PUSH0 DUP1 REVERT JUMPDEST PUSH0 DUP1 REVERT JUMPDEST PUSH0 PUSH4 0xFFFFFFFF DUP3 AND SWAP1 POP SWAP2 SWAP1 POP JUMP JUMPDEST PUSH2 0x1655 DUP2 PUSH2 0x163D JUMP JUMPDEST DUP2 EQ PUSH2 0x165F JUMPI PUSH0 DUP1 REVERT JUMPDEST POP JUMP JUMPDEST PUSH0 DUP2 CALLDATALOAD SWAP1 POP PUSH2 0x1670 DUP2 PUSH2 0x164C JUMP JUMPDEST SWAP3 SWAP2 POP POP JUMP JUMPDEST PUSH0 PUSH1 0x20 DUP3 DUP5 SUB SLT ISZERO PUSH2 0x168B JUMPI PUSH2 0x168A PUSH2 0x1635 JUMP JUMPDEST JUMPDEST PUSH0 PUSH2 0x1698 DUP5 DUP3 DUP6 ADD PUSH2 0x1662 JUMP JUMPDEST SWAP2 POP POP SWAP3 SWAP2 POP POP JUMP JUMPDEST PUSH0 DUP2 SWAP1 POP SWAP2 SWAP1 POP JUMP JUMPDEST PUSH2 0x16B3 DUP2 PUSH2 0x16A1 JUMP JUMPDEST DUP3 MSTORE POP POP JUMP JUMPDEST PUSH0 PUSH1 0x20 DUP3 ADD SWAP1 POP PUSH2 0x16CC PUSH0 DUP4 ADD DUP5 PUSH2 0x16AA JUMP JUMPDEST SWAP3 SWAP2 POP POP JUMP JUMPDEST PUSH0 DUP2 SWAP1 POP SWAP2 SWAP1 POP JUMP JUMPDEST PUSH2 0x16E4 DUP2 PUSH2 0x16D2 JUMP JUMPDEST DUP3 MSTORE POP POP JUMP JUMPDEST PUSH0 PUSH1 0x20 DUP3 ADD SWAP1 POP PUSH2 0x16FD PUSH0 DUP4 ADD DUP5 PUSH2 0x16DB JUMP JUMPDEST SWAP3 SWAP2 POP POP JUMP JUMPDEST PUSH2 0x170C DUP2 PUSH2 0x16A1 JUMP JUMPDEST DUP2 EQ PUSH2 0x1716 JUMPI PUSH0 DUP1 REVERT JUMPDEST POP JUMP JUMPDEST PUSH0 DUP2 CALLDATALOAD SWAP1 POP PUSH2 0x1727 DUP2 PUSH2 0x1703 JUMP JUMPDEST SWAP3 SWAP2 POP POP JUMP JUMPDEST PUSH0 DUP1 PUSH1 0x40 DUP4 DUP6 SUB SLT ISZERO PUSH2 0x1743 JUMPI PUSH2 0x1742 PUSH2 0x1635 JUMP JUMPDEST JUMPDEST PUSH0 PUSH2 0x1750 DUP6 DUP3 DUP7 ADD PUSH2 0x1662 JUMP JUMPDEST SWAP3 POP POP PUSH1 0x20 PUSH2 0x1761 DUP6 DUP3 DUP7 ADD PUSH2 0x1719 JUMP JUMPDEST SWAP2 POP POP SWAP3 POP SWAP3 SWAP1 POP JUMP JUMPDEST PUSH2 0x1774 DUP2 PUSH2 0x16D2 JUMP JUMPDEST DUP2 EQ PUSH2 0x177E JUMPI PUSH0 DUP1 REVERT JUMPDEST POP JUMP JUMPDEST PUSH0 DUP2 CALLDATALOAD SWAP1 POP PUSH2 0x178F DUP2 PUSH2 0x176B JUMP JUMPDEST SWAP3 SWAP2 POP POP JUMP JUMPDEST PUSH0 DUP1 PUSH1 0x40 DUP4 DUP6 SUB SLT ISZERO PUSH2 0x17AB JUMPI PUSH2 0x17AA PUSH2 0x1635 JUMP JUMPDEST JUMPDEST PUSH0 PUSH2 0x17B8 DUP6 DUP3 DUP7 ADD PUSH2 0x1662 JUMP JUMPDEST SWAP3 POP POP PUSH1 0x20 PUSH2 0x17C9 DUP6 DUP3 DUP7 ADD PUSH2 0x1781 JUMP JUMPDEST SWAP2 POP POP SWAP3 POP SWAP3 SWAP1 POP JUMP JUMPDEST PUSH0 DUP1 REVERT JUMPDEST PUSH0 DUP1 REVERT JUMPDEST PUSH0 DUP1 REVERT JUMPDEST PUSH0 DUP1 DUP4 PUSH1 0x1F DUP5 ADD SLT PUSH2 0x17F4 JUMPI PUSH2 0x17F3 PUSH2 0x17D3 JUMP JUMPDEST JUMPDEST DUP3 CALLDATALOAD SWAP1 POP PUSH8 0xFFFFFFFFFFFFFFFF DUP2 GT ISZERO PUSH2 0x1811 JUMPI PUSH2 0x1810 PUSH2 0x17D7 JUMP JUMPDEST JUMPDEST PUSH1 0x20 DUP4 ADD SWAP2 POP DUP4 PUSH1 0x1 DUP3 MUL DUP4 ADD GT ISZERO PUSH2 0x182D JUMPI PUSH2 0x182C PUSH2 0x17DB JUMP JUMPDEST JUMPDEST SWAP3 POP SWAP3 SWAP1 POP JUMP JUMPDEST PUSH0 DUP1 PUSH0 DUP1 PUSH1 0x60 DUP6 DUP8 SUB SLT ISZERO PUSH2 0x184C JUMPI PUSH2 0x184B PUSH2 0x1635 JUMP JUMPDEST JUMPDEST PUSH0 PUSH2 0x1859 DUP8 DUP3 DUP9 ADD PUSH2 0x1662 JUMP JUMPDEST SWAP5 POP POP PUSH1 0x20 PUSH2 0x186A DUP8 DUP3 DUP9 ADD PUSH2 0x1719 JUMP JUMPDEST SWAP4 POP POP PUSH1 0x40 DUP6 ADD CALLDATALOAD PUSH8 0xFFFFFFFFFFFFFFFF DUP2 GT ISZERO PUSH2 0x188B JUMPI PUSH2 0x188A PUSH2 0x1639 JUMP JUMPDEST JUMPDEST PUSH2 0x1897 DUP8 DUP3 DUP9 ADD PUSH2 0x17DF JUMP JUMPDEST SWAP3 POP SWAP3 POP POP SWAP3 SWAP6 SWAP2 SWAP5 POP SWAP3 POP JUMP JUMPDEST PUSH0 PUSH2 0x18AF DUP3 PUSH2 0x15A2 JUMP JUMPDEST SWAP1 POP SWAP2 SWAP1 POP JUMP JUMPDEST PUSH2 0x18BF DUP2 PUSH2 0x18A5 JUMP JUMPDEST DUP3 MSTORE POP POP JUMP JUMPDEST PUSH0 PUSH1 0x20 DUP3 ADD SWAP1 POP PUSH2 0x18D8 PUSH0 DUP4 ADD DUP5 PUSH2 0x18B6 JUMP JUMPDEST SWAP3 SWAP2 POP POP JUMP JUMPDEST PUSH0 PUSH2 0x18E8 DUP3 PUSH2 0x15EB JUMP JUMPDEST SWAP1 POP SWAP2 SWAP1 POP JUMP JUMPDEST PUSH2 0x18F8 DUP2 PUSH2 0x18DE JUMP JUMPDEST DUP3 MSTORE POP POP JUMP JUMPDEST PUSH0 PUSH1 0x20 DUP3 ADD SWAP1 POP PUSH2 0x1911 PUSH0 DUP4 ADD DUP5 PUSH2 0x18EF JUMP JUMPDEST SWAP3 SWAP2 POP POP JUMP JUMPDEST PUSH2 0x1920 DUP2 PUSH2 0x18A5 JUMP JUMPDEST DUP2 EQ PUSH2 0x192A JUMPI PUSH0 DUP1 REVERT JUMPDEST POP JUMP JUMPDEST PUSH0 DUP2 CALLDATALOAD SWAP1 POP PUSH2 0x193B DUP2 PUSH2 0x1917 JUMP JUMPDEST SWAP3 SWAP2 POP POP JUMP JUMPDEST PUSH0 DUP1 PUSH1 0x40 DUP4 DUP6 SUB SLT ISZERO PUSH2 0x1957 JUMPI PUSH2 0x1956 PUSH2 0x1635 JUMP JUMPDEST JUMPDEST PUSH0 PUSH2 0x1964 DUP6 DUP3 DUP7 ADD PUSH2 0x192D JUMP JUMPDEST SWAP3 POP POP PUSH1 0x20 PUSH2 0x1975 DUP6 DUP3 DUP7 ADD PUSH2 0x1781 JUMP JUMPDEST SWAP2 POP POP SWAP3 POP SWAP3 SWAP1 POP JUMP JUMPDEST PUSH0 PUSH1 0x20 DUP3 DUP5 SUB SLT ISZERO PUSH2 0x1994 JUMPI PUSH2 0x1993 PUSH2 0x1635 JUMP JUMPDEST JUMPDEST PUSH0 PUSH2 0x19A1 DUP5 DUP3 DUP6 ADD PUSH2 0x192D JUMP JUMPDEST SWAP2 POP POP SWAP3 SWAP2 POP POP JUMP JUMPDEST PUSH0 PUSH1 0x60 DUP3 ADD SWAP1 POP PUSH2 0x19BD PUSH0 DUP4 ADD DUP7 PUSH2 0x16DB JUMP JUMPDEST PUSH2 0x19CA PUSH1 0x20 DUP4 ADD DUP6 PUSH2 0x16DB JUMP JUMPDEST PUSH2 0x19D7 PUSH1 0x40 DUP4 ADD DUP5 PUSH2 0x16DB JUMP JUMPDEST SWAP5 SWAP4 POP POP POP POP JUMP JUMPDEST PUSH0 PUSH2 0x19E9 DUP3 PUSH2 0x15EB JUMP JUMPDEST SWAP1 POP SWAP2 SWAP1 POP JUMP JUMPDEST PUSH2 0x19F9 DUP2 PUSH2 0x19DF JUMP JUMPDEST DUP3 MSTORE POP POP JUMP JUMPDEST PUSH0 PUSH1 0x20 DUP3 ADD SWAP1 POP PUSH2 0x1A12 PUSH0 DUP4 ADD DUP5 PUSH2 0x19F0 JUMP JUMPDEST SWAP3 SWAP2 POP POP JUMP JUMPDEST PUSH0 PUSH2 0x1A22 DUP3 PUSH2 0x15EB JUMP JUMPDEST SWAP1 POP SWAP2 SWAP1 POP JUMP JUMPDEST PUSH2 0x1A32 DUP2 PUSH2 0x1A18 JUMP JUMPDEST DUP3 MSTORE POP POP JUMP JUMPDEST PUSH0 PUSH1 0x20 DUP3 ADD SWAP1 POP PUSH2 0x1A4B PUSH0 DUP4 ADD DUP5 PUSH2 0x1A29 JUMP JUMPDEST SWAP3 SWAP2 POP POP JUMP JUMPDEST PUSH32 0x4E487B7100000000000000000000000000000000000000000000000000000000 PUSH0 MSTORE PUSH1 0x11 PUSH1 0x4 MSTORE PUSH1 0x24 PUSH0 REVERT JUMPDEST PUSH0 PUSH2 0x1A88 DUP3 PUSH2 0x16D2 JUMP JUMPDEST SWAP2 POP PUSH2 0x1A93 DUP4 PUSH2 0x16D2 JUMP JUMPDEST SWAP3 POP DUP3 DUP3 SUB SWAP1 POP DUP2 DUP2 GT ISZERO PUSH2 0x1AAB JUMPI PUSH2 0x1AAA PUSH2 0x1A51 JUMP JUMPDEST JUMPDEST SWAP3 SWAP2 POP POP JUMP JUMPDEST PUSH0 DUP3 DUP3 MSTORE PUSH1 0x20 DUP3 ADD SWAP1 POP SWAP3 SWAP2 POP POP JUMP JUMPDEST PUSH32 0x57616974206265666F7265206E65787420616374696F6E000000000000000000 PUSH0 DUP3 ADD MSTORE POP JUMP JUMPDEST PUSH0 PUSH2 0x1AF5 PUSH1 0x17 DUP4 PUSH2 0x1AB1 JUMP JUMPDEST SWAP2 POP PUSH2 0x1B00 DUP3 PUSH2 0x1AC1 JUMP JUMPDEST PUSH1 0x20 DUP3 ADD SWAP1 POP SWAP2 SWAP1 POP JUMP JUMPDEST PUSH0 PUSH1 0x20 DUP3 ADD SWAP1 POP DUP2 DUP2 SUB PUSH0 DUP4 ADD MSTORE PUSH2 0x1B22 DUP2 PUSH2 0x1AE9 JUMP JUMPDEST SWAP1 POP SWAP2 SWAP1 POP JUMP JUMPDEST PUSH0 PUSH2 0x1B33 DUP3 PUSH2 0x16D2 JUMP JUMPDEST SWAP2 POP PUSH2 0x1B3E DUP4 PUSH2 0x16D2 JUMP JUMPDEST SWAP3 POP DUP3 DUP3 ADD SWAP1 POP DUP1 DUP3 GT ISZERO PUSH2 0x1B56 JUMPI PUSH2 0x1B55 PUSH2 0x1A51 JUMP JUMPDEST JUMPDEST SWAP3 SWAP2 POP POP JUMP JUMPDEST PUSH0 PUSH2 0x1B66 DUP3 PUSH2 0x16D2 JUMP JUMPDEST SWAP2 POP PUSH2 0x1B71 DUP4 PUSH2 0x16D2 JUMP JUMPDEST SWAP3 POP DUP3 DUP3 MUL PUSH2 0x1B7F DUP2 PUSH2 0x16D2 JUMP JUMPDEST SWAP2 POP DUP3 DUP3 DIV DUP5 EQ DUP4 ISZERO OR PUSH2 0x1B96 JUMPI PUSH2 0x1B95 PUSH2 0x1A51 JUMP JUMPDEST JUMPDEST POP SWAP3 SWAP2 POP POP JUMP JUMPDEST PUSH0 DUP2 MLOAD SWAP1 POP PUSH2 0x1BAB DUP2 PUSH2 0x176B JUMP JUMPDEST SWAP3 SWAP2 POP POP JUMP JUMPDEST PUSH0 PUSH1 0x20 DUP3 DUP5 SUB SLT ISZERO PUSH2 0x1BC6 JUMPI PUSH2 0x1BC5 PUSH2 0x1635 JUMP JUMPDEST JUMPDEST PUSH0 PUSH2 0x1BD3 DUP5 DUP3 DUP6 ADD PUSH2 0x1B9D JUMP JUMPDEST SWAP2 POP POP SWAP3 SWAP2 POP POP JUMP JUMPDEST PUSH32 0x496E73756666696369656E7420746F6B656E7300000000000000000000000000 PUSH0 DUP3 ADD MSTORE POP JUMP JUMPDEST PUSH0 PUSH2 0x1C10 PUSH1 0x13 DUP4 PUSH2 0x1AB1 JUMP JUMPDEST SWAP2 POP PUSH2 0x1C1B DUP3 PUSH2 0x1BDC JUMP JUMPDEST PUSH1 0x20 DUP3 ADD SWAP1 POP SWAP2 SWAP1 POP JUMP JUMPDEST PUSH0 PUSH1 0x20 DUP3 ADD SWAP1 POP DUP2 DUP2 SUB PUSH0 DUP4 ADD MSTORE PUSH2 0x1C3D DUP2 PUSH2 0x1C04 JUMP JUMPDEST SWAP1 POP SWAP2 SWAP1 POP JUMP JUMPDEST PUSH0 PUSH1 0x40 DUP3 ADD SWAP1 POP PUSH2 0x1C57 PUSH0 DUP4 ADD DUP6 PUSH2 0x18B6 JUMP JUMPDEST PUSH2 0x1C64 PUSH1 0x20 DUP4 ADD DUP5 PUSH2 0x16DB JUMP JUMPDEST SWAP4 SWAP3 POP POP POP JUMP JUMPDEST PUSH0 PUSH1 0x40 DUP3 ADD SWAP1 POP PUSH2 0x1C7E PUSH0 DUP4 ADD DUP6 PUSH2 0x16DB JUMP JUMPDEST PUSH2 0x1C8B PUSH1 0x20 DUP4 ADD DUP5 PUSH2 0x16DB JUMP JUMPDEST SWAP4 SWAP3 POP POP POP JUMP JUMPDEST PUSH0 DUP2 MLOAD SWAP1 POP PUSH2 0x1CA0 DUP2 PUSH2 0x1917 JUMP JUMPDEST SWAP3 SWAP2 POP POP JUMP JUMPDEST PUSH0 PUSH1 0x20 DUP3 DUP5 SUB SLT ISZERO PUSH2 0x1CBB JUMPI PUSH2 0x1CBA PUSH2 0x1635 JUMP JUMPDEST JUMPDEST PUSH0 PUSH2 0x1CC8 DUP5 DUP3 DUP6 ADD PUSH2 0x1C92 JUMP JUMPDEST SWAP2 POP POP SWAP3 SWAP2 POP POP JUMP JUMPDEST PUSH32 0x4E6F7420746865206F776E6572206F6620746869732066697368000000000000 PUSH0 DUP3 ADD MSTORE POP JUMP JUMPDEST PUSH0 PUSH2 0x1D05 PUSH1 0x1A DUP4 PUSH2 0x1AB1 JUMP JUMPDEST SWAP2 POP PUSH2 0x1D10 DUP3 PUSH2 0x1CD1 JUMP JUMPDEST PUSH1 0x20 DUP3 ADD SWAP1 POP SWAP2 SWAP1 POP JUMP JUMPDEST PUSH0 PUSH1 0x20 DUP3 ADD SWAP1 POP DUP2 DUP2 SUB PUSH0 DUP4 ADD MSTORE PUSH2 0x1D32 DUP2 PUSH2 0x1CF9 JUMP JUMPDEST SWAP1 POP SWAP2 SWAP1 POP JUMP JUMPDEST PUSH2 0x1D42 DUP2 PUSH2 0x163D JUMP JUMPDEST DUP3 MSTORE POP POP JUMP JUMPDEST PUSH0 DUP2 MLOAD SWAP1 POP SWAP2 SWAP1 POP JUMP JUMPDEST PUSH0 DUP3 DUP3 MSTORE PUSH1 0x20 DUP3 ADD SWAP1 POP SWAP3 SWAP2 POP POP JUMP JUMPDEST PUSH0 JUMPDEST DUP4 DUP2 LT ISZERO PUSH2 0x1D7F JUMPI DUP1 DUP3 ADD MLOAD DUP2 DUP5 ADD MSTORE PUSH1 0x20 DUP2 ADD SWAP1 POP PUSH2 0x1D64 JUMP JUMPDEST PUSH0 DUP5 DUP5 ADD MSTORE POP POP POP POP JUMP JUMPDEST PUSH0 PUSH1 0x1F NOT PUSH1 0x1F DUP4 ADD AND SWAP1 POP SWAP2 SWAP1 POP JUMP JUMPDEST PUSH0 PUSH2 0x1DA4 DUP3 PUSH2 0x1D48 JUMP JUMPDEST PUSH2 0x1DAE DUP2 DUP6 PUSH2 0x1D52 JUMP JUMPDEST SWAP4 POP PUSH2 0x1DBE DUP2 DUP6 PUSH1 0x20 DUP7 ADD PUSH2 0x1D62 JUMP JUMPDEST PUSH2 0x1DC7 DUP2 PUSH2 0x1D8A JUMP JUMPDEST DUP5 ADD SWAP2 POP POP SWAP3 SWAP2 POP POP JUMP JUMPDEST PUSH0 PUSH1 0x60 DUP3 ADD SWAP1 POP PUSH2 0x1DE5 PUSH0 DUP4 ADD DUP7 PUSH2 0x1D39 JUMP JUMPDEST PUSH2 0x1DF2 PUSH1 0x20 DUP4 ADD DUP6 PUSH2 0x16AA JUMP JUMPDEST DUP2 DUP2 SUB PUSH1 0x40 DUP4 ADD MSTORE PUSH2 0x1E04 DUP2 DUP5 PUSH2 0x1D9A JUMP JUMPDEST SWAP1 POP SWAP5 SWAP4 POP POP POP POP JUMP JUMPDEST PUSH0 DUP2 MLOAD SWAP1 POP PUSH2 0x1E1C DUP2 PUSH2 0x1703 JUMP JUMPDEST SWAP3 SWAP2 POP POP JUMP JUMPDEST PUSH0 PUSH1 0x20 DUP3 DUP5 SUB SLT ISZERO PUSH2 0x1E37 JUMPI PUSH2 0x1E36 PUSH2 0x1635 JUMP JUMPDEST JUMPDEST PUSH0 PUSH2 0x1E44 DUP5 DUP3 DUP6 ADD PUSH2 0x1E0E JUMP JUMPDEST SWAP2 POP POP SWAP3 SWAP2 POP POP JUMP JUMPDEST PUSH0 PUSH1 0x40 DUP3 ADD SWAP1 POP PUSH2 0x1E60 PUSH0 DUP4 ADD DUP6 PUSH2 0x1D39 JUMP JUMPDEST PUSH2 0x1E6D PUSH1 0x20 DUP4 ADD DUP5 PUSH2 0x16DB JUMP JUMPDEST SWAP4 SWAP3 POP POP POP JUMP JUMPDEST PUSH32 0x496E73756666696369656E7420696E746572636861696E20676173207061796D PUSH0 DUP3 ADD MSTORE PUSH32 0x656E740000000000000000000000000000000000000000000000000000000000 PUSH1 0x20 DUP3 ADD MSTORE POP JUMP JUMPDEST PUSH0 PUSH2 0x1ECE PUSH1 0x23 DUP4 PUSH2 0x1AB1 JUMP JUMPDEST SWAP2 POP PUSH2 0x1ED9 DUP3 PUSH2 0x1E74 JUMP JUMPDEST PUSH1 0x40 DUP3 ADD SWAP1 POP SWAP2 SWAP1 POP JUMP JUMPDEST PUSH0 PUSH1 0x20 DUP3 ADD SWAP1 POP DUP2 DUP2 SUB PUSH0 DUP4 ADD MSTORE PUSH2 0x1EFB DUP2 PUSH2 0x1EC2 JUMP JUMPDEST SWAP1 POP SWAP2 SWAP1 POP JUMP JUMPDEST PUSH0 PUSH1 0x80 DUP3 ADD SWAP1 POP PUSH2 0x1F15 PUSH0 DUP4 ADD DUP8 PUSH2 0x16AA JUMP JUMPDEST PUSH2 0x1F22 PUSH1 0x20 DUP4 ADD DUP7 PUSH2 0x1D39 JUMP JUMPDEST PUSH2 0x1F2F PUSH1 0x40 DUP4 ADD DUP6 PUSH2 0x16DB JUMP JUMPDEST PUSH2 0x1F3C PUSH1 0x60 DUP4 ADD DUP5 PUSH2 0x18B6 JUMP JUMPDEST SWAP6 SWAP5 POP POP POP POP POP JUMP JUMPDEST PUSH0 PUSH1 0x60 DUP3 ADD SWAP1 POP PUSH2 0x1F58 PUSH0 DUP4 ADD DUP7 PUSH2 0x1D39 JUMP JUMPDEST PUSH2 0x1F65 PUSH1 0x20 DUP4 ADD DUP6 PUSH2 0x18B6 JUMP JUMPDEST PUSH2 0x1F72 PUSH1 0x40 DUP4 ADD DUP5 PUSH2 0x16DB JUMP JUMPDEST SWAP5 SWAP4 POP POP POP POP JUMP JUMPDEST PUSH32 0x4F6E6C79206D61696C626F782063616E2063616C6C0000000000000000000000 PUSH0 DUP3 ADD MSTORE POP JUMP JUMPDEST PUSH0 PUSH2 0x1FAE PUSH1 0x15 DUP4 PUSH2 0x1AB1 JUMP JUMPDEST SWAP2 POP PUSH2 0x1FB9 DUP3 PUSH2 0x1F7A JUMP JUMPDEST PUSH1 0x20 DUP3 ADD SWAP1 POP SWAP2 SWAP1 POP JUMP JUMPDEST PUSH0 PUSH1 0x20 DUP3 ADD SWAP1 POP DUP2 DUP2 SUB PUSH0 DUP4 ADD MSTORE PUSH2 0x1FDB DUP2 PUSH2 0x1FA2 JUMP JUMPDEST SWAP1 POP SWAP2 SWAP1 POP JUMP JUMPDEST PUSH32 0x4E6F74206120747275737465642072656D6F7465000000000000000000000000 PUSH0 DUP3 ADD MSTORE POP JUMP JUMPDEST PUSH0 PUSH2 0x2016 PUSH1 0x14 DUP4 PUSH2 0x1AB1 JUMP JUMPDEST SWAP2 POP PUSH2 0x2021 DUP3 PUSH2 0x1FE2 JUMP JUMPDEST PUSH1 0x20 DUP3 ADD SWAP1 POP SWAP2 SWAP1 POP JUMP JUMPDEST PUSH0 PUSH1 0x20 DUP3 ADD SWAP1 POP DUP2 DUP2 SUB PUSH0 DUP4 ADD MSTORE PUSH2 0x2043 DUP2 PUSH2 0x200A JUMP JUMPDEST SWAP1 POP SWAP2 SWAP1 POP JUMP JUMPDEST PUSH0 PUSH2 0x2054 DUP3 PUSH2 0x15A2 JUMP JUMPDEST SWAP1 POP SWAP2 SWAP1 POP JUMP JUMPDEST PUSH2 0x2064 DUP2 PUSH2 0x204A JUMP JUMPDEST DUP2 EQ PUSH2 0x206E JUMPI PUSH0 DUP1 REVERT JUMPDEST POP JUMP JUMPDEST PUSH0 DUP2 CALLDATALOAD SWAP1 POP PUSH2 0x207F DUP2 PUSH2 0x205B JUMP JUMPDEST SWAP3 SWAP2 POP POP JUMP JUMPDEST PUSH0 DUP1 PUSH1 0x40 DUP4 DUP6 SUB SLT ISZERO PUSH2 0x209B JUMPI PUSH2 0x209A PUSH2 0x1635 JUMP JUMPDEST JUMPDEST PUSH0 PUSH2 0x20A8 DUP6 DUP3 DUP7 ADD PUSH2 0x2071 JUMP JUMPDEST SWAP3 POP POP PUSH1 0x20 PUSH2 0x20B9 DUP6 DUP3 DUP7 ADD PUSH2 0x1781 JUMP JUMPDEST SWAP2 POP POP SWAP3 POP SWAP3 SWAP1 POP JUMP JUMPDEST PUSH0 DUP2 MLOAD SWAP1 POP SWAP2 SWAP1 POP JUMP JUMPDEST PUSH0 PUSH2 0x20D7 DUP3 PUSH2 0x20C3 JUMP JUMPDEST PUSH2 0x20E1 DUP2 DUP6 PUSH2 0x1AB1 JUMP JUMPDEST SWAP4 POP PUSH2 0x20F1 DUP2 DUP6 PUSH1 0x20 DUP7 ADD PUSH2 0x1D62 JUMP JUMPDEST PUSH2 0x20FA DUP2 PUSH2 0x1D8A JUMP JUMPDEST DUP5 ADD SWAP2 POP POP SWAP3 SWAP2 POP POP JUMP JUMPDEST PUSH0 PUSH1 0x80 DUP3 ADD SWAP1 POP PUSH2 0x2118 PUSH0 DUP4 ADD DUP8 PUSH2 0x18B6 JUMP JUMPDEST DUP2 DUP2 SUB PUSH1 0x20 DUP4 ADD MSTORE PUSH2 0x212A DUP2 DUP7 PUSH2 0x20CD JUMP JUMPDEST SWAP1 POP PUSH2 0x2139 PUSH1 0x40 DUP4 ADD DUP6 PUSH2 0x16DB JUMP JUMPDEST PUSH2 0x2146 PUSH1 0x60 DUP4 ADD DUP5 PUSH2 0x16DB JUMP JUMPDEST SWAP6 SWAP5 POP POP POP POP POP JUMP JUMPDEST PUSH0 DUP2 ISZERO ISZERO SWAP1 POP SWAP2 SWAP1 POP JUMP JUMPDEST PUSH2 0x2163 DUP2 PUSH2 0x214F JUMP JUMPDEST DUP2 EQ PUSH2 0x216D JUMPI PUSH0 DUP1 REVERT JUMPDEST POP JUMP JUMPDEST PUSH0 DUP2 MLOAD SWAP1 POP PUSH2 0x217E DUP2 PUSH2 0x215A JUMP JUMPDEST SWAP3 SWAP2 POP POP JUMP JUMPDEST PUSH0 PUSH1 0x20 DUP3 DUP5 SUB SLT ISZERO PUSH2 0x2199 JUMPI PUSH2 0x2198 PUSH2 0x1635 JUMP JUMPDEST JUMPDEST PUSH0 PUSH2 0x21A6 DUP5 DUP3 DUP6 ADD PUSH2 0x2170 JUMP JUMPDEST SWAP2 POP POP SWAP3 SWAP2 POP POP JUMP JUMPDEST PUSH32 0x5472616E73666572206661696C65640000000000000000000000000000000000 PUSH0 DUP3 ADD MSTORE POP JUMP JUMPDEST PUSH0 PUSH2 0x21E3 PUSH1 0xF DUP4 PUSH2 0x1AB1 JUMP JUMPDEST SWAP2 POP PUSH2 0x21EE DUP3 PUSH2 0x21AF JUMP JUMPDEST PUSH1 0x20 DUP3 ADD SWAP1 POP SWAP2 SWAP1 POP JUMP JUMPDEST PUSH0 PUSH1 0x20 DUP3 ADD SWAP1 POP DUP2 DUP2 SUB PUSH0 DUP4 ADD MSTORE PUSH2 0x2210 DUP2 PUSH2 0x21D7 JUMP JUMPDEST SWAP1 POP SWAP2 SWAP1 POP JUMP JUMPDEST PUSH32 0x5265656E7472616E637947756172643A207265656E7472616E742063616C6C00 PUSH0 DUP3 ADD MSTORE POP JUMP JUMPDEST PUSH0 PUSH2 0x224B PUSH1 0x1F DUP4 PUSH2 0x1AB1 JUMP JUMPDEST SWAP2 POP PUSH2 0x2256 DUP3 PUSH2 0x2217 JUMP JUMPDEST PUSH1 0x20 DUP3 ADD SWAP1 POP SWAP2 SWAP1 POP JUMP JUMPDEST PUSH0 PUSH1 0x20 DUP3 ADD SWAP1 POP DUP2 DUP2 SUB PUSH0 DUP4 ADD MSTORE PUSH2 0x2278 DUP2 PUSH2 0x223F JUMP JUMPDEST SWAP1 POP SWAP2 SWAP1 POP JUMP JUMPDEST PUSH0 DUP2 SWAP1 POP SWAP2 SWAP1 POP JUMP JUMPDEST PUSH2 0x2299 PUSH2 0x2294 DUP3 PUSH2 0x16D2 JUMP JUMPDEST PUSH2 0x227F JUMP JUMPDEST DUP3 MSTORE POP POP JUMP JUMPDEST PUSH0 DUP2 PUSH1 0x60 SHL SWAP1 POP SWAP2 SWAP1 POP JUMP JUMPDEST PUSH0 PUSH2 0x22B5 DUP3 PUSH2 0x229F JUMP JUMPDEST SWAP1 POP SWAP2 SWAP1 POP JUMP JUMPDEST PUSH0 PUSH2 0x22C6 DUP3 PUSH2 0x22AB JUMP JUMPDEST SWAP1 POP SWAP2 SWAP1 POP JUMP JUMPDEST PUSH2 0x22DE PUSH2 0x22D9 DUP3 PUSH2 0x18A5 JUMP JUMPDEST PUSH2 0x22BC JUMP JUMPDEST DUP3 MSTORE POP POP JUMP JUMPDEST PUSH0 PUSH2 0x22EF DUP3 DUP7 PUSH2 0x2288 JUMP JUMPDEST PUSH1 0x20 DUP3 ADD SWAP2 POP PUSH2 0x22FF DUP3 DUP6 PUSH2 0x22CD JUMP JUMPDEST PUSH1 0x14 DUP3 ADD SWAP2 POP PUSH2 0x230F DUP3 DUP5 PUSH2 0x2288 JUMP JUMPDEST PUSH1 0x20 DUP3 ADD SWAP2 POP DUP2 SWAP1 POP SWAP5 SWAP4 POP POP POP POP JUMP JUMPDEST PUSH32 0x4E487B7100000000000000000000000000000000000000000000000000000000 PUSH0 MSTORE PUSH1 0x12 PUSH1 0x4 MSTORE PUSH1 0x24 PUSH0 REVERT JUMPDEST PUSH0 PUSH2 0x2357 DUP3 PUSH2 0x16D2 JUMP JUMPDEST SWAP2 POP PUSH2 0x2362 DUP4 PUSH2 0x16D2 JUMP JUMPDEST SWAP3 POP DUP3 PUSH2 0x2372 JUMPI PUSH2 0x2371 PUSH2 0x2320 JUMP JUMPDEST JUMPDEST DUP3 DUP3 MOD SWAP1 POP SWAP3 SWAP2 POP POP JUMP JUMPDEST PUSH0 PUSH2 0x2388 DUP3 DUP6 PUSH2 0x2288 JUMP JUMPDEST PUSH1 0x20 DUP3 ADD SWAP2 POP PUSH2 0x2398 DUP3 DUP5 PUSH2 0x22CD JUMP JUMPDEST PUSH1 0x14 DUP3 ADD SWAP2 POP DUP2 SWAP1 POP SWAP4 SWAP3 POP POP POP JUMP JUMPDEST PUSH32 0x4E487B7100000000000000000000000000000000000000000000000000000000 PUSH0 MSTORE PUSH1 0x32 PUSH1 0x4 MSTORE PUSH1 0x24 PUSH0 REVERT INVALID LOG2 PUSH5 0x6970667358 0x22 SLT KECCAK256 0xD0 SWAP5 DUP4 ADD 0xB7 0xE6 0x4D 0xAD 0xEC SSTORE JUMPDEST 0xC3 ADDRESS 0xCA 0xBE 0x2D 0x2C DELEGATECALL PUSH4 0x115A15C7 PUSH28 0xFE230DA1F3DCA2B464736F6C63430008180033000000000000000000 "
				},
				"gasEstimates": {
					"creation": {
						"codeDepositCost": "1845400",
						"executionCost": "infinite",
						"totalCost": "infinite"
					},
					"external": {
						"BASE_FISH_COST()": "414",
						"BASE_REWARD()": "415",
						"crossChainEat(uint32,uint256)": "infinite",
						"eatFish()": "infinite",
						"fishNFT()": "infinite",
						"handle(uint32,bytes32,bytes)": "infinite",
						"hyperlaneMailbox()": "infinite",
						"igp()": "infinite",
						"owner()": "2560",
						"playerStates(address)": "infinite",
						"renounceOwnership()": "infinite",
						"rewardToken()": "infinite",
						"setTrustedRemote(uint32,bytes32)": "infinite",
						"transferOwnership(address)": "infinite",
						"trustedRemotes(uint32)": "2828",
						"withdrawERC20(address,uint256)": "infinite"
					},
					"internal": {
						"_calculateReward(uint256)": "infinite",
						"_generateFishAttributes()": "infinite",
						"_generateTargetFishSize(uint256)": "infinite"
					}
				},
				"methodIdentifiers": {
					"BASE_FISH_COST()": "602e5a9e",
					"BASE_REWARD()": "22009af6",
					"crossChainEat(uint32,uint256)": "2c40ae85",
					"eatFish()": "006228dc",
					"fishNFT()": "959da2cf",
					"handle(uint32,bytes32,bytes)": "56d5d475",
					"hyperlaneMailbox()": "1a6e4db4",
					"igp()": "f28b2daa",
					"owner()": "8da5cb5b",
					"playerStates(address)": "d15e55b7",
					"renounceOwnership()": "715018a6",
					"rewardToken()": "f7c618c1",
					"setTrustedRemote(uint32,bytes32)": "2bda3e0b",
					"transferOwnership(address)": "f2fde38b",
					"trustedRemotes(uint32)": "1d187c50",
					"withdrawERC20(address,uint256)": "a1db9782"
				}
			},
			"storageLayout": {
				"storage": [
					{
						"astId": 298,
						"contract": "contracts/CrossChainFishGame.sol:CrossChainFishGame",
						"label": "_owner",
						"offset": 0,
						"slot": "0",
						"type": "t_address"
					},
					{
						"astId": 448,
						"contract": "contracts/CrossChainFishGame.sol:CrossChainFishGame",
						"label": "_status",
						"offset": 0,
						"slot": "1",
						"type": "t_uint256"
					},
					{
						"astId": 670,
						"contract": "contracts/CrossChainFishGame.sol:CrossChainFishGame",
						"label": "rewardToken",
						"offset": 0,
						"slot": "2",
						"type": "t_contract(IERC20Reward)634"
					},
					{
						"astId": 673,
						"contract": "contracts/CrossChainFishGame.sol:CrossChainFishGame",
						"label": "fishNFT",
						"offset": 0,
						"slot": "3",
						"type": "t_contract(IFishGameNFT)663"
					},
					{
						"astId": 676,
						"contract": "contracts/CrossChainFishGame.sol:CrossChainFishGame",
						"label": "hyperlaneMailbox",
						"offset": 0,
						"slot": "4",
						"type": "t_contract(IMailbox)240"
					},
					{
						"astId": 679,
						"contract": "contracts/CrossChainFishGame.sol:CrossChainFishGame",
						"label": "igp",
						"offset": 0,
						"slot": "5",
						"type": "t_contract(IInterchainGasPaymaster)34"
					},
					{
						"astId": 683,
						"contract": "contracts/CrossChainFishGame.sol:CrossChainFishGame",
						"label": "trustedRemotes",
						"offset": 0,
						"slot": "6",
						"type": "t_mapping(t_uint32,t_bytes32)"
					},
					{
						"astId": 709,
						"contract": "contracts/CrossChainFishGame.sol:CrossChainFishGame",
						"label": "playerStates",
						"offset": 0,
						"slot": "7",
						"type": "t_mapping(t_address,t_struct(GameState)704_storage)"
					}
				],
				"types": {
					"t_address": {
						"encoding": "inplace",
						"label": "address",
						"numberOfBytes": "20"
					},
					"t_bytes32": {
						"encoding": "inplace",
						"label": "bytes32",
						"numberOfBytes": "32"
					},
					"t_contract(IERC20Reward)634": {
						"encoding": "inplace",
						"label": "contract IERC20Reward",
						"numberOfBytes": "20"
					},
					"t_contract(IFishGameNFT)663": {
						"encoding": "inplace",
						"label": "contract IFishGameNFT",
						"numberOfBytes": "20"
					},
					"t_contract(IInterchainGasPaymaster)34": {
						"encoding": "inplace",
						"label": "contract IInterchainGasPaymaster",
						"numberOfBytes": "20"
					},
					"t_contract(IMailbox)240": {
						"encoding": "inplace",
						"label": "contract IMailbox",
						"numberOfBytes": "20"
					},
					"t_mapping(t_address,t_struct(GameState)704_storage)": {
						"encoding": "mapping",
						"key": "t_address",
						"label": "mapping(address => struct CrossChainFishGame.GameState)",
						"numberOfBytes": "32",
						"value": "t_struct(GameState)704_storage"
					},
					"t_mapping(t_uint32,t_bytes32)": {
						"encoding": "mapping",
						"key": "t_uint32",
						"label": "mapping(uint32 => bytes32)",
						"numberOfBytes": "32",
						"value": "t_bytes32"
					},
					"t_struct(GameState)704_storage": {
						"encoding": "inplace",
						"label": "struct CrossChainFishGame.GameState",
						"members": [
							{
								"astId": 699,
								"contract": "contracts/CrossChainFishGame.sol:CrossChainFishGame",
								"label": "playerScore",
								"offset": 0,
								"slot": "0",
								"type": "t_uint256"
							},
							{
								"astId": 701,
								"contract": "contracts/CrossChainFishGame.sol:CrossChainFishGame",
								"label": "fishSize",
								"offset": 0,
								"slot": "1",
								"type": "t_uint256"
							},
							{
								"astId": 703,
								"contract": "contracts/CrossChainFishGame.sol:CrossChainFishGame",
								"label": "lastInteractionTime",
								"offset": 0,
								"slot": "2",
								"type": "t_uint256"
							}
						],
						"numberOfBytes": "96"
					},
					"t_uint256": {
						"encoding": "inplace",
						"label": "uint256",
						"numberOfBytes": "32"
					},
					"t_uint32": {
						"encoding": "inplace",
						"label": "uint32",
						"numberOfBytes": "4"
					}
				}
			},
			"userdoc": {
				"kind": "user",
				"methods": {},
				"version": 1
			}
		}
	}
}