{
	"contracts/ERC20Reward.sol": {
		"ERC20Reward": {
			"abi": [
				{
					"inputs": [
						{
							"internalType": "address",
							"name": "_hyperlaneMailbox",
							"type": "address"
						}
					],
					"stateMutability": "nonpayable",
					"type": "constructor"
				},
				{
					"inputs": [
						{
							"internalType": "address",
							"name": "spender",
							"type": "address"
						},
						{
							"internalType": "uint256",
							"name": "allowance",
							"type": "uint256"
						},
						{
							"internalType": "uint256",
							"name": "needed",
							"type": "uint256"
						}
					],
					"name": "ERC20InsufficientAllowance",
					"type": "error"
				},
				{
					"inputs": [
						{
							"internalType": "address",
							"name": "sender",
							"type": "address"
						},
						{
							"internalType": "uint256",
							"name": "balance",
							"type": "uint256"
						},
						{
							"internalType": "uint256",
							"name": "needed",
							"type": "uint256"
						}
					],
					"name": "ERC20InsufficientBalance",
					"type": "error"
				},
				{
					"inputs": [
						{
							"internalType": "address",
							"name": "approver",
							"type": "address"
						}
					],
					"name": "ERC20InvalidApprover",
					"type": "error"
				},
				{
					"inputs": [
						{
							"internalType": "address",
							"name": "receiver",
							"type": "address"
						}
					],
					"name": "ERC20InvalidReceiver",
					"type": "error"
				},
				{
					"inputs": [
						{
							"internalType": "address",
							"name": "sender",
							"type": "address"
						}
					],
					"name": "ERC20InvalidSender",
					"type": "error"
				},
				{
					"inputs": [
						{
							"internalType": "address",
							"name": "spender",
							"type": "address"
						}
					],
					"name": "ERC20InvalidSpender",
					"type": "error"
				},
				{
					"inputs": [],
					"name": "EnforcedPause",
					"type": "error"
				},
				{
					"inputs": [],
					"name": "ExpectedPause",
					"type": "error"
				},
				{
					"inputs": [
						{
							"internalType": "address",
							"name": "owner",
							"type": "address"
						}
					],
					"name": "OwnableInvalidOwner",
					"type": "error"
				},
				{
					"inputs": [
						{
							"internalType": "address",
							"name": "account",
							"type": "address"
						}
					],
					"name": "OwnableUnauthorizedAccount",
					"type": "error"
				},
				{
					"anonymous": false,
					"inputs": [
						{
							"indexed": true,
							"internalType": "address",
							"name": "owner",
							"type": "address"
						},
						{
							"indexed": true,
							"internalType": "address",
							"name": "spender",
							"type": "address"
						},
						{
							"indexed": false,
							"internalType": "uint256",
							"name": "value",
							"type": "uint256"
						}
					],
					"name": "Approval",
					"type": "event"
				},
				{
					"anonymous": false,
					"inputs": [
						{
							"indexed": true,
							"internalType": "address",
							"name": "gameMaster",
							"type": "address"
						}
					],
					"name": "GameMasterAdded",
					"type": "event"
				},
				{
					"anonymous": false,
					"inputs": [
						{
							"indexed": true,
							"internalType": "address",
							"name": "gameMaster",
							"type": "address"
						}
					],
					"name": "GameMasterRemoved",
					"type": "event"
				},
				{
					"anonymous": false,
					"inputs": [
						{
							"indexed": true,
							"internalType": "address",
							"name": "previousOwner",
							"type": "address"
						},
						{
							"indexed": true,
							"internalType": "address",
							"name": "newOwner",
							"type": "address"
						}
					],
					"name": "OwnershipTransferred",
					"type": "event"
				},
				{
					"anonymous": false,
					"inputs": [
						{
							"indexed": false,
							"internalType": "address",
							"name": "account",
							"type": "address"
						}
					],
					"name": "Paused",
					"type": "event"
				},
				{
					"anonymous": false,
					"inputs": [
						{
							"indexed": true,
							"internalType": "address",
							"name": "player",
							"type": "address"
						},
						{
							"indexed": false,
							"internalType": "uint256",
							"name": "amount",
							"type": "uint256"
						}
					],
					"name": "RewardMinted",
					"type": "event"
				},
				{
					"anonymous": false,
					"inputs": [
						{
							"indexed": true,
							"internalType": "address",
							"name": "from",
							"type": "address"
						},
						{
							"indexed": true,
							"internalType": "address",
							"name": "to",
							"type": "address"
						},
						{
							"indexed": false,
							"internalType": "uint256",
							"name": "value",
							"type": "uint256"
						}
					],
					"name": "Transfer",
					"type": "event"
				},
				{
					"anonymous": false,
					"inputs": [
						{
							"indexed": false,
							"internalType": "address",
							"name": "account",
							"type": "address"
						}
					],
					"name": "Unpaused",
					"type": "event"
				},
				{
					"inputs": [],
					"name": "DAILY_REWARD_LIMIT",
					"outputs": [
						{
							"internalType": "uint256",
							"name": "",
							"type": "uint256"
						}
					],
					"stateMutability": "view",
					"type": "function"
				},
				{
					"inputs": [],
					"name": "MAX_SUPPLY",
					"outputs": [
						{
							"internalType": "uint256",
							"name": "",
							"type": "uint256"
						}
					],
					"stateMutability": "view",
					"type": "function"
				},
				{
					"inputs": [
						{
							"internalType": "address",
							"name": "_gameMaster",
							"type": "address"
						}
					],
					"name": "addGameMaster",
					"outputs": [],
					"stateMutability": "nonpayable",
					"type": "function"
				},
				{
					"inputs": [
						{
							"internalType": "address",
							"name": "owner",
							"type": "address"
						},
						{
							"internalType": "address",
							"name": "spender",
							"type": "address"
						}
					],
					"name": "allowance",
					"outputs": [
						{
							"internalType": "uint256",
							"name": "",
							"type": "uint256"
						}
					],
					"stateMutability": "view",
					"type": "function"
				},
				{
					"inputs": [
						{
							"internalType": "address",
							"name": "spender",
							"type": "address"
						},
						{
							"internalType": "uint256",
							"name": "value",
							"type": "uint256"
						}
					],
					"name": "approve",
					"outputs": [
						{
							"internalType": "bool",
							"name": "",
							"type": "bool"
						}
					],
					"stateMutability": "nonpayable",
					"type": "function"
				},
				{
					"inputs": [
						{
							"internalType": "address",
							"name": "account",
							"type": "address"
						}
					],
					"name": "balanceOf",
					"outputs": [
						{
							"internalType": "uint256",
							"name": "",
							"type": "uint256"
						}
					],
					"stateMutability": "view",
					"type": "function"
				},
				{
					"inputs": [
						{
							"internalType": "uint256",
							"name": "value",
							"type": "uint256"
						}
					],
					"name": "burn",
					"outputs": [],
					"stateMutability": "nonpayable",
					"type": "function"
				},
				{
					"inputs": [
						{
							"internalType": "address",
							"name": "account",
							"type": "address"
						},
						{
							"internalType": "uint256",
							"name": "value",
							"type": "uint256"
						}
					],
					"name": "burnFrom",
					"outputs": [],
					"stateMutability": "nonpayable",
					"type": "function"
				},
				{
					"inputs": [],
					"name": "decimals",
					"outputs": [
						{
							"internalType": "uint8",
							"name": "",
							"type": "uint8"
						}
					],
					"stateMutability": "view",
					"type": "function"
				},
				{
					"inputs": [
						{
							"internalType": "address",
							"name": "",
							"type": "address"
						}
					],
					"name": "gameMasters",
					"outputs": [
						{
							"internalType": "bool",
							"name": "",
							"type": "bool"
						}
					],
					"stateMutability": "view",
					"type": "function"
				},
				{
					"inputs": [],
					"name": "getTokenId",
					"outputs": [
						{
							"internalType": "uint256",
							"name": "",
							"type": "uint256"
						}
					],
					"stateMutability": "nonpayable",
					"type": "function"
				},
				{
					"inputs": [
						{
							"internalType": "uint32",
							"name": "_origin",
							"type": "uint32"
						},
						{
							"internalType": "bytes32",
							"name": "_sender",
							"type": "bytes32"
						},
						{
							"internalType": "bytes",
							"name": "_body",
							"type": "bytes"
						}
					],
					"name": "handle",
					"outputs": [],
					"stateMutability": "payable",
					"type": "function"
				},
				{
					"inputs": [],
					"name": "hyperlaneMailbox",
					"outputs": [
						{
							"internalType": "address",
							"name": "",
							"type": "address"
						}
					],
					"stateMutability": "view",
					"type": "function"
				},
				{
					"inputs": [
						{
							"internalType": "address",
							"name": "",
							"type": "address"
						}
					],
					"name": "lastRewardTime",
					"outputs": [
						{
							"internalType": "uint256",
							"name": "",
							"type": "uint256"
						}
					],
					"stateMutability": "view",
					"type": "function"
				},
				{
					"inputs": [
						{
							"internalType": "address",
							"name": "_player",
							"type": "address"
						},
						{
							"internalType": "uint256",
							"name": "_amount",
							"type": "uint256"
						}
					],
					"name": "mintReward",
					"outputs": [],
					"stateMutability": "nonpayable",
					"type": "function"
				},
				{
					"inputs": [],
					"name": "name",
					"outputs": [
						{
							"internalType": "string",
							"name": "",
							"type": "string"
						}
					],
					"stateMutability": "view",
					"type": "function"
				},
				{
					"inputs": [],
					"name": "owner",
					"outputs": [
						{
							"internalType": "address",
							"name": "",
							"type": "address"
						}
					],
					"stateMutability": "view",
					"type": "function"
				},
				{
					"inputs": [],
					"name": "pause",
					"outputs": [],
					"stateMutability": "nonpayable",
					"type": "function"
				},
				{
					"inputs": [],
					"name": "paused",
					"outputs": [
						{
							"internalType": "bool",
							"name": "",
							"type": "bool"
						}
					],
					"stateMutability": "view",
					"type": "function"
				},
				{
					"inputs": [
						{
							"internalType": "address",
							"name": "_gameMaster",
							"type": "address"
						}
					],
					"name": "removeGameMaster",
					"outputs": [],
					"stateMutability": "nonpayable",
					"type": "function"
				},
				{
					"inputs": [],
					"name": "renounceOwnership",
					"outputs": [],
					"stateMutability": "nonpayable",
					"type": "function"
				},
				{
					"inputs": [
						{
							"internalType": "address",
							"name": "_mailbox",
							"type": "address"
						}
					],
					"name": "setMailbox",
					"outputs": [],
					"stateMutability": "nonpayable",
					"type": "function"
				},
				{
					"inputs": [
						{
							"internalType": "uint32",
							"name": "_domain",
							"type": "uint32"
						},
						{
							"internalType": "bytes32",
							"name": "_trustedRemote",
							"type": "bytes32"
						}
					],
					"name": "setTrustedRemote",
					"outputs": [],
					"stateMutability": "nonpayable",
					"type": "function"
				},
				{
					"inputs": [],
					"name": "symbol",
					"outputs": [
						{
							"internalType": "string",
							"name": "",
							"type": "string"
						}
					],
					"stateMutability": "view",
					"type": "function"
				},
				{
					"inputs": [],
					"name": "totalSupply",
					"outputs": [
						{
							"internalType": "uint256",
							"name": "",
							"type": "uint256"
						}
					],
					"stateMutability": "view",
					"type": "function"
				},
				{
					"inputs": [
						{
							"internalType": "address",
							"name": "to",
							"type": "address"
						},
						{
							"internalType": "uint256",
							"name": "value",
							"type": "uint256"
						}
					],
					"name": "transfer",
					"outputs": [
						{
							"internalType": "bool",
							"name": "",
							"type": "bool"
						}
					],
					"stateMutability": "nonpayable",
					"type": "function"
				},
				{
					"inputs": [
						{
							"internalType": "address",
							"name": "from",
							"type": "address"
						},
						{
							"internalType": "address",
							"name": "to",
							"type": "address"
						},
						{
							"internalType": "uint256",
							"name": "value",
							"type": "uint256"
						}
					],
					"name": "transferFrom",
					"outputs": [
						{
							"internalType": "bool",
							"name": "",
							"type": "bool"
						}
					],
					"stateMutability": "nonpayable",
					"type": "function"
				},
				{
					"inputs": [
						{
							"internalType": "address",
							"name": "newOwner",
							"type": "address"
						}
					],
					"name": "transferOwnership",
					"outputs": [],
					"stateMutability": "nonpayable",
					"type": "function"
				},
				{
					"inputs": [
						{
							"internalType": "uint32",
							"name": "",
							"type": "uint32"
						}
					],
					"name": "trustedRemotes",
					"outputs": [
						{
							"internalType": "bytes32",
							"name": "",
							"type": "bytes32"
						}
					],
					"stateMutability": "view",
					"type": "function"
				},
				{
					"inputs": [],
					"name": "unpause",
					"outputs": [],
					"stateMutability": "nonpayable",
					"type": "function"
				}
			],
			"devdoc": {
				"errors": {
					"ERC20InsufficientAllowance(address,uint256,uint256)": [
						{
							"details": "Indicates a failure with the `spender`’s `allowance`. Used in transfers.",
							"params": {
								"allowance": "Amount of tokens a `spender` is allowed to operate with.",
								"needed": "Minimum amount required to perform a transfer.",
								"spender": "Address that may be allowed to operate on tokens without being their owner."
							}
						}
					],
					"ERC20InsufficientBalance(address,uint256,uint256)": [
						{
							"details": "Indicates an error related to the current `balance` of a `sender`. Used in transfers.",
							"params": {
								"balance": "Current balance for the interacting account.",
								"needed": "Minimum amount required to perform a transfer.",
								"sender": "Address whose tokens are being transferred."
							}
						}
					],
					"ERC20InvalidApprover(address)": [
						{
							"details": "Indicates a failure with the `approver` of a token to be approved. Used in approvals.",
							"params": {
								"approver": "Address initiating an approval operation."
							}
						}
					],
					"ERC20InvalidReceiver(address)": [
						{
							"details": "Indicates a failure with the token `receiver`. Used in transfers.",
							"params": {
								"receiver": "Address to which tokens are being transferred."
							}
						}
					],
					"ERC20InvalidSender(address)": [
						{
							"details": "Indicates a failure with the token `sender`. Used in transfers.",
							"params": {
								"sender": "Address whose tokens are being transferred."
							}
						}
					],
					"ERC20InvalidSpender(address)": [
						{
							"details": "Indicates a failure with the `spender` to be approved. Used in approvals.",
							"params": {
								"spender": "Address that may be allowed to operate on tokens without being their owner."
							}
						}
					],
					"EnforcedPause()": [
						{
							"details": "The operation failed because the contract is paused."
						}
					],
					"ExpectedPause()": [
						{
							"details": "The operation failed because the contract is not paused."
						}
					],
					"OwnableInvalidOwner(address)": [
						{
							"details": "The owner is not a valid owner account. (eg. `address(0)`)"
						}
					],
					"OwnableUnauthorizedAccount(address)": [
						{
							"details": "The caller account is not authorized to perform an operation."
						}
					]
				},
				"events": {
					"Approval(address,address,uint256)": {
						"details": "Emitted when the allowance of a `spender` for an `owner` is set by a call to {approve}. `value` is the new allowance."
					},
					"Paused(address)": {
						"details": "Emitted when the pause is triggered by `account`."
					},
					"Transfer(address,address,uint256)": {
						"details": "Emitted when `value` tokens are moved from one account (`from`) to another (`to`). Note that `value` may be zero."
					},
					"Unpaused(address)": {
						"details": "Emitted when the pause is lifted by `account`."
					}
				},
				"kind": "dev",
				"methods": {
					"allowance(address,address)": {
						"details": "See {IERC20-allowance}."
					},
					"approve(address,uint256)": {
						"details": "See {IERC20-approve}. NOTE: If `value` is the maximum `uint256`, the allowance is not updated on `transferFrom`. This is semantically equivalent to an infinite approval. Requirements: - `spender` cannot be the zero address."
					},
					"balanceOf(address)": {
						"details": "See {IERC20-balanceOf}."
					},
					"burn(uint256)": {
						"details": "Destroys a `value` amount of tokens from the caller. See {ERC20-_burn}."
					},
					"burnFrom(address,uint256)": {
						"details": "Destroys a `value` amount of tokens from `account`, deducting from the caller's allowance. See {ERC20-_burn} and {ERC20-allowance}. Requirements: - the caller must have allowance for ``accounts``'s tokens of at least `value`."
					},
					"decimals()": {
						"details": "Returns the number of decimals used to get its user representation. For example, if `decimals` equals `2`, a balance of `505` tokens should be displayed to a user as `5.05` (`505 / 10 ** 2`). Tokens usually opt for a value of 18, imitating the relationship between Ether and Wei. This is the default value returned by this function, unless it's overridden. NOTE: This information is only used for _display_ purposes: it in no way affects any of the arithmetic of the contract, including {IERC20-balanceOf} and {IERC20-transfer}."
					},
					"name()": {
						"details": "Returns the name of the token."
					},
					"owner()": {
						"details": "Returns the address of the current owner."
					},
					"paused()": {
						"details": "Returns true if the contract is paused, and false otherwise."
					},
					"renounceOwnership()": {
						"details": "Leaves the contract without owner. It will not be possible to call `onlyOwner` functions. Can only be called by the current owner. NOTE: Renouncing ownership will leave the contract without an owner, thereby disabling any functionality that is only available to the owner."
					},
					"symbol()": {
						"details": "Returns the symbol of the token, usually a shorter version of the name."
					},
					"totalSupply()": {
						"details": "See {IERC20-totalSupply}."
					},
					"transfer(address,uint256)": {
						"details": "See {IERC20-transfer}. Requirements: - `to` cannot be the zero address. - the caller must have a balance of at least `value`."
					},
					"transferFrom(address,address,uint256)": {
						"details": "See {IERC20-transferFrom}. Emits an {Approval} event indicating the updated allowance. This is not required by the EIP. See the note at the beginning of {ERC20}. NOTE: Does not update the allowance if the current allowance is the maximum `uint256`. Requirements: - `from` and `to` cannot be the zero address. - `from` must have a balance of at least `value`. - the caller must have allowance for ``from``'s tokens of at least `value`."
					},
					"transferOwnership(address)": {
						"details": "Transfers ownership of the contract to a new account (`newOwner`). Can only be called by the current owner."
					}
				},
				"version": 1
			},
			"evm": {
				"assembly": "    /* \"contracts/ERC20Reward.sol\":400:3582  contract ERC20Reward is ERC20Pausable, IMessageRecipient, Ownable, ERC20Burnable {... */\n  mstore(0x40, 0x80)\n    /* \"contracts/ERC20Reward.sol\":1072:1249  constructor(address _hyperlaneMailbox) ERC20(\"Bilis\", \"BLS\") Ownable(msg.sender) {... */\n  callvalue\n  dup1\n  iszero\n  tag_1\n  jumpi\n  0x00\n  dup1\n  revert\ntag_1:\n  pop\n  mload(0x40)\n  sub(codesize, bytecodeSize)\n  dup1\n  bytecodeSize\n  dup4\n  codecopy\n  dup2\n  dup2\n  add\n  0x40\n  mstore\n  dup2\n  add\n  swap1\n  tag_2\n  swap2\n  swap1\n  tag_3\n  jump\t// in\ntag_2:\n    /* \"contracts/ERC20Reward.sol\":1141:1151  msg.sender */\n  caller\n    /* \"@openzeppelin/contracts/token/ERC20/ERC20.sol\":1896:2009  constructor(string memory name_, string memory symbol_) {... */\n  mload(0x40)\n  dup1\n  0x40\n  add\n  0x40\n  mstore\n  dup1\n  0x05\n  dup2\n  mstore\n  0x20\n  add\n  0x42696c6973000000000000000000000000000000000000000000000000000000\n  dup2\n  mstore\n  pop\n  mload(0x40)\n  dup1\n  0x40\n  add\n  0x40\n  mstore\n  dup1\n  0x03\n  dup2\n  mstore\n  0x20\n  add\n  0x424c530000000000000000000000000000000000000000000000000000000000\n  dup2\n  mstore\n  pop\n    /* \"@openzeppelin/contracts/token/ERC20/ERC20.sol\":1970:1975  name_ */\n  dup2\n    /* \"@openzeppelin/contracts/token/ERC20/ERC20.sol\":1962:1967  _name */\n  0x03\n    /* \"@openzeppelin/contracts/token/ERC20/ERC20.sol\":1962:1975  _name = name_ */\n  swap1\n  dup2\n  tag_9\n  swap2\n  swap1\n  tag_10\n  jump\t// in\ntag_9:\n  pop\n    /* \"@openzeppelin/contracts/token/ERC20/ERC20.sol\":1995:2002  symbol_ */\n  dup1\n    /* \"@openzeppelin/contracts/token/ERC20/ERC20.sol\":1985:1992  _symbol */\n  0x04\n    /* \"@openzeppelin/contracts/token/ERC20/ERC20.sol\":1985:2002  _symbol = symbol_ */\n  swap1\n  dup2\n  tag_11\n  swap2\n  swap1\n  tag_10\n  jump\t// in\ntag_11:\n  pop\n    /* \"@openzeppelin/contracts/token/ERC20/ERC20.sol\":1896:2009  constructor(string memory name_, string memory symbol_) {... */\n  pop\n  pop\n    /* \"@openzeppelin/contracts/utils/Pausable.sol\":1241:1246  false */\n  0x00\n    /* \"@openzeppelin/contracts/utils/Pausable.sol\":1231:1238  _paused */\n  0x05\n  0x00\n    /* \"@openzeppelin/contracts/utils/Pausable.sol\":1231:1246  _paused = false */\n  0x0100\n  exp\n  dup2\n  sload\n  dup2\n  0xff\n  mul\n  not\n  and\n  swap1\n  dup4\n  iszero\n  iszero\n  mul\n  or\n  swap1\n  sstore\n  pop\n    /* \"@openzeppelin/contracts/access/Ownable.sol\":1297:1298  0 */\n  0x00\n    /* \"@openzeppelin/contracts/access/Ownable.sol\":1273:1299  initialOwner == address(0) */\n  0xffffffffffffffffffffffffffffffffffffffff\n  and\n    /* \"@openzeppelin/contracts/access/Ownable.sol\":1273:1285  initialOwner */\n  dup2\n    /* \"@openzeppelin/contracts/access/Ownable.sol\":1273:1299  initialOwner == address(0) */\n  0xffffffffffffffffffffffffffffffffffffffff\n  and\n  sub\n    /* \"@openzeppelin/contracts/access/Ownable.sol\":1269:1364  if (initialOwner == address(0)) {... */\n  tag_14\n  jumpi\n    /* \"@openzeppelin/contracts/access/Ownable.sol\":1350:1351  0 */\n  0x00\n    /* \"@openzeppelin/contracts/access/Ownable.sol\":1322:1353  OwnableInvalidOwner(address(0)) */\n  mload(0x40)\n  0x1e4fbdf700000000000000000000000000000000000000000000000000000000\n  dup2\n  mstore\n  0x04\n  add\n  tag_15\n  swap2\n  swap1\n  tag_16\n  jump\t// in\ntag_15:\n  mload(0x40)\n  dup1\n  swap2\n  sub\n  swap1\n  revert\n    /* \"@openzeppelin/contracts/access/Ownable.sol\":1269:1364  if (initialOwner == address(0)) {... */\ntag_14:\n    /* \"@openzeppelin/contracts/access/Ownable.sol\":1373:1405  _transferOwnership(initialOwner) */\n  tag_17\n    /* \"@openzeppelin/contracts/access/Ownable.sol\":1392:1404  initialOwner */\n  dup2\n    /* \"@openzeppelin/contracts/access/Ownable.sol\":1373:1391  _transferOwnership */\n  shl(0x20, tag_18)\n    /* \"@openzeppelin/contracts/access/Ownable.sol\":1373:1405  _transferOwnership(initialOwner) */\n  0x20\n  shr\n  jump\t// in\ntag_17:\n    /* \"@openzeppelin/contracts/access/Ownable.sol\":1225:1412  constructor(address initialOwner) {... */\n  pop\n    /* \"contracts/ERC20Reward.sol\":1183:1200  _hyperlaneMailbox */\n  dup1\n    /* \"contracts/ERC20Reward.sol\":1164:1180  hyperlaneMailbox */\n  0x06\n  0x00\n    /* \"contracts/ERC20Reward.sol\":1164:1200  hyperlaneMailbox = _hyperlaneMailbox */\n  0x0100\n  exp\n  dup2\n  sload\n  dup2\n  0xffffffffffffffffffffffffffffffffffffffff\n  mul\n  not\n  and\n  swap1\n  dup4\n  0xffffffffffffffffffffffffffffffffffffffff\n  and\n  mul\n  or\n  swap1\n  sstore\n  pop\n    /* \"contracts/ERC20Reward.sol\":1237:1241  true */\n  0x01\n    /* \"contracts/ERC20Reward.sol\":1211:1222  gameMasters */\n  0x08\n    /* \"contracts/ERC20Reward.sol\":1211:1234  gameMasters[msg.sender] */\n  0x00\n    /* \"contracts/ERC20Reward.sol\":1223:1233  msg.sender */\n  caller\n    /* \"contracts/ERC20Reward.sol\":1211:1234  gameMasters[msg.sender] */\n  0xffffffffffffffffffffffffffffffffffffffff\n  and\n  0xffffffffffffffffffffffffffffffffffffffff\n  and\n  dup2\n  mstore\n  0x20\n  add\n  swap1\n  dup2\n  mstore\n  0x20\n  add\n  0x00\n  keccak256\n  0x00\n    /* \"contracts/ERC20Reward.sol\":1211:1241  gameMasters[msg.sender] = true */\n  0x0100\n  exp\n  dup2\n  sload\n  dup2\n  0xff\n  mul\n  not\n  and\n  swap1\n  dup4\n  iszero\n  iszero\n  mul\n  or\n  swap1\n  sstore\n  pop\n    /* \"contracts/ERC20Reward.sol\":1072:1249  constructor(address _hyperlaneMailbox) ERC20(\"Bilis\", \"BLS\") Ownable(msg.sender) {... */\n  pop\n    /* \"contracts/ERC20Reward.sol\":400:3582  contract ERC20Reward is ERC20Pausable, IMessageRecipient, Ownable, ERC20Burnable {... */\n  jump(tag_20)\n    /* \"@openzeppelin/contracts/access/Ownable.sol\":2912:3099  function _transferOwnership(address newOwner) internal virtual {... */\ntag_18:\n    /* \"@openzeppelin/contracts/access/Ownable.sol\":2985:3001  address oldOwner */\n  0x00\n    /* \"@openzeppelin/contracts/access/Ownable.sol\":3004:3010  _owner */\n  0x05\n  0x01\n  swap1\n  sload\n  swap1\n  0x0100\n  exp\n  swap1\n  div\n  0xffffffffffffffffffffffffffffffffffffffff\n  and\n    /* \"@openzeppelin/contracts/access/Ownable.sol\":2985:3010  address oldOwner = _owner */\n  swap1\n  pop\n    /* \"@openzeppelin/contracts/access/Ownable.sol\":3029:3037  newOwner */\n  dup2\n    /* \"@openzeppelin/contracts/access/Ownable.sol\":3020:3026  _owner */\n  0x05\n  0x01\n    /* \"@openzeppelin/contracts/access/Ownable.sol\":3020:3037  _owner = newOwner */\n  0x0100\n  exp\n  dup2\n  sload\n  dup2\n  0xffffffffffffffffffffffffffffffffffffffff\n  mul\n  not\n  and\n  swap1\n  dup4\n  0xffffffffffffffffffffffffffffffffffffffff\n  and\n  mul\n  or\n  swap1\n  sstore\n  pop\n    /* \"@openzeppelin/contracts/access/Ownable.sol\":3083:3091  newOwner */\n  dup2\n    /* \"@openzeppelin/contracts/access/Ownable.sol\":3052:3092  OwnershipTransferred(oldOwner, newOwner) */\n  0xffffffffffffffffffffffffffffffffffffffff\n  and\n    /* \"@openzeppelin/contracts/access/Ownable.sol\":3073:3081  oldOwner */\n  dup2\n    /* \"@openzeppelin/contracts/access/Ownable.sol\":3052:3092  OwnershipTransferred(oldOwner, newOwner) */\n  0xffffffffffffffffffffffffffffffffffffffff\n  and\n  0x8be0079c531659141344cd1fd0a4f28419497f9722a3daafe3b4186f6b6457e0\n  mload(0x40)\n  mload(0x40)\n  dup1\n  swap2\n  sub\n  swap1\n  log3\n    /* \"@openzeppelin/contracts/access/Ownable.sol\":2975:3099  {... */\n  pop\n    /* \"@openzeppelin/contracts/access/Ownable.sol\":2912:3099  function _transferOwnership(address newOwner) internal virtual {... */\n  pop\n  jump\t// out\n    /* \"#utility.yul\":88:205   */\ntag_23:\n    /* \"#utility.yul\":197:198   */\n  0x00\n    /* \"#utility.yul\":194:195   */\n  dup1\n    /* \"#utility.yul\":187:199   */\n  revert\n    /* \"#utility.yul\":334:460   */\ntag_25:\n    /* \"#utility.yul\":371:378   */\n  0x00\n    /* \"#utility.yul\":411:453   */\n  0xffffffffffffffffffffffffffffffffffffffff\n    /* \"#utility.yul\":404:409   */\n  dup3\n    /* \"#utility.yul\":400:454   */\n  and\n    /* \"#utility.yul\":389:454   */\n  swap1\n  pop\n    /* \"#utility.yul\":334:460   */\n  swap2\n  swap1\n  pop\n  jump\t// out\n    /* \"#utility.yul\":466:562   */\ntag_26:\n    /* \"#utility.yul\":503:510   */\n  0x00\n    /* \"#utility.yul\":532:556   */\n  tag_56\n    /* \"#utility.yul\":550:555   */\n  dup3\n    /* \"#utility.yul\":532:556   */\n  tag_25\n  jump\t// in\ntag_56:\n    /* \"#utility.yul\":521:556   */\n  swap1\n  pop\n    /* \"#utility.yul\":466:562   */\n  swap2\n  swap1\n  pop\n  jump\t// out\n    /* \"#utility.yul\":568:690   */\ntag_27:\n    /* \"#utility.yul\":641:665   */\n  tag_58\n    /* \"#utility.yul\":659:664   */\n  dup2\n    /* \"#utility.yul\":641:665   */\n  tag_26\n  jump\t// in\ntag_58:\n    /* \"#utility.yul\":634:639   */\n  dup2\n    /* \"#utility.yul\":631:666   */\n  eq\n    /* \"#utility.yul\":621:684   */\n  tag_59\n  jumpi\n    /* \"#utility.yul\":680:681   */\n  0x00\n    /* \"#utility.yul\":677:678   */\n  dup1\n    /* \"#utility.yul\":670:682   */\n  revert\n    /* \"#utility.yul\":621:684   */\ntag_59:\n    /* \"#utility.yul\":568:690   */\n  pop\n  jump\t// out\n    /* \"#utility.yul\":696:839   */\ntag_28:\n    /* \"#utility.yul\":753:758   */\n  0x00\n    /* \"#utility.yul\":784:790   */\n  dup2\n    /* \"#utility.yul\":778:791   */\n  mload\n    /* \"#utility.yul\":769:791   */\n  swap1\n  pop\n    /* \"#utility.yul\":800:833   */\n  tag_61\n    /* \"#utility.yul\":827:832   */\n  dup2\n    /* \"#utility.yul\":800:833   */\n  tag_27\n  jump\t// in\ntag_61:\n    /* \"#utility.yul\":696:839   */\n  swap3\n  swap2\n  pop\n  pop\n  jump\t// out\n    /* \"#utility.yul\":845:1196   */\ntag_3:\n    /* \"#utility.yul\":915:921   */\n  0x00\n    /* \"#utility.yul\":964:966   */\n  0x20\n    /* \"#utility.yul\":952:961   */\n  dup3\n    /* \"#utility.yul\":943:950   */\n  dup5\n    /* \"#utility.yul\":939:962   */\n  sub\n    /* \"#utility.yul\":935:967   */\n  slt\n    /* \"#utility.yul\":932:1051   */\n  iszero\n  tag_63\n  jumpi\n    /* \"#utility.yul\":970:1049   */\n  tag_64\n  tag_23\n  jump\t// in\ntag_64:\n    /* \"#utility.yul\":932:1051   */\ntag_63:\n    /* \"#utility.yul\":1090:1091   */\n  0x00\n    /* \"#utility.yul\":1115:1179   */\n  tag_65\n    /* \"#utility.yul\":1171:1178   */\n  dup5\n    /* \"#utility.yul\":1162:1168   */\n  dup3\n    /* \"#utility.yul\":1151:1160   */\n  dup6\n    /* \"#utility.yul\":1147:1169   */\n  add\n    /* \"#utility.yul\":1115:1179   */\n  tag_28\n  jump\t// in\ntag_65:\n    /* \"#utility.yul\":1105:1179   */\n  swap2\n  pop\n    /* \"#utility.yul\":1061:1189   */\n  pop\n    /* \"#utility.yul\":845:1196   */\n  swap3\n  swap2\n  pop\n  pop\n  jump\t// out\n    /* \"#utility.yul\":1202:1301   */\ntag_29:\n    /* \"#utility.yul\":1254:1260   */\n  0x00\n    /* \"#utility.yul\":1288:1293   */\n  dup2\n    /* \"#utility.yul\":1282:1294   */\n  mload\n    /* \"#utility.yul\":1272:1294   */\n  swap1\n  pop\n    /* \"#utility.yul\":1202:1301   */\n  swap2\n  swap1\n  pop\n  jump\t// out\n    /* \"#utility.yul\":1307:1487   */\ntag_30:\n    /* \"#utility.yul\":1355:1432   */\n  0x4e487b7100000000000000000000000000000000000000000000000000000000\n    /* \"#utility.yul\":1352:1353   */\n  0x00\n    /* \"#utility.yul\":1345:1433   */\n  mstore\n    /* \"#utility.yul\":1452:1456   */\n  0x41\n    /* \"#utility.yul\":1449:1450   */\n  0x04\n    /* \"#utility.yul\":1442:1457   */\n  mstore\n    /* \"#utility.yul\":1476:1480   */\n  0x24\n    /* \"#utility.yul\":1473:1474   */\n  0x00\n    /* \"#utility.yul\":1466:1481   */\n  revert\n    /* \"#utility.yul\":1493:1673   */\ntag_31:\n    /* \"#utility.yul\":1541:1618   */\n  0x4e487b7100000000000000000000000000000000000000000000000000000000\n    /* \"#utility.yul\":1538:1539   */\n  0x00\n    /* \"#utility.yul\":1531:1619   */\n  mstore\n    /* \"#utility.yul\":1638:1642   */\n  0x22\n    /* \"#utility.yul\":1635:1636   */\n  0x04\n    /* \"#utility.yul\":1628:1643   */\n  mstore\n    /* \"#utility.yul\":1662:1666   */\n  0x24\n    /* \"#utility.yul\":1659:1660   */\n  0x00\n    /* \"#utility.yul\":1652:1667   */\n  revert\n    /* \"#utility.yul\":1679:1999   */\ntag_32:\n    /* \"#utility.yul\":1723:1729   */\n  0x00\n    /* \"#utility.yul\":1760:1761   */\n  0x02\n    /* \"#utility.yul\":1754:1758   */\n  dup3\n    /* \"#utility.yul\":1750:1762   */\n  div\n    /* \"#utility.yul\":1740:1762   */\n  swap1\n  pop\n    /* \"#utility.yul\":1807:1808   */\n  0x01\n    /* \"#utility.yul\":1801:1805   */\n  dup3\n    /* \"#utility.yul\":1797:1809   */\n  and\n    /* \"#utility.yul\":1828:1846   */\n  dup1\n    /* \"#utility.yul\":1818:1899   */\n  tag_70\n  jumpi\n    /* \"#utility.yul\":1884:1888   */\n  0x7f\n    /* \"#utility.yul\":1876:1882   */\n  dup3\n    /* \"#utility.yul\":1872:1889   */\n  and\n    /* \"#utility.yul\":1862:1889   */\n  swap2\n  pop\n    /* \"#utility.yul\":1818:1899   */\ntag_70:\n    /* \"#utility.yul\":1946:1948   */\n  0x20\n    /* \"#utility.yul\":1938:1944   */\n  dup3\n    /* \"#utility.yul\":1935:1949   */\n  lt\n    /* \"#utility.yul\":1915:1933   */\n  dup2\n    /* \"#utility.yul\":1912:1950   */\n  sub\n    /* \"#utility.yul\":1909:1993   */\n  tag_71\n  jumpi\n    /* \"#utility.yul\":1965:1983   */\n  tag_72\n  tag_31\n  jump\t// in\ntag_72:\n    /* \"#utility.yul\":1909:1993   */\ntag_71:\n    /* \"#utility.yul\":1730:1999   */\n  pop\n    /* \"#utility.yul\":1679:1999   */\n  swap2\n  swap1\n  pop\n  jump\t// out\n    /* \"#utility.yul\":2005:2146   */\ntag_33:\n    /* \"#utility.yul\":2054:2058   */\n  0x00\n    /* \"#utility.yul\":2077:2080   */\n  dup2\n    /* \"#utility.yul\":2069:2080   */\n  swap1\n  pop\n    /* \"#utility.yul\":2100:2103   */\n  dup2\n    /* \"#utility.yul\":2097:2098   */\n  0x00\n    /* \"#utility.yul\":2090:2104   */\n  mstore\n    /* \"#utility.yul\":2134:2138   */\n  0x20\n    /* \"#utility.yul\":2131:2132   */\n  0x00\n    /* \"#utility.yul\":2121:2139   */\n  keccak256\n    /* \"#utility.yul\":2113:2139   */\n  swap1\n  pop\n    /* \"#utility.yul\":2005:2146   */\n  swap2\n  swap1\n  pop\n  jump\t// out\n    /* \"#utility.yul\":2152:2245   */\ntag_34:\n    /* \"#utility.yul\":2189:2195   */\n  0x00\n    /* \"#utility.yul\":2236:2238   */\n  0x20\n    /* \"#utility.yul\":2231:2233   */\n  0x1f\n    /* \"#utility.yul\":2224:2229   */\n  dup4\n    /* \"#utility.yul\":2220:2234   */\n  add\n    /* \"#utility.yul\":2216:2239   */\n  div\n    /* \"#utility.yul\":2206:2239   */\n  swap1\n  pop\n    /* \"#utility.yul\":2152:2245   */\n  swap2\n  swap1\n  pop\n  jump\t// out\n    /* \"#utility.yul\":2251:2358   */\ntag_35:\n    /* \"#utility.yul\":2295:2303   */\n  0x00\n    /* \"#utility.yul\":2345:2350   */\n  dup3\n    /* \"#utility.yul\":2339:2343   */\n  dup3\n    /* \"#utility.yul\":2335:2351   */\n  shl\n    /* \"#utility.yul\":2314:2351   */\n  swap1\n  pop\n    /* \"#utility.yul\":2251:2358   */\n  swap3\n  swap2\n  pop\n  pop\n  jump\t// out\n    /* \"#utility.yul\":2364:2757   */\ntag_36:\n    /* \"#utility.yul\":2433:2439   */\n  0x00\n    /* \"#utility.yul\":2483:2484   */\n  0x08\n    /* \"#utility.yul\":2471:2481   */\n  dup4\n    /* \"#utility.yul\":2467:2485   */\n  mul\n    /* \"#utility.yul\":2506:2603   */\n  tag_77\n    /* \"#utility.yul\":2536:2602   */\n  0xffffffffffffffffffffffffffffffffffffffffffffffffffffffffffffffff\n    /* \"#utility.yul\":2525:2534   */\n  dup3\n    /* \"#utility.yul\":2506:2603   */\n  tag_35\n  jump\t// in\ntag_77:\n    /* \"#utility.yul\":2624:2663   */\n  tag_78\n    /* \"#utility.yul\":2654:2662   */\n  dup7\n    /* \"#utility.yul\":2643:2652   */\n  dup4\n    /* \"#utility.yul\":2624:2663   */\n  tag_35\n  jump\t// in\ntag_78:\n    /* \"#utility.yul\":2612:2663   */\n  swap6\n  pop\n    /* \"#utility.yul\":2696:2700   */\n  dup1\n    /* \"#utility.yul\":2692:2701   */\n  not\n    /* \"#utility.yul\":2685:2690   */\n  dup5\n    /* \"#utility.yul\":2681:2702   */\n  and\n    /* \"#utility.yul\":2672:2702   */\n  swap4\n  pop\n    /* \"#utility.yul\":2745:2749   */\n  dup1\n    /* \"#utility.yul\":2735:2743   */\n  dup7\n    /* \"#utility.yul\":2731:2750   */\n  and\n    /* \"#utility.yul\":2724:2729   */\n  dup5\n    /* \"#utility.yul\":2721:2751   */\n  or\n    /* \"#utility.yul\":2711:2751   */\n  swap3\n  pop\n    /* \"#utility.yul\":2440:2757   */\n  pop\n  pop\n    /* \"#utility.yul\":2364:2757   */\n  swap4\n  swap3\n  pop\n  pop\n  pop\n  jump\t// out\n    /* \"#utility.yul\":2763:2840   */\ntag_37:\n    /* \"#utility.yul\":2800:2807   */\n  0x00\n    /* \"#utility.yul\":2829:2834   */\n  dup2\n    /* \"#utility.yul\":2818:2834   */\n  swap1\n  pop\n    /* \"#utility.yul\":2763:2840   */\n  swap2\n  swap1\n  pop\n  jump\t// out\n    /* \"#utility.yul\":2846:2906   */\ntag_38:\n    /* \"#utility.yul\":2874:2877   */\n  0x00\n    /* \"#utility.yul\":2895:2900   */\n  dup2\n    /* \"#utility.yul\":2888:2900   */\n  swap1\n  pop\n    /* \"#utility.yul\":2846:2906   */\n  swap2\n  swap1\n  pop\n  jump\t// out\n    /* \"#utility.yul\":2912:3054   */\ntag_39:\n    /* \"#utility.yul\":2962:2971   */\n  0x00\n    /* \"#utility.yul\":2995:3048   */\n  tag_82\n    /* \"#utility.yul\":3013:3047   */\n  tag_83\n    /* \"#utility.yul\":3022:3046   */\n  tag_84\n    /* \"#utility.yul\":3040:3045   */\n  dup5\n    /* \"#utility.yul\":3022:3046   */\n  tag_37\n  jump\t// in\ntag_84:\n    /* \"#utility.yul\":3013:3047   */\n  tag_38\n  jump\t// in\ntag_83:\n    /* \"#utility.yul\":2995:3048   */\n  tag_37\n  jump\t// in\ntag_82:\n    /* \"#utility.yul\":2982:3048   */\n  swap1\n  pop\n    /* \"#utility.yul\":2912:3054   */\n  swap2\n  swap1\n  pop\n  jump\t// out\n    /* \"#utility.yul\":3060:3135   */\ntag_40:\n    /* \"#utility.yul\":3103:3106   */\n  0x00\n    /* \"#utility.yul\":3124:3129   */\n  dup2\n    /* \"#utility.yul\":3117:3129   */\n  swap1\n  pop\n    /* \"#utility.yul\":3060:3135   */\n  swap2\n  swap1\n  pop\n  jump\t// out\n    /* \"#utility.yul\":3141:3410   */\ntag_41:\n    /* \"#utility.yul\":3251:3290   */\n  tag_87\n    /* \"#utility.yul\":3282:3289   */\n  dup4\n    /* \"#utility.yul\":3251:3290   */\n  tag_39\n  jump\t// in\ntag_87:\n    /* \"#utility.yul\":3312:3403   */\n  tag_88\n    /* \"#utility.yul\":3361:3402   */\n  tag_89\n    /* \"#utility.yul\":3385:3401   */\n  dup3\n    /* \"#utility.yul\":3361:3402   */\n  tag_40\n  jump\t// in\ntag_89:\n    /* \"#utility.yul\":3353:3359   */\n  dup5\n    /* \"#utility.yul\":3346:3350   */\n  dup5\n    /* \"#utility.yul\":3340:3351   */\n  sload\n    /* \"#utility.yul\":3312:3403   */\n  tag_36\n  jump\t// in\ntag_88:\n    /* \"#utility.yul\":3306:3310   */\n  dup3\n    /* \"#utility.yul\":3299:3404   */\n  sstore\n    /* \"#utility.yul\":3217:3410   */\n  pop\n    /* \"#utility.yul\":3141:3410   */\n  pop\n  pop\n  pop\n  jump\t// out\n    /* \"#utility.yul\":3416:3489   */\ntag_42:\n    /* \"#utility.yul\":3461:3464   */\n  0x00\n    /* \"#utility.yul\":3416:3489   */\n  swap1\n  jump\t// out\n    /* \"#utility.yul\":3495:3684   */\ntag_43:\n    /* \"#utility.yul\":3572:3604   */\n  tag_92\n  tag_42\n  jump\t// in\ntag_92:\n    /* \"#utility.yul\":3613:3678   */\n  tag_93\n    /* \"#utility.yul\":3671:3677   */\n  dup2\n    /* \"#utility.yul\":3663:3669   */\n  dup5\n    /* \"#utility.yul\":3657:3661   */\n  dup5\n    /* \"#utility.yul\":3613:3678   */\n  tag_41\n  jump\t// in\ntag_93:\n    /* \"#utility.yul\":3548:3684   */\n  pop\n    /* \"#utility.yul\":3495:3684   */\n  pop\n  pop\n  jump\t// out\n    /* \"#utility.yul\":3690:3876   */\ntag_44:\n    /* \"#utility.yul\":3750:3870   */\ntag_95:\n    /* \"#utility.yul\":3767:3770   */\n  dup2\n    /* \"#utility.yul\":3760:3765   */\n  dup2\n    /* \"#utility.yul\":3757:3771   */\n  lt\n    /* \"#utility.yul\":3750:3870   */\n  iszero\n  tag_97\n  jumpi\n    /* \"#utility.yul\":3821:3860   */\n  tag_98\n    /* \"#utility.yul\":3858:3859   */\n  0x00\n    /* \"#utility.yul\":3851:3856   */\n  dup3\n    /* \"#utility.yul\":3821:3860   */\n  tag_43\n  jump\t// in\ntag_98:\n    /* \"#utility.yul\":3794:3795   */\n  0x01\n    /* \"#utility.yul\":3787:3792   */\n  dup2\n    /* \"#utility.yul\":3783:3796   */\n  add\n    /* \"#utility.yul\":3774:3796   */\n  swap1\n  pop\n    /* \"#utility.yul\":3750:3870   */\n  jump(tag_95)\ntag_97:\n    /* \"#utility.yul\":3690:3876   */\n  pop\n  pop\n  jump\t// out\n    /* \"#utility.yul\":3882:4425   */\ntag_45:\n    /* \"#utility.yul\":3983:3985   */\n  0x1f\n    /* \"#utility.yul\":3978:3981   */\n  dup3\n    /* \"#utility.yul\":3975:3986   */\n  gt\n    /* \"#utility.yul\":3972:4418   */\n  iszero\n  tag_100\n  jumpi\n    /* \"#utility.yul\":4017:4055   */\n  tag_101\n    /* \"#utility.yul\":4049:4054   */\n  dup2\n    /* \"#utility.yul\":4017:4055   */\n  tag_33\n  jump\t// in\ntag_101:\n    /* \"#utility.yul\":4101:4130   */\n  tag_102\n    /* \"#utility.yul\":4119:4129   */\n  dup5\n    /* \"#utility.yul\":4101:4130   */\n  tag_34\n  jump\t// in\ntag_102:\n    /* \"#utility.yul\":4091:4099   */\n  dup2\n    /* \"#utility.yul\":4087:4131   */\n  add\n    /* \"#utility.yul\":4284:4286   */\n  0x20\n    /* \"#utility.yul\":4272:4282   */\n  dup6\n    /* \"#utility.yul\":4269:4287   */\n  lt\n    /* \"#utility.yul\":4266:4315   */\n  iszero\n  tag_103\n  jumpi\n    /* \"#utility.yul\":4305:4313   */\n  dup2\n    /* \"#utility.yul\":4290:4313   */\n  swap1\n  pop\n    /* \"#utility.yul\":4266:4315   */\ntag_103:\n    /* \"#utility.yul\":4328:4408   */\n  tag_104\n    /* \"#utility.yul\":4384:4406   */\n  tag_105\n    /* \"#utility.yul\":4402:4405   */\n  dup6\n    /* \"#utility.yul\":4384:4406   */\n  tag_34\n  jump\t// in\ntag_105:\n    /* \"#utility.yul\":4374:4382   */\n  dup4\n    /* \"#utility.yul\":4370:4407   */\n  add\n    /* \"#utility.yul\":4357:4368   */\n  dup3\n    /* \"#utility.yul\":4328:4408   */\n  tag_44\n  jump\t// in\ntag_104:\n    /* \"#utility.yul\":3987:4418   */\n  pop\n  pop\n    /* \"#utility.yul\":3972:4418   */\ntag_100:\n    /* \"#utility.yul\":3882:4425   */\n  pop\n  pop\n  pop\n  jump\t// out\n    /* \"#utility.yul\":4431:4548   */\ntag_46:\n    /* \"#utility.yul\":4485:4493   */\n  0x00\n    /* \"#utility.yul\":4535:4540   */\n  dup3\n    /* \"#utility.yul\":4529:4533   */\n  dup3\n    /* \"#utility.yul\":4525:4541   */\n  shr\n    /* \"#utility.yul\":4504:4541   */\n  swap1\n  pop\n    /* \"#utility.yul\":4431:4548   */\n  swap3\n  swap2\n  pop\n  pop\n  jump\t// out\n    /* \"#utility.yul\":4554:4723   */\ntag_47:\n    /* \"#utility.yul\":4598:4604   */\n  0x00\n    /* \"#utility.yul\":4631:4682   */\n  tag_108\n    /* \"#utility.yul\":4679:4680   */\n  0x00\n    /* \"#utility.yul\":4675:4681   */\n  not\n    /* \"#utility.yul\":4667:4672   */\n  dup5\n    /* \"#utility.yul\":4664:4665   */\n  0x08\n    /* \"#utility.yul\":4660:4673   */\n  mul\n    /* \"#utility.yul\":4631:4682   */\n  tag_46\n  jump\t// in\ntag_108:\n    /* \"#utility.yul\":4627:4683   */\n  not\n    /* \"#utility.yul\":4712:4716   */\n  dup1\n    /* \"#utility.yul\":4706:4710   */\n  dup4\n    /* \"#utility.yul\":4702:4717   */\n  and\n    /* \"#utility.yul\":4692:4717   */\n  swap2\n  pop\n    /* \"#utility.yul\":4605:4723   */\n  pop\n    /* \"#utility.yul\":4554:4723   */\n  swap3\n  swap2\n  pop\n  pop\n  jump\t// out\n    /* \"#utility.yul\":4728:5023   */\ntag_48:\n    /* \"#utility.yul\":4804:4808   */\n  0x00\n    /* \"#utility.yul\":4950:4979   */\n  tag_110\n    /* \"#utility.yul\":4975:4978   */\n  dup4\n    /* \"#utility.yul\":4969:4973   */\n  dup4\n    /* \"#utility.yul\":4950:4979   */\n  tag_47\n  jump\t// in\ntag_110:\n    /* \"#utility.yul\":4942:4979   */\n  swap2\n  pop\n    /* \"#utility.yul\":5012:5015   */\n  dup3\n    /* \"#utility.yul\":5009:5010   */\n  0x02\n    /* \"#utility.yul\":5005:5016   */\n  mul\n    /* \"#utility.yul\":4999:5003   */\n  dup3\n    /* \"#utility.yul\":4996:5017   */\n  or\n    /* \"#utility.yul\":4988:5017   */\n  swap1\n  pop\n    /* \"#utility.yul\":4728:5023   */\n  swap3\n  swap2\n  pop\n  pop\n  jump\t// out\n    /* \"#utility.yul\":5028:6423   */\ntag_10:\n    /* \"#utility.yul\":5145:5182   */\n  tag_112\n    /* \"#utility.yul\":5178:5181   */\n  dup3\n    /* \"#utility.yul\":5145:5182   */\n  tag_29\n  jump\t// in\ntag_112:\n    /* \"#utility.yul\":5247:5265   */\n  0xffffffffffffffff\n    /* \"#utility.yul\":5239:5245   */\n  dup2\n    /* \"#utility.yul\":5236:5266   */\n  gt\n    /* \"#utility.yul\":5233:5289   */\n  iszero\n  tag_113\n  jumpi\n    /* \"#utility.yul\":5269:5287   */\n  tag_114\n  tag_30\n  jump\t// in\ntag_114:\n    /* \"#utility.yul\":5233:5289   */\ntag_113:\n    /* \"#utility.yul\":5313:5351   */\n  tag_115\n    /* \"#utility.yul\":5345:5349   */\n  dup3\n    /* \"#utility.yul\":5339:5350   */\n  sload\n    /* \"#utility.yul\":5313:5351   */\n  tag_32\n  jump\t// in\ntag_115:\n    /* \"#utility.yul\":5398:5465   */\n  tag_116\n    /* \"#utility.yul\":5458:5464   */\n  dup3\n    /* \"#utility.yul\":5450:5456   */\n  dup3\n    /* \"#utility.yul\":5444:5448   */\n  dup6\n    /* \"#utility.yul\":5398:5465   */\n  tag_45\n  jump\t// in\ntag_116:\n    /* \"#utility.yul\":5492:5493   */\n  0x00\n    /* \"#utility.yul\":5516:5520   */\n  0x20\n    /* \"#utility.yul\":5503:5520   */\n  swap1\n  pop\n    /* \"#utility.yul\":5548:5550   */\n  0x1f\n    /* \"#utility.yul\":5540:5546   */\n  dup4\n    /* \"#utility.yul\":5537:5551   */\n  gt\n    /* \"#utility.yul\":5565:5566   */\n  0x01\n    /* \"#utility.yul\":5560:6178   */\n  dup2\n  eq\n  tag_118\n  jumpi\n    /* \"#utility.yul\":6222:6223   */\n  0x00\n    /* \"#utility.yul\":6239:6245   */\n  dup5\n    /* \"#utility.yul\":6236:6313   */\n  iszero\n  tag_119\n  jumpi\n    /* \"#utility.yul\":6288:6297   */\n  dup3\n    /* \"#utility.yul\":6283:6286   */\n  dup8\n    /* \"#utility.yul\":6279:6298   */\n  add\n    /* \"#utility.yul\":6273:6299   */\n  mload\n    /* \"#utility.yul\":6264:6299   */\n  swap1\n  pop\n    /* \"#utility.yul\":6236:6313   */\ntag_119:\n    /* \"#utility.yul\":6339:6406   */\n  tag_120\n    /* \"#utility.yul\":6399:6405   */\n  dup6\n    /* \"#utility.yul\":6392:6397   */\n  dup3\n    /* \"#utility.yul\":6339:6406   */\n  tag_48\n  jump\t// in\ntag_120:\n    /* \"#utility.yul\":6333:6337   */\n  dup7\n    /* \"#utility.yul\":6326:6407   */\n  sstore\n    /* \"#utility.yul\":6195:6417   */\n  pop\n    /* \"#utility.yul\":5530:6417   */\n  jump(tag_117)\n    /* \"#utility.yul\":5560:6178   */\ntag_118:\n    /* \"#utility.yul\":5612:5616   */\n  0x1f\n    /* \"#utility.yul\":5608:5617   */\n  not\n    /* \"#utility.yul\":5600:5606   */\n  dup5\n    /* \"#utility.yul\":5596:5618   */\n  and\n    /* \"#utility.yul\":5646:5683   */\n  tag_121\n    /* \"#utility.yul\":5678:5682   */\n  dup7\n    /* \"#utility.yul\":5646:5683   */\n  tag_33\n  jump\t// in\ntag_121:\n    /* \"#utility.yul\":5705:5706   */\n  0x00\n    /* \"#utility.yul\":5719:5927   */\ntag_122:\n    /* \"#utility.yul\":5733:5740   */\n  dup3\n    /* \"#utility.yul\":5730:5731   */\n  dup2\n    /* \"#utility.yul\":5727:5741   */\n  lt\n    /* \"#utility.yul\":5719:5927   */\n  iszero\n  tag_124\n  jumpi\n    /* \"#utility.yul\":5812:5821   */\n  dup5\n    /* \"#utility.yul\":5807:5810   */\n  dup10\n    /* \"#utility.yul\":5803:5822   */\n  add\n    /* \"#utility.yul\":5797:5823   */\n  mload\n    /* \"#utility.yul\":5789:5795   */\n  dup3\n    /* \"#utility.yul\":5782:5824   */\n  sstore\n    /* \"#utility.yul\":5863:5864   */\n  0x01\n    /* \"#utility.yul\":5855:5861   */\n  dup3\n    /* \"#utility.yul\":5851:5865   */\n  add\n    /* \"#utility.yul\":5841:5865   */\n  swap2\n  pop\n    /* \"#utility.yul\":5910:5912   */\n  0x20\n    /* \"#utility.yul\":5899:5908   */\n  dup6\n    /* \"#utility.yul\":5895:5913   */\n  add\n    /* \"#utility.yul\":5882:5913   */\n  swap5\n  pop\n    /* \"#utility.yul\":5756:5760   */\n  0x20\n    /* \"#utility.yul\":5753:5754   */\n  dup2\n    /* \"#utility.yul\":5749:5761   */\n  add\n    /* \"#utility.yul\":5744:5761   */\n  swap1\n  pop\n    /* \"#utility.yul\":5719:5927   */\n  jump(tag_122)\ntag_124:\n    /* \"#utility.yul\":5955:5961   */\n  dup7\n    /* \"#utility.yul\":5946:5953   */\n  dup4\n    /* \"#utility.yul\":5943:5962   */\n  lt\n    /* \"#utility.yul\":5940:6119   */\n  iszero\n  tag_125\n  jumpi\n    /* \"#utility.yul\":6013:6022   */\n  dup5\n    /* \"#utility.yul\":6008:6011   */\n  dup10\n    /* \"#utility.yul\":6004:6023   */\n  add\n    /* \"#utility.yul\":5998:6024   */\n  mload\n    /* \"#utility.yul\":6056:6104   */\n  tag_126\n    /* \"#utility.yul\":6098:6102   */\n  0x1f\n    /* \"#utility.yul\":6090:6096   */\n  dup10\n    /* \"#utility.yul\":6086:6103   */\n  and\n    /* \"#utility.yul\":6075:6084   */\n  dup3\n    /* \"#utility.yul\":6056:6104   */\n  tag_47\n  jump\t// in\ntag_126:\n    /* \"#utility.yul\":6048:6054   */\n  dup4\n    /* \"#utility.yul\":6041:6105   */\n  sstore\n    /* \"#utility.yul\":5963:6119   */\n  pop\n    /* \"#utility.yul\":5940:6119   */\ntag_125:\n    /* \"#utility.yul\":6165:6166   */\n  0x01\n    /* \"#utility.yul\":6161:6162   */\n  0x02\n    /* \"#utility.yul\":6153:6159   */\n  dup9\n    /* \"#utility.yul\":6149:6163   */\n  mul\n    /* \"#utility.yul\":6145:6167   */\n  add\n    /* \"#utility.yul\":6139:6143   */\n  dup9\n    /* \"#utility.yul\":6132:6168   */\n  sstore\n    /* \"#utility.yul\":5567:6178   */\n  pop\n  pop\n  pop\n    /* \"#utility.yul\":5530:6417   */\ntag_117:\n  pop\n    /* \"#utility.yul\":5120:6423   */\n  pop\n  pop\n  pop\n    /* \"#utility.yul\":5028:6423   */\n  pop\n  pop\n  jump\t// out\n    /* \"#utility.yul\":6429:6547   */\ntag_49:\n    /* \"#utility.yul\":6516:6540   */\n  tag_128\n    /* \"#utility.yul\":6534:6539   */\n  dup2\n    /* \"#utility.yul\":6516:6540   */\n  tag_26\n  jump\t// in\ntag_128:\n    /* \"#utility.yul\":6511:6514   */\n  dup3\n    /* \"#utility.yul\":6504:6541   */\n  mstore\n    /* \"#utility.yul\":6429:6547   */\n  pop\n  pop\n  jump\t// out\n    /* \"#utility.yul\":6553:6775   */\ntag_16:\n    /* \"#utility.yul\":6646:6650   */\n  0x00\n    /* \"#utility.yul\":6684:6686   */\n  0x20\n    /* \"#utility.yul\":6673:6682   */\n  dup3\n    /* \"#utility.yul\":6669:6687   */\n  add\n    /* \"#utility.yul\":6661:6687   */\n  swap1\n  pop\n    /* \"#utility.yul\":6697:6768   */\n  tag_130\n    /* \"#utility.yul\":6765:6766   */\n  0x00\n    /* \"#utility.yul\":6754:6763   */\n  dup4\n    /* \"#utility.yul\":6750:6767   */\n  add\n    /* \"#utility.yul\":6741:6747   */\n  dup5\n    /* \"#utility.yul\":6697:6768   */\n  tag_49\n  jump\t// in\ntag_130:\n    /* \"#utility.yul\":6553:6775   */\n  swap3\n  swap2\n  pop\n  pop\n  jump\t// out\n    /* \"contracts/ERC20Reward.sol\":400:3582  contract ERC20Reward is ERC20Pausable, IMessageRecipient, Ownable, ERC20Burnable {... */\ntag_20:\n  dataSize(sub_0)\n  dup1\n  dataOffset(sub_0)\n  0x00\n  codecopy\n  0x00\n  return\nstop\n\nsub_0: assembly {\n        /* \"contracts/ERC20Reward.sol\":400:3582  contract ERC20Reward is ERC20Pausable, IMessageRecipient, Ownable, ERC20Burnable {... */\n      mstore(0x40, 0x80)\n      jumpi(tag_1, lt(calldatasize, 0x04))\n      shr(0xe0, calldataload(0x00))\n      dup1\n      0x5c975abb\n      gt\n      tag_32\n      jumpi\n      dup1\n      0x95d89b41\n      gt\n      tag_33\n      jumpi\n      dup1\n      0xdd62ed3e\n      gt\n      tag_34\n      jumpi\n      dup1\n      0xdd62ed3e\n      eq\n      tag_28\n      jumpi\n      dup1\n      0xdfca5ce3\n      eq\n      tag_29\n      jumpi\n      dup1\n      0xf2fde38b\n      eq\n      tag_30\n      jumpi\n      dup1\n      0xf3c61d6b\n      eq\n      tag_31\n      jumpi\n      jump(tag_1)\n    tag_34:\n      dup1\n      0x95d89b41\n      eq\n      tag_24\n      jumpi\n      dup1\n      0x9a49090e\n      eq\n      tag_25\n      jumpi\n      dup1\n      0xa9059cbb\n      eq\n      tag_26\n      jumpi\n      dup1\n      0xbca12299\n      eq\n      tag_27\n      jumpi\n      jump(tag_1)\n    tag_33:\n      dup1\n      0x79cc6790\n      gt\n      tag_35\n      jumpi\n      dup1\n      0x79cc6790\n      eq\n      tag_20\n      jumpi\n      dup1\n      0x8456cb59\n      eq\n      tag_21\n      jumpi\n      dup1\n      0x8b1c7b10\n      eq\n      tag_22\n      jumpi\n      dup1\n      0x8da5cb5b\n      eq\n      tag_23\n      jumpi\n      jump(tag_1)\n    tag_35:\n      dup1\n      0x5c975abb\n      eq\n      tag_17\n      jumpi\n      dup1\n      0x70a08231\n      eq\n      tag_18\n      jumpi\n      dup1\n      0x715018a6\n      eq\n      tag_19\n      jumpi\n      jump(tag_1)\n    tag_32:\n      dup1\n      0x2bda3e0b\n      gt\n      tag_36\n      jumpi\n      dup1\n      0x3f4ba83a\n      gt\n      tag_37\n      jumpi\n      dup1\n      0x3f4ba83a\n      eq\n      tag_13\n      jumpi\n      dup1\n      0x4080d640\n      eq\n      tag_14\n      jumpi\n      dup1\n      0x42966c68\n      eq\n      tag_15\n      jumpi\n      dup1\n      0x56d5d475\n      eq\n      tag_16\n      jumpi\n      jump(tag_1)\n    tag_37:\n      dup1\n      0x2bda3e0b\n      eq\n      tag_9\n      jumpi\n      dup1\n      0x313ce567\n      eq\n      tag_10\n      jumpi\n      dup1\n      0x32cb6b0c\n      eq\n      tag_11\n      jumpi\n      dup1\n      0x3b5d441e\n      eq\n      tag_12\n      jumpi\n      jump(tag_1)\n    tag_36:\n      dup1\n      0x18160ddd\n      gt\n      tag_38\n      jumpi\n      dup1\n      0x18160ddd\n      eq\n      tag_5\n      jumpi\n      dup1\n      0x1a6e4db4\n      eq\n      tag_6\n      jumpi\n      dup1\n      0x1d187c50\n      eq\n      tag_7\n      jumpi\n      dup1\n      0x23b872dd\n      eq\n      tag_8\n      jumpi\n      jump(tag_1)\n    tag_38:\n      dup1\n      0x010a38f5\n      eq\n      tag_2\n      jumpi\n      dup1\n      0x06fdde03\n      eq\n      tag_3\n      jumpi\n      dup1\n      0x095ea7b3\n      eq\n      tag_4\n      jumpi\n    tag_1:\n      0x00\n      dup1\n      revert\n        /* \"contracts/ERC20Reward.sol\":3056:3177  function getTokenId() external returns (uint256) {... */\n    tag_2:\n      callvalue\n      dup1\n      iszero\n      tag_39\n      jumpi\n      0x00\n      dup1\n      revert\n    tag_39:\n      pop\n      tag_40\n      tag_41\n      jump\t// in\n    tag_40:\n      mload(0x40)\n      tag_42\n      swap2\n      swap1\n      tag_43\n      jump\t// in\n    tag_42:\n      mload(0x40)\n      dup1\n      swap2\n      sub\n      swap1\n      return\n        /* \"@openzeppelin/contracts/token/ERC20/ERC20.sol\":2074:2163  function name() public view virtual returns (string memory) {... */\n    tag_3:\n      callvalue\n      dup1\n      iszero\n      tag_44\n      jumpi\n      0x00\n      dup1\n      revert\n    tag_44:\n      pop\n      tag_45\n      tag_46\n      jump\t// in\n    tag_45:\n      mload(0x40)\n      tag_47\n      swap2\n      swap1\n      tag_48\n      jump\t// in\n    tag_47:\n      mload(0x40)\n      dup1\n      swap2\n      sub\n      swap1\n      return\n        /* \"@openzeppelin/contracts/token/ERC20/ERC20.sol\":4293:4479  function approve(address spender, uint256 value) public virtual returns (bool) {... */\n    tag_4:\n      callvalue\n      dup1\n      iszero\n      tag_49\n      jumpi\n      0x00\n      dup1\n      revert\n    tag_49:\n      pop\n      tag_50\n      0x04\n      dup1\n      calldatasize\n      sub\n      dup2\n      add\n      swap1\n      tag_51\n      swap2\n      swap1\n      tag_52\n      jump\t// in\n    tag_51:\n      tag_53\n      jump\t// in\n    tag_50:\n      mload(0x40)\n      tag_54\n      swap2\n      swap1\n      tag_55\n      jump\t// in\n    tag_54:\n      mload(0x40)\n      dup1\n      swap2\n      sub\n      swap1\n      return\n        /* \"@openzeppelin/contracts/token/ERC20/ERC20.sol\":3144:3241  function totalSupply() public view virtual returns (uint256) {... */\n    tag_5:\n      callvalue\n      dup1\n      iszero\n      tag_56\n      jumpi\n      0x00\n      dup1\n      revert\n    tag_56:\n      pop\n      tag_57\n      tag_58\n      jump\t// in\n    tag_57:\n      mload(0x40)\n      tag_59\n      swap2\n      swap1\n      tag_43\n      jump\t// in\n    tag_59:\n      mload(0x40)\n      dup1\n      swap2\n      sub\n      swap1\n      return\n        /* \"contracts/ERC20Reward.sol\":488:519  address public hyperlaneMailbox */\n    tag_6:\n      callvalue\n      dup1\n      iszero\n      tag_60\n      jumpi\n      0x00\n      dup1\n      revert\n    tag_60:\n      pop\n      tag_61\n      tag_62\n      jump\t// in\n    tag_61:\n      mload(0x40)\n      tag_63\n      swap2\n      swap1\n      tag_64\n      jump\t// in\n    tag_63:\n      mload(0x40)\n      dup1\n      swap2\n      sub\n      swap1\n      return\n        /* \"contracts/ERC20Reward.sol\":526:574  mapping(uint32 => bytes32) public trustedRemotes */\n    tag_7:\n      callvalue\n      dup1\n      iszero\n      tag_65\n      jumpi\n      0x00\n      dup1\n      revert\n    tag_65:\n      pop\n      tag_66\n      0x04\n      dup1\n      calldatasize\n      sub\n      dup2\n      add\n      swap1\n      tag_67\n      swap2\n      swap1\n      tag_68\n      jump\t// in\n    tag_67:\n      tag_69\n      jump\t// in\n    tag_66:\n      mload(0x40)\n      tag_70\n      swap2\n      swap1\n      tag_71\n      jump\t// in\n    tag_70:\n      mload(0x40)\n      dup1\n      swap2\n      sub\n      swap1\n      return\n        /* \"@openzeppelin/contracts/token/ERC20/ERC20.sol\":5039:5283  function transferFrom(address from, address to, uint256 value) public virtual returns (bool) {... */\n    tag_8:\n      callvalue\n      dup1\n      iszero\n      tag_72\n      jumpi\n      0x00\n      dup1\n      revert\n    tag_72:\n      pop\n      tag_73\n      0x04\n      dup1\n      calldatasize\n      sub\n      dup2\n      add\n      swap1\n      tag_74\n      swap2\n      swap1\n      tag_75\n      jump\t// in\n    tag_74:\n      tag_76\n      jump\t// in\n    tag_73:\n      mload(0x40)\n      tag_77\n      swap2\n      swap1\n      tag_55\n      jump\t// in\n    tag_77:\n      mload(0x40)\n      dup1\n      swap2\n      sub\n      swap1\n      return\n        /* \"contracts/ERC20Reward.sol\":1836:1980  function setTrustedRemote(uint32 _domain, bytes32 _trustedRemote) external onlyOwner {... */\n    tag_9:\n      callvalue\n      dup1\n      iszero\n      tag_78\n      jumpi\n      0x00\n      dup1\n      revert\n    tag_78:\n      pop\n      tag_79\n      0x04\n      dup1\n      calldatasize\n      sub\n      dup2\n      add\n      swap1\n      tag_80\n      swap2\n      swap1\n      tag_81\n      jump\t// in\n    tag_80:\n      tag_82\n      jump\t// in\n    tag_79:\n      stop\n        /* \"@openzeppelin/contracts/token/ERC20/ERC20.sol\":3002:3084  function decimals() public view virtual returns (uint8) {... */\n    tag_10:\n      callvalue\n      dup1\n      iszero\n      tag_83\n      jumpi\n      0x00\n      dup1\n      revert\n    tag_83:\n      pop\n      tag_84\n      tag_85\n      jump\t// in\n    tag_84:\n      mload(0x40)\n      tag_86\n      swap2\n      swap1\n      tag_87\n      jump\t// in\n    tag_86:\n      mload(0x40)\n      dup1\n      swap2\n      sub\n      swap1\n      return\n        /* \"contracts/ERC20Reward.sol\":583:636  uint256 public constant MAX_SUPPLY = 1000000 * 10**18 */\n    tag_11:\n      callvalue\n      dup1\n      iszero\n      tag_88\n      jumpi\n      0x00\n      dup1\n      revert\n    tag_88:\n      pop\n      tag_89\n      tag_90\n      jump\t// in\n    tag_89:\n      mload(0x40)\n      tag_91\n      swap2\n      swap1\n      tag_43\n      jump\t// in\n    tag_91:\n      mload(0x40)\n      dup1\n      swap2\n      sub\n      swap1\n      return\n        /* \"contracts/ERC20Reward.sol\":795:844  mapping(address => uint256) public lastRewardTime */\n    tag_12:\n      callvalue\n      dup1\n      iszero\n      tag_92\n      jumpi\n      0x00\n      dup1\n      revert\n    tag_92:\n      pop\n      tag_93\n      0x04\n      dup1\n      calldatasize\n      sub\n      dup2\n      add\n      swap1\n      tag_94\n      swap2\n      swap1\n      tag_95\n      jump\t// in\n    tag_94:\n      tag_96\n      jump\t// in\n    tag_93:\n      mload(0x40)\n      tag_97\n      swap2\n      swap1\n      tag_43\n      jump\t// in\n    tag_97:\n      mload(0x40)\n      dup1\n      swap2\n      sub\n      swap1\n      return\n        /* \"contracts/ERC20Reward.sol\":3514:3579  function unpause() public onlyOwner {... */\n    tag_13:\n      callvalue\n      dup1\n      iszero\n      tag_98\n      jumpi\n      0x00\n      dup1\n      revert\n    tag_98:\n      pop\n      tag_99\n      tag_100\n      jump\t// in\n    tag_99:\n      stop\n        /* \"contracts/ERC20Reward.sol\":745:788  mapping(address => bool) public gameMasters */\n    tag_14:\n      callvalue\n      dup1\n      iszero\n      tag_101\n      jumpi\n      0x00\n      dup1\n      revert\n    tag_101:\n      pop\n      tag_102\n      0x04\n      dup1\n      calldatasize\n      sub\n      dup2\n      add\n      swap1\n      tag_103\n      swap2\n      swap1\n      tag_95\n      jump\t// in\n    tag_103:\n      tag_104\n      jump\t// in\n    tag_102:\n      mload(0x40)\n      tag_105\n      swap2\n      swap1\n      tag_55\n      jump\t// in\n    tag_105:\n      mload(0x40)\n      dup1\n      swap2\n      sub\n      swap1\n      return\n        /* \"@openzeppelin/contracts/token/ERC20/extensions/ERC20Burnable.sol\":618:705  function burn(uint256 value) public virtual {... */\n    tag_15:\n      callvalue\n      dup1\n      iszero\n      tag_106\n      jumpi\n      0x00\n      dup1\n      revert\n    tag_106:\n      pop\n      tag_107\n      0x04\n      dup1\n      calldatasize\n      sub\n      dup2\n      add\n      swap1\n      tag_108\n      swap2\n      swap1\n      tag_109\n      jump\t// in\n    tag_108:\n      tag_110\n      jump\t// in\n    tag_107:\n      stop\n        /* \"contracts/ERC20Reward.sol\":1385:1828  function handle(... */\n    tag_16:\n      tag_111\n      0x04\n      dup1\n      calldatasize\n      sub\n      dup2\n      add\n      swap1\n      tag_112\n      swap2\n      swap1\n      tag_113\n      jump\t// in\n    tag_112:\n      tag_114\n      jump\t// in\n    tag_111:\n      stop\n        /* \"@openzeppelin/contracts/utils/Pausable.sol\":1850:1934  function paused() public view virtual returns (bool) {... */\n    tag_17:\n      callvalue\n      dup1\n      iszero\n      tag_115\n      jumpi\n      0x00\n      dup1\n      revert\n    tag_115:\n      pop\n      tag_116\n      tag_117\n      jump\t// in\n    tag_116:\n      mload(0x40)\n      tag_118\n      swap2\n      swap1\n      tag_55\n      jump\t// in\n    tag_118:\n      mload(0x40)\n      dup1\n      swap2\n      sub\n      swap1\n      return\n        /* \"@openzeppelin/contracts/token/ERC20/ERC20.sol\":3299:3415  function balanceOf(address account) public view virtual returns (uint256) {... */\n    tag_18:\n      callvalue\n      dup1\n      iszero\n      tag_119\n      jumpi\n      0x00\n      dup1\n      revert\n    tag_119:\n      pop\n      tag_120\n      0x04\n      dup1\n      calldatasize\n      sub\n      dup2\n      add\n      swap1\n      tag_121\n      swap2\n      swap1\n      tag_95\n      jump\t// in\n    tag_121:\n      tag_122\n      jump\t// in\n    tag_120:\n      mload(0x40)\n      tag_123\n      swap2\n      swap1\n      tag_43\n      jump\t// in\n    tag_123:\n      mload(0x40)\n      dup1\n      swap2\n      sub\n      swap1\n      return\n        /* \"@openzeppelin/contracts/access/Ownable.sol\":2293:2394  function renounceOwnership() public virtual onlyOwner {... */\n    tag_19:\n      callvalue\n      dup1\n      iszero\n      tag_124\n      jumpi\n      0x00\n      dup1\n      revert\n    tag_124:\n      pop\n      tag_125\n      tag_126\n      jump\t// in\n    tag_125:\n      stop\n        /* \"@openzeppelin/contracts/token/ERC20/extensions/ERC20Burnable.sol\":1021:1179  function burnFrom(address account, uint256 value) public virtual {... */\n    tag_20:\n      callvalue\n      dup1\n      iszero\n      tag_127\n      jumpi\n      0x00\n      dup1\n      revert\n    tag_127:\n      pop\n      tag_128\n      0x04\n      dup1\n      calldatasize\n      sub\n      dup2\n      add\n      swap1\n      tag_129\n      swap2\n      swap1\n      tag_52\n      jump\t// in\n    tag_129:\n      tag_130\n      jump\t// in\n    tag_128:\n      stop\n        /* \"contracts/ERC20Reward.sol\":3445:3506  function pause() public onlyOwner {... */\n    tag_21:\n      callvalue\n      dup1\n      iszero\n      tag_131\n      jumpi\n      0x00\n      dup1\n      revert\n    tag_131:\n      pop\n      tag_132\n      tag_133\n      jump\t// in\n    tag_132:\n      stop\n        /* \"contracts/ERC20Reward.sol\":2099:2256  function addGameMaster(address _gameMaster) external onlyOwner {... */\n    tag_22:\n      callvalue\n      dup1\n      iszero\n      tag_134\n      jumpi\n      0x00\n      dup1\n      revert\n    tag_134:\n      pop\n      tag_135\n      0x04\n      dup1\n      calldatasize\n      sub\n      dup2\n      add\n      swap1\n      tag_136\n      swap2\n      swap1\n      tag_95\n      jump\t// in\n    tag_136:\n      tag_137\n      jump\t// in\n    tag_135:\n      stop\n        /* \"@openzeppelin/contracts/access/Ownable.sol\":1638:1723  function owner() public view virtual returns (address) {... */\n    tag_23:\n      callvalue\n      dup1\n      iszero\n      tag_138\n      jumpi\n      0x00\n      dup1\n      revert\n    tag_138:\n      pop\n      tag_139\n      tag_140\n      jump\t// in\n    tag_139:\n      mload(0x40)\n      tag_141\n      swap2\n      swap1\n      tag_64\n      jump\t// in\n    tag_141:\n      mload(0x40)\n      dup1\n      swap2\n      sub\n      swap1\n      return\n        /* \"@openzeppelin/contracts/token/ERC20/ERC20.sol\":2276:2369  function symbol() public view virtual returns (string memory) {... */\n    tag_24:\n      callvalue\n      dup1\n      iszero\n      tag_142\n      jumpi\n      0x00\n      dup1\n      revert\n    tag_142:\n      pop\n      tag_143\n      tag_144\n      jump\t// in\n    tag_143:\n      mload(0x40)\n      tag_145\n      swap2\n      swap1\n      tag_48\n      jump\t// in\n    tag_145:\n      mload(0x40)\n      dup1\n      swap2\n      sub\n      swap1\n      return\n        /* \"contracts/ERC20Reward.sol\":2435:2575  function mintReward(address _player, uint256 _amount) external onlyGameMaster whenNotPaused {... */\n    tag_25:\n      callvalue\n      dup1\n      iszero\n      tag_146\n      jumpi\n      0x00\n      dup1\n      revert\n    tag_146:\n      pop\n      tag_147\n      0x04\n      dup1\n      calldatasize\n      sub\n      dup2\n      add\n      swap1\n      tag_148\n      swap2\n      swap1\n      tag_52\n      jump\t// in\n    tag_148:\n      tag_149\n      jump\t// in\n    tag_147:\n      stop\n        /* \"@openzeppelin/contracts/token/ERC20/ERC20.sol\":3610:3788  function transfer(address to, uint256 value) public virtual returns (bool) {... */\n    tag_26:\n      callvalue\n      dup1\n      iszero\n      tag_150\n      jumpi\n      0x00\n      dup1\n      revert\n    tag_150:\n      pop\n      tag_151\n      0x04\n      dup1\n      calldatasize\n      sub\n      dup2\n      add\n      swap1\n      tag_152\n      swap2\n      swap1\n      tag_52\n      jump\t// in\n    tag_152:\n      tag_153\n      jump\t// in\n    tag_151:\n      mload(0x40)\n      tag_154\n      swap2\n      swap1\n      tag_55\n      jump\t// in\n    tag_154:\n      mload(0x40)\n      dup1\n      swap2\n      sub\n      swap1\n      return\n        /* \"contracts/ERC20Reward.sol\":663:721  uint256 public constant DAILY_REWARD_LIMIT = 1000 * 10**18 */\n    tag_27:\n      callvalue\n      dup1\n      iszero\n      tag_155\n      jumpi\n      0x00\n      dup1\n      revert\n    tag_155:\n      pop\n      tag_156\n      tag_157\n      jump\t// in\n    tag_156:\n      mload(0x40)\n      tag_158\n      swap2\n      swap1\n      tag_43\n      jump\t// in\n    tag_158:\n      mload(0x40)\n      dup1\n      swap2\n      sub\n      swap1\n      return\n        /* \"@openzeppelin/contracts/token/ERC20/ERC20.sol\":3846:3986  function allowance(address owner, address spender) public view virtual returns (uint256) {... */\n    tag_28:\n      callvalue\n      dup1\n      iszero\n      tag_159\n      jumpi\n      0x00\n      dup1\n      revert\n    tag_159:\n      pop\n      tag_160\n      0x04\n      dup1\n      calldatasize\n      sub\n      dup2\n      add\n      swap1\n      tag_161\n      swap2\n      swap1\n      tag_162\n      jump\t// in\n    tag_161:\n      tag_163\n      jump\t// in\n    tag_160:\n      mload(0x40)\n      tag_164\n      swap2\n      swap1\n      tag_43\n      jump\t// in\n    tag_164:\n      mload(0x40)\n      dup1\n      swap2\n      sub\n      swap1\n      return\n        /* \"contracts/ERC20Reward.sol\":2264:2427  function removeGameMaster(address _gameMaster) external onlyOwner {... */\n    tag_29:\n      callvalue\n      dup1\n      iszero\n      tag_165\n      jumpi\n      0x00\n      dup1\n      revert\n    tag_165:\n      pop\n      tag_166\n      0x04\n      dup1\n      calldatasize\n      sub\n      dup2\n      add\n      swap1\n      tag_167\n      swap2\n      swap1\n      tag_95\n      jump\t// in\n    tag_167:\n      tag_168\n      jump\t// in\n    tag_166:\n      stop\n        /* \"@openzeppelin/contracts/access/Ownable.sol\":2543:2758  function transferOwnership(address newOwner) public virtual onlyOwner {... */\n    tag_30:\n      callvalue\n      dup1\n      iszero\n      tag_169\n      jumpi\n      0x00\n      dup1\n      revert\n    tag_169:\n      pop\n      tag_170\n      0x04\n      dup1\n      calldatasize\n      sub\n      dup2\n      add\n      swap1\n      tag_171\n      swap2\n      swap1\n      tag_95\n      jump\t// in\n    tag_171:\n      tag_172\n      jump\t// in\n    tag_170:\n      stop\n        /* \"contracts/ERC20Reward.sol\":1988:2091  function setMailbox(address _mailbox) external onlyOwner {... */\n    tag_31:\n      callvalue\n      dup1\n      iszero\n      tag_173\n      jumpi\n      0x00\n      dup1\n      revert\n    tag_173:\n      pop\n      tag_174\n      0x04\n      dup1\n      calldatasize\n      sub\n      dup2\n      add\n      swap1\n      tag_175\n      swap2\n      swap1\n      tag_95\n      jump\t// in\n    tag_175:\n      tag_176\n      jump\t// in\n    tag_174:\n      stop\n        /* \"contracts/ERC20Reward.sol\":3056:3177  function getTokenId() external returns (uint256) {... */\n    tag_41:\n        /* \"contracts/ERC20Reward.sol\":3096:3103  uint256 */\n      0x00\n        /* \"contracts/ERC20Reward.sol\":3135:3136  1 */\n      0x01\n        /* \"contracts/ERC20Reward.sol\":3116:3131  _tokenIdCounter */\n      0x0a\n      0x00\n        /* \"contracts/ERC20Reward.sol\":3116:3136  _tokenIdCounter += 1 */\n      dup3\n      dup3\n      sload\n      tag_178\n      swap2\n      swap1\n      tag_179\n      jump\t// in\n    tag_178:\n      swap3\n      pop\n      pop\n      dup2\n      swap1\n      sstore\n      pop\n        /* \"contracts/ERC20Reward.sol\":3154:3169  _tokenIdCounter */\n      sload(0x0a)\n        /* \"contracts/ERC20Reward.sol\":3147:3169  return _tokenIdCounter */\n      swap1\n      pop\n        /* \"contracts/ERC20Reward.sol\":3056:3177  function getTokenId() external returns (uint256) {... */\n      swap1\n      jump\t// out\n        /* \"@openzeppelin/contracts/token/ERC20/ERC20.sol\":2074:2163  function name() public view virtual returns (string memory) {... */\n    tag_46:\n        /* \"@openzeppelin/contracts/token/ERC20/ERC20.sol\":2119:2132  string memory */\n      0x60\n        /* \"@openzeppelin/contracts/token/ERC20/ERC20.sol\":2151:2156  _name */\n      0x03\n        /* \"@openzeppelin/contracts/token/ERC20/ERC20.sol\":2144:2156  return _name */\n      dup1\n      sload\n      tag_181\n      swap1\n      tag_182\n      jump\t// in\n    tag_181:\n      dup1\n      0x1f\n      add\n      0x20\n      dup1\n      swap2\n      div\n      mul\n      0x20\n      add\n      mload(0x40)\n      swap1\n      dup2\n      add\n      0x40\n      mstore\n      dup1\n      swap3\n      swap2\n      swap1\n      dup2\n      dup2\n      mstore\n      0x20\n      add\n      dup3\n      dup1\n      sload\n      tag_183\n      swap1\n      tag_182\n      jump\t// in\n    tag_183:\n      dup1\n      iszero\n      tag_184\n      jumpi\n      dup1\n      0x1f\n      lt\n      tag_185\n      jumpi\n      0x0100\n      dup1\n      dup4\n      sload\n      div\n      mul\n      dup4\n      mstore\n      swap2\n      0x20\n      add\n      swap2\n      jump(tag_184)\n    tag_185:\n      dup3\n      add\n      swap2\n      swap1\n      0x00\n      mstore\n      keccak256(0x00, 0x20)\n      swap1\n    tag_186:\n      dup2\n      sload\n      dup2\n      mstore\n      swap1\n      0x01\n      add\n      swap1\n      0x20\n      add\n      dup1\n      dup4\n      gt\n      tag_186\n      jumpi\n      dup3\n      swap1\n      sub\n      0x1f\n      and\n      dup3\n      add\n      swap2\n    tag_184:\n      pop\n      pop\n      pop\n      pop\n      pop\n      swap1\n      pop\n        /* \"@openzeppelin/contracts/token/ERC20/ERC20.sol\":2074:2163  function name() public view virtual returns (string memory) {... */\n      swap1\n      jump\t// out\n        /* \"@openzeppelin/contracts/token/ERC20/ERC20.sol\":4293:4479  function approve(address spender, uint256 value) public virtual returns (bool) {... */\n    tag_53:\n        /* \"@openzeppelin/contracts/token/ERC20/ERC20.sol\":4366:4370  bool */\n      0x00\n        /* \"@openzeppelin/contracts/token/ERC20/ERC20.sol\":4382:4395  address owner */\n      dup1\n        /* \"@openzeppelin/contracts/token/ERC20/ERC20.sol\":4398:4410  _msgSender() */\n      tag_188\n        /* \"@openzeppelin/contracts/token/ERC20/ERC20.sol\":4398:4408  _msgSender */\n      tag_189\n        /* \"@openzeppelin/contracts/token/ERC20/ERC20.sol\":4398:4410  _msgSender() */\n      jump\t// in\n    tag_188:\n        /* \"@openzeppelin/contracts/token/ERC20/ERC20.sol\":4382:4410  address owner = _msgSender() */\n      swap1\n      pop\n        /* \"@openzeppelin/contracts/token/ERC20/ERC20.sol\":4420:4451  _approve(owner, spender, value) */\n      tag_190\n        /* \"@openzeppelin/contracts/token/ERC20/ERC20.sol\":4429:4434  owner */\n      dup2\n        /* \"@openzeppelin/contracts/token/ERC20/ERC20.sol\":4436:4443  spender */\n      dup6\n        /* \"@openzeppelin/contracts/token/ERC20/ERC20.sol\":4445:4450  value */\n      dup6\n        /* \"@openzeppelin/contracts/token/ERC20/ERC20.sol\":4420:4428  _approve */\n      tag_191\n        /* \"@openzeppelin/contracts/token/ERC20/ERC20.sol\":4420:4451  _approve(owner, spender, value) */\n      jump\t// in\n    tag_190:\n        /* \"@openzeppelin/contracts/token/ERC20/ERC20.sol\":4468:4472  true */\n      0x01\n        /* \"@openzeppelin/contracts/token/ERC20/ERC20.sol\":4461:4472  return true */\n      swap2\n      pop\n      pop\n        /* \"@openzeppelin/contracts/token/ERC20/ERC20.sol\":4293:4479  function approve(address spender, uint256 value) public virtual returns (bool) {... */\n      swap3\n      swap2\n      pop\n      pop\n      jump\t// out\n        /* \"@openzeppelin/contracts/token/ERC20/ERC20.sol\":3144:3241  function totalSupply() public view virtual returns (uint256) {... */\n    tag_58:\n        /* \"@openzeppelin/contracts/token/ERC20/ERC20.sol\":3196:3203  uint256 */\n      0x00\n        /* \"@openzeppelin/contracts/token/ERC20/ERC20.sol\":3222:3234  _totalSupply */\n      sload(0x02)\n        /* \"@openzeppelin/contracts/token/ERC20/ERC20.sol\":3215:3234  return _totalSupply */\n      swap1\n      pop\n        /* \"@openzeppelin/contracts/token/ERC20/ERC20.sol\":3144:3241  function totalSupply() public view virtual returns (uint256) {... */\n      swap1\n      jump\t// out\n        /* \"contracts/ERC20Reward.sol\":488:519  address public hyperlaneMailbox */\n    tag_62:\n      0x06\n      0x00\n      swap1\n      sload\n      swap1\n      0x0100\n      exp\n      swap1\n      div\n      0xffffffffffffffffffffffffffffffffffffffff\n      and\n      dup2\n      jump\t// out\n        /* \"contracts/ERC20Reward.sol\":526:574  mapping(uint32 => bytes32) public trustedRemotes */\n    tag_69:\n      mstore(0x20, 0x07)\n      dup1\n      0x00\n      mstore\n      keccak256(0x00, 0x40)\n      0x00\n      swap2\n      pop\n      swap1\n      pop\n      sload\n      dup2\n      jump\t// out\n        /* \"@openzeppelin/contracts/token/ERC20/ERC20.sol\":5039:5283  function transferFrom(address from, address to, uint256 value) public virtual returns (bool) {... */\n    tag_76:\n        /* \"@openzeppelin/contracts/token/ERC20/ERC20.sol\":5126:5130  bool */\n      0x00\n        /* \"@openzeppelin/contracts/token/ERC20/ERC20.sol\":5142:5157  address spender */\n      dup1\n        /* \"@openzeppelin/contracts/token/ERC20/ERC20.sol\":5160:5172  _msgSender() */\n      tag_194\n        /* \"@openzeppelin/contracts/token/ERC20/ERC20.sol\":5160:5170  _msgSender */\n      tag_189\n        /* \"@openzeppelin/contracts/token/ERC20/ERC20.sol\":5160:5172  _msgSender() */\n      jump\t// in\n    tag_194:\n        /* \"@openzeppelin/contracts/token/ERC20/ERC20.sol\":5142:5172  address spender = _msgSender() */\n      swap1\n      pop\n        /* \"@openzeppelin/contracts/token/ERC20/ERC20.sol\":5182:5219  _spendAllowance(from, spender, value) */\n      tag_195\n        /* \"@openzeppelin/contracts/token/ERC20/ERC20.sol\":5198:5202  from */\n      dup6\n        /* \"@openzeppelin/contracts/token/ERC20/ERC20.sol\":5204:5211  spender */\n      dup3\n        /* \"@openzeppelin/contracts/token/ERC20/ERC20.sol\":5213:5218  value */\n      dup6\n        /* \"@openzeppelin/contracts/token/ERC20/ERC20.sol\":5182:5197  _spendAllowance */\n      tag_196\n        /* \"@openzeppelin/contracts/token/ERC20/ERC20.sol\":5182:5219  _spendAllowance(from, spender, value) */\n      jump\t// in\n    tag_195:\n        /* \"@openzeppelin/contracts/token/ERC20/ERC20.sol\":5229:5255  _transfer(from, to, value) */\n      tag_197\n        /* \"@openzeppelin/contracts/token/ERC20/ERC20.sol\":5239:5243  from */\n      dup6\n        /* \"@openzeppelin/contracts/token/ERC20/ERC20.sol\":5245:5247  to */\n      dup6\n        /* \"@openzeppelin/contracts/token/ERC20/ERC20.sol\":5249:5254  value */\n      dup6\n        /* \"@openzeppelin/contracts/token/ERC20/ERC20.sol\":5229:5238  _transfer */\n      tag_198\n        /* \"@openzeppelin/contracts/token/ERC20/ERC20.sol\":5229:5255  _transfer(from, to, value) */\n      jump\t// in\n    tag_197:\n        /* \"@openzeppelin/contracts/token/ERC20/ERC20.sol\":5272:5276  true */\n      0x01\n        /* \"@openzeppelin/contracts/token/ERC20/ERC20.sol\":5265:5276  return true */\n      swap2\n      pop\n      pop\n        /* \"@openzeppelin/contracts/token/ERC20/ERC20.sol\":5039:5283  function transferFrom(address from, address to, uint256 value) public virtual returns (bool) {... */\n      swap4\n      swap3\n      pop\n      pop\n      pop\n      jump\t// out\n        /* \"contracts/ERC20Reward.sol\":1836:1980  function setTrustedRemote(uint32 _domain, bytes32 _trustedRemote) external onlyOwner {... */\n    tag_82:\n        /* \"@openzeppelin/contracts/access/Ownable.sol\":1531:1544  _checkOwner() */\n      tag_200\n        /* \"@openzeppelin/contracts/access/Ownable.sol\":1531:1542  _checkOwner */\n      tag_201\n        /* \"@openzeppelin/contracts/access/Ownable.sol\":1531:1544  _checkOwner() */\n      jump\t// in\n    tag_200:\n        /* \"contracts/ERC20Reward.sol\":1958:1972  _trustedRemote */\n      dup1\n        /* \"contracts/ERC20Reward.sol\":1932:1946  trustedRemotes */\n      0x07\n        /* \"contracts/ERC20Reward.sol\":1932:1955  trustedRemotes[_domain] */\n      0x00\n        /* \"contracts/ERC20Reward.sol\":1947:1954  _domain */\n      dup5\n        /* \"contracts/ERC20Reward.sol\":1932:1955  trustedRemotes[_domain] */\n      0xffffffff\n      and\n      0xffffffff\n      and\n      dup2\n      mstore\n      0x20\n      add\n      swap1\n      dup2\n      mstore\n      0x20\n      add\n      0x00\n      keccak256\n        /* \"contracts/ERC20Reward.sol\":1932:1972  trustedRemotes[_domain] = _trustedRemote */\n      dup2\n      swap1\n      sstore\n      pop\n        /* \"contracts/ERC20Reward.sol\":1836:1980  function setTrustedRemote(uint32 _domain, bytes32 _trustedRemote) external onlyOwner {... */\n      pop\n      pop\n      jump\t// out\n        /* \"@openzeppelin/contracts/token/ERC20/ERC20.sol\":3002:3084  function decimals() public view virtual returns (uint8) {... */\n    tag_85:\n        /* \"@openzeppelin/contracts/token/ERC20/ERC20.sol\":3051:3056  uint8 */\n      0x00\n        /* \"@openzeppelin/contracts/token/ERC20/ERC20.sol\":3075:3077  18 */\n      0x12\n        /* \"@openzeppelin/contracts/token/ERC20/ERC20.sol\":3068:3077  return 18 */\n      swap1\n      pop\n        /* \"@openzeppelin/contracts/token/ERC20/ERC20.sol\":3002:3084  function decimals() public view virtual returns (uint8) {... */\n      swap1\n      jump\t// out\n        /* \"contracts/ERC20Reward.sol\":583:636  uint256 public constant MAX_SUPPLY = 1000000 * 10**18 */\n    tag_90:\n        /* \"contracts/ERC20Reward.sol\":620:636  1000000 * 10**18 */\n      0xd3c21bcecceda1000000\n        /* \"contracts/ERC20Reward.sol\":583:636  uint256 public constant MAX_SUPPLY = 1000000 * 10**18 */\n      dup2\n      jump\t// out\n        /* \"contracts/ERC20Reward.sol\":795:844  mapping(address => uint256) public lastRewardTime */\n    tag_96:\n      mstore(0x20, 0x09)\n      dup1\n      0x00\n      mstore\n      keccak256(0x00, 0x40)\n      0x00\n      swap2\n      pop\n      swap1\n      pop\n      sload\n      dup2\n      jump\t// out\n        /* \"contracts/ERC20Reward.sol\":3514:3579  function unpause() public onlyOwner {... */\n    tag_100:\n        /* \"@openzeppelin/contracts/access/Ownable.sol\":1531:1544  _checkOwner() */\n      tag_205\n        /* \"@openzeppelin/contracts/access/Ownable.sol\":1531:1542  _checkOwner */\n      tag_201\n        /* \"@openzeppelin/contracts/access/Ownable.sol\":1531:1544  _checkOwner() */\n      jump\t// in\n    tag_205:\n        /* \"contracts/ERC20Reward.sol\":3561:3571  _unpause() */\n      tag_207\n        /* \"contracts/ERC20Reward.sol\":3561:3569  _unpause */\n      tag_208\n        /* \"contracts/ERC20Reward.sol\":3561:3571  _unpause() */\n      jump\t// in\n    tag_207:\n        /* \"contracts/ERC20Reward.sol\":3514:3579  function unpause() public onlyOwner {... */\n      jump\t// out\n        /* \"contracts/ERC20Reward.sol\":745:788  mapping(address => bool) public gameMasters */\n    tag_104:\n      mstore(0x20, 0x08)\n      dup1\n      0x00\n      mstore\n      keccak256(0x00, 0x40)\n      0x00\n      swap2\n      pop\n      sload\n      swap1\n      0x0100\n      exp\n      swap1\n      div\n      0xff\n      and\n      dup2\n      jump\t// out\n        /* \"@openzeppelin/contracts/token/ERC20/extensions/ERC20Burnable.sol\":618:705  function burn(uint256 value) public virtual {... */\n    tag_110:\n        /* \"@openzeppelin/contracts/token/ERC20/extensions/ERC20Burnable.sol\":672:698  _burn(_msgSender(), value) */\n      tag_210\n        /* \"@openzeppelin/contracts/token/ERC20/extensions/ERC20Burnable.sol\":678:690  _msgSender() */\n      tag_211\n        /* \"@openzeppelin/contracts/token/ERC20/extensions/ERC20Burnable.sol\":678:688  _msgSender */\n      tag_189\n        /* \"@openzeppelin/contracts/token/ERC20/extensions/ERC20Burnable.sol\":678:690  _msgSender() */\n      jump\t// in\n    tag_211:\n        /* \"@openzeppelin/contracts/token/ERC20/extensions/ERC20Burnable.sol\":692:697  value */\n      dup3\n        /* \"@openzeppelin/contracts/token/ERC20/extensions/ERC20Burnable.sol\":672:677  _burn */\n      tag_212\n        /* \"@openzeppelin/contracts/token/ERC20/extensions/ERC20Burnable.sol\":672:698  _burn(_msgSender(), value) */\n      jump\t// in\n    tag_210:\n        /* \"@openzeppelin/contracts/token/ERC20/extensions/ERC20Burnable.sol\":618:705  function burn(uint256 value) public virtual {... */\n      pop\n      jump\t// out\n        /* \"contracts/ERC20Reward.sol\":1385:1828  function handle(... */\n    tag_114:\n        /* \"@openzeppelin/contracts/utils/Pausable.sol\":1474:1493  _requireNotPaused() */\n      tag_214\n        /* \"@openzeppelin/contracts/utils/Pausable.sol\":1474:1491  _requireNotPaused */\n      tag_215\n        /* \"@openzeppelin/contracts/utils/Pausable.sol\":1474:1493  _requireNotPaused() */\n      jump\t// in\n    tag_214:\n        /* \"contracts/ERC20Reward.sol\":1563:1579  hyperlaneMailbox */\n      0x06\n      0x00\n      swap1\n      sload\n      swap1\n      0x0100\n      exp\n      swap1\n      div\n      0xffffffffffffffffffffffffffffffffffffffff\n      and\n        /* \"contracts/ERC20Reward.sol\":1549:1579  msg.sender == hyperlaneMailbox */\n      0xffffffffffffffffffffffffffffffffffffffff\n      and\n        /* \"contracts/ERC20Reward.sol\":1549:1559  msg.sender */\n      caller\n        /* \"contracts/ERC20Reward.sol\":1549:1579  msg.sender == hyperlaneMailbox */\n      0xffffffffffffffffffffffffffffffffffffffff\n      and\n      eq\n        /* \"contracts/ERC20Reward.sol\":1541:1610  require(msg.sender == hyperlaneMailbox, \"Caller must be the mailbox\") */\n      tag_217\n      jumpi\n      mload(0x40)\n      0x08c379a000000000000000000000000000000000000000000000000000000000\n      dup2\n      mstore\n      0x04\n      add\n      tag_218\n      swap1\n      tag_219\n      jump\t// in\n    tag_218:\n      mload(0x40)\n      dup1\n      swap2\n      sub\n      swap1\n      revert\n    tag_217:\n        /* \"contracts/ERC20Reward.sol\":1640:1654  trustedRemotes */\n      0x07\n        /* \"contracts/ERC20Reward.sol\":1640:1663  trustedRemotes[_origin] */\n      0x00\n        /* \"contracts/ERC20Reward.sol\":1655:1662  _origin */\n      dup6\n        /* \"contracts/ERC20Reward.sol\":1640:1663  trustedRemotes[_origin] */\n      0xffffffff\n      and\n      0xffffffff\n      and\n      dup2\n      mstore\n      0x20\n      add\n      swap1\n      dup2\n      mstore\n      0x20\n      add\n      0x00\n      keccak256\n      sload\n        /* \"contracts/ERC20Reward.sol\":1629:1636  _sender */\n      dup4\n        /* \"contracts/ERC20Reward.sol\":1629:1663  _sender == trustedRemotes[_origin] */\n      eq\n        /* \"contracts/ERC20Reward.sol\":1621:1697  require(_sender == trustedRemotes[_origin], \"Sender must be trusted remote\") */\n      tag_220\n      jumpi\n      mload(0x40)\n      0x08c379a000000000000000000000000000000000000000000000000000000000\n      dup2\n      mstore\n      0x04\n      add\n      tag_221\n      swap1\n      tag_222\n      jump\t// in\n    tag_221:\n      mload(0x40)\n      dup1\n      swap2\n      sub\n      swap1\n      revert\n    tag_220:\n        /* \"contracts/ERC20Reward.sol\":1711:1725  address player */\n      0x00\n        /* \"contracts/ERC20Reward.sol\":1727:1741  uint256 amount */\n      dup1\n        /* \"contracts/ERC20Reward.sol\":1756:1761  _body */\n      dup4\n      dup4\n        /* \"contracts/ERC20Reward.sol\":1745:1782  abi.decode(_body, (address, uint256)) */\n      dup2\n      add\n      swap1\n      tag_223\n      swap2\n      swap1\n      tag_224\n      jump\t// in\n    tag_223:\n        /* \"contracts/ERC20Reward.sol\":1710:1782  (address player, uint256 amount) = abi.decode(_body, (address, uint256)) */\n      swap2\n      pop\n      swap2\n      pop\n        /* \"contracts/ERC20Reward.sol\":1793:1820  _mintReward(player, amount) */\n      tag_225\n        /* \"contracts/ERC20Reward.sol\":1805:1811  player */\n      dup3\n        /* \"contracts/ERC20Reward.sol\":1813:1819  amount */\n      dup3\n        /* \"contracts/ERC20Reward.sol\":1793:1804  _mintReward */\n      tag_226\n        /* \"contracts/ERC20Reward.sol\":1793:1820  _mintReward(player, amount) */\n      jump\t// in\n    tag_225:\n        /* \"contracts/ERC20Reward.sol\":1530:1828  {... */\n      pop\n      pop\n        /* \"contracts/ERC20Reward.sol\":1385:1828  function handle(... */\n      pop\n      pop\n      pop\n      pop\n      jump\t// out\n        /* \"@openzeppelin/contracts/utils/Pausable.sol\":1850:1934  function paused() public view virtual returns (bool) {... */\n    tag_117:\n        /* \"@openzeppelin/contracts/utils/Pausable.sol\":1897:1901  bool */\n      0x00\n        /* \"@openzeppelin/contracts/utils/Pausable.sol\":1920:1927  _paused */\n      0x05\n      0x00\n      swap1\n      sload\n      swap1\n      0x0100\n      exp\n      swap1\n      div\n      0xff\n      and\n        /* \"@openzeppelin/contracts/utils/Pausable.sol\":1913:1927  return _paused */\n      swap1\n      pop\n        /* \"@openzeppelin/contracts/utils/Pausable.sol\":1850:1934  function paused() public view virtual returns (bool) {... */\n      swap1\n      jump\t// out\n        /* \"@openzeppelin/contracts/token/ERC20/ERC20.sol\":3299:3415  function balanceOf(address account) public view virtual returns (uint256) {... */\n    tag_122:\n        /* \"@openzeppelin/contracts/token/ERC20/ERC20.sol\":3364:3371  uint256 */\n      0x00\n        /* \"@openzeppelin/contracts/token/ERC20/ERC20.sol\":3390:3399  _balances */\n      dup1\n        /* \"@openzeppelin/contracts/token/ERC20/ERC20.sol\":3390:3408  _balances[account] */\n      0x00\n        /* \"@openzeppelin/contracts/token/ERC20/ERC20.sol\":3400:3407  account */\n      dup4\n        /* \"@openzeppelin/contracts/token/ERC20/ERC20.sol\":3390:3408  _balances[account] */\n      0xffffffffffffffffffffffffffffffffffffffff\n      and\n      0xffffffffffffffffffffffffffffffffffffffff\n      and\n      dup2\n      mstore\n      0x20\n      add\n      swap1\n      dup2\n      mstore\n      0x20\n      add\n      0x00\n      keccak256\n      sload\n        /* \"@openzeppelin/contracts/token/ERC20/ERC20.sol\":3383:3408  return _balances[account] */\n      swap1\n      pop\n        /* \"@openzeppelin/contracts/token/ERC20/ERC20.sol\":3299:3415  function balanceOf(address account) public view virtual returns (uint256) {... */\n      swap2\n      swap1\n      pop\n      jump\t// out\n        /* \"@openzeppelin/contracts/access/Ownable.sol\":2293:2394  function renounceOwnership() public virtual onlyOwner {... */\n    tag_126:\n        /* \"@openzeppelin/contracts/access/Ownable.sol\":1531:1544  _checkOwner() */\n      tag_230\n        /* \"@openzeppelin/contracts/access/Ownable.sol\":1531:1542  _checkOwner */\n      tag_201\n        /* \"@openzeppelin/contracts/access/Ownable.sol\":1531:1544  _checkOwner() */\n      jump\t// in\n    tag_230:\n        /* \"@openzeppelin/contracts/access/Ownable.sol\":2357:2387  _transferOwnership(address(0)) */\n      tag_232\n        /* \"@openzeppelin/contracts/access/Ownable.sol\":2384:2385  0 */\n      0x00\n        /* \"@openzeppelin/contracts/access/Ownable.sol\":2357:2375  _transferOwnership */\n      tag_233\n        /* \"@openzeppelin/contracts/access/Ownable.sol\":2357:2387  _transferOwnership(address(0)) */\n      jump\t// in\n    tag_232:\n        /* \"@openzeppelin/contracts/access/Ownable.sol\":2293:2394  function renounceOwnership() public virtual onlyOwner {... */\n      jump\t// out\n        /* \"@openzeppelin/contracts/token/ERC20/extensions/ERC20Burnable.sol\":1021:1179  function burnFrom(address account, uint256 value) public virtual {... */\n    tag_130:\n        /* \"@openzeppelin/contracts/token/ERC20/extensions/ERC20Burnable.sol\":1096:1141  _spendAllowance(account, _msgSender(), value) */\n      tag_235\n        /* \"@openzeppelin/contracts/token/ERC20/extensions/ERC20Burnable.sol\":1112:1119  account */\n      dup3\n        /* \"@openzeppelin/contracts/token/ERC20/extensions/ERC20Burnable.sol\":1121:1133  _msgSender() */\n      tag_236\n        /* \"@openzeppelin/contracts/token/ERC20/extensions/ERC20Burnable.sol\":1121:1131  _msgSender */\n      tag_189\n        /* \"@openzeppelin/contracts/token/ERC20/extensions/ERC20Burnable.sol\":1121:1133  _msgSender() */\n      jump\t// in\n    tag_236:\n        /* \"@openzeppelin/contracts/token/ERC20/extensions/ERC20Burnable.sol\":1135:1140  value */\n      dup4\n        /* \"@openzeppelin/contracts/token/ERC20/extensions/ERC20Burnable.sol\":1096:1111  _spendAllowance */\n      tag_196\n        /* \"@openzeppelin/contracts/token/ERC20/extensions/ERC20Burnable.sol\":1096:1141  _spendAllowance(account, _msgSender(), value) */\n      jump\t// in\n    tag_235:\n        /* \"@openzeppelin/contracts/token/ERC20/extensions/ERC20Burnable.sol\":1151:1172  _burn(account, value) */\n      tag_237\n        /* \"@openzeppelin/contracts/token/ERC20/extensions/ERC20Burnable.sol\":1157:1164  account */\n      dup3\n        /* \"@openzeppelin/contracts/token/ERC20/extensions/ERC20Burnable.sol\":1166:1171  value */\n      dup3\n        /* \"@openzeppelin/contracts/token/ERC20/extensions/ERC20Burnable.sol\":1151:1156  _burn */\n      tag_212\n        /* \"@openzeppelin/contracts/token/ERC20/extensions/ERC20Burnable.sol\":1151:1172  _burn(account, value) */\n      jump\t// in\n    tag_237:\n        /* \"@openzeppelin/contracts/token/ERC20/extensions/ERC20Burnable.sol\":1021:1179  function burnFrom(address account, uint256 value) public virtual {... */\n      pop\n      pop\n      jump\t// out\n        /* \"contracts/ERC20Reward.sol\":3445:3506  function pause() public onlyOwner {... */\n    tag_133:\n        /* \"@openzeppelin/contracts/access/Ownable.sol\":1531:1544  _checkOwner() */\n      tag_239\n        /* \"@openzeppelin/contracts/access/Ownable.sol\":1531:1542  _checkOwner */\n      tag_201\n        /* \"@openzeppelin/contracts/access/Ownable.sol\":1531:1544  _checkOwner() */\n      jump\t// in\n    tag_239:\n        /* \"contracts/ERC20Reward.sol\":3490:3498  _pause() */\n      tag_241\n        /* \"contracts/ERC20Reward.sol\":3490:3496  _pause */\n      tag_242\n        /* \"contracts/ERC20Reward.sol\":3490:3498  _pause() */\n      jump\t// in\n    tag_241:\n        /* \"contracts/ERC20Reward.sol\":3445:3506  function pause() public onlyOwner {... */\n      jump\t// out\n        /* \"contracts/ERC20Reward.sol\":2099:2256  function addGameMaster(address _gameMaster) external onlyOwner {... */\n    tag_137:\n        /* \"@openzeppelin/contracts/access/Ownable.sol\":1531:1544  _checkOwner() */\n      tag_244\n        /* \"@openzeppelin/contracts/access/Ownable.sol\":1531:1542  _checkOwner */\n      tag_201\n        /* \"@openzeppelin/contracts/access/Ownable.sol\":1531:1544  _checkOwner() */\n      jump\t// in\n    tag_244:\n        /* \"contracts/ERC20Reward.sol\":2200:2204  true */\n      0x01\n        /* \"contracts/ERC20Reward.sol\":2173:2184  gameMasters */\n      0x08\n        /* \"contracts/ERC20Reward.sol\":2173:2197  gameMasters[_gameMaster] */\n      0x00\n        /* \"contracts/ERC20Reward.sol\":2185:2196  _gameMaster */\n      dup4\n        /* \"contracts/ERC20Reward.sol\":2173:2197  gameMasters[_gameMaster] */\n      0xffffffffffffffffffffffffffffffffffffffff\n      and\n      0xffffffffffffffffffffffffffffffffffffffff\n      and\n      dup2\n      mstore\n      0x20\n      add\n      swap1\n      dup2\n      mstore\n      0x20\n      add\n      0x00\n      keccak256\n      0x00\n        /* \"contracts/ERC20Reward.sol\":2173:2204  gameMasters[_gameMaster] = true */\n      0x0100\n      exp\n      dup2\n      sload\n      dup2\n      0xff\n      mul\n      not\n      and\n      swap1\n      dup4\n      iszero\n      iszero\n      mul\n      or\n      swap1\n      sstore\n      pop\n        /* \"contracts/ERC20Reward.sol\":2236:2247  _gameMaster */\n      dup1\n        /* \"contracts/ERC20Reward.sol\":2220:2248  GameMasterAdded(_gameMaster) */\n      0xffffffffffffffffffffffffffffffffffffffff\n      and\n      0x90e5d96e2f61f1fa8b5c535ec11045a07288f1ee285325f85caf8379789e24\n      mload(0x40)\n      mload(0x40)\n      dup1\n      swap2\n      sub\n      swap1\n      log2\n        /* \"contracts/ERC20Reward.sol\":2099:2256  function addGameMaster(address _gameMaster) external onlyOwner {... */\n      pop\n      jump\t// out\n        /* \"@openzeppelin/contracts/access/Ownable.sol\":1638:1723  function owner() public view virtual returns (address) {... */\n    tag_140:\n        /* \"@openzeppelin/contracts/access/Ownable.sol\":1684:1691  address */\n      0x00\n        /* \"@openzeppelin/contracts/access/Ownable.sol\":1710:1716  _owner */\n      0x05\n      0x01\n      swap1\n      sload\n      swap1\n      0x0100\n      exp\n      swap1\n      div\n      0xffffffffffffffffffffffffffffffffffffffff\n      and\n        /* \"@openzeppelin/contracts/access/Ownable.sol\":1703:1716  return _owner */\n      swap1\n      pop\n        /* \"@openzeppelin/contracts/access/Ownable.sol\":1638:1723  function owner() public view virtual returns (address) {... */\n      swap1\n      jump\t// out\n        /* \"@openzeppelin/contracts/token/ERC20/ERC20.sol\":2276:2369  function symbol() public view virtual returns (string memory) {... */\n    tag_144:\n        /* \"@openzeppelin/contracts/token/ERC20/ERC20.sol\":2323:2336  string memory */\n      0x60\n        /* \"@openzeppelin/contracts/token/ERC20/ERC20.sol\":2355:2362  _symbol */\n      0x04\n        /* \"@openzeppelin/contracts/token/ERC20/ERC20.sol\":2348:2362  return _symbol */\n      dup1\n      sload\n      tag_248\n      swap1\n      tag_182\n      jump\t// in\n    tag_248:\n      dup1\n      0x1f\n      add\n      0x20\n      dup1\n      swap2\n      div\n      mul\n      0x20\n      add\n      mload(0x40)\n      swap1\n      dup2\n      add\n      0x40\n      mstore\n      dup1\n      swap3\n      swap2\n      swap1\n      dup2\n      dup2\n      mstore\n      0x20\n      add\n      dup3\n      dup1\n      sload\n      tag_249\n      swap1\n      tag_182\n      jump\t// in\n    tag_249:\n      dup1\n      iszero\n      tag_250\n      jumpi\n      dup1\n      0x1f\n      lt\n      tag_251\n      jumpi\n      0x0100\n      dup1\n      dup4\n      sload\n      div\n      mul\n      dup4\n      mstore\n      swap2\n      0x20\n      add\n      swap2\n      jump(tag_250)\n    tag_251:\n      dup3\n      add\n      swap2\n      swap1\n      0x00\n      mstore\n      keccak256(0x00, 0x20)\n      swap1\n    tag_252:\n      dup2\n      sload\n      dup2\n      mstore\n      swap1\n      0x01\n      add\n      swap1\n      0x20\n      add\n      dup1\n      dup4\n      gt\n      tag_252\n      jumpi\n      dup3\n      swap1\n      sub\n      0x1f\n      and\n      dup3\n      add\n      swap2\n    tag_250:\n      pop\n      pop\n      pop\n      pop\n      pop\n      swap1\n      pop\n        /* \"@openzeppelin/contracts/token/ERC20/ERC20.sol\":2276:2369  function symbol() public view virtual returns (string memory) {... */\n      swap1\n      jump\t// out\n        /* \"contracts/ERC20Reward.sol\":2435:2575  function mintReward(address _player, uint256 _amount) external onlyGameMaster whenNotPaused {... */\n    tag_149:\n        /* \"contracts/ERC20Reward.sol\":1302:1313  gameMasters */\n      0x08\n        /* \"contracts/ERC20Reward.sol\":1302:1325  gameMasters[msg.sender] */\n      0x00\n        /* \"contracts/ERC20Reward.sol\":1314:1324  msg.sender */\n      caller\n        /* \"contracts/ERC20Reward.sol\":1302:1325  gameMasters[msg.sender] */\n      0xffffffffffffffffffffffffffffffffffffffff\n      and\n      0xffffffffffffffffffffffffffffffffffffffff\n      and\n      dup2\n      mstore\n      0x20\n      add\n      swap1\n      dup2\n      mstore\n      0x20\n      add\n      0x00\n      keccak256\n      0x00\n      swap1\n      sload\n      swap1\n      0x0100\n      exp\n      swap1\n      div\n      0xff\n      and\n        /* \"contracts/ERC20Reward.sol\":1294:1357  require(gameMasters[msg.sender], \"Caller is not a game master\") */\n      tag_254\n      jumpi\n      mload(0x40)\n      0x08c379a000000000000000000000000000000000000000000000000000000000\n      dup2\n      mstore\n      0x04\n      add\n      tag_255\n      swap1\n      tag_256\n      jump\t// in\n    tag_255:\n      mload(0x40)\n      dup1\n      swap2\n      sub\n      swap1\n      revert\n    tag_254:\n        /* \"@openzeppelin/contracts/utils/Pausable.sol\":1474:1493  _requireNotPaused() */\n      tag_258\n        /* \"@openzeppelin/contracts/utils/Pausable.sol\":1474:1491  _requireNotPaused */\n      tag_215\n        /* \"@openzeppelin/contracts/utils/Pausable.sol\":1474:1493  _requireNotPaused() */\n      jump\t// in\n    tag_258:\n        /* \"contracts/ERC20Reward.sol\":2538:2567  _mintReward(_player, _amount) */\n      tag_260\n        /* \"contracts/ERC20Reward.sol\":2550:2557  _player */\n      dup3\n        /* \"contracts/ERC20Reward.sol\":2559:2566  _amount */\n      dup3\n        /* \"contracts/ERC20Reward.sol\":2538:2549  _mintReward */\n      tag_226\n        /* \"contracts/ERC20Reward.sol\":2538:2567  _mintReward(_player, _amount) */\n      jump\t// in\n    tag_260:\n        /* \"contracts/ERC20Reward.sol\":2435:2575  function mintReward(address _player, uint256 _amount) external onlyGameMaster whenNotPaused {... */\n      pop\n      pop\n      jump\t// out\n        /* \"@openzeppelin/contracts/token/ERC20/ERC20.sol\":3610:3788  function transfer(address to, uint256 value) public virtual returns (bool) {... */\n    tag_153:\n        /* \"@openzeppelin/contracts/token/ERC20/ERC20.sol\":3679:3683  bool */\n      0x00\n        /* \"@openzeppelin/contracts/token/ERC20/ERC20.sol\":3695:3708  address owner */\n      dup1\n        /* \"@openzeppelin/contracts/token/ERC20/ERC20.sol\":3711:3723  _msgSender() */\n      tag_262\n        /* \"@openzeppelin/contracts/token/ERC20/ERC20.sol\":3711:3721  _msgSender */\n      tag_189\n        /* \"@openzeppelin/contracts/token/ERC20/ERC20.sol\":3711:3723  _msgSender() */\n      jump\t// in\n    tag_262:\n        /* \"@openzeppelin/contracts/token/ERC20/ERC20.sol\":3695:3723  address owner = _msgSender() */\n      swap1\n      pop\n        /* \"@openzeppelin/contracts/token/ERC20/ERC20.sol\":3733:3760  _transfer(owner, to, value) */\n      tag_263\n        /* \"@openzeppelin/contracts/token/ERC20/ERC20.sol\":3743:3748  owner */\n      dup2\n        /* \"@openzeppelin/contracts/token/ERC20/ERC20.sol\":3750:3752  to */\n      dup6\n        /* \"@openzeppelin/contracts/token/ERC20/ERC20.sol\":3754:3759  value */\n      dup6\n        /* \"@openzeppelin/contracts/token/ERC20/ERC20.sol\":3733:3742  _transfer */\n      tag_198\n        /* \"@openzeppelin/contracts/token/ERC20/ERC20.sol\":3733:3760  _transfer(owner, to, value) */\n      jump\t// in\n    tag_263:\n        /* \"@openzeppelin/contracts/token/ERC20/ERC20.sol\":3777:3781  true */\n      0x01\n        /* \"@openzeppelin/contracts/token/ERC20/ERC20.sol\":3770:3781  return true */\n      swap2\n      pop\n      pop\n        /* \"@openzeppelin/contracts/token/ERC20/ERC20.sol\":3610:3788  function transfer(address to, uint256 value) public virtual returns (bool) {... */\n      swap3\n      swap2\n      pop\n      pop\n      jump\t// out\n        /* \"contracts/ERC20Reward.sol\":663:721  uint256 public constant DAILY_REWARD_LIMIT = 1000 * 10**18 */\n    tag_157:\n        /* \"contracts/ERC20Reward.sol\":708:721  1000 * 10**18 */\n      0x3635c9adc5dea00000\n        /* \"contracts/ERC20Reward.sol\":663:721  uint256 public constant DAILY_REWARD_LIMIT = 1000 * 10**18 */\n      dup2\n      jump\t// out\n        /* \"@openzeppelin/contracts/token/ERC20/ERC20.sol\":3846:3986  function allowance(address owner, address spender) public view virtual returns (uint256) {... */\n    tag_163:\n        /* \"@openzeppelin/contracts/token/ERC20/ERC20.sol\":3926:3933  uint256 */\n      0x00\n        /* \"@openzeppelin/contracts/token/ERC20/ERC20.sol\":3952:3963  _allowances */\n      0x01\n        /* \"@openzeppelin/contracts/token/ERC20/ERC20.sol\":3952:3970  _allowances[owner] */\n      0x00\n        /* \"@openzeppelin/contracts/token/ERC20/ERC20.sol\":3964:3969  owner */\n      dup5\n        /* \"@openzeppelin/contracts/token/ERC20/ERC20.sol\":3952:3970  _allowances[owner] */\n      0xffffffffffffffffffffffffffffffffffffffff\n      and\n      0xffffffffffffffffffffffffffffffffffffffff\n      and\n      dup2\n      mstore\n      0x20\n      add\n      swap1\n      dup2\n      mstore\n      0x20\n      add\n      0x00\n      keccak256\n        /* \"@openzeppelin/contracts/token/ERC20/ERC20.sol\":3952:3979  _allowances[owner][spender] */\n      0x00\n        /* \"@openzeppelin/contracts/token/ERC20/ERC20.sol\":3971:3978  spender */\n      dup4\n        /* \"@openzeppelin/contracts/token/ERC20/ERC20.sol\":3952:3979  _allowances[owner][spender] */\n      0xffffffffffffffffffffffffffffffffffffffff\n      and\n      0xffffffffffffffffffffffffffffffffffffffff\n      and\n      dup2\n      mstore\n      0x20\n      add\n      swap1\n      dup2\n      mstore\n      0x20\n      add\n      0x00\n      keccak256\n      sload\n        /* \"@openzeppelin/contracts/token/ERC20/ERC20.sol\":3945:3979  return _allowances[owner][spender] */\n      swap1\n      pop\n        /* \"@openzeppelin/contracts/token/ERC20/ERC20.sol\":3846:3986  function allowance(address owner, address spender) public view virtual returns (uint256) {... */\n      swap3\n      swap2\n      pop\n      pop\n      jump\t// out\n        /* \"contracts/ERC20Reward.sol\":2264:2427  function removeGameMaster(address _gameMaster) external onlyOwner {... */\n    tag_168:\n        /* \"@openzeppelin/contracts/access/Ownable.sol\":1531:1544  _checkOwner() */\n      tag_266\n        /* \"@openzeppelin/contracts/access/Ownable.sol\":1531:1542  _checkOwner */\n      tag_201\n        /* \"@openzeppelin/contracts/access/Ownable.sol\":1531:1544  _checkOwner() */\n      jump\t// in\n    tag_266:\n        /* \"contracts/ERC20Reward.sol\":2368:2373  false */\n      0x00\n        /* \"contracts/ERC20Reward.sol\":2341:2352  gameMasters */\n      0x08\n        /* \"contracts/ERC20Reward.sol\":2341:2365  gameMasters[_gameMaster] */\n      0x00\n        /* \"contracts/ERC20Reward.sol\":2353:2364  _gameMaster */\n      dup4\n        /* \"contracts/ERC20Reward.sol\":2341:2365  gameMasters[_gameMaster] */\n      0xffffffffffffffffffffffffffffffffffffffff\n      and\n      0xffffffffffffffffffffffffffffffffffffffff\n      and\n      dup2\n      mstore\n      0x20\n      add\n      swap1\n      dup2\n      mstore\n      0x20\n      add\n      0x00\n      keccak256\n      0x00\n        /* \"contracts/ERC20Reward.sol\":2341:2373  gameMasters[_gameMaster] = false */\n      0x0100\n      exp\n      dup2\n      sload\n      dup2\n      0xff\n      mul\n      not\n      and\n      swap1\n      dup4\n      iszero\n      iszero\n      mul\n      or\n      swap1\n      sstore\n      pop\n        /* \"contracts/ERC20Reward.sol\":2407:2418  _gameMaster */\n      dup1\n        /* \"contracts/ERC20Reward.sol\":2389:2419  GameMasterRemoved(_gameMaster) */\n      0xffffffffffffffffffffffffffffffffffffffff\n      and\n      0x22c7af3157a517d9d910083d0cd16646c9204f9d52824a23558c7d97d796d638\n      mload(0x40)\n      mload(0x40)\n      dup1\n      swap2\n      sub\n      swap1\n      log2\n        /* \"contracts/ERC20Reward.sol\":2264:2427  function removeGameMaster(address _gameMaster) external onlyOwner {... */\n      pop\n      jump\t// out\n        /* \"@openzeppelin/contracts/access/Ownable.sol\":2543:2758  function transferOwnership(address newOwner) public virtual onlyOwner {... */\n    tag_172:\n        /* \"@openzeppelin/contracts/access/Ownable.sol\":1531:1544  _checkOwner() */\n      tag_269\n        /* \"@openzeppelin/contracts/access/Ownable.sol\":1531:1542  _checkOwner */\n      tag_201\n        /* \"@openzeppelin/contracts/access/Ownable.sol\":1531:1544  _checkOwner() */\n      jump\t// in\n    tag_269:\n        /* \"@openzeppelin/contracts/access/Ownable.sol\":2647:2648  0 */\n      0x00\n        /* \"@openzeppelin/contracts/access/Ownable.sol\":2627:2649  newOwner == address(0) */\n      0xffffffffffffffffffffffffffffffffffffffff\n      and\n        /* \"@openzeppelin/contracts/access/Ownable.sol\":2627:2635  newOwner */\n      dup2\n        /* \"@openzeppelin/contracts/access/Ownable.sol\":2627:2649  newOwner == address(0) */\n      0xffffffffffffffffffffffffffffffffffffffff\n      and\n      sub\n        /* \"@openzeppelin/contracts/access/Ownable.sol\":2623:2714  if (newOwner == address(0)) {... */\n      tag_271\n      jumpi\n        /* \"@openzeppelin/contracts/access/Ownable.sol\":2700:2701  0 */\n      0x00\n        /* \"@openzeppelin/contracts/access/Ownable.sol\":2672:2703  OwnableInvalidOwner(address(0)) */\n      mload(0x40)\n      0x1e4fbdf700000000000000000000000000000000000000000000000000000000\n      dup2\n      mstore\n      0x04\n      add\n      tag_272\n      swap2\n      swap1\n      tag_64\n      jump\t// in\n    tag_272:\n      mload(0x40)\n      dup1\n      swap2\n      sub\n      swap1\n      revert\n        /* \"@openzeppelin/contracts/access/Ownable.sol\":2623:2714  if (newOwner == address(0)) {... */\n    tag_271:\n        /* \"@openzeppelin/contracts/access/Ownable.sol\":2723:2751  _transferOwnership(newOwner) */\n      tag_273\n        /* \"@openzeppelin/contracts/access/Ownable.sol\":2742:2750  newOwner */\n      dup2\n        /* \"@openzeppelin/contracts/access/Ownable.sol\":2723:2741  _transferOwnership */\n      tag_233\n        /* \"@openzeppelin/contracts/access/Ownable.sol\":2723:2751  _transferOwnership(newOwner) */\n      jump\t// in\n    tag_273:\n        /* \"@openzeppelin/contracts/access/Ownable.sol\":2543:2758  function transferOwnership(address newOwner) public virtual onlyOwner {... */\n      pop\n      jump\t// out\n        /* \"contracts/ERC20Reward.sol\":1988:2091  function setMailbox(address _mailbox) external onlyOwner {... */\n    tag_176:\n        /* \"@openzeppelin/contracts/access/Ownable.sol\":1531:1544  _checkOwner() */\n      tag_275\n        /* \"@openzeppelin/contracts/access/Ownable.sol\":1531:1542  _checkOwner */\n      tag_201\n        /* \"@openzeppelin/contracts/access/Ownable.sol\":1531:1544  _checkOwner() */\n      jump\t// in\n    tag_275:\n        /* \"contracts/ERC20Reward.sol\":2075:2083  _mailbox */\n      dup1\n        /* \"contracts/ERC20Reward.sol\":2056:2072  hyperlaneMailbox */\n      0x06\n      0x00\n        /* \"contracts/ERC20Reward.sol\":2056:2083  hyperlaneMailbox = _mailbox */\n      0x0100\n      exp\n      dup2\n      sload\n      dup2\n      0xffffffffffffffffffffffffffffffffffffffff\n      mul\n      not\n      and\n      swap1\n      dup4\n      0xffffffffffffffffffffffffffffffffffffffff\n      and\n      mul\n      or\n      swap1\n      sstore\n      pop\n        /* \"contracts/ERC20Reward.sol\":1988:2091  function setMailbox(address _mailbox) external onlyOwner {... */\n      pop\n      jump\t// out\n        /* \"@openzeppelin/contracts/utils/Context.sol\":656:752  function _msgSender() internal view virtual returns (address) {... */\n    tag_189:\n        /* \"@openzeppelin/contracts/utils/Context.sol\":709:716  address */\n      0x00\n        /* \"@openzeppelin/contracts/utils/Context.sol\":735:745  msg.sender */\n      caller\n        /* \"@openzeppelin/contracts/utils/Context.sol\":728:745  return msg.sender */\n      swap1\n      pop\n        /* \"@openzeppelin/contracts/utils/Context.sol\":656:752  function _msgSender() internal view virtual returns (address) {... */\n      swap1\n      jump\t// out\n        /* \"@openzeppelin/contracts/token/ERC20/ERC20.sol\":8989:9117  function _approve(address owner, address spender, uint256 value) internal {... */\n    tag_191:\n        /* \"@openzeppelin/contracts/token/ERC20/ERC20.sol\":9073:9110  _approve(owner, spender, value, true) */\n      tag_279\n        /* \"@openzeppelin/contracts/token/ERC20/ERC20.sol\":9082:9087  owner */\n      dup4\n        /* \"@openzeppelin/contracts/token/ERC20/ERC20.sol\":9089:9096  spender */\n      dup4\n        /* \"@openzeppelin/contracts/token/ERC20/ERC20.sol\":9098:9103  value */\n      dup4\n        /* \"@openzeppelin/contracts/token/ERC20/ERC20.sol\":9105:9109  true */\n      0x01\n        /* \"@openzeppelin/contracts/token/ERC20/ERC20.sol\":9073:9081  _approve */\n      tag_280\n        /* \"@openzeppelin/contracts/token/ERC20/ERC20.sol\":9073:9110  _approve(owner, spender, value, true) */\n      jump\t// in\n    tag_279:\n        /* \"@openzeppelin/contracts/token/ERC20/ERC20.sol\":8989:9117  function _approve(address owner, address spender, uint256 value) internal {... */\n      pop\n      pop\n      pop\n      jump\t// out\n        /* \"@openzeppelin/contracts/token/ERC20/ERC20.sol\":10663:11140  function _spendAllowance(address owner, address spender, uint256 value) internal virtual {... */\n    tag_196:\n        /* \"@openzeppelin/contracts/token/ERC20/ERC20.sol\":10762:10786  uint256 currentAllowance */\n      0x00\n        /* \"@openzeppelin/contracts/token/ERC20/ERC20.sol\":10789:10814  allowance(owner, spender) */\n      tag_282\n        /* \"@openzeppelin/contracts/token/ERC20/ERC20.sol\":10799:10804  owner */\n      dup5\n        /* \"@openzeppelin/contracts/token/ERC20/ERC20.sol\":10806:10813  spender */\n      dup5\n        /* \"@openzeppelin/contracts/token/ERC20/ERC20.sol\":10789:10798  allowance */\n      tag_163\n        /* \"@openzeppelin/contracts/token/ERC20/ERC20.sol\":10789:10814  allowance(owner, spender) */\n      jump\t// in\n    tag_282:\n        /* \"@openzeppelin/contracts/token/ERC20/ERC20.sol\":10762:10814  uint256 currentAllowance = allowance(owner, spender) */\n      swap1\n      pop\n        /* \"@openzeppelin/contracts/token/ERC20/ERC20.sol\":10848:10865  type(uint256).max */\n      0xffffffffffffffffffffffffffffffffffffffffffffffffffffffffffffffff\n        /* \"@openzeppelin/contracts/token/ERC20/ERC20.sol\":10828:10844  currentAllowance */\n      dup2\n        /* \"@openzeppelin/contracts/token/ERC20/ERC20.sol\":10828:10865  currentAllowance != type(uint256).max */\n      eq\n        /* \"@openzeppelin/contracts/token/ERC20/ERC20.sol\":10824:11134  if (currentAllowance != type(uint256).max) {... */\n      tag_283\n      jumpi\n        /* \"@openzeppelin/contracts/token/ERC20/ERC20.sol\":10904:10909  value */\n      dup2\n        /* \"@openzeppelin/contracts/token/ERC20/ERC20.sol\":10885:10901  currentAllowance */\n      dup2\n        /* \"@openzeppelin/contracts/token/ERC20/ERC20.sol\":10885:10909  currentAllowance < value */\n      lt\n        /* \"@openzeppelin/contracts/token/ERC20/ERC20.sol\":10881:11011  if (currentAllowance < value) {... */\n      iszero\n      tag_284\n      jumpi\n        /* \"@openzeppelin/contracts/token/ERC20/ERC20.sol\":10963:10970  spender */\n      dup3\n        /* \"@openzeppelin/contracts/token/ERC20/ERC20.sol\":10972:10988  currentAllowance */\n      dup2\n        /* \"@openzeppelin/contracts/token/ERC20/ERC20.sol\":10990:10995  value */\n      dup4\n        /* \"@openzeppelin/contracts/token/ERC20/ERC20.sol\":10936:10996  ERC20InsufficientAllowance(spender, currentAllowance, value) */\n      mload(0x40)\n      0xfb8f41b200000000000000000000000000000000000000000000000000000000\n      dup2\n      mstore\n      0x04\n      add\n      tag_285\n      swap4\n      swap3\n      swap2\n      swap1\n      tag_286\n      jump\t// in\n    tag_285:\n      mload(0x40)\n      dup1\n      swap2\n      sub\n      swap1\n      revert\n        /* \"@openzeppelin/contracts/token/ERC20/ERC20.sol\":10881:11011  if (currentAllowance < value) {... */\n    tag_284:\n        /* \"@openzeppelin/contracts/token/ERC20/ERC20.sol\":11052:11109  _approve(owner, spender, currentAllowance - value, false) */\n      tag_287\n        /* \"@openzeppelin/contracts/token/ERC20/ERC20.sol\":11061:11066  owner */\n      dup5\n        /* \"@openzeppelin/contracts/token/ERC20/ERC20.sol\":11068:11075  spender */\n      dup5\n        /* \"@openzeppelin/contracts/token/ERC20/ERC20.sol\":11096:11101  value */\n      dup5\n        /* \"@openzeppelin/contracts/token/ERC20/ERC20.sol\":11077:11093  currentAllowance */\n      dup5\n        /* \"@openzeppelin/contracts/token/ERC20/ERC20.sol\":11077:11101  currentAllowance - value */\n      sub\n        /* \"@openzeppelin/contracts/token/ERC20/ERC20.sol\":11103:11108  false */\n      0x00\n        /* \"@openzeppelin/contracts/token/ERC20/ERC20.sol\":11052:11060  _approve */\n      tag_280\n        /* \"@openzeppelin/contracts/token/ERC20/ERC20.sol\":11052:11109  _approve(owner, spender, currentAllowance - value, false) */\n      jump\t// in\n    tag_287:\n        /* \"@openzeppelin/contracts/token/ERC20/ERC20.sol\":10824:11134  if (currentAllowance != type(uint256).max) {... */\n    tag_283:\n        /* \"@openzeppelin/contracts/token/ERC20/ERC20.sol\":10752:11140  {... */\n      pop\n        /* \"@openzeppelin/contracts/token/ERC20/ERC20.sol\":10663:11140  function _spendAllowance(address owner, address spender, uint256 value) internal virtual {... */\n      pop\n      pop\n      pop\n      jump\t// out\n        /* \"@openzeppelin/contracts/token/ERC20/ERC20.sol\":5656:5956  function _transfer(address from, address to, uint256 value) internal {... */\n    tag_198:\n        /* \"@openzeppelin/contracts/token/ERC20/ERC20.sol\":5755:5756  0 */\n      0x00\n        /* \"@openzeppelin/contracts/token/ERC20/ERC20.sol\":5739:5757  from == address(0) */\n      0xffffffffffffffffffffffffffffffffffffffff\n      and\n        /* \"@openzeppelin/contracts/token/ERC20/ERC20.sol\":5739:5743  from */\n      dup4\n        /* \"@openzeppelin/contracts/token/ERC20/ERC20.sol\":5739:5757  from == address(0) */\n      0xffffffffffffffffffffffffffffffffffffffff\n      and\n      sub\n        /* \"@openzeppelin/contracts/token/ERC20/ERC20.sol\":5735:5821  if (from == address(0)) {... */\n      tag_289\n      jumpi\n        /* \"@openzeppelin/contracts/token/ERC20/ERC20.sol\":5807:5808  0 */\n      0x00\n        /* \"@openzeppelin/contracts/token/ERC20/ERC20.sol\":5780:5810  ERC20InvalidSender(address(0)) */\n      mload(0x40)\n      0x96c6fd1e00000000000000000000000000000000000000000000000000000000\n      dup2\n      mstore\n      0x04\n      add\n      tag_290\n      swap2\n      swap1\n      tag_64\n      jump\t// in\n    tag_290:\n      mload(0x40)\n      dup1\n      swap2\n      sub\n      swap1\n      revert\n        /* \"@openzeppelin/contracts/token/ERC20/ERC20.sol\":5735:5821  if (from == address(0)) {... */\n    tag_289:\n        /* \"@openzeppelin/contracts/token/ERC20/ERC20.sol\":5848:5849  0 */\n      0x00\n        /* \"@openzeppelin/contracts/token/ERC20/ERC20.sol\":5834:5850  to == address(0) */\n      0xffffffffffffffffffffffffffffffffffffffff\n      and\n        /* \"@openzeppelin/contracts/token/ERC20/ERC20.sol\":5834:5836  to */\n      dup3\n        /* \"@openzeppelin/contracts/token/ERC20/ERC20.sol\":5834:5850  to == address(0) */\n      0xffffffffffffffffffffffffffffffffffffffff\n      and\n      sub\n        /* \"@openzeppelin/contracts/token/ERC20/ERC20.sol\":5830:5916  if (to == address(0)) {... */\n      tag_291\n      jumpi\n        /* \"@openzeppelin/contracts/token/ERC20/ERC20.sol\":5902:5903  0 */\n      0x00\n        /* \"@openzeppelin/contracts/token/ERC20/ERC20.sol\":5873:5905  ERC20InvalidReceiver(address(0)) */\n      mload(0x40)\n      0xec442f0500000000000000000000000000000000000000000000000000000000\n      dup2\n      mstore\n      0x04\n      add\n      tag_292\n      swap2\n      swap1\n      tag_64\n      jump\t// in\n    tag_292:\n      mload(0x40)\n      dup1\n      swap2\n      sub\n      swap1\n      revert\n        /* \"@openzeppelin/contracts/token/ERC20/ERC20.sol\":5830:5916  if (to == address(0)) {... */\n    tag_291:\n        /* \"@openzeppelin/contracts/token/ERC20/ERC20.sol\":5925:5949  _update(from, to, value) */\n      tag_293\n        /* \"@openzeppelin/contracts/token/ERC20/ERC20.sol\":5933:5937  from */\n      dup4\n        /* \"@openzeppelin/contracts/token/ERC20/ERC20.sol\":5939:5941  to */\n      dup4\n        /* \"@openzeppelin/contracts/token/ERC20/ERC20.sol\":5943:5948  value */\n      dup4\n        /* \"@openzeppelin/contracts/token/ERC20/ERC20.sol\":5925:5932  _update */\n      tag_294\n        /* \"@openzeppelin/contracts/token/ERC20/ERC20.sol\":5925:5949  _update(from, to, value) */\n      jump\t// in\n    tag_293:\n        /* \"@openzeppelin/contracts/token/ERC20/ERC20.sol\":5656:5956  function _transfer(address from, address to, uint256 value) internal {... */\n      pop\n      pop\n      pop\n      jump\t// out\n        /* \"@openzeppelin/contracts/access/Ownable.sol\":1796:1958  function _checkOwner() internal view virtual {... */\n    tag_201:\n        /* \"@openzeppelin/contracts/access/Ownable.sol\":1866:1878  _msgSender() */\n      tag_296\n        /* \"@openzeppelin/contracts/access/Ownable.sol\":1866:1876  _msgSender */\n      tag_189\n        /* \"@openzeppelin/contracts/access/Ownable.sol\":1866:1878  _msgSender() */\n      jump\t// in\n    tag_296:\n        /* \"@openzeppelin/contracts/access/Ownable.sol\":1855:1878  owner() != _msgSender() */\n      0xffffffffffffffffffffffffffffffffffffffff\n      and\n        /* \"@openzeppelin/contracts/access/Ownable.sol\":1855:1862  owner() */\n      tag_297\n        /* \"@openzeppelin/contracts/access/Ownable.sol\":1855:1860  owner */\n      tag_140\n        /* \"@openzeppelin/contracts/access/Ownable.sol\":1855:1862  owner() */\n      jump\t// in\n    tag_297:\n        /* \"@openzeppelin/contracts/access/Ownable.sol\":1855:1878  owner() != _msgSender() */\n      0xffffffffffffffffffffffffffffffffffffffff\n      and\n      eq\n        /* \"@openzeppelin/contracts/access/Ownable.sol\":1851:1952  if (owner() != _msgSender()) {... */\n      tag_298\n      jumpi\n        /* \"@openzeppelin/contracts/access/Ownable.sol\":1928:1940  _msgSender() */\n      tag_299\n        /* \"@openzeppelin/contracts/access/Ownable.sol\":1928:1938  _msgSender */\n      tag_189\n        /* \"@openzeppelin/contracts/access/Ownable.sol\":1928:1940  _msgSender() */\n      jump\t// in\n    tag_299:\n        /* \"@openzeppelin/contracts/access/Ownable.sol\":1901:1941  OwnableUnauthorizedAccount(_msgSender()) */\n      mload(0x40)\n      0x118cdaa700000000000000000000000000000000000000000000000000000000\n      dup2\n      mstore\n      0x04\n      add\n      tag_300\n      swap2\n      swap1\n      tag_64\n      jump\t// in\n    tag_300:\n      mload(0x40)\n      dup1\n      swap2\n      sub\n      swap1\n      revert\n        /* \"@openzeppelin/contracts/access/Ownable.sol\":1851:1952  if (owner() != _msgSender()) {... */\n    tag_298:\n        /* \"@openzeppelin/contracts/access/Ownable.sol\":1796:1958  function _checkOwner() internal view virtual {... */\n      jump\t// out\n        /* \"@openzeppelin/contracts/utils/Pausable.sol\":2710:2827  function _unpause() internal virtual whenPaused {... */\n    tag_208:\n        /* \"@openzeppelin/contracts/utils/Pausable.sol\":1721:1737  _requirePaused() */\n      tag_302\n        /* \"@openzeppelin/contracts/utils/Pausable.sol\":1721:1735  _requirePaused */\n      tag_303\n        /* \"@openzeppelin/contracts/utils/Pausable.sol\":1721:1737  _requirePaused() */\n      jump\t// in\n    tag_302:\n        /* \"@openzeppelin/contracts/utils/Pausable.sol\":2778:2783  false */\n      0x00\n        /* \"@openzeppelin/contracts/utils/Pausable.sol\":2768:2775  _paused */\n      0x05\n      0x00\n        /* \"@openzeppelin/contracts/utils/Pausable.sol\":2768:2783  _paused = false */\n      0x0100\n      exp\n      dup2\n      sload\n      dup2\n      0xff\n      mul\n      not\n      and\n      swap1\n      dup4\n      iszero\n      iszero\n      mul\n      or\n      swap1\n      sstore\n      pop\n        /* \"@openzeppelin/contracts/utils/Pausable.sol\":2798:2820  Unpaused(_msgSender()) */\n      0x5db9ee0a495bf2e6ff9c91a7834c1ba4fdd244a5e8aa4e537bd38aeae4b073aa\n        /* \"@openzeppelin/contracts/utils/Pausable.sol\":2807:2819  _msgSender() */\n      tag_305\n        /* \"@openzeppelin/contracts/utils/Pausable.sol\":2807:2817  _msgSender */\n      tag_189\n        /* \"@openzeppelin/contracts/utils/Pausable.sol\":2807:2819  _msgSender() */\n      jump\t// in\n    tag_305:\n        /* \"@openzeppelin/contracts/utils/Pausable.sol\":2798:2820  Unpaused(_msgSender()) */\n      mload(0x40)\n      tag_306\n      swap2\n      swap1\n      tag_64\n      jump\t// in\n    tag_306:\n      mload(0x40)\n      dup1\n      swap2\n      sub\n      swap1\n      log1\n        /* \"@openzeppelin/contracts/utils/Pausable.sol\":2710:2827  function _unpause() internal virtual whenPaused {... */\n      jump\t// out\n        /* \"@openzeppelin/contracts/token/ERC20/ERC20.sol\":8247:8453  function _burn(address account, uint256 value) internal {... */\n    tag_212:\n        /* \"@openzeppelin/contracts/token/ERC20/ERC20.sol\":8336:8337  0 */\n      0x00\n        /* \"@openzeppelin/contracts/token/ERC20/ERC20.sol\":8317:8338  account == address(0) */\n      0xffffffffffffffffffffffffffffffffffffffff\n      and\n        /* \"@openzeppelin/contracts/token/ERC20/ERC20.sol\":8317:8324  account */\n      dup3\n        /* \"@openzeppelin/contracts/token/ERC20/ERC20.sol\":8317:8338  account == address(0) */\n      0xffffffffffffffffffffffffffffffffffffffff\n      and\n      sub\n        /* \"@openzeppelin/contracts/token/ERC20/ERC20.sol\":8313:8402  if (account == address(0)) {... */\n      tag_308\n      jumpi\n        /* \"@openzeppelin/contracts/token/ERC20/ERC20.sol\":8388:8389  0 */\n      0x00\n        /* \"@openzeppelin/contracts/token/ERC20/ERC20.sol\":8361:8391  ERC20InvalidSender(address(0)) */\n      mload(0x40)\n      0x96c6fd1e00000000000000000000000000000000000000000000000000000000\n      dup2\n      mstore\n      0x04\n      add\n      tag_309\n      swap2\n      swap1\n      tag_64\n      jump\t// in\n    tag_309:\n      mload(0x40)\n      dup1\n      swap2\n      sub\n      swap1\n      revert\n        /* \"@openzeppelin/contracts/token/ERC20/ERC20.sol\":8313:8402  if (account == address(0)) {... */\n    tag_308:\n        /* \"@openzeppelin/contracts/token/ERC20/ERC20.sol\":8411:8446  _update(account, address(0), value) */\n      tag_310\n        /* \"@openzeppelin/contracts/token/ERC20/ERC20.sol\":8419:8426  account */\n      dup3\n        /* \"@openzeppelin/contracts/token/ERC20/ERC20.sol\":8436:8437  0 */\n      0x00\n        /* \"@openzeppelin/contracts/token/ERC20/ERC20.sol\":8440:8445  value */\n      dup4\n        /* \"@openzeppelin/contracts/token/ERC20/ERC20.sol\":8411:8418  _update */\n      tag_294\n        /* \"@openzeppelin/contracts/token/ERC20/ERC20.sol\":8411:8446  _update(account, address(0), value) */\n      jump\t// in\n    tag_310:\n        /* \"@openzeppelin/contracts/token/ERC20/ERC20.sol\":8247:8453  function _burn(address account, uint256 value) internal {... */\n      pop\n      pop\n      jump\t// out\n        /* \"@openzeppelin/contracts/utils/Pausable.sol\":2002:2130  function _requireNotPaused() internal view virtual {... */\n    tag_215:\n        /* \"@openzeppelin/contracts/utils/Pausable.sol\":2067:2075  paused() */\n      tag_312\n        /* \"@openzeppelin/contracts/utils/Pausable.sol\":2067:2073  paused */\n      tag_117\n        /* \"@openzeppelin/contracts/utils/Pausable.sol\":2067:2075  paused() */\n      jump\t// in\n    tag_312:\n        /* \"@openzeppelin/contracts/utils/Pausable.sol\":2063:2124  if (paused()) {... */\n      iszero\n      tag_313\n      jumpi\n        /* \"@openzeppelin/contracts/utils/Pausable.sol\":2098:2113  EnforcedPause() */\n      mload(0x40)\n      0xd93c066500000000000000000000000000000000000000000000000000000000\n      dup2\n      mstore\n      0x04\n      add\n      mload(0x40)\n      dup1\n      swap2\n      sub\n      swap1\n      revert\n        /* \"@openzeppelin/contracts/utils/Pausable.sol\":2063:2124  if (paused()) {... */\n    tag_313:\n        /* \"@openzeppelin/contracts/utils/Pausable.sol\":2002:2130  function _requireNotPaused() internal view virtual {... */\n      jump\t// out\n        /* \"contracts/ERC20Reward.sol\":2583:3048  function _mintReward(address _player, uint256 _amount) internal {... */\n    tag_226:\n        /* \"contracts/ERC20Reward.sol\":620:636  1000000 * 10**18 */\n      0xd3c21bcecceda1000000\n        /* \"contracts/ERC20Reward.sol\":2682:2689  _amount */\n      dup2\n        /* \"contracts/ERC20Reward.sol\":2666:2679  totalSupply() */\n      tag_315\n        /* \"contracts/ERC20Reward.sol\":2666:2677  totalSupply */\n      tag_58\n        /* \"contracts/ERC20Reward.sol\":2666:2679  totalSupply() */\n      jump\t// in\n    tag_315:\n        /* \"contracts/ERC20Reward.sol\":2666:2689  totalSupply() + _amount */\n      tag_316\n      swap2\n      swap1\n      tag_179\n      jump\t// in\n    tag_316:\n        /* \"contracts/ERC20Reward.sol\":2666:2703  totalSupply() + _amount <= MAX_SUPPLY */\n      gt\n      iszero\n        /* \"contracts/ERC20Reward.sol\":2658:2726  require(totalSupply() + _amount <= MAX_SUPPLY, \"Max supply reached\") */\n      tag_317\n      jumpi\n      mload(0x40)\n      0x08c379a000000000000000000000000000000000000000000000000000000000\n      dup2\n      mstore\n      0x04\n      add\n      tag_318\n      swap1\n      tag_319\n      jump\t// in\n    tag_318:\n      mload(0x40)\n      dup1\n      swap2\n      sub\n      swap1\n      revert\n    tag_317:\n        /* \"contracts/ERC20Reward.sol\":2790:2796  1 days */\n      0x015180\n        /* \"contracts/ERC20Reward.sol\":2763:2777  lastRewardTime */\n      0x09\n        /* \"contracts/ERC20Reward.sol\":2763:2786  lastRewardTime[_player] */\n      0x00\n        /* \"contracts/ERC20Reward.sol\":2778:2785  _player */\n      dup5\n        /* \"contracts/ERC20Reward.sol\":2763:2786  lastRewardTime[_player] */\n      0xffffffffffffffffffffffffffffffffffffffff\n      and\n      0xffffffffffffffffffffffffffffffffffffffff\n      and\n      dup2\n      mstore\n      0x20\n      add\n      swap1\n      dup2\n      mstore\n      0x20\n      add\n      0x00\n      keccak256\n      sload\n        /* \"contracts/ERC20Reward.sol\":2745:2760  block.timestamp */\n      timestamp\n        /* \"contracts/ERC20Reward.sol\":2745:2786  block.timestamp - lastRewardTime[_player] */\n      tag_320\n      swap2\n      swap1\n      tag_321\n      jump\t// in\n    tag_320:\n        /* \"contracts/ERC20Reward.sol\":2745:2796  block.timestamp - lastRewardTime[_player] >= 1 days */\n      lt\n      iszero\n        /* \"contracts/ERC20Reward.sol\":2737:2827  require(block.timestamp - lastRewardTime[_player] >= 1 days, \"Daily reward limit reached\") */\n      tag_322\n      jumpi\n      mload(0x40)\n      0x08c379a000000000000000000000000000000000000000000000000000000000\n      dup2\n      mstore\n      0x04\n      add\n      tag_323\n      swap1\n      tag_324\n      jump\t// in\n    tag_323:\n      mload(0x40)\n      dup1\n      swap2\n      sub\n      swap1\n      revert\n    tag_322:\n        /* \"contracts/ERC20Reward.sol\":708:721  1000 * 10**18 */\n      0x3635c9adc5dea00000\n        /* \"contracts/ERC20Reward.sol\":2846:2853  _amount */\n      dup2\n        /* \"contracts/ERC20Reward.sol\":2846:2875  _amount <= DAILY_REWARD_LIMIT */\n      gt\n      iszero\n        /* \"contracts/ERC20Reward.sol\":2838:2906  require(_amount <= DAILY_REWARD_LIMIT, \"Reward exceeds daily limit\") */\n      tag_325\n      jumpi\n      mload(0x40)\n      0x08c379a000000000000000000000000000000000000000000000000000000000\n      dup2\n      mstore\n      0x04\n      add\n      tag_326\n      swap1\n      tag_327\n      jump\t// in\n    tag_326:\n      mload(0x40)\n      dup1\n      swap2\n      sub\n      swap1\n      revert\n    tag_325:\n        /* \"contracts/ERC20Reward.sol\":2919:2942  _mint(_player, _amount) */\n      tag_328\n        /* \"contracts/ERC20Reward.sol\":2925:2932  _player */\n      dup3\n        /* \"contracts/ERC20Reward.sol\":2934:2941  _amount */\n      dup3\n        /* \"contracts/ERC20Reward.sol\":2919:2924  _mint */\n      tag_329\n        /* \"contracts/ERC20Reward.sol\":2919:2942  _mint(_player, _amount) */\n      jump\t// in\n    tag_328:\n        /* \"contracts/ERC20Reward.sol\":2979:2994  block.timestamp */\n      timestamp\n        /* \"contracts/ERC20Reward.sol\":2953:2967  lastRewardTime */\n      0x09\n        /* \"contracts/ERC20Reward.sol\":2953:2976  lastRewardTime[_player] */\n      0x00\n        /* \"contracts/ERC20Reward.sol\":2968:2975  _player */\n      dup5\n        /* \"contracts/ERC20Reward.sol\":2953:2976  lastRewardTime[_player] */\n      0xffffffffffffffffffffffffffffffffffffffff\n      and\n      0xffffffffffffffffffffffffffffffffffffffff\n      and\n      dup2\n      mstore\n      0x20\n      add\n      swap1\n      dup2\n      mstore\n      0x20\n      add\n      0x00\n      keccak256\n        /* \"contracts/ERC20Reward.sol\":2953:2994  lastRewardTime[_player] = block.timestamp */\n      dup2\n      swap1\n      sstore\n      pop\n        /* \"contracts/ERC20Reward.sol\":3023:3030  _player */\n      dup2\n        /* \"contracts/ERC20Reward.sol\":3010:3040  RewardMinted(_player, _amount) */\n      0xffffffffffffffffffffffffffffffffffffffff\n      and\n      0xe8ea3d4dd0a2eaaf3f7532ad391255544f8a4bcf78f850bbff61d5bac9f77552\n        /* \"contracts/ERC20Reward.sol\":3032:3039  _amount */\n      dup3\n        /* \"contracts/ERC20Reward.sol\":3010:3040  RewardMinted(_player, _amount) */\n      mload(0x40)\n      tag_330\n      swap2\n      swap1\n      tag_43\n      jump\t// in\n    tag_330:\n      mload(0x40)\n      dup1\n      swap2\n      sub\n      swap1\n      log2\n        /* \"contracts/ERC20Reward.sol\":2583:3048  function _mintReward(address _player, uint256 _amount) internal {... */\n      pop\n      pop\n      jump\t// out\n        /* \"@openzeppelin/contracts/access/Ownable.sol\":2912:3099  function _transferOwnership(address newOwner) internal virtual {... */\n    tag_233:\n        /* \"@openzeppelin/contracts/access/Ownable.sol\":2985:3001  address oldOwner */\n      0x00\n        /* \"@openzeppelin/contracts/access/Ownable.sol\":3004:3010  _owner */\n      0x05\n      0x01\n      swap1\n      sload\n      swap1\n      0x0100\n      exp\n      swap1\n      div\n      0xffffffffffffffffffffffffffffffffffffffff\n      and\n        /* \"@openzeppelin/contracts/access/Ownable.sol\":2985:3010  address oldOwner = _owner */\n      swap1\n      pop\n        /* \"@openzeppelin/contracts/access/Ownable.sol\":3029:3037  newOwner */\n      dup2\n        /* \"@openzeppelin/contracts/access/Ownable.sol\":3020:3026  _owner */\n      0x05\n      0x01\n        /* \"@openzeppelin/contracts/access/Ownable.sol\":3020:3037  _owner = newOwner */\n      0x0100\n      exp\n      dup2\n      sload\n      dup2\n      0xffffffffffffffffffffffffffffffffffffffff\n      mul\n      not\n      and\n      swap1\n      dup4\n      0xffffffffffffffffffffffffffffffffffffffff\n      and\n      mul\n      or\n      swap1\n      sstore\n      pop\n        /* \"@openzeppelin/contracts/access/Ownable.sol\":3083:3091  newOwner */\n      dup2\n        /* \"@openzeppelin/contracts/access/Ownable.sol\":3052:3092  OwnershipTransferred(oldOwner, newOwner) */\n      0xffffffffffffffffffffffffffffffffffffffff\n      and\n        /* \"@openzeppelin/contracts/access/Ownable.sol\":3073:3081  oldOwner */\n      dup2\n        /* \"@openzeppelin/contracts/access/Ownable.sol\":3052:3092  OwnershipTransferred(oldOwner, newOwner) */\n      0xffffffffffffffffffffffffffffffffffffffff\n      and\n      0x8be0079c531659141344cd1fd0a4f28419497f9722a3daafe3b4186f6b6457e0\n      mload(0x40)\n      mload(0x40)\n      dup1\n      swap2\n      sub\n      swap1\n      log3\n        /* \"@openzeppelin/contracts/access/Ownable.sol\":2975:3099  {... */\n      pop\n        /* \"@openzeppelin/contracts/access/Ownable.sol\":2912:3099  function _transferOwnership(address newOwner) internal virtual {... */\n      pop\n      jump\t// out\n        /* \"@openzeppelin/contracts/utils/Pausable.sol\":2463:2578  function _pause() internal virtual whenNotPaused {... */\n    tag_242:\n        /* \"@openzeppelin/contracts/utils/Pausable.sol\":1474:1493  _requireNotPaused() */\n      tag_333\n        /* \"@openzeppelin/contracts/utils/Pausable.sol\":1474:1491  _requireNotPaused */\n      tag_215\n        /* \"@openzeppelin/contracts/utils/Pausable.sol\":1474:1493  _requireNotPaused() */\n      jump\t// in\n    tag_333:\n        /* \"@openzeppelin/contracts/utils/Pausable.sol\":2532:2536  true */\n      0x01\n        /* \"@openzeppelin/contracts/utils/Pausable.sol\":2522:2529  _paused */\n      0x05\n      0x00\n        /* \"@openzeppelin/contracts/utils/Pausable.sol\":2522:2536  _paused = true */\n      0x0100\n      exp\n      dup2\n      sload\n      dup2\n      0xff\n      mul\n      not\n      and\n      swap1\n      dup4\n      iszero\n      iszero\n      mul\n      or\n      swap1\n      sstore\n      pop\n        /* \"@openzeppelin/contracts/utils/Pausable.sol\":2551:2571  Paused(_msgSender()) */\n      0x62e78cea01bee320cd4e420270b5ea74000d11b0c9f74754ebdbfc544b05a258\n        /* \"@openzeppelin/contracts/utils/Pausable.sol\":2558:2570  _msgSender() */\n      tag_335\n        /* \"@openzeppelin/contracts/utils/Pausable.sol\":2558:2568  _msgSender */\n      tag_189\n        /* \"@openzeppelin/contracts/utils/Pausable.sol\":2558:2570  _msgSender() */\n      jump\t// in\n    tag_335:\n        /* \"@openzeppelin/contracts/utils/Pausable.sol\":2551:2571  Paused(_msgSender()) */\n      mload(0x40)\n      tag_336\n      swap2\n      swap1\n      tag_64\n      jump\t// in\n    tag_336:\n      mload(0x40)\n      dup1\n      swap2\n      sub\n      swap1\n      log1\n        /* \"@openzeppelin/contracts/utils/Pausable.sol\":2463:2578  function _pause() internal virtual whenNotPaused {... */\n      jump\t// out\n        /* \"@openzeppelin/contracts/token/ERC20/ERC20.sol\":9949:10381  function _approve(address owner, address spender, uint256 value, bool emitEvent) internal virtual {... */\n    tag_280:\n        /* \"@openzeppelin/contracts/token/ERC20/ERC20.sol\":10078:10079  0 */\n      0x00\n        /* \"@openzeppelin/contracts/token/ERC20/ERC20.sol\":10061:10080  owner == address(0) */\n      0xffffffffffffffffffffffffffffffffffffffff\n      and\n        /* \"@openzeppelin/contracts/token/ERC20/ERC20.sol\":10061:10066  owner */\n      dup5\n        /* \"@openzeppelin/contracts/token/ERC20/ERC20.sol\":10061:10080  owner == address(0) */\n      0xffffffffffffffffffffffffffffffffffffffff\n      and\n      sub\n        /* \"@openzeppelin/contracts/token/ERC20/ERC20.sol\":10057:10146  if (owner == address(0)) {... */\n      tag_338\n      jumpi\n        /* \"@openzeppelin/contracts/token/ERC20/ERC20.sol\":10132:10133  0 */\n      0x00\n        /* \"@openzeppelin/contracts/token/ERC20/ERC20.sol\":10103:10135  ERC20InvalidApprover(address(0)) */\n      mload(0x40)\n      0xe602df0500000000000000000000000000000000000000000000000000000000\n      dup2\n      mstore\n      0x04\n      add\n      tag_339\n      swap2\n      swap1\n      tag_64\n      jump\t// in\n    tag_339:\n      mload(0x40)\n      dup1\n      swap2\n      sub\n      swap1\n      revert\n        /* \"@openzeppelin/contracts/token/ERC20/ERC20.sol\":10057:10146  if (owner == address(0)) {... */\n    tag_338:\n        /* \"@openzeppelin/contracts/token/ERC20/ERC20.sol\":10178:10179  0 */\n      0x00\n        /* \"@openzeppelin/contracts/token/ERC20/ERC20.sol\":10159:10180  spender == address(0) */\n      0xffffffffffffffffffffffffffffffffffffffff\n      and\n        /* \"@openzeppelin/contracts/token/ERC20/ERC20.sol\":10159:10166  spender */\n      dup4\n        /* \"@openzeppelin/contracts/token/ERC20/ERC20.sol\":10159:10180  spender == address(0) */\n      0xffffffffffffffffffffffffffffffffffffffff\n      and\n      sub\n        /* \"@openzeppelin/contracts/token/ERC20/ERC20.sol\":10155:10245  if (spender == address(0)) {... */\n      tag_340\n      jumpi\n        /* \"@openzeppelin/contracts/token/ERC20/ERC20.sol\":10231:10232  0 */\n      0x00\n        /* \"@openzeppelin/contracts/token/ERC20/ERC20.sol\":10203:10234  ERC20InvalidSpender(address(0)) */\n      mload(0x40)\n      0x94280d6200000000000000000000000000000000000000000000000000000000\n      dup2\n      mstore\n      0x04\n      add\n      tag_341\n      swap2\n      swap1\n      tag_64\n      jump\t// in\n    tag_341:\n      mload(0x40)\n      dup1\n      swap2\n      sub\n      swap1\n      revert\n        /* \"@openzeppelin/contracts/token/ERC20/ERC20.sol\":10155:10245  if (spender == address(0)) {... */\n    tag_340:\n        /* \"@openzeppelin/contracts/token/ERC20/ERC20.sol\":10284:10289  value */\n      dup2\n        /* \"@openzeppelin/contracts/token/ERC20/ERC20.sol\":10254:10265  _allowances */\n      0x01\n        /* \"@openzeppelin/contracts/token/ERC20/ERC20.sol\":10254:10272  _allowances[owner] */\n      0x00\n        /* \"@openzeppelin/contracts/token/ERC20/ERC20.sol\":10266:10271  owner */\n      dup7\n        /* \"@openzeppelin/contracts/token/ERC20/ERC20.sol\":10254:10272  _allowances[owner] */\n      0xffffffffffffffffffffffffffffffffffffffff\n      and\n      0xffffffffffffffffffffffffffffffffffffffff\n      and\n      dup2\n      mstore\n      0x20\n      add\n      swap1\n      dup2\n      mstore\n      0x20\n      add\n      0x00\n      keccak256\n        /* \"@openzeppelin/contracts/token/ERC20/ERC20.sol\":10254:10281  _allowances[owner][spender] */\n      0x00\n        /* \"@openzeppelin/contracts/token/ERC20/ERC20.sol\":10273:10280  spender */\n      dup6\n        /* \"@openzeppelin/contracts/token/ERC20/ERC20.sol\":10254:10281  _allowances[owner][spender] */\n      0xffffffffffffffffffffffffffffffffffffffff\n      and\n      0xffffffffffffffffffffffffffffffffffffffff\n      and\n      dup2\n      mstore\n      0x20\n      add\n      swap1\n      dup2\n      mstore\n      0x20\n      add\n      0x00\n      keccak256\n        /* \"@openzeppelin/contracts/token/ERC20/ERC20.sol\":10254:10289  _allowances[owner][spender] = value */\n      dup2\n      swap1\n      sstore\n      pop\n        /* \"@openzeppelin/contracts/token/ERC20/ERC20.sol\":10303:10312  emitEvent */\n      dup1\n        /* \"@openzeppelin/contracts/token/ERC20/ERC20.sol\":10299:10375  if (emitEvent) {... */\n      iszero\n      tag_342\n      jumpi\n        /* \"@openzeppelin/contracts/token/ERC20/ERC20.sol\":10349:10356  spender */\n      dup3\n        /* \"@openzeppelin/contracts/token/ERC20/ERC20.sol\":10333:10364  Approval(owner, spender, value) */\n      0xffffffffffffffffffffffffffffffffffffffff\n      and\n        /* \"@openzeppelin/contracts/token/ERC20/ERC20.sol\":10342:10347  owner */\n      dup5\n        /* \"@openzeppelin/contracts/token/ERC20/ERC20.sol\":10333:10364  Approval(owner, spender, value) */\n      0xffffffffffffffffffffffffffffffffffffffff\n      and\n      0x8c5be1e5ebec7d5bd14f71427d1e84f3dd0314c0f7b2291e5b200ac8c7c3b925\n        /* \"@openzeppelin/contracts/token/ERC20/ERC20.sol\":10358:10363  value */\n      dup5\n        /* \"@openzeppelin/contracts/token/ERC20/ERC20.sol\":10333:10364  Approval(owner, spender, value) */\n      mload(0x40)\n      tag_343\n      swap2\n      swap1\n      tag_43\n      jump\t// in\n    tag_343:\n      mload(0x40)\n      dup1\n      swap2\n      sub\n      swap1\n      log3\n        /* \"@openzeppelin/contracts/token/ERC20/ERC20.sol\":10299:10375  if (emitEvent) {... */\n    tag_342:\n        /* \"@openzeppelin/contracts/token/ERC20/ERC20.sol\":9949:10381  function _approve(address owner, address spender, uint256 value, bool emitEvent) internal virtual {... */\n      pop\n      pop\n      pop\n      pop\n      jump\t// out\n        /* \"contracts/ERC20Reward.sol\":3246:3401  function _update(address from, address to, uint256 value) internal virtual override(ERC20, ERC20Pausable) {... */\n    tag_294:\n        /* \"contracts/ERC20Reward.sol\":3363:3393  super._update(from, to, value) */\n      tag_345\n        /* \"contracts/ERC20Reward.sol\":3377:3381  from */\n      dup4\n        /* \"contracts/ERC20Reward.sol\":3383:3385  to */\n      dup4\n        /* \"contracts/ERC20Reward.sol\":3387:3392  value */\n      dup4\n        /* \"contracts/ERC20Reward.sol\":3363:3376  super._update */\n      tag_346\n        /* \"contracts/ERC20Reward.sol\":3363:3393  super._update(from, to, value) */\n      jump\t// in\n    tag_345:\n        /* \"contracts/ERC20Reward.sol\":3246:3401  function _update(address from, address to, uint256 value) internal virtual override(ERC20, ERC20Pausable) {... */\n      pop\n      pop\n      pop\n      jump\t// out\n        /* \"@openzeppelin/contracts/utils/Pausable.sol\":2202:2328  function _requirePaused() internal view virtual {... */\n    tag_303:\n        /* \"@openzeppelin/contracts/utils/Pausable.sol\":2265:2273  paused() */\n      tag_348\n        /* \"@openzeppelin/contracts/utils/Pausable.sol\":2265:2271  paused */\n      tag_117\n        /* \"@openzeppelin/contracts/utils/Pausable.sol\":2265:2273  paused() */\n      jump\t// in\n    tag_348:\n        /* \"@openzeppelin/contracts/utils/Pausable.sol\":2260:2322  if (!paused()) {... */\n      tag_349\n      jumpi\n        /* \"@openzeppelin/contracts/utils/Pausable.sol\":2296:2311  ExpectedPause() */\n      mload(0x40)\n      0x8dfc202b00000000000000000000000000000000000000000000000000000000\n      dup2\n      mstore\n      0x04\n      add\n      mload(0x40)\n      dup1\n      swap2\n      sub\n      swap1\n      revert\n        /* \"@openzeppelin/contracts/utils/Pausable.sol\":2260:2322  if (!paused()) {... */\n    tag_349:\n        /* \"@openzeppelin/contracts/utils/Pausable.sol\":2202:2328  function _requirePaused() internal view virtual {... */\n      jump\t// out\n        /* \"@openzeppelin/contracts/token/ERC20/ERC20.sol\":7721:7929  function _mint(address account, uint256 value) internal {... */\n    tag_329:\n        /* \"@openzeppelin/contracts/token/ERC20/ERC20.sol\":7810:7811  0 */\n      0x00\n        /* \"@openzeppelin/contracts/token/ERC20/ERC20.sol\":7791:7812  account == address(0) */\n      0xffffffffffffffffffffffffffffffffffffffff\n      and\n        /* \"@openzeppelin/contracts/token/ERC20/ERC20.sol\":7791:7798  account */\n      dup3\n        /* \"@openzeppelin/contracts/token/ERC20/ERC20.sol\":7791:7812  account == address(0) */\n      0xffffffffffffffffffffffffffffffffffffffff\n      and\n      sub\n        /* \"@openzeppelin/contracts/token/ERC20/ERC20.sol\":7787:7878  if (account == address(0)) {... */\n      tag_351\n      jumpi\n        /* \"@openzeppelin/contracts/token/ERC20/ERC20.sol\":7864:7865  0 */\n      0x00\n        /* \"@openzeppelin/contracts/token/ERC20/ERC20.sol\":7835:7867  ERC20InvalidReceiver(address(0)) */\n      mload(0x40)\n      0xec442f0500000000000000000000000000000000000000000000000000000000\n      dup2\n      mstore\n      0x04\n      add\n      tag_352\n      swap2\n      swap1\n      tag_64\n      jump\t// in\n    tag_352:\n      mload(0x40)\n      dup1\n      swap2\n      sub\n      swap1\n      revert\n        /* \"@openzeppelin/contracts/token/ERC20/ERC20.sol\":7787:7878  if (account == address(0)) {... */\n    tag_351:\n        /* \"@openzeppelin/contracts/token/ERC20/ERC20.sol\":7887:7922  _update(address(0), account, value) */\n      tag_353\n        /* \"@openzeppelin/contracts/token/ERC20/ERC20.sol\":7903:7904  0 */\n      0x00\n        /* \"@openzeppelin/contracts/token/ERC20/ERC20.sol\":7907:7914  account */\n      dup4\n        /* \"@openzeppelin/contracts/token/ERC20/ERC20.sol\":7916:7921  value */\n      dup4\n        /* \"@openzeppelin/contracts/token/ERC20/ERC20.sol\":7887:7894  _update */\n      tag_294\n        /* \"@openzeppelin/contracts/token/ERC20/ERC20.sol\":7887:7922  _update(address(0), account, value) */\n      jump\t// in\n    tag_353:\n        /* \"@openzeppelin/contracts/token/ERC20/ERC20.sol\":7721:7929  function _mint(address account, uint256 value) internal {... */\n      pop\n      pop\n      jump\t// out\n        /* \"@openzeppelin/contracts/token/ERC20/extensions/ERC20Pausable.sol\":1112:1257  function _update(address from, address to, uint256 value) internal virtual override whenNotPaused {... */\n    tag_346:\n        /* \"@openzeppelin/contracts/utils/Pausable.sol\":1474:1493  _requireNotPaused() */\n      tag_355\n        /* \"@openzeppelin/contracts/utils/Pausable.sol\":1474:1491  _requireNotPaused */\n      tag_215\n        /* \"@openzeppelin/contracts/utils/Pausable.sol\":1474:1493  _requireNotPaused() */\n      jump\t// in\n    tag_355:\n        /* \"@openzeppelin/contracts/token/ERC20/extensions/ERC20Pausable.sol\":1220:1250  super._update(from, to, value) */\n      tag_357\n        /* \"@openzeppelin/contracts/token/ERC20/extensions/ERC20Pausable.sol\":1234:1238  from */\n      dup4\n        /* \"@openzeppelin/contracts/token/ERC20/extensions/ERC20Pausable.sol\":1240:1242  to */\n      dup4\n        /* \"@openzeppelin/contracts/token/ERC20/extensions/ERC20Pausable.sol\":1244:1249  value */\n      dup4\n        /* \"@openzeppelin/contracts/token/ERC20/extensions/ERC20Pausable.sol\":1220:1233  super._update */\n      tag_358\n        /* \"@openzeppelin/contracts/token/ERC20/extensions/ERC20Pausable.sol\":1220:1250  super._update(from, to, value) */\n      jump\t// in\n    tag_357:\n        /* \"@openzeppelin/contracts/token/ERC20/extensions/ERC20Pausable.sol\":1112:1257  function _update(address from, address to, uint256 value) internal virtual override whenNotPaused {... */\n      pop\n      pop\n      pop\n      jump\t// out\n        /* \"@openzeppelin/contracts/token/ERC20/ERC20.sol\":6271:7378  function _update(address from, address to, uint256 value) internal virtual {... */\n    tag_358:\n        /* \"@openzeppelin/contracts/token/ERC20/ERC20.sol\":6376:6377  0 */\n      0x00\n        /* \"@openzeppelin/contracts/token/ERC20/ERC20.sol\":6360:6378  from == address(0) */\n      0xffffffffffffffffffffffffffffffffffffffff\n      and\n        /* \"@openzeppelin/contracts/token/ERC20/ERC20.sol\":6360:6364  from */\n      dup4\n        /* \"@openzeppelin/contracts/token/ERC20/ERC20.sol\":6360:6378  from == address(0) */\n      0xffffffffffffffffffffffffffffffffffffffff\n      and\n      sub\n        /* \"@openzeppelin/contracts/token/ERC20/ERC20.sol\":6356:6896  if (from == address(0)) {... */\n      tag_360\n      jumpi\n        /* \"@openzeppelin/contracts/token/ERC20/ERC20.sol\":6512:6517  value */\n      dup1\n        /* \"@openzeppelin/contracts/token/ERC20/ERC20.sol\":6496:6508  _totalSupply */\n      0x02\n      0x00\n        /* \"@openzeppelin/contracts/token/ERC20/ERC20.sol\":6496:6517  _totalSupply += value */\n      dup3\n      dup3\n      sload\n      tag_361\n      swap2\n      swap1\n      tag_179\n      jump\t// in\n    tag_361:\n      swap3\n      pop\n      pop\n      dup2\n      swap1\n      sstore\n      pop\n        /* \"@openzeppelin/contracts/token/ERC20/ERC20.sol\":6356:6896  if (from == address(0)) {... */\n      jump(tag_362)\n    tag_360:\n        /* \"@openzeppelin/contracts/token/ERC20/ERC20.sol\":6548:6567  uint256 fromBalance */\n      0x00\n        /* \"@openzeppelin/contracts/token/ERC20/ERC20.sol\":6570:6579  _balances */\n      dup1\n        /* \"@openzeppelin/contracts/token/ERC20/ERC20.sol\":6570:6585  _balances[from] */\n      0x00\n        /* \"@openzeppelin/contracts/token/ERC20/ERC20.sol\":6580:6584  from */\n      dup6\n        /* \"@openzeppelin/contracts/token/ERC20/ERC20.sol\":6570:6585  _balances[from] */\n      0xffffffffffffffffffffffffffffffffffffffff\n      and\n      0xffffffffffffffffffffffffffffffffffffffff\n      and\n      dup2\n      mstore\n      0x20\n      add\n      swap1\n      dup2\n      mstore\n      0x20\n      add\n      0x00\n      keccak256\n      sload\n        /* \"@openzeppelin/contracts/token/ERC20/ERC20.sol\":6548:6585  uint256 fromBalance = _balances[from] */\n      swap1\n      pop\n        /* \"@openzeppelin/contracts/token/ERC20/ERC20.sol\":6617:6622  value */\n      dup2\n        /* \"@openzeppelin/contracts/token/ERC20/ERC20.sol\":6603:6614  fromBalance */\n      dup2\n        /* \"@openzeppelin/contracts/token/ERC20/ERC20.sol\":6603:6622  fromBalance < value */\n      lt\n        /* \"@openzeppelin/contracts/token/ERC20/ERC20.sol\":6599:6714  if (fromBalance < value) {... */\n      iszero\n      tag_363\n      jumpi\n        /* \"@openzeppelin/contracts/token/ERC20/ERC20.sol\":6674:6678  from */\n      dup4\n        /* \"@openzeppelin/contracts/token/ERC20/ERC20.sol\":6680:6691  fromBalance */\n      dup2\n        /* \"@openzeppelin/contracts/token/ERC20/ERC20.sol\":6693:6698  value */\n      dup4\n        /* \"@openzeppelin/contracts/token/ERC20/ERC20.sol\":6649:6699  ERC20InsufficientBalance(from, fromBalance, value) */\n      mload(0x40)\n      0xe450d38c00000000000000000000000000000000000000000000000000000000\n      dup2\n      mstore\n      0x04\n      add\n      tag_364\n      swap4\n      swap3\n      swap2\n      swap1\n      tag_286\n      jump\t// in\n    tag_364:\n      mload(0x40)\n      dup1\n      swap2\n      sub\n      swap1\n      revert\n        /* \"@openzeppelin/contracts/token/ERC20/ERC20.sol\":6599:6714  if (fromBalance < value) {... */\n    tag_363:\n        /* \"@openzeppelin/contracts/token/ERC20/ERC20.sol\":6866:6871  value */\n      dup2\n        /* \"@openzeppelin/contracts/token/ERC20/ERC20.sol\":6852:6863  fromBalance */\n      dup2\n        /* \"@openzeppelin/contracts/token/ERC20/ERC20.sol\":6852:6871  fromBalance - value */\n      sub\n        /* \"@openzeppelin/contracts/token/ERC20/ERC20.sol\":6834:6843  _balances */\n      0x00\n        /* \"@openzeppelin/contracts/token/ERC20/ERC20.sol\":6834:6849  _balances[from] */\n      dup1\n        /* \"@openzeppelin/contracts/token/ERC20/ERC20.sol\":6844:6848  from */\n      dup7\n        /* \"@openzeppelin/contracts/token/ERC20/ERC20.sol\":6834:6849  _balances[from] */\n      0xffffffffffffffffffffffffffffffffffffffff\n      and\n      0xffffffffffffffffffffffffffffffffffffffff\n      and\n      dup2\n      mstore\n      0x20\n      add\n      swap1\n      dup2\n      mstore\n      0x20\n      add\n      0x00\n      keccak256\n        /* \"@openzeppelin/contracts/token/ERC20/ERC20.sol\":6834:6871  _balances[from] = fromBalance - value */\n      dup2\n      swap1\n      sstore\n      pop\n        /* \"@openzeppelin/contracts/token/ERC20/ERC20.sol\":6534:6896  {... */\n      pop\n        /* \"@openzeppelin/contracts/token/ERC20/ERC20.sol\":6356:6896  if (from == address(0)) {... */\n    tag_362:\n        /* \"@openzeppelin/contracts/token/ERC20/ERC20.sol\":6924:6925  0 */\n      0x00\n        /* \"@openzeppelin/contracts/token/ERC20/ERC20.sol\":6910:6926  to == address(0) */\n      0xffffffffffffffffffffffffffffffffffffffff\n      and\n        /* \"@openzeppelin/contracts/token/ERC20/ERC20.sol\":6910:6912  to */\n      dup3\n        /* \"@openzeppelin/contracts/token/ERC20/ERC20.sol\":6910:6926  to == address(0) */\n      0xffffffffffffffffffffffffffffffffffffffff\n      and\n      sub\n        /* \"@openzeppelin/contracts/token/ERC20/ERC20.sol\":6906:7331  if (to == address(0)) {... */\n      tag_365\n      jumpi\n        /* \"@openzeppelin/contracts/token/ERC20/ERC20.sol\":7089:7094  value */\n      dup1\n        /* \"@openzeppelin/contracts/token/ERC20/ERC20.sol\":7073:7085  _totalSupply */\n      0x02\n      0x00\n        /* \"@openzeppelin/contracts/token/ERC20/ERC20.sol\":7073:7094  _totalSupply -= value */\n      dup3\n      dup3\n      sload\n      sub\n      swap3\n      pop\n      pop\n      dup2\n      swap1\n      sstore\n      pop\n        /* \"@openzeppelin/contracts/token/ERC20/ERC20.sol\":6906:7331  if (to == address(0)) {... */\n      jump(tag_366)\n    tag_365:\n        /* \"@openzeppelin/contracts/token/ERC20/ERC20.sol\":7301:7306  value */\n      dup1\n        /* \"@openzeppelin/contracts/token/ERC20/ERC20.sol\":7284:7293  _balances */\n      0x00\n        /* \"@openzeppelin/contracts/token/ERC20/ERC20.sol\":7284:7297  _balances[to] */\n      dup1\n        /* \"@openzeppelin/contracts/token/ERC20/ERC20.sol\":7294:7296  to */\n      dup5\n        /* \"@openzeppelin/contracts/token/ERC20/ERC20.sol\":7284:7297  _balances[to] */\n      0xffffffffffffffffffffffffffffffffffffffff\n      and\n      0xffffffffffffffffffffffffffffffffffffffff\n      and\n      dup2\n      mstore\n      0x20\n      add\n      swap1\n      dup2\n      mstore\n      0x20\n      add\n      0x00\n      keccak256\n      0x00\n        /* \"@openzeppelin/contracts/token/ERC20/ERC20.sol\":7284:7306  _balances[to] += value */\n      dup3\n      dup3\n      sload\n      add\n      swap3\n      pop\n      pop\n      dup2\n      swap1\n      sstore\n      pop\n        /* \"@openzeppelin/contracts/token/ERC20/ERC20.sol\":6906:7331  if (to == address(0)) {... */\n    tag_366:\n        /* \"@openzeppelin/contracts/token/ERC20/ERC20.sol\":7361:7363  to */\n      dup2\n        /* \"@openzeppelin/contracts/token/ERC20/ERC20.sol\":7346:7371  Transfer(from, to, value) */\n      0xffffffffffffffffffffffffffffffffffffffff\n      and\n        /* \"@openzeppelin/contracts/token/ERC20/ERC20.sol\":7355:7359  from */\n      dup4\n        /* \"@openzeppelin/contracts/token/ERC20/ERC20.sol\":7346:7371  Transfer(from, to, value) */\n      0xffffffffffffffffffffffffffffffffffffffff\n      and\n      0xddf252ad1be2c89b69c2b068fc378daa952ba7f163c4a11628f55a4df523b3ef\n        /* \"@openzeppelin/contracts/token/ERC20/ERC20.sol\":7365:7370  value */\n      dup4\n        /* \"@openzeppelin/contracts/token/ERC20/ERC20.sol\":7346:7371  Transfer(from, to, value) */\n      mload(0x40)\n      tag_367\n      swap2\n      swap1\n      tag_43\n      jump\t// in\n    tag_367:\n      mload(0x40)\n      dup1\n      swap2\n      sub\n      swap1\n      log3\n        /* \"@openzeppelin/contracts/token/ERC20/ERC20.sol\":6271:7378  function _update(address from, address to, uint256 value) internal virtual {... */\n      pop\n      pop\n      pop\n      jump\t// out\n        /* \"#utility.yul\":7:84   */\n    tag_368:\n        /* \"#utility.yul\":44:51   */\n      0x00\n        /* \"#utility.yul\":73:78   */\n      dup2\n        /* \"#utility.yul\":62:78   */\n      swap1\n      pop\n        /* \"#utility.yul\":7:84   */\n      swap2\n      swap1\n      pop\n      jump\t// out\n        /* \"#utility.yul\":90:208   */\n    tag_369:\n        /* \"#utility.yul\":177:201   */\n      tag_420\n        /* \"#utility.yul\":195:200   */\n      dup2\n        /* \"#utility.yul\":177:201   */\n      tag_368\n      jump\t// in\n    tag_420:\n        /* \"#utility.yul\":172:175   */\n      dup3\n        /* \"#utility.yul\":165:202   */\n      mstore\n        /* \"#utility.yul\":90:208   */\n      pop\n      pop\n      jump\t// out\n        /* \"#utility.yul\":214:436   */\n    tag_43:\n        /* \"#utility.yul\":307:311   */\n      0x00\n        /* \"#utility.yul\":345:347   */\n      0x20\n        /* \"#utility.yul\":334:343   */\n      dup3\n        /* \"#utility.yul\":330:348   */\n      add\n        /* \"#utility.yul\":322:348   */\n      swap1\n      pop\n        /* \"#utility.yul\":358:429   */\n      tag_422\n        /* \"#utility.yul\":426:427   */\n      0x00\n        /* \"#utility.yul\":415:424   */\n      dup4\n        /* \"#utility.yul\":411:428   */\n      add\n        /* \"#utility.yul\":402:408   */\n      dup5\n        /* \"#utility.yul\":358:429   */\n      tag_369\n      jump\t// in\n    tag_422:\n        /* \"#utility.yul\":214:436   */\n      swap3\n      swap2\n      pop\n      pop\n      jump\t// out\n        /* \"#utility.yul\":442:541   */\n    tag_370:\n        /* \"#utility.yul\":494:500   */\n      0x00\n        /* \"#utility.yul\":528:533   */\n      dup2\n        /* \"#utility.yul\":522:534   */\n      mload\n        /* \"#utility.yul\":512:534   */\n      swap1\n      pop\n        /* \"#utility.yul\":442:541   */\n      swap2\n      swap1\n      pop\n      jump\t// out\n        /* \"#utility.yul\":547:716   */\n    tag_371:\n        /* \"#utility.yul\":631:642   */\n      0x00\n        /* \"#utility.yul\":665:671   */\n      dup3\n        /* \"#utility.yul\":660:663   */\n      dup3\n        /* \"#utility.yul\":653:672   */\n      mstore\n        /* \"#utility.yul\":705:709   */\n      0x20\n        /* \"#utility.yul\":700:703   */\n      dup3\n        /* \"#utility.yul\":696:710   */\n      add\n        /* \"#utility.yul\":681:710   */\n      swap1\n      pop\n        /* \"#utility.yul\":547:716   */\n      swap3\n      swap2\n      pop\n      pop\n      jump\t// out\n        /* \"#utility.yul\":722:968   */\n    tag_372:\n        /* \"#utility.yul\":803:804   */\n      0x00\n        /* \"#utility.yul\":813:926   */\n    tag_426:\n        /* \"#utility.yul\":827:833   */\n      dup4\n        /* \"#utility.yul\":824:825   */\n      dup2\n        /* \"#utility.yul\":821:834   */\n      lt\n        /* \"#utility.yul\":813:926   */\n      iszero\n      tag_428\n      jumpi\n        /* \"#utility.yul\":912:913   */\n      dup1\n        /* \"#utility.yul\":907:910   */\n      dup3\n        /* \"#utility.yul\":903:914   */\n      add\n        /* \"#utility.yul\":897:915   */\n      mload\n        /* \"#utility.yul\":893:894   */\n      dup2\n        /* \"#utility.yul\":888:891   */\n      dup5\n        /* \"#utility.yul\":884:895   */\n      add\n        /* \"#utility.yul\":877:916   */\n      mstore\n        /* \"#utility.yul\":849:851   */\n      0x20\n        /* \"#utility.yul\":846:847   */\n      dup2\n        /* \"#utility.yul\":842:852   */\n      add\n        /* \"#utility.yul\":837:852   */\n      swap1\n      pop\n        /* \"#utility.yul\":813:926   */\n      jump(tag_426)\n    tag_428:\n        /* \"#utility.yul\":960:961   */\n      0x00\n        /* \"#utility.yul\":951:957   */\n      dup5\n        /* \"#utility.yul\":946:949   */\n      dup5\n        /* \"#utility.yul\":942:958   */\n      add\n        /* \"#utility.yul\":935:962   */\n      mstore\n        /* \"#utility.yul\":784:968   */\n      pop\n        /* \"#utility.yul\":722:968   */\n      pop\n      pop\n      pop\n      jump\t// out\n        /* \"#utility.yul\":974:1076   */\n    tag_373:\n        /* \"#utility.yul\":1015:1021   */\n      0x00\n        /* \"#utility.yul\":1066:1068   */\n      0x1f\n        /* \"#utility.yul\":1062:1069   */\n      not\n        /* \"#utility.yul\":1057:1059   */\n      0x1f\n        /* \"#utility.yul\":1050:1055   */\n      dup4\n        /* \"#utility.yul\":1046:1060   */\n      add\n        /* \"#utility.yul\":1042:1070   */\n      and\n        /* \"#utility.yul\":1032:1070   */\n      swap1\n      pop\n        /* \"#utility.yul\":974:1076   */\n      swap2\n      swap1\n      pop\n      jump\t// out\n        /* \"#utility.yul\":1082:1459   */\n    tag_374:\n        /* \"#utility.yul\":1170:1173   */\n      0x00\n        /* \"#utility.yul\":1198:1237   */\n      tag_431\n        /* \"#utility.yul\":1231:1236   */\n      dup3\n        /* \"#utility.yul\":1198:1237   */\n      tag_370\n      jump\t// in\n    tag_431:\n        /* \"#utility.yul\":1253:1324   */\n      tag_432\n        /* \"#utility.yul\":1317:1323   */\n      dup2\n        /* \"#utility.yul\":1312:1315   */\n      dup6\n        /* \"#utility.yul\":1253:1324   */\n      tag_371\n      jump\t// in\n    tag_432:\n        /* \"#utility.yul\":1246:1324   */\n      swap4\n      pop\n        /* \"#utility.yul\":1333:1398   */\n      tag_433\n        /* \"#utility.yul\":1391:1397   */\n      dup2\n        /* \"#utility.yul\":1386:1389   */\n      dup6\n        /* \"#utility.yul\":1379:1383   */\n      0x20\n        /* \"#utility.yul\":1372:1377   */\n      dup7\n        /* \"#utility.yul\":1368:1384   */\n      add\n        /* \"#utility.yul\":1333:1398   */\n      tag_372\n      jump\t// in\n    tag_433:\n        /* \"#utility.yul\":1423:1452   */\n      tag_434\n        /* \"#utility.yul\":1445:1451   */\n      dup2\n        /* \"#utility.yul\":1423:1452   */\n      tag_373\n      jump\t// in\n    tag_434:\n        /* \"#utility.yul\":1418:1421   */\n      dup5\n        /* \"#utility.yul\":1414:1453   */\n      add\n        /* \"#utility.yul\":1407:1453   */\n      swap2\n      pop\n        /* \"#utility.yul\":1174:1459   */\n      pop\n        /* \"#utility.yul\":1082:1459   */\n      swap3\n      swap2\n      pop\n      pop\n      jump\t// out\n        /* \"#utility.yul\":1465:1778   */\n    tag_48:\n        /* \"#utility.yul\":1578:1582   */\n      0x00\n        /* \"#utility.yul\":1616:1618   */\n      0x20\n        /* \"#utility.yul\":1605:1614   */\n      dup3\n        /* \"#utility.yul\":1601:1619   */\n      add\n        /* \"#utility.yul\":1593:1619   */\n      swap1\n      pop\n        /* \"#utility.yul\":1665:1674   */\n      dup2\n        /* \"#utility.yul\":1659:1663   */\n      dup2\n        /* \"#utility.yul\":1655:1675   */\n      sub\n        /* \"#utility.yul\":1651:1652   */\n      0x00\n        /* \"#utility.yul\":1640:1649   */\n      dup4\n        /* \"#utility.yul\":1636:1653   */\n      add\n        /* \"#utility.yul\":1629:1676   */\n      mstore\n        /* \"#utility.yul\":1693:1771   */\n      tag_436\n        /* \"#utility.yul\":1766:1770   */\n      dup2\n        /* \"#utility.yul\":1757:1763   */\n      dup5\n        /* \"#utility.yul\":1693:1771   */\n      tag_374\n      jump\t// in\n    tag_436:\n        /* \"#utility.yul\":1685:1771   */\n      swap1\n      pop\n        /* \"#utility.yul\":1465:1778   */\n      swap3\n      swap2\n      pop\n      pop\n      jump\t// out\n        /* \"#utility.yul\":1865:1982   */\n    tag_376:\n        /* \"#utility.yul\":1974:1975   */\n      0x00\n        /* \"#utility.yul\":1971:1972   */\n      dup1\n        /* \"#utility.yul\":1964:1976   */\n      revert\n        /* \"#utility.yul\":1988:2105   */\n    tag_377:\n        /* \"#utility.yul\":2097:2098   */\n      0x00\n        /* \"#utility.yul\":2094:2095   */\n      dup1\n        /* \"#utility.yul\":2087:2099   */\n      revert\n        /* \"#utility.yul\":2111:2237   */\n    tag_378:\n        /* \"#utility.yul\":2148:2155   */\n      0x00\n        /* \"#utility.yul\":2188:2230   */\n      0xffffffffffffffffffffffffffffffffffffffff\n        /* \"#utility.yul\":2181:2186   */\n      dup3\n        /* \"#utility.yul\":2177:2231   */\n      and\n        /* \"#utility.yul\":2166:2231   */\n      swap1\n      pop\n        /* \"#utility.yul\":2111:2237   */\n      swap2\n      swap1\n      pop\n      jump\t// out\n        /* \"#utility.yul\":2243:2339   */\n    tag_379:\n        /* \"#utility.yul\":2280:2287   */\n      0x00\n        /* \"#utility.yul\":2309:2333   */\n      tag_442\n        /* \"#utility.yul\":2327:2332   */\n      dup3\n        /* \"#utility.yul\":2309:2333   */\n      tag_378\n      jump\t// in\n    tag_442:\n        /* \"#utility.yul\":2298:2333   */\n      swap1\n      pop\n        /* \"#utility.yul\":2243:2339   */\n      swap2\n      swap1\n      pop\n      jump\t// out\n        /* \"#utility.yul\":2345:2467   */\n    tag_380:\n        /* \"#utility.yul\":2418:2442   */\n      tag_444\n        /* \"#utility.yul\":2436:2441   */\n      dup2\n        /* \"#utility.yul\":2418:2442   */\n      tag_379\n      jump\t// in\n    tag_444:\n        /* \"#utility.yul\":2411:2416   */\n      dup2\n        /* \"#utility.yul\":2408:2443   */\n      eq\n        /* \"#utility.yul\":2398:2461   */\n      tag_445\n      jumpi\n        /* \"#utility.yul\":2457:2458   */\n      0x00\n        /* \"#utility.yul\":2454:2455   */\n      dup1\n        /* \"#utility.yul\":2447:2459   */\n      revert\n        /* \"#utility.yul\":2398:2461   */\n    tag_445:\n        /* \"#utility.yul\":2345:2467   */\n      pop\n      jump\t// out\n        /* \"#utility.yul\":2473:2612   */\n    tag_381:\n        /* \"#utility.yul\":2519:2524   */\n      0x00\n        /* \"#utility.yul\":2557:2563   */\n      dup2\n        /* \"#utility.yul\":2544:2564   */\n      calldataload\n        /* \"#utility.yul\":2535:2564   */\n      swap1\n      pop\n        /* \"#utility.yul\":2573:2606   */\n      tag_447\n        /* \"#utility.yul\":2600:2605   */\n      dup2\n        /* \"#utility.yul\":2573:2606   */\n      tag_380\n      jump\t// in\n    tag_447:\n        /* \"#utility.yul\":2473:2612   */\n      swap3\n      swap2\n      pop\n      pop\n      jump\t// out\n        /* \"#utility.yul\":2618:2740   */\n    tag_382:\n        /* \"#utility.yul\":2691:2715   */\n      tag_449\n        /* \"#utility.yul\":2709:2714   */\n      dup2\n        /* \"#utility.yul\":2691:2715   */\n      tag_368\n      jump\t// in\n    tag_449:\n        /* \"#utility.yul\":2684:2689   */\n      dup2\n        /* \"#utility.yul\":2681:2716   */\n      eq\n        /* \"#utility.yul\":2671:2734   */\n      tag_450\n      jumpi\n        /* \"#utility.yul\":2730:2731   */\n      0x00\n        /* \"#utility.yul\":2727:2728   */\n      dup1\n        /* \"#utility.yul\":2720:2732   */\n      revert\n        /* \"#utility.yul\":2671:2734   */\n    tag_450:\n        /* \"#utility.yul\":2618:2740   */\n      pop\n      jump\t// out\n        /* \"#utility.yul\":2746:2885   */\n    tag_383:\n        /* \"#utility.yul\":2792:2797   */\n      0x00\n        /* \"#utility.yul\":2830:2836   */\n      dup2\n        /* \"#utility.yul\":2817:2837   */\n      calldataload\n        /* \"#utility.yul\":2808:2837   */\n      swap1\n      pop\n        /* \"#utility.yul\":2846:2879   */\n      tag_452\n        /* \"#utility.yul\":2873:2878   */\n      dup2\n        /* \"#utility.yul\":2846:2879   */\n      tag_382\n      jump\t// in\n    tag_452:\n        /* \"#utility.yul\":2746:2885   */\n      swap3\n      swap2\n      pop\n      pop\n      jump\t// out\n        /* \"#utility.yul\":2891:3365   */\n    tag_52:\n        /* \"#utility.yul\":2959:2965   */\n      0x00\n        /* \"#utility.yul\":2967:2973   */\n      dup1\n        /* \"#utility.yul\":3016:3018   */\n      0x40\n        /* \"#utility.yul\":3004:3013   */\n      dup4\n        /* \"#utility.yul\":2995:3002   */\n      dup6\n        /* \"#utility.yul\":2991:3014   */\n      sub\n        /* \"#utility.yul\":2987:3019   */\n      slt\n        /* \"#utility.yul\":2984:3103   */\n      iszero\n      tag_454\n      jumpi\n        /* \"#utility.yul\":3022:3101   */\n      tag_455\n      tag_376\n      jump\t// in\n    tag_455:\n        /* \"#utility.yul\":2984:3103   */\n    tag_454:\n        /* \"#utility.yul\":3142:3143   */\n      0x00\n        /* \"#utility.yul\":3167:3220   */\n      tag_456\n        /* \"#utility.yul\":3212:3219   */\n      dup6\n        /* \"#utility.yul\":3203:3209   */\n      dup3\n        /* \"#utility.yul\":3192:3201   */\n      dup7\n        /* \"#utility.yul\":3188:3210   */\n      add\n        /* \"#utility.yul\":3167:3220   */\n      tag_381\n      jump\t// in\n    tag_456:\n        /* \"#utility.yul\":3157:3220   */\n      swap3\n      pop\n        /* \"#utility.yul\":3113:3230   */\n      pop\n        /* \"#utility.yul\":3269:3271   */\n      0x20\n        /* \"#utility.yul\":3295:3348   */\n      tag_457\n        /* \"#utility.yul\":3340:3347   */\n      dup6\n        /* \"#utility.yul\":3331:3337   */\n      dup3\n        /* \"#utility.yul\":3320:3329   */\n      dup7\n        /* \"#utility.yul\":3316:3338   */\n      add\n        /* \"#utility.yul\":3295:3348   */\n      tag_383\n      jump\t// in\n    tag_457:\n        /* \"#utility.yul\":3285:3348   */\n      swap2\n      pop\n        /* \"#utility.yul\":3240:3358   */\n      pop\n        /* \"#utility.yul\":2891:3365   */\n      swap3\n      pop\n      swap3\n      swap1\n      pop\n      jump\t// out\n        /* \"#utility.yul\":3371:3461   */\n    tag_384:\n        /* \"#utility.yul\":3405:3412   */\n      0x00\n        /* \"#utility.yul\":3448:3453   */\n      dup2\n        /* \"#utility.yul\":3441:3454   */\n      iszero\n        /* \"#utility.yul\":3434:3455   */\n      iszero\n        /* \"#utility.yul\":3423:3455   */\n      swap1\n      pop\n        /* \"#utility.yul\":3371:3461   */\n      swap2\n      swap1\n      pop\n      jump\t// out\n        /* \"#utility.yul\":3467:3576   */\n    tag_385:\n        /* \"#utility.yul\":3548:3569   */\n      tag_460\n        /* \"#utility.yul\":3563:3568   */\n      dup2\n        /* \"#utility.yul\":3548:3569   */\n      tag_384\n      jump\t// in\n    tag_460:\n        /* \"#utility.yul\":3543:3546   */\n      dup3\n        /* \"#utility.yul\":3536:3570   */\n      mstore\n        /* \"#utility.yul\":3467:3576   */\n      pop\n      pop\n      jump\t// out\n        /* \"#utility.yul\":3582:3792   */\n    tag_55:\n        /* \"#utility.yul\":3669:3673   */\n      0x00\n        /* \"#utility.yul\":3707:3709   */\n      0x20\n        /* \"#utility.yul\":3696:3705   */\n      dup3\n        /* \"#utility.yul\":3692:3710   */\n      add\n        /* \"#utility.yul\":3684:3710   */\n      swap1\n      pop\n        /* \"#utility.yul\":3720:3785   */\n      tag_462\n        /* \"#utility.yul\":3782:3783   */\n      0x00\n        /* \"#utility.yul\":3771:3780   */\n      dup4\n        /* \"#utility.yul\":3767:3784   */\n      add\n        /* \"#utility.yul\":3758:3764   */\n      dup5\n        /* \"#utility.yul\":3720:3785   */\n      tag_385\n      jump\t// in\n    tag_462:\n        /* \"#utility.yul\":3582:3792   */\n      swap3\n      swap2\n      pop\n      pop\n      jump\t// out\n        /* \"#utility.yul\":3798:3916   */\n    tag_386:\n        /* \"#utility.yul\":3885:3909   */\n      tag_464\n        /* \"#utility.yul\":3903:3908   */\n      dup2\n        /* \"#utility.yul\":3885:3909   */\n      tag_379\n      jump\t// in\n    tag_464:\n        /* \"#utility.yul\":3880:3883   */\n      dup3\n        /* \"#utility.yul\":3873:3910   */\n      mstore\n        /* \"#utility.yul\":3798:3916   */\n      pop\n      pop\n      jump\t// out\n        /* \"#utility.yul\":3922:4144   */\n    tag_64:\n        /* \"#utility.yul\":4015:4019   */\n      0x00\n        /* \"#utility.yul\":4053:4055   */\n      0x20\n        /* \"#utility.yul\":4042:4051   */\n      dup3\n        /* \"#utility.yul\":4038:4056   */\n      add\n        /* \"#utility.yul\":4030:4056   */\n      swap1\n      pop\n        /* \"#utility.yul\":4066:4137   */\n      tag_466\n        /* \"#utility.yul\":4134:4135   */\n      0x00\n        /* \"#utility.yul\":4123:4132   */\n      dup4\n        /* \"#utility.yul\":4119:4136   */\n      add\n        /* \"#utility.yul\":4110:4116   */\n      dup5\n        /* \"#utility.yul\":4066:4137   */\n      tag_386\n      jump\t// in\n    tag_466:\n        /* \"#utility.yul\":3922:4144   */\n      swap3\n      swap2\n      pop\n      pop\n      jump\t// out\n        /* \"#utility.yul\":4150:4243   */\n    tag_387:\n        /* \"#utility.yul\":4186:4193   */\n      0x00\n        /* \"#utility.yul\":4226:4236   */\n      0xffffffff\n        /* \"#utility.yul\":4219:4224   */\n      dup3\n        /* \"#utility.yul\":4215:4237   */\n      and\n        /* \"#utility.yul\":4204:4237   */\n      swap1\n      pop\n        /* \"#utility.yul\":4150:4243   */\n      swap2\n      swap1\n      pop\n      jump\t// out\n        /* \"#utility.yul\":4249:4369   */\n    tag_388:\n        /* \"#utility.yul\":4321:4344   */\n      tag_469\n        /* \"#utility.yul\":4338:4343   */\n      dup2\n        /* \"#utility.yul\":4321:4344   */\n      tag_387\n      jump\t// in\n    tag_469:\n        /* \"#utility.yul\":4314:4319   */\n      dup2\n        /* \"#utility.yul\":4311:4345   */\n      eq\n        /* \"#utility.yul\":4301:4363   */\n      tag_470\n      jumpi\n        /* \"#utility.yul\":4359:4360   */\n      0x00\n        /* \"#utility.yul\":4356:4357   */\n      dup1\n        /* \"#utility.yul\":4349:4361   */\n      revert\n        /* \"#utility.yul\":4301:4363   */\n    tag_470:\n        /* \"#utility.yul\":4249:4369   */\n      pop\n      jump\t// out\n        /* \"#utility.yul\":4375:4512   */\n    tag_389:\n        /* \"#utility.yul\":4420:4425   */\n      0x00\n        /* \"#utility.yul\":4458:4464   */\n      dup2\n        /* \"#utility.yul\":4445:4465   */\n      calldataload\n        /* \"#utility.yul\":4436:4465   */\n      swap1\n      pop\n        /* \"#utility.yul\":4474:4506   */\n      tag_472\n        /* \"#utility.yul\":4500:4505   */\n      dup2\n        /* \"#utility.yul\":4474:4506   */\n      tag_388\n      jump\t// in\n    tag_472:\n        /* \"#utility.yul\":4375:4512   */\n      swap3\n      swap2\n      pop\n      pop\n      jump\t// out\n        /* \"#utility.yul\":4518:4845   */\n    tag_68:\n        /* \"#utility.yul\":4576:4582   */\n      0x00\n        /* \"#utility.yul\":4625:4627   */\n      0x20\n        /* \"#utility.yul\":4613:4622   */\n      dup3\n        /* \"#utility.yul\":4604:4611   */\n      dup5\n        /* \"#utility.yul\":4600:4623   */\n      sub\n        /* \"#utility.yul\":4596:4628   */\n      slt\n        /* \"#utility.yul\":4593:4712   */\n      iszero\n      tag_474\n      jumpi\n        /* \"#utility.yul\":4631:4710   */\n      tag_475\n      tag_376\n      jump\t// in\n    tag_475:\n        /* \"#utility.yul\":4593:4712   */\n    tag_474:\n        /* \"#utility.yul\":4751:4752   */\n      0x00\n        /* \"#utility.yul\":4776:4828   */\n      tag_476\n        /* \"#utility.yul\":4820:4827   */\n      dup5\n        /* \"#utility.yul\":4811:4817   */\n      dup3\n        /* \"#utility.yul\":4800:4809   */\n      dup6\n        /* \"#utility.yul\":4796:4818   */\n      add\n        /* \"#utility.yul\":4776:4828   */\n      tag_389\n      jump\t// in\n    tag_476:\n        /* \"#utility.yul\":4766:4828   */\n      swap2\n      pop\n        /* \"#utility.yul\":4722:4838   */\n      pop\n        /* \"#utility.yul\":4518:4845   */\n      swap3\n      swap2\n      pop\n      pop\n      jump\t// out\n        /* \"#utility.yul\":4851:4928   */\n    tag_390:\n        /* \"#utility.yul\":4888:4895   */\n      0x00\n        /* \"#utility.yul\":4917:4922   */\n      dup2\n        /* \"#utility.yul\":4906:4922   */\n      swap1\n      pop\n        /* \"#utility.yul\":4851:4928   */\n      swap2\n      swap1\n      pop\n      jump\t// out\n        /* \"#utility.yul\":4934:5052   */\n    tag_391:\n        /* \"#utility.yul\":5021:5045   */\n      tag_479\n        /* \"#utility.yul\":5039:5044   */\n      dup2\n        /* \"#utility.yul\":5021:5045   */\n      tag_390\n      jump\t// in\n    tag_479:\n        /* \"#utility.yul\":5016:5019   */\n      dup3\n        /* \"#utility.yul\":5009:5046   */\n      mstore\n        /* \"#utility.yul\":4934:5052   */\n      pop\n      pop\n      jump\t// out\n        /* \"#utility.yul\":5058:5280   */\n    tag_71:\n        /* \"#utility.yul\":5151:5155   */\n      0x00\n        /* \"#utility.yul\":5189:5191   */\n      0x20\n        /* \"#utility.yul\":5178:5187   */\n      dup3\n        /* \"#utility.yul\":5174:5192   */\n      add\n        /* \"#utility.yul\":5166:5192   */\n      swap1\n      pop\n        /* \"#utility.yul\":5202:5273   */\n      tag_481\n        /* \"#utility.yul\":5270:5271   */\n      0x00\n        /* \"#utility.yul\":5259:5268   */\n      dup4\n        /* \"#utility.yul\":5255:5272   */\n      add\n        /* \"#utility.yul\":5246:5252   */\n      dup5\n        /* \"#utility.yul\":5202:5273   */\n      tag_391\n      jump\t// in\n    tag_481:\n        /* \"#utility.yul\":5058:5280   */\n      swap3\n      swap2\n      pop\n      pop\n      jump\t// out\n        /* \"#utility.yul\":5286:5905   */\n    tag_75:\n        /* \"#utility.yul\":5363:5369   */\n      0x00\n        /* \"#utility.yul\":5371:5377   */\n      dup1\n        /* \"#utility.yul\":5379:5385   */\n      0x00\n        /* \"#utility.yul\":5428:5430   */\n      0x60\n        /* \"#utility.yul\":5416:5425   */\n      dup5\n        /* \"#utility.yul\":5407:5414   */\n      dup7\n        /* \"#utility.yul\":5403:5426   */\n      sub\n        /* \"#utility.yul\":5399:5431   */\n      slt\n        /* \"#utility.yul\":5396:5515   */\n      iszero\n      tag_483\n      jumpi\n        /* \"#utility.yul\":5434:5513   */\n      tag_484\n      tag_376\n      jump\t// in\n    tag_484:\n        /* \"#utility.yul\":5396:5515   */\n    tag_483:\n        /* \"#utility.yul\":5554:5555   */\n      0x00\n        /* \"#utility.yul\":5579:5632   */\n      tag_485\n        /* \"#utility.yul\":5624:5631   */\n      dup7\n        /* \"#utility.yul\":5615:5621   */\n      dup3\n        /* \"#utility.yul\":5604:5613   */\n      dup8\n        /* \"#utility.yul\":5600:5622   */\n      add\n        /* \"#utility.yul\":5579:5632   */\n      tag_381\n      jump\t// in\n    tag_485:\n        /* \"#utility.yul\":5569:5632   */\n      swap4\n      pop\n        /* \"#utility.yul\":5525:5642   */\n      pop\n        /* \"#utility.yul\":5681:5683   */\n      0x20\n        /* \"#utility.yul\":5707:5760   */\n      tag_486\n        /* \"#utility.yul\":5752:5759   */\n      dup7\n        /* \"#utility.yul\":5743:5749   */\n      dup3\n        /* \"#utility.yul\":5732:5741   */\n      dup8\n        /* \"#utility.yul\":5728:5750   */\n      add\n        /* \"#utility.yul\":5707:5760   */\n      tag_381\n      jump\t// in\n    tag_486:\n        /* \"#utility.yul\":5697:5760   */\n      swap3\n      pop\n        /* \"#utility.yul\":5652:5770   */\n      pop\n        /* \"#utility.yul\":5809:5811   */\n      0x40\n        /* \"#utility.yul\":5835:5888   */\n      tag_487\n        /* \"#utility.yul\":5880:5887   */\n      dup7\n        /* \"#utility.yul\":5871:5877   */\n      dup3\n        /* \"#utility.yul\":5860:5869   */\n      dup8\n        /* \"#utility.yul\":5856:5878   */\n      add\n        /* \"#utility.yul\":5835:5888   */\n      tag_383\n      jump\t// in\n    tag_487:\n        /* \"#utility.yul\":5825:5888   */\n      swap2\n      pop\n        /* \"#utility.yul\":5780:5898   */\n      pop\n        /* \"#utility.yul\":5286:5905   */\n      swap3\n      pop\n      swap3\n      pop\n      swap3\n      jump\t// out\n        /* \"#utility.yul\":5911:6033   */\n    tag_392:\n        /* \"#utility.yul\":5984:6008   */\n      tag_489\n        /* \"#utility.yul\":6002:6007   */\n      dup2\n        /* \"#utility.yul\":5984:6008   */\n      tag_390\n      jump\t// in\n    tag_489:\n        /* \"#utility.yul\":5977:5982   */\n      dup2\n        /* \"#utility.yul\":5974:6009   */\n      eq\n        /* \"#utility.yul\":5964:6027   */\n      tag_490\n      jumpi\n        /* \"#utility.yul\":6023:6024   */\n      0x00\n        /* \"#utility.yul\":6020:6021   */\n      dup1\n        /* \"#utility.yul\":6013:6025   */\n      revert\n        /* \"#utility.yul\":5964:6027   */\n    tag_490:\n        /* \"#utility.yul\":5911:6033   */\n      pop\n      jump\t// out\n        /* \"#utility.yul\":6039:6178   */\n    tag_393:\n        /* \"#utility.yul\":6085:6090   */\n      0x00\n        /* \"#utility.yul\":6123:6129   */\n      dup2\n        /* \"#utility.yul\":6110:6130   */\n      calldataload\n        /* \"#utility.yul\":6101:6130   */\n      swap1\n      pop\n        /* \"#utility.yul\":6139:6172   */\n      tag_492\n        /* \"#utility.yul\":6166:6171   */\n      dup2\n        /* \"#utility.yul\":6139:6172   */\n      tag_392\n      jump\t// in\n    tag_492:\n        /* \"#utility.yul\":6039:6178   */\n      swap3\n      swap2\n      pop\n      pop\n      jump\t// out\n        /* \"#utility.yul\":6184:6656   */\n    tag_81:\n        /* \"#utility.yul\":6251:6257   */\n      0x00\n        /* \"#utility.yul\":6259:6265   */\n      dup1\n        /* \"#utility.yul\":6308:6310   */\n      0x40\n        /* \"#utility.yul\":6296:6305   */\n      dup4\n        /* \"#utility.yul\":6287:6294   */\n      dup6\n        /* \"#utility.yul\":6283:6306   */\n      sub\n        /* \"#utility.yul\":6279:6311   */\n      slt\n        /* \"#utility.yul\":6276:6395   */\n      iszero\n      tag_494\n      jumpi\n        /* \"#utility.yul\":6314:6393   */\n      tag_495\n      tag_376\n      jump\t// in\n    tag_495:\n        /* \"#utility.yul\":6276:6395   */\n    tag_494:\n        /* \"#utility.yul\":6434:6435   */\n      0x00\n        /* \"#utility.yul\":6459:6511   */\n      tag_496\n        /* \"#utility.yul\":6503:6510   */\n      dup6\n        /* \"#utility.yul\":6494:6500   */\n      dup3\n        /* \"#utility.yul\":6483:6492   */\n      dup7\n        /* \"#utility.yul\":6479:6501   */\n      add\n        /* \"#utility.yul\":6459:6511   */\n      tag_389\n      jump\t// in\n    tag_496:\n        /* \"#utility.yul\":6449:6511   */\n      swap3\n      pop\n        /* \"#utility.yul\":6405:6521   */\n      pop\n        /* \"#utility.yul\":6560:6562   */\n      0x20\n        /* \"#utility.yul\":6586:6639   */\n      tag_497\n        /* \"#utility.yul\":6631:6638   */\n      dup6\n        /* \"#utility.yul\":6622:6628   */\n      dup3\n        /* \"#utility.yul\":6611:6620   */\n      dup7\n        /* \"#utility.yul\":6607:6629   */\n      add\n        /* \"#utility.yul\":6586:6639   */\n      tag_393\n      jump\t// in\n    tag_497:\n        /* \"#utility.yul\":6576:6639   */\n      swap2\n      pop\n        /* \"#utility.yul\":6531:6649   */\n      pop\n        /* \"#utility.yul\":6184:6656   */\n      swap3\n      pop\n      swap3\n      swap1\n      pop\n      jump\t// out\n        /* \"#utility.yul\":6662:6748   */\n    tag_394:\n        /* \"#utility.yul\":6697:6704   */\n      0x00\n        /* \"#utility.yul\":6737:6741   */\n      0xff\n        /* \"#utility.yul\":6730:6735   */\n      dup3\n        /* \"#utility.yul\":6726:6742   */\n      and\n        /* \"#utility.yul\":6715:6742   */\n      swap1\n      pop\n        /* \"#utility.yul\":6662:6748   */\n      swap2\n      swap1\n      pop\n      jump\t// out\n        /* \"#utility.yul\":6754:6866   */\n    tag_395:\n        /* \"#utility.yul\":6837:6859   */\n      tag_500\n        /* \"#utility.yul\":6853:6858   */\n      dup2\n        /* \"#utility.yul\":6837:6859   */\n      tag_394\n      jump\t// in\n    tag_500:\n        /* \"#utility.yul\":6832:6835   */\n      dup3\n        /* \"#utility.yul\":6825:6860   */\n      mstore\n        /* \"#utility.yul\":6754:6866   */\n      pop\n      pop\n      jump\t// out\n        /* \"#utility.yul\":6872:7086   */\n    tag_87:\n        /* \"#utility.yul\":6961:6965   */\n      0x00\n        /* \"#utility.yul\":6999:7001   */\n      0x20\n        /* \"#utility.yul\":6988:6997   */\n      dup3\n        /* \"#utility.yul\":6984:7002   */\n      add\n        /* \"#utility.yul\":6976:7002   */\n      swap1\n      pop\n        /* \"#utility.yul\":7012:7079   */\n      tag_502\n        /* \"#utility.yul\":7076:7077   */\n      0x00\n        /* \"#utility.yul\":7065:7074   */\n      dup4\n        /* \"#utility.yul\":7061:7078   */\n      add\n        /* \"#utility.yul\":7052:7058   */\n      dup5\n        /* \"#utility.yul\":7012:7079   */\n      tag_395\n      jump\t// in\n    tag_502:\n        /* \"#utility.yul\":6872:7086   */\n      swap3\n      swap2\n      pop\n      pop\n      jump\t// out\n        /* \"#utility.yul\":7092:7421   */\n    tag_95:\n        /* \"#utility.yul\":7151:7157   */\n      0x00\n        /* \"#utility.yul\":7200:7202   */\n      0x20\n        /* \"#utility.yul\":7188:7197   */\n      dup3\n        /* \"#utility.yul\":7179:7186   */\n      dup5\n        /* \"#utility.yul\":7175:7198   */\n      sub\n        /* \"#utility.yul\":7171:7203   */\n      slt\n        /* \"#utility.yul\":7168:7287   */\n      iszero\n      tag_504\n      jumpi\n        /* \"#utility.yul\":7206:7285   */\n      tag_505\n      tag_376\n      jump\t// in\n    tag_505:\n        /* \"#utility.yul\":7168:7287   */\n    tag_504:\n        /* \"#utility.yul\":7326:7327   */\n      0x00\n        /* \"#utility.yul\":7351:7404   */\n      tag_506\n        /* \"#utility.yul\":7396:7403   */\n      dup5\n        /* \"#utility.yul\":7387:7393   */\n      dup3\n        /* \"#utility.yul\":7376:7385   */\n      dup6\n        /* \"#utility.yul\":7372:7394   */\n      add\n        /* \"#utility.yul\":7351:7404   */\n      tag_381\n      jump\t// in\n    tag_506:\n        /* \"#utility.yul\":7341:7404   */\n      swap2\n      pop\n        /* \"#utility.yul\":7297:7414   */\n      pop\n        /* \"#utility.yul\":7092:7421   */\n      swap3\n      swap2\n      pop\n      pop\n      jump\t// out\n        /* \"#utility.yul\":7427:7756   */\n    tag_109:\n        /* \"#utility.yul\":7486:7492   */\n      0x00\n        /* \"#utility.yul\":7535:7537   */\n      0x20\n        /* \"#utility.yul\":7523:7532   */\n      dup3\n        /* \"#utility.yul\":7514:7521   */\n      dup5\n        /* \"#utility.yul\":7510:7533   */\n      sub\n        /* \"#utility.yul\":7506:7538   */\n      slt\n        /* \"#utility.yul\":7503:7622   */\n      iszero\n      tag_508\n      jumpi\n        /* \"#utility.yul\":7541:7620   */\n      tag_509\n      tag_376\n      jump\t// in\n    tag_509:\n        /* \"#utility.yul\":7503:7622   */\n    tag_508:\n        /* \"#utility.yul\":7661:7662   */\n      0x00\n        /* \"#utility.yul\":7686:7739   */\n      tag_510\n        /* \"#utility.yul\":7731:7738   */\n      dup5\n        /* \"#utility.yul\":7722:7728   */\n      dup3\n        /* \"#utility.yul\":7711:7720   */\n      dup6\n        /* \"#utility.yul\":7707:7729   */\n      add\n        /* \"#utility.yul\":7686:7739   */\n      tag_383\n      jump\t// in\n    tag_510:\n        /* \"#utility.yul\":7676:7739   */\n      swap2\n      pop\n        /* \"#utility.yul\":7632:7749   */\n      pop\n        /* \"#utility.yul\":7427:7756   */\n      swap3\n      swap2\n      pop\n      pop\n      jump\t// out\n        /* \"#utility.yul\":7762:7879   */\n    tag_396:\n        /* \"#utility.yul\":7871:7872   */\n      0x00\n        /* \"#utility.yul\":7868:7869   */\n      dup1\n        /* \"#utility.yul\":7861:7873   */\n      revert\n        /* \"#utility.yul\":7885:8002   */\n    tag_397:\n        /* \"#utility.yul\":7994:7995   */\n      0x00\n        /* \"#utility.yul\":7991:7992   */\n      dup1\n        /* \"#utility.yul\":7984:7996   */\n      revert\n        /* \"#utility.yul\":8008:8125   */\n    tag_398:\n        /* \"#utility.yul\":8117:8118   */\n      0x00\n        /* \"#utility.yul\":8114:8115   */\n      dup1\n        /* \"#utility.yul\":8107:8119   */\n      revert\n        /* \"#utility.yul\":8144:8696   */\n    tag_399:\n        /* \"#utility.yul\":8201:8209   */\n      0x00\n        /* \"#utility.yul\":8211:8217   */\n      dup1\n        /* \"#utility.yul\":8261:8264   */\n      dup4\n        /* \"#utility.yul\":8254:8258   */\n      0x1f\n        /* \"#utility.yul\":8246:8252   */\n      dup5\n        /* \"#utility.yul\":8242:8259   */\n      add\n        /* \"#utility.yul\":8238:8265   */\n      slt\n        /* \"#utility.yul\":8228:8350   */\n      tag_515\n      jumpi\n        /* \"#utility.yul\":8269:8348   */\n      tag_516\n      tag_396\n      jump\t// in\n    tag_516:\n        /* \"#utility.yul\":8228:8350   */\n    tag_515:\n        /* \"#utility.yul\":8382:8388   */\n      dup3\n        /* \"#utility.yul\":8369:8389   */\n      calldataload\n        /* \"#utility.yul\":8359:8389   */\n      swap1\n      pop\n        /* \"#utility.yul\":8412:8430   */\n      0xffffffffffffffff\n        /* \"#utility.yul\":8404:8410   */\n      dup2\n        /* \"#utility.yul\":8401:8431   */\n      gt\n        /* \"#utility.yul\":8398:8515   */\n      iszero\n      tag_517\n      jumpi\n        /* \"#utility.yul\":8434:8513   */\n      tag_518\n      tag_397\n      jump\t// in\n    tag_518:\n        /* \"#utility.yul\":8398:8515   */\n    tag_517:\n        /* \"#utility.yul\":8548:8552   */\n      0x20\n        /* \"#utility.yul\":8540:8546   */\n      dup4\n        /* \"#utility.yul\":8536:8553   */\n      add\n        /* \"#utility.yul\":8524:8553   */\n      swap2\n      pop\n        /* \"#utility.yul\":8602:8605   */\n      dup4\n        /* \"#utility.yul\":8594:8598   */\n      0x01\n        /* \"#utility.yul\":8586:8592   */\n      dup3\n        /* \"#utility.yul\":8582:8599   */\n      mul\n        /* \"#utility.yul\":8572:8580   */\n      dup4\n        /* \"#utility.yul\":8568:8600   */\n      add\n        /* \"#utility.yul\":8565:8606   */\n      gt\n        /* \"#utility.yul\":8562:8690   */\n      iszero\n      tag_519\n      jumpi\n        /* \"#utility.yul\":8609:8688   */\n      tag_520\n      tag_398\n      jump\t// in\n    tag_520:\n        /* \"#utility.yul\":8562:8690   */\n    tag_519:\n        /* \"#utility.yul\":8144:8696   */\n      swap3\n      pop\n      swap3\n      swap1\n      pop\n      jump\t// out\n        /* \"#utility.yul\":8702:9517   */\n    tag_113:\n        /* \"#utility.yul\":8789:8795   */\n      0x00\n        /* \"#utility.yul\":8797:8803   */\n      dup1\n        /* \"#utility.yul\":8805:8811   */\n      0x00\n        /* \"#utility.yul\":8813:8819   */\n      dup1\n        /* \"#utility.yul\":8862:8864   */\n      0x60\n        /* \"#utility.yul\":8850:8859   */\n      dup6\n        /* \"#utility.yul\":8841:8848   */\n      dup8\n        /* \"#utility.yul\":8837:8860   */\n      sub\n        /* \"#utility.yul\":8833:8865   */\n      slt\n        /* \"#utility.yul\":8830:8949   */\n      iszero\n      tag_522\n      jumpi\n        /* \"#utility.yul\":8868:8947   */\n      tag_523\n      tag_376\n      jump\t// in\n    tag_523:\n        /* \"#utility.yul\":8830:8949   */\n    tag_522:\n        /* \"#utility.yul\":8988:8989   */\n      0x00\n        /* \"#utility.yul\":9013:9065   */\n      tag_524\n        /* \"#utility.yul\":9057:9064   */\n      dup8\n        /* \"#utility.yul\":9048:9054   */\n      dup3\n        /* \"#utility.yul\":9037:9046   */\n      dup9\n        /* \"#utility.yul\":9033:9055   */\n      add\n        /* \"#utility.yul\":9013:9065   */\n      tag_389\n      jump\t// in\n    tag_524:\n        /* \"#utility.yul\":9003:9065   */\n      swap5\n      pop\n        /* \"#utility.yul\":8959:9075   */\n      pop\n        /* \"#utility.yul\":9114:9116   */\n      0x20\n        /* \"#utility.yul\":9140:9193   */\n      tag_525\n        /* \"#utility.yul\":9185:9192   */\n      dup8\n        /* \"#utility.yul\":9176:9182   */\n      dup3\n        /* \"#utility.yul\":9165:9174   */\n      dup9\n        /* \"#utility.yul\":9161:9183   */\n      add\n        /* \"#utility.yul\":9140:9193   */\n      tag_393\n      jump\t// in\n    tag_525:\n        /* \"#utility.yul\":9130:9193   */\n      swap4\n      pop\n        /* \"#utility.yul\":9085:9203   */\n      pop\n        /* \"#utility.yul\":9270:9272   */\n      0x40\n        /* \"#utility.yul\":9259:9268   */\n      dup6\n        /* \"#utility.yul\":9255:9273   */\n      add\n        /* \"#utility.yul\":9242:9274   */\n      calldataload\n        /* \"#utility.yul\":9301:9319   */\n      0xffffffffffffffff\n        /* \"#utility.yul\":9293:9299   */\n      dup2\n        /* \"#utility.yul\":9290:9320   */\n      gt\n        /* \"#utility.yul\":9287:9404   */\n      iszero\n      tag_526\n      jumpi\n        /* \"#utility.yul\":9323:9402   */\n      tag_527\n      tag_377\n      jump\t// in\n    tag_527:\n        /* \"#utility.yul\":9287:9404   */\n    tag_526:\n        /* \"#utility.yul\":9436:9500   */\n      tag_528\n        /* \"#utility.yul\":9492:9499   */\n      dup8\n        /* \"#utility.yul\":9483:9489   */\n      dup3\n        /* \"#utility.yul\":9472:9481   */\n      dup9\n        /* \"#utility.yul\":9468:9490   */\n      add\n        /* \"#utility.yul\":9436:9500   */\n      tag_399\n      jump\t// in\n    tag_528:\n        /* \"#utility.yul\":9418:9500   */\n      swap3\n      pop\n      swap3\n      pop\n        /* \"#utility.yul\":9213:9510   */\n      pop\n        /* \"#utility.yul\":8702:9517   */\n      swap3\n      swap6\n      swap2\n      swap5\n      pop\n      swap3\n      pop\n      jump\t// out\n        /* \"#utility.yul\":9523:9997   */\n    tag_162:\n        /* \"#utility.yul\":9591:9597   */\n      0x00\n        /* \"#utility.yul\":9599:9605   */\n      dup1\n        /* \"#utility.yul\":9648:9650   */\n      0x40\n        /* \"#utility.yul\":9636:9645   */\n      dup4\n        /* \"#utility.yul\":9627:9634   */\n      dup6\n        /* \"#utility.yul\":9623:9646   */\n      sub\n        /* \"#utility.yul\":9619:9651   */\n      slt\n        /* \"#utility.yul\":9616:9735   */\n      iszero\n      tag_530\n      jumpi\n        /* \"#utility.yul\":9654:9733   */\n      tag_531\n      tag_376\n      jump\t// in\n    tag_531:\n        /* \"#utility.yul\":9616:9735   */\n    tag_530:\n        /* \"#utility.yul\":9774:9775   */\n      0x00\n        /* \"#utility.yul\":9799:9852   */\n      tag_532\n        /* \"#utility.yul\":9844:9851   */\n      dup6\n        /* \"#utility.yul\":9835:9841   */\n      dup3\n        /* \"#utility.yul\":9824:9833   */\n      dup7\n        /* \"#utility.yul\":9820:9842   */\n      add\n        /* \"#utility.yul\":9799:9852   */\n      tag_381\n      jump\t// in\n    tag_532:\n        /* \"#utility.yul\":9789:9852   */\n      swap3\n      pop\n        /* \"#utility.yul\":9745:9862   */\n      pop\n        /* \"#utility.yul\":9901:9903   */\n      0x20\n        /* \"#utility.yul\":9927:9980   */\n      tag_533\n        /* \"#utility.yul\":9972:9979   */\n      dup6\n        /* \"#utility.yul\":9963:9969   */\n      dup3\n        /* \"#utility.yul\":9952:9961   */\n      dup7\n        /* \"#utility.yul\":9948:9970   */\n      add\n        /* \"#utility.yul\":9927:9980   */\n      tag_381\n      jump\t// in\n    tag_533:\n        /* \"#utility.yul\":9917:9980   */\n      swap2\n      pop\n        /* \"#utility.yul\":9872:9990   */\n      pop\n        /* \"#utility.yul\":9523:9997   */\n      swap3\n      pop\n      swap3\n      swap1\n      pop\n      jump\t// out\n        /* \"#utility.yul\":10003:10183   */\n    tag_400:\n        /* \"#utility.yul\":10051:10128   */\n      0x4e487b7100000000000000000000000000000000000000000000000000000000\n        /* \"#utility.yul\":10048:10049   */\n      0x00\n        /* \"#utility.yul\":10041:10129   */\n      mstore\n        /* \"#utility.yul\":10148:10152   */\n      0x11\n        /* \"#utility.yul\":10145:10146   */\n      0x04\n        /* \"#utility.yul\":10138:10153   */\n      mstore\n        /* \"#utility.yul\":10172:10176   */\n      0x24\n        /* \"#utility.yul\":10169:10170   */\n      0x00\n        /* \"#utility.yul\":10162:10177   */\n      revert\n        /* \"#utility.yul\":10189:10380   */\n    tag_179:\n        /* \"#utility.yul\":10229:10232   */\n      0x00\n        /* \"#utility.yul\":10248:10268   */\n      tag_536\n        /* \"#utility.yul\":10266:10267   */\n      dup3\n        /* \"#utility.yul\":10248:10268   */\n      tag_368\n      jump\t// in\n    tag_536:\n        /* \"#utility.yul\":10243:10268   */\n      swap2\n      pop\n        /* \"#utility.yul\":10282:10302   */\n      tag_537\n        /* \"#utility.yul\":10300:10301   */\n      dup4\n        /* \"#utility.yul\":10282:10302   */\n      tag_368\n      jump\t// in\n    tag_537:\n        /* \"#utility.yul\":10277:10302   */\n      swap3\n      pop\n        /* \"#utility.yul\":10325:10326   */\n      dup3\n        /* \"#utility.yul\":10322:10323   */\n      dup3\n        /* \"#utility.yul\":10318:10327   */\n      add\n        /* \"#utility.yul\":10311:10327   */\n      swap1\n      pop\n        /* \"#utility.yul\":10346:10349   */\n      dup1\n        /* \"#utility.yul\":10343:10344   */\n      dup3\n        /* \"#utility.yul\":10340:10350   */\n      gt\n        /* \"#utility.yul\":10337:10373   */\n      iszero\n      tag_538\n      jumpi\n        /* \"#utility.yul\":10353:10371   */\n      tag_539\n      tag_400\n      jump\t// in\n    tag_539:\n        /* \"#utility.yul\":10337:10373   */\n    tag_538:\n        /* \"#utility.yul\":10189:10380   */\n      swap3\n      swap2\n      pop\n      pop\n      jump\t// out\n        /* \"#utility.yul\":10386:10566   */\n    tag_401:\n        /* \"#utility.yul\":10434:10511   */\n      0x4e487b7100000000000000000000000000000000000000000000000000000000\n        /* \"#utility.yul\":10431:10432   */\n      0x00\n        /* \"#utility.yul\":10424:10512   */\n      mstore\n        /* \"#utility.yul\":10531:10535   */\n      0x22\n        /* \"#utility.yul\":10528:10529   */\n      0x04\n        /* \"#utility.yul\":10521:10536   */\n      mstore\n        /* \"#utility.yul\":10555:10559   */\n      0x24\n        /* \"#utility.yul\":10552:10553   */\n      0x00\n        /* \"#utility.yul\":10545:10560   */\n      revert\n        /* \"#utility.yul\":10572:10892   */\n    tag_182:\n        /* \"#utility.yul\":10616:10622   */\n      0x00\n        /* \"#utility.yul\":10653:10654   */\n      0x02\n        /* \"#utility.yul\":10647:10651   */\n      dup3\n        /* \"#utility.yul\":10643:10655   */\n      div\n        /* \"#utility.yul\":10633:10655   */\n      swap1\n      pop\n        /* \"#utility.yul\":10700:10701   */\n      0x01\n        /* \"#utility.yul\":10694:10698   */\n      dup3\n        /* \"#utility.yul\":10690:10702   */\n      and\n        /* \"#utility.yul\":10721:10739   */\n      dup1\n        /* \"#utility.yul\":10711:10792   */\n      tag_542\n      jumpi\n        /* \"#utility.yul\":10777:10781   */\n      0x7f\n        /* \"#utility.yul\":10769:10775   */\n      dup3\n        /* \"#utility.yul\":10765:10782   */\n      and\n        /* \"#utility.yul\":10755:10782   */\n      swap2\n      pop\n        /* \"#utility.yul\":10711:10792   */\n    tag_542:\n        /* \"#utility.yul\":10839:10841   */\n      0x20\n        /* \"#utility.yul\":10831:10837   */\n      dup3\n        /* \"#utility.yul\":10828:10842   */\n      lt\n        /* \"#utility.yul\":10808:10826   */\n      dup2\n        /* \"#utility.yul\":10805:10843   */\n      sub\n        /* \"#utility.yul\":10802:10886   */\n      tag_543\n      jumpi\n        /* \"#utility.yul\":10858:10876   */\n      tag_544\n      tag_401\n      jump\t// in\n    tag_544:\n        /* \"#utility.yul\":10802:10886   */\n    tag_543:\n        /* \"#utility.yul\":10623:10892   */\n      pop\n        /* \"#utility.yul\":10572:10892   */\n      swap2\n      swap1\n      pop\n      jump\t// out\n        /* \"#utility.yul\":10898:11074   */\n    tag_402:\n        /* \"#utility.yul\":11038:11066   */\n      0x43616c6c6572206d75737420626520746865206d61696c626f78000000000000\n        /* \"#utility.yul\":11034:11035   */\n      0x00\n        /* \"#utility.yul\":11026:11032   */\n      dup3\n        /* \"#utility.yul\":11022:11036   */\n      add\n        /* \"#utility.yul\":11015:11067   */\n      mstore\n        /* \"#utility.yul\":10898:11074   */\n      pop\n      jump\t// out\n        /* \"#utility.yul\":11080:11446   */\n    tag_403:\n        /* \"#utility.yul\":11222:11225   */\n      0x00\n        /* \"#utility.yul\":11243:11310   */\n      tag_547\n        /* \"#utility.yul\":11307:11309   */\n      0x1a\n        /* \"#utility.yul\":11302:11305   */\n      dup4\n        /* \"#utility.yul\":11243:11310   */\n      tag_371\n      jump\t// in\n    tag_547:\n        /* \"#utility.yul\":11236:11310   */\n      swap2\n      pop\n        /* \"#utility.yul\":11319:11412   */\n      tag_548\n        /* \"#utility.yul\":11408:11411   */\n      dup3\n        /* \"#utility.yul\":11319:11412   */\n      tag_402\n      jump\t// in\n    tag_548:\n        /* \"#utility.yul\":11437:11439   */\n      0x20\n        /* \"#utility.yul\":11432:11435   */\n      dup3\n        /* \"#utility.yul\":11428:11440   */\n      add\n        /* \"#utility.yul\":11421:11440   */\n      swap1\n      pop\n        /* \"#utility.yul\":11080:11446   */\n      swap2\n      swap1\n      pop\n      jump\t// out\n        /* \"#utility.yul\":11452:11871   */\n    tag_219:\n        /* \"#utility.yul\":11618:11622   */\n      0x00\n        /* \"#utility.yul\":11656:11658   */\n      0x20\n        /* \"#utility.yul\":11645:11654   */\n      dup3\n        /* \"#utility.yul\":11641:11659   */\n      add\n        /* \"#utility.yul\":11633:11659   */\n      swap1\n      pop\n        /* \"#utility.yul\":11705:11714   */\n      dup2\n        /* \"#utility.yul\":11699:11703   */\n      dup2\n        /* \"#utility.yul\":11695:11715   */\n      sub\n        /* \"#utility.yul\":11691:11692   */\n      0x00\n        /* \"#utility.yul\":11680:11689   */\n      dup4\n        /* \"#utility.yul\":11676:11693   */\n      add\n        /* \"#utility.yul\":11669:11716   */\n      mstore\n        /* \"#utility.yul\":11733:11864   */\n      tag_550\n        /* \"#utility.yul\":11859:11863   */\n      dup2\n        /* \"#utility.yul\":11733:11864   */\n      tag_403\n      jump\t// in\n    tag_550:\n        /* \"#utility.yul\":11725:11864   */\n      swap1\n      pop\n        /* \"#utility.yul\":11452:11871   */\n      swap2\n      swap1\n      pop\n      jump\t// out\n        /* \"#utility.yul\":11877:12056   */\n    tag_404:\n        /* \"#utility.yul\":12017:12048   */\n      0x53656e646572206d75737420626520747275737465642072656d6f7465000000\n        /* \"#utility.yul\":12013:12014   */\n      0x00\n        /* \"#utility.yul\":12005:12011   */\n      dup3\n        /* \"#utility.yul\":12001:12015   */\n      add\n        /* \"#utility.yul\":11994:12049   */\n      mstore\n        /* \"#utility.yul\":11877:12056   */\n      pop\n      jump\t// out\n        /* \"#utility.yul\":12062:12428   */\n    tag_405:\n        /* \"#utility.yul\":12204:12207   */\n      0x00\n        /* \"#utility.yul\":12225:12292   */\n      tag_553\n        /* \"#utility.yul\":12289:12291   */\n      0x1d\n        /* \"#utility.yul\":12284:12287   */\n      dup4\n        /* \"#utility.yul\":12225:12292   */\n      tag_371\n      jump\t// in\n    tag_553:\n        /* \"#utility.yul\":12218:12292   */\n      swap2\n      pop\n        /* \"#utility.yul\":12301:12394   */\n      tag_554\n        /* \"#utility.yul\":12390:12393   */\n      dup3\n        /* \"#utility.yul\":12301:12394   */\n      tag_404\n      jump\t// in\n    tag_554:\n        /* \"#utility.yul\":12419:12421   */\n      0x20\n        /* \"#utility.yul\":12414:12417   */\n      dup3\n        /* \"#utility.yul\":12410:12422   */\n      add\n        /* \"#utility.yul\":12403:12422   */\n      swap1\n      pop\n        /* \"#utility.yul\":12062:12428   */\n      swap2\n      swap1\n      pop\n      jump\t// out\n        /* \"#utility.yul\":12434:12853   */\n    tag_222:\n        /* \"#utility.yul\":12600:12604   */\n      0x00\n        /* \"#utility.yul\":12638:12640   */\n      0x20\n        /* \"#utility.yul\":12627:12636   */\n      dup3\n        /* \"#utility.yul\":12623:12641   */\n      add\n        /* \"#utility.yul\":12615:12641   */\n      swap1\n      pop\n        /* \"#utility.yul\":12687:12696   */\n      dup2\n        /* \"#utility.yul\":12681:12685   */\n      dup2\n        /* \"#utility.yul\":12677:12697   */\n      sub\n        /* \"#utility.yul\":12673:12674   */\n      0x00\n        /* \"#utility.yul\":12662:12671   */\n      dup4\n        /* \"#utility.yul\":12658:12675   */\n      add\n        /* \"#utility.yul\":12651:12698   */\n      mstore\n        /* \"#utility.yul\":12715:12846   */\n      tag_556\n        /* \"#utility.yul\":12841:12845   */\n      dup2\n        /* \"#utility.yul\":12715:12846   */\n      tag_405\n      jump\t// in\n    tag_556:\n        /* \"#utility.yul\":12707:12846   */\n      swap1\n      pop\n        /* \"#utility.yul\":12434:12853   */\n      swap2\n      swap1\n      pop\n      jump\t// out\n        /* \"#utility.yul\":12859:12963   */\n    tag_406:\n        /* \"#utility.yul\":12904:12911   */\n      0x00\n        /* \"#utility.yul\":12933:12957   */\n      tag_558\n        /* \"#utility.yul\":12951:12956   */\n      dup3\n        /* \"#utility.yul\":12933:12957   */\n      tag_378\n      jump\t// in\n    tag_558:\n        /* \"#utility.yul\":12922:12957   */\n      swap1\n      pop\n        /* \"#utility.yul\":12859:12963   */\n      swap2\n      swap1\n      pop\n      jump\t// out\n        /* \"#utility.yul\":12969:13107   */\n    tag_407:\n        /* \"#utility.yul\":13050:13082   */\n      tag_560\n        /* \"#utility.yul\":13076:13081   */\n      dup2\n        /* \"#utility.yul\":13050:13082   */\n      tag_406\n      jump\t// in\n    tag_560:\n        /* \"#utility.yul\":13043:13048   */\n      dup2\n        /* \"#utility.yul\":13040:13083   */\n      eq\n        /* \"#utility.yul\":13030:13101   */\n      tag_561\n      jumpi\n        /* \"#utility.yul\":13097:13098   */\n      0x00\n        /* \"#utility.yul\":13094:13095   */\n      dup1\n        /* \"#utility.yul\":13087:13099   */\n      revert\n        /* \"#utility.yul\":13030:13101   */\n    tag_561:\n        /* \"#utility.yul\":12969:13107   */\n      pop\n      jump\t// out\n        /* \"#utility.yul\":13113:13268   */\n    tag_408:\n        /* \"#utility.yul\":13167:13172   */\n      0x00\n        /* \"#utility.yul\":13205:13211   */\n      dup2\n        /* \"#utility.yul\":13192:13212   */\n      calldataload\n        /* \"#utility.yul\":13183:13212   */\n      swap1\n      pop\n        /* \"#utility.yul\":13221:13262   */\n      tag_563\n        /* \"#utility.yul\":13256:13261   */\n      dup2\n        /* \"#utility.yul\":13221:13262   */\n      tag_407\n      jump\t// in\n    tag_563:\n        /* \"#utility.yul\":13113:13268   */\n      swap3\n      swap2\n      pop\n      pop\n      jump\t// out\n        /* \"#utility.yul\":13274:13764   */\n    tag_224:\n        /* \"#utility.yul\":13350:13356   */\n      0x00\n        /* \"#utility.yul\":13358:13364   */\n      dup1\n        /* \"#utility.yul\":13407:13409   */\n      0x40\n        /* \"#utility.yul\":13395:13404   */\n      dup4\n        /* \"#utility.yul\":13386:13393   */\n      dup6\n        /* \"#utility.yul\":13382:13405   */\n      sub\n        /* \"#utility.yul\":13378:13410   */\n      slt\n        /* \"#utility.yul\":13375:13494   */\n      iszero\n      tag_565\n      jumpi\n        /* \"#utility.yul\":13413:13492   */\n      tag_566\n      tag_376\n      jump\t// in\n    tag_566:\n        /* \"#utility.yul\":13375:13494   */\n    tag_565:\n        /* \"#utility.yul\":13533:13534   */\n      0x00\n        /* \"#utility.yul\":13558:13619   */\n      tag_567\n        /* \"#utility.yul\":13611:13618   */\n      dup6\n        /* \"#utility.yul\":13602:13608   */\n      dup3\n        /* \"#utility.yul\":13591:13600   */\n      dup7\n        /* \"#utility.yul\":13587:13609   */\n      add\n        /* \"#utility.yul\":13558:13619   */\n      tag_408\n      jump\t// in\n    tag_567:\n        /* \"#utility.yul\":13548:13619   */\n      swap3\n      pop\n        /* \"#utility.yul\":13504:13629   */\n      pop\n        /* \"#utility.yul\":13668:13670   */\n      0x20\n        /* \"#utility.yul\":13694:13747   */\n      tag_568\n        /* \"#utility.yul\":13739:13746   */\n      dup6\n        /* \"#utility.yul\":13730:13736   */\n      dup3\n        /* \"#utility.yul\":13719:13728   */\n      dup7\n        /* \"#utility.yul\":13715:13737   */\n      add\n        /* \"#utility.yul\":13694:13747   */\n      tag_383\n      jump\t// in\n    tag_568:\n        /* \"#utility.yul\":13684:13747   */\n      swap2\n      pop\n        /* \"#utility.yul\":13639:13757   */\n      pop\n        /* \"#utility.yul\":13274:13764   */\n      swap3\n      pop\n      swap3\n      swap1\n      pop\n      jump\t// out\n        /* \"#utility.yul\":13770:13947   */\n    tag_409:\n        /* \"#utility.yul\":13910:13939   */\n      0x43616c6c6572206973206e6f7420612067616d65206d61737465720000000000\n        /* \"#utility.yul\":13906:13907   */\n      0x00\n        /* \"#utility.yul\":13898:13904   */\n      dup3\n        /* \"#utility.yul\":13894:13908   */\n      add\n        /* \"#utility.yul\":13887:13940   */\n      mstore\n        /* \"#utility.yul\":13770:13947   */\n      pop\n      jump\t// out\n        /* \"#utility.yul\":13953:14319   */\n    tag_410:\n        /* \"#utility.yul\":14095:14098   */\n      0x00\n        /* \"#utility.yul\":14116:14183   */\n      tag_571\n        /* \"#utility.yul\":14180:14182   */\n      0x1b\n        /* \"#utility.yul\":14175:14178   */\n      dup4\n        /* \"#utility.yul\":14116:14183   */\n      tag_371\n      jump\t// in\n    tag_571:\n        /* \"#utility.yul\":14109:14183   */\n      swap2\n      pop\n        /* \"#utility.yul\":14192:14285   */\n      tag_572\n        /* \"#utility.yul\":14281:14284   */\n      dup3\n        /* \"#utility.yul\":14192:14285   */\n      tag_409\n      jump\t// in\n    tag_572:\n        /* \"#utility.yul\":14310:14312   */\n      0x20\n        /* \"#utility.yul\":14305:14308   */\n      dup3\n        /* \"#utility.yul\":14301:14313   */\n      add\n        /* \"#utility.yul\":14294:14313   */\n      swap1\n      pop\n        /* \"#utility.yul\":13953:14319   */\n      swap2\n      swap1\n      pop\n      jump\t// out\n        /* \"#utility.yul\":14325:14744   */\n    tag_256:\n        /* \"#utility.yul\":14491:14495   */\n      0x00\n        /* \"#utility.yul\":14529:14531   */\n      0x20\n        /* \"#utility.yul\":14518:14527   */\n      dup3\n        /* \"#utility.yul\":14514:14532   */\n      add\n        /* \"#utility.yul\":14506:14532   */\n      swap1\n      pop\n        /* \"#utility.yul\":14578:14587   */\n      dup2\n        /* \"#utility.yul\":14572:14576   */\n      dup2\n        /* \"#utility.yul\":14568:14588   */\n      sub\n        /* \"#utility.yul\":14564:14565   */\n      0x00\n        /* \"#utility.yul\":14553:14562   */\n      dup4\n        /* \"#utility.yul\":14549:14566   */\n      add\n        /* \"#utility.yul\":14542:14589   */\n      mstore\n        /* \"#utility.yul\":14606:14737   */\n      tag_574\n        /* \"#utility.yul\":14732:14736   */\n      dup2\n        /* \"#utility.yul\":14606:14737   */\n      tag_410\n      jump\t// in\n    tag_574:\n        /* \"#utility.yul\":14598:14737   */\n      swap1\n      pop\n        /* \"#utility.yul\":14325:14744   */\n      swap2\n      swap1\n      pop\n      jump\t// out\n        /* \"#utility.yul\":14750:15192   */\n    tag_286:\n        /* \"#utility.yul\":14899:14903   */\n      0x00\n        /* \"#utility.yul\":14937:14939   */\n      0x60\n        /* \"#utility.yul\":14926:14935   */\n      dup3\n        /* \"#utility.yul\":14922:14940   */\n      add\n        /* \"#utility.yul\":14914:14940   */\n      swap1\n      pop\n        /* \"#utility.yul\":14950:15021   */\n      tag_576\n        /* \"#utility.yul\":15018:15019   */\n      0x00\n        /* \"#utility.yul\":15007:15016   */\n      dup4\n        /* \"#utility.yul\":15003:15020   */\n      add\n        /* \"#utility.yul\":14994:15000   */\n      dup7\n        /* \"#utility.yul\":14950:15021   */\n      tag_386\n      jump\t// in\n    tag_576:\n        /* \"#utility.yul\":15031:15103   */\n      tag_577\n        /* \"#utility.yul\":15099:15101   */\n      0x20\n        /* \"#utility.yul\":15088:15097   */\n      dup4\n        /* \"#utility.yul\":15084:15102   */\n      add\n        /* \"#utility.yul\":15075:15081   */\n      dup6\n        /* \"#utility.yul\":15031:15103   */\n      tag_369\n      jump\t// in\n    tag_577:\n        /* \"#utility.yul\":15113:15185   */\n      tag_578\n        /* \"#utility.yul\":15181:15183   */\n      0x40\n        /* \"#utility.yul\":15170:15179   */\n      dup4\n        /* \"#utility.yul\":15166:15184   */\n      add\n        /* \"#utility.yul\":15157:15163   */\n      dup5\n        /* \"#utility.yul\":15113:15185   */\n      tag_369\n      jump\t// in\n    tag_578:\n        /* \"#utility.yul\":14750:15192   */\n      swap5\n      swap4\n      pop\n      pop\n      pop\n      pop\n      jump\t// out\n        /* \"#utility.yul\":15198:15366   */\n    tag_411:\n        /* \"#utility.yul\":15338:15358   */\n      0x4d617820737570706c7920726561636865640000000000000000000000000000\n        /* \"#utility.yul\":15334:15335   */\n      0x00\n        /* \"#utility.yul\":15326:15332   */\n      dup3\n        /* \"#utility.yul\":15322:15336   */\n      add\n        /* \"#utility.yul\":15315:15359   */\n      mstore\n        /* \"#utility.yul\":15198:15366   */\n      pop\n      jump\t// out\n        /* \"#utility.yul\":15372:15738   */\n    tag_412:\n        /* \"#utility.yul\":15514:15517   */\n      0x00\n        /* \"#utility.yul\":15535:15602   */\n      tag_581\n        /* \"#utility.yul\":15599:15601   */\n      0x12\n        /* \"#utility.yul\":15594:15597   */\n      dup4\n        /* \"#utility.yul\":15535:15602   */\n      tag_371\n      jump\t// in\n    tag_581:\n        /* \"#utility.yul\":15528:15602   */\n      swap2\n      pop\n        /* \"#utility.yul\":15611:15704   */\n      tag_582\n        /* \"#utility.yul\":15700:15703   */\n      dup3\n        /* \"#utility.yul\":15611:15704   */\n      tag_411\n      jump\t// in\n    tag_582:\n        /* \"#utility.yul\":15729:15731   */\n      0x20\n        /* \"#utility.yul\":15724:15727   */\n      dup3\n        /* \"#utility.yul\":15720:15732   */\n      add\n        /* \"#utility.yul\":15713:15732   */\n      swap1\n      pop\n        /* \"#utility.yul\":15372:15738   */\n      swap2\n      swap1\n      pop\n      jump\t// out\n        /* \"#utility.yul\":15744:16163   */\n    tag_319:\n        /* \"#utility.yul\":15910:15914   */\n      0x00\n        /* \"#utility.yul\":15948:15950   */\n      0x20\n        /* \"#utility.yul\":15937:15946   */\n      dup3\n        /* \"#utility.yul\":15933:15951   */\n      add\n        /* \"#utility.yul\":15925:15951   */\n      swap1\n      pop\n        /* \"#utility.yul\":15997:16006   */\n      dup2\n        /* \"#utility.yul\":15991:15995   */\n      dup2\n        /* \"#utility.yul\":15987:16007   */\n      sub\n        /* \"#utility.yul\":15983:15984   */\n      0x00\n        /* \"#utility.yul\":15972:15981   */\n      dup4\n        /* \"#utility.yul\":15968:15985   */\n      add\n        /* \"#utility.yul\":15961:16008   */\n      mstore\n        /* \"#utility.yul\":16025:16156   */\n      tag_584\n        /* \"#utility.yul\":16151:16155   */\n      dup2\n        /* \"#utility.yul\":16025:16156   */\n      tag_412\n      jump\t// in\n    tag_584:\n        /* \"#utility.yul\":16017:16156   */\n      swap1\n      pop\n        /* \"#utility.yul\":15744:16163   */\n      swap2\n      swap1\n      pop\n      jump\t// out\n        /* \"#utility.yul\":16169:16363   */\n    tag_321:\n        /* \"#utility.yul\":16209:16213   */\n      0x00\n        /* \"#utility.yul\":16229:16249   */\n      tag_586\n        /* \"#utility.yul\":16247:16248   */\n      dup3\n        /* \"#utility.yul\":16229:16249   */\n      tag_368\n      jump\t// in\n    tag_586:\n        /* \"#utility.yul\":16224:16249   */\n      swap2\n      pop\n        /* \"#utility.yul\":16263:16283   */\n      tag_587\n        /* \"#utility.yul\":16281:16282   */\n      dup4\n        /* \"#utility.yul\":16263:16283   */\n      tag_368\n      jump\t// in\n    tag_587:\n        /* \"#utility.yul\":16258:16283   */\n      swap3\n      pop\n        /* \"#utility.yul\":16307:16308   */\n      dup3\n        /* \"#utility.yul\":16304:16305   */\n      dup3\n        /* \"#utility.yul\":16300:16309   */\n      sub\n        /* \"#utility.yul\":16292:16309   */\n      swap1\n      pop\n        /* \"#utility.yul\":16331:16332   */\n      dup2\n        /* \"#utility.yul\":16325:16329   */\n      dup2\n        /* \"#utility.yul\":16322:16333   */\n      gt\n        /* \"#utility.yul\":16319:16356   */\n      iszero\n      tag_588\n      jumpi\n        /* \"#utility.yul\":16336:16354   */\n      tag_589\n      tag_400\n      jump\t// in\n    tag_589:\n        /* \"#utility.yul\":16319:16356   */\n    tag_588:\n        /* \"#utility.yul\":16169:16363   */\n      swap3\n      swap2\n      pop\n      pop\n      jump\t// out\n        /* \"#utility.yul\":16369:16545   */\n    tag_413:\n        /* \"#utility.yul\":16509:16537   */\n      0x4461696c7920726577617264206c696d69742072656163686564000000000000\n        /* \"#utility.yul\":16505:16506   */\n      0x00\n        /* \"#utility.yul\":16497:16503   */\n      dup3\n        /* \"#utility.yul\":16493:16507   */\n      add\n        /* \"#utility.yul\":16486:16538   */\n      mstore\n        /* \"#utility.yul\":16369:16545   */\n      pop\n      jump\t// out\n        /* \"#utility.yul\":16551:16917   */\n    tag_414:\n        /* \"#utility.yul\":16693:16696   */\n      0x00\n        /* \"#utility.yul\":16714:16781   */\n      tag_592\n        /* \"#utility.yul\":16778:16780   */\n      0x1a\n        /* \"#utility.yul\":16773:16776   */\n      dup4\n        /* \"#utility.yul\":16714:16781   */\n      tag_371\n      jump\t// in\n    tag_592:\n        /* \"#utility.yul\":16707:16781   */\n      swap2\n      pop\n        /* \"#utility.yul\":16790:16883   */\n      tag_593\n        /* \"#utility.yul\":16879:16882   */\n      dup3\n        /* \"#utility.yul\":16790:16883   */\n      tag_413\n      jump\t// in\n    tag_593:\n        /* \"#utility.yul\":16908:16910   */\n      0x20\n        /* \"#utility.yul\":16903:16906   */\n      dup3\n        /* \"#utility.yul\":16899:16911   */\n      add\n        /* \"#utility.yul\":16892:16911   */\n      swap1\n      pop\n        /* \"#utility.yul\":16551:16917   */\n      swap2\n      swap1\n      pop\n      jump\t// out\n        /* \"#utility.yul\":16923:17342   */\n    tag_324:\n        /* \"#utility.yul\":17089:17093   */\n      0x00\n        /* \"#utility.yul\":17127:17129   */\n      0x20\n        /* \"#utility.yul\":17116:17125   */\n      dup3\n        /* \"#utility.yul\":17112:17130   */\n      add\n        /* \"#utility.yul\":17104:17130   */\n      swap1\n      pop\n        /* \"#utility.yul\":17176:17185   */\n      dup2\n        /* \"#utility.yul\":17170:17174   */\n      dup2\n        /* \"#utility.yul\":17166:17186   */\n      sub\n        /* \"#utility.yul\":17162:17163   */\n      0x00\n        /* \"#utility.yul\":17151:17160   */\n      dup4\n        /* \"#utility.yul\":17147:17164   */\n      add\n        /* \"#utility.yul\":17140:17187   */\n      mstore\n        /* \"#utility.yul\":17204:17335   */\n      tag_595\n        /* \"#utility.yul\":17330:17334   */\n      dup2\n        /* \"#utility.yul\":17204:17335   */\n      tag_414\n      jump\t// in\n    tag_595:\n        /* \"#utility.yul\":17196:17335   */\n      swap1\n      pop\n        /* \"#utility.yul\":16923:17342   */\n      swap2\n      swap1\n      pop\n      jump\t// out\n        /* \"#utility.yul\":17348:17524   */\n    tag_415:\n        /* \"#utility.yul\":17488:17516   */\n      0x5265776172642065786365656473206461696c79206c696d6974000000000000\n        /* \"#utility.yul\":17484:17485   */\n      0x00\n        /* \"#utility.yul\":17476:17482   */\n      dup3\n        /* \"#utility.yul\":17472:17486   */\n      add\n        /* \"#utility.yul\":17465:17517   */\n      mstore\n        /* \"#utility.yul\":17348:17524   */\n      pop\n      jump\t// out\n        /* \"#utility.yul\":17530:17896   */\n    tag_416:\n        /* \"#utility.yul\":17672:17675   */\n      0x00\n        /* \"#utility.yul\":17693:17760   */\n      tag_598\n        /* \"#utility.yul\":17757:17759   */\n      0x1a\n        /* \"#utility.yul\":17752:17755   */\n      dup4\n        /* \"#utility.yul\":17693:17760   */\n      tag_371\n      jump\t// in\n    tag_598:\n        /* \"#utility.yul\":17686:17760   */\n      swap2\n      pop\n        /* \"#utility.yul\":17769:17862   */\n      tag_599\n        /* \"#utility.yul\":17858:17861   */\n      dup3\n        /* \"#utility.yul\":17769:17862   */\n      tag_415\n      jump\t// in\n    tag_599:\n        /* \"#utility.yul\":17887:17889   */\n      0x20\n        /* \"#utility.yul\":17882:17885   */\n      dup3\n        /* \"#utility.yul\":17878:17890   */\n      add\n        /* \"#utility.yul\":17871:17890   */\n      swap1\n      pop\n        /* \"#utility.yul\":17530:17896   */\n      swap2\n      swap1\n      pop\n      jump\t// out\n        /* \"#utility.yul\":17902:18321   */\n    tag_327:\n        /* \"#utility.yul\":18068:18072   */\n      0x00\n        /* \"#utility.yul\":18106:18108   */\n      0x20\n        /* \"#utility.yul\":18095:18104   */\n      dup3\n        /* \"#utility.yul\":18091:18109   */\n      add\n        /* \"#utility.yul\":18083:18109   */\n      swap1\n      pop\n        /* \"#utility.yul\":18155:18164   */\n      dup2\n        /* \"#utility.yul\":18149:18153   */\n      dup2\n        /* \"#utility.yul\":18145:18165   */\n      sub\n        /* \"#utility.yul\":18141:18142   */\n      0x00\n        /* \"#utility.yul\":18130:18139   */\n      dup4\n        /* \"#utility.yul\":18126:18143   */\n      add\n        /* \"#utility.yul\":18119:18166   */\n      mstore\n        /* \"#utility.yul\":18183:18314   */\n      tag_601\n        /* \"#utility.yul\":18309:18313   */\n      dup2\n        /* \"#utility.yul\":18183:18314   */\n      tag_416\n      jump\t// in\n    tag_601:\n        /* \"#utility.yul\":18175:18314   */\n      swap1\n      pop\n        /* \"#utility.yul\":17902:18321   */\n      swap2\n      swap1\n      pop\n      jump\t// out\n\n    auxdata: 0xa264697066735822122047ccad7c1e8622e6da0b72b8a402472bae8e2d3d40477b6df583e75bc0dfe87164736f6c63430008180033\n}\n",
				"bytecode": {
					"linkReferences": {},
					"object": "608060405234801562000010575f80fd5b50604051620029c5380380620029c583398181016040528101906200003691906200032d565b336040518060400160405280600581526020017f42696c69730000000000000000000000000000000000000000000000000000008152506040518060400160405280600381526020017f424c5300000000000000000000000000000000000000000000000000000000008152508160039081620000b49190620005c1565b508060049081620000c69190620005c1565b5050505f60055f6101000a81548160ff0219169083151502179055505f73ffffffffffffffffffffffffffffffffffffffff168173ffffffffffffffffffffffffffffffffffffffff160362000155575f6040517f1e4fbdf70000000000000000000000000000000000000000000000000000000081526004016200014c9190620006b6565b60405180910390fd5b62000166816200020360201b60201c565b508060065f6101000a81548173ffffffffffffffffffffffffffffffffffffffff021916908373ffffffffffffffffffffffffffffffffffffffff160217905550600160085f3373ffffffffffffffffffffffffffffffffffffffff1673ffffffffffffffffffffffffffffffffffffffff1681526020019081526020015f205f6101000a81548160ff02191690831515021790555050620006d1565b5f600560019054906101000a900473ffffffffffffffffffffffffffffffffffffffff16905081600560016101000a81548173ffffffffffffffffffffffffffffffffffffffff021916908373ffffffffffffffffffffffffffffffffffffffff1602179055508173ffffffffffffffffffffffffffffffffffffffff168173ffffffffffffffffffffffffffffffffffffffff167f8be0079c531659141344cd1fd0a4f28419497f9722a3daafe3b4186f6b6457e060405160405180910390a35050565b5f80fd5b5f73ffffffffffffffffffffffffffffffffffffffff82169050919050565b5f620002f782620002cc565b9050919050565b6200030981620002eb565b811462000314575f80fd5b50565b5f815190506200032781620002fe565b92915050565b5f60208284031215620003455762000344620002c8565b5b5f620003548482850162000317565b91505092915050565b5f81519050919050565b7f4e487b71000000000000000000000000000000000000000000000000000000005f52604160045260245ffd5b7f4e487b71000000000000000000000000000000000000000000000000000000005f52602260045260245ffd5b5f6002820490506001821680620003d957607f821691505b602082108103620003ef57620003ee62000394565b5b50919050565b5f819050815f5260205f209050919050565b5f6020601f8301049050919050565b5f82821b905092915050565b5f60088302620004537fffffffffffffffffffffffffffffffffffffffffffffffffffffffffffffffff8262000416565b6200045f868362000416565b95508019841693508086168417925050509392505050565b5f819050919050565b5f819050919050565b5f620004a9620004a36200049d8462000477565b62000480565b62000477565b9050919050565b5f819050919050565b620004c48362000489565b620004dc620004d382620004b0565b84845462000422565b825550505050565b5f90565b620004f2620004e4565b620004ff818484620004b9565b505050565b5b8181101562000526576200051a5f82620004e8565b60018101905062000505565b5050565b601f82111562000575576200053f81620003f5565b6200054a8462000407565b810160208510156200055a578190505b62000572620005698562000407565b83018262000504565b50505b505050565b5f82821c905092915050565b5f620005975f19846008026200057a565b1980831691505092915050565b5f620005b1838362000586565b9150826002028217905092915050565b620005cc826200035d565b67ffffffffffffffff811115620005e857620005e762000367565b5b620005f48254620003c1565b620006018282856200052a565b5f60209050601f83116001811462000637575f841562000622578287015190505b6200062e8582620005a4565b8655506200069d565b601f1984166200064786620003f5565b5f5b82811015620006705784890151825560018201915060208501945060208101905062000649565b868310156200069057848901516200068c601f89168262000586565b8355505b6001600288020188555050505b505050505050565b620006b081620002eb565b82525050565b5f602082019050620006cb5f830184620006a5565b92915050565b6122e680620006df5f395ff3fe6080604052600436106101cc575f3560e01c80635c975abb116100f657806395d89b4111610094578063dd62ed3e11610063578063dd62ed3e1461063e578063dfca5ce31461067a578063f2fde38b146106a2578063f3c61d6b146106ca576101cc565b806395d89b41146105865780639a49090e146105b0578063a9059cbb146105d8578063bca1229914610614576101cc565b806379cc6790116100d057806379cc6790146104f65780638456cb591461051e5780638b1c7b10146105345780638da5cb5b1461055c576101cc565b80635c975abb1461047a57806370a08231146104a4578063715018a6146104e0576101cc565b80632bda3e0b1161016e5780633f4ba83a1161013d5780633f4ba83a146103e45780634080d640146103fa57806342966c681461043657806356d5d4751461045e576101cc565b80632bda3e0b1461032c578063313ce5671461035457806332cb6b0c1461037e5780633b5d441e146103a8576101cc565b806318160ddd116101aa57806318160ddd146102605780631a6e4db41461028a5780631d187c50146102b457806323b872dd146102f0576101cc565b8063010a38f5146101d057806306fdde03146101fa578063095ea7b314610224575b5f80fd5b3480156101db575f80fd5b506101e46106f2565b6040516101f191906119d3565b60405180910390f35b348015610205575f80fd5b5061020e610714565b60405161021b9190611a76565b60405180910390f35b34801561022f575f80fd5b5061024a60048036038101906102459190611b22565b6107a4565b6040516102579190611b7a565b60405180910390f35b34801561026b575f80fd5b506102746107c6565b60405161028191906119d3565b60405180910390f35b348015610295575f80fd5b5061029e6107cf565b6040516102ab9190611ba2565b60405180910390f35b3480156102bf575f80fd5b506102da60048036038101906102d59190611bf4565b6107f4565b6040516102e79190611c37565b60405180910390f35b3480156102fb575f80fd5b5061031660048036038101906103119190611c50565b610809565b6040516103239190611b7a565b60405180910390f35b348015610337575f80fd5b50610352600480360381019061034d9190611cca565b610837565b005b34801561035f575f80fd5b50610368610865565b6040516103759190611d23565b60405180910390f35b348015610389575f80fd5b5061039261086d565b60405161039f91906119d3565b60405180910390f35b3480156103b3575f80fd5b506103ce60048036038101906103c99190611d3c565b61087b565b6040516103db91906119d3565b60405180910390f35b3480156103ef575f80fd5b506103f8610890565b005b348015610405575f80fd5b50610420600480360381019061041b9190611d3c565b6108a2565b60405161042d9190611b7a565b60405180910390f35b348015610441575f80fd5b5061045c60048036038101906104579190611d67565b6108bf565b005b61047860048036038101906104739190611df3565b6108d3565b005b348015610485575f80fd5b5061048e6109f0565b60405161049b9190611b7a565b60405180910390f35b3480156104af575f80fd5b506104ca60048036038101906104c59190611d3c565b610a05565b6040516104d791906119d3565b60405180910390f35b3480156104eb575f80fd5b506104f4610a4a565b005b348015610501575f80fd5b5061051c60048036038101906105179190611b22565b610a5d565b005b348015610529575f80fd5b50610532610a7d565b005b34801561053f575f80fd5b5061055a60048036038101906105559190611d3c565b610a8f565b005b348015610567575f80fd5b50610570610b31565b60405161057d9190611ba2565b60405180910390f35b348015610591575f80fd5b5061059a610b5a565b6040516105a79190611a76565b60405180910390f35b3480156105bb575f80fd5b506105d660048036038101906105d19190611b22565b610bea565b005b3480156105e3575f80fd5b506105fe60048036038101906105f99190611b22565b610c89565b60405161060b9190611b7a565b60405180910390f35b34801561061f575f80fd5b50610628610cab565b60405161063591906119d3565b60405180910390f35b348015610649575f80fd5b50610664600480360381019061065f9190611e64565b610cb8565b60405161067191906119d3565b60405180910390f35b348015610685575f80fd5b506106a0600480360381019061069b9190611d3c565b610d3a565b005b3480156106ad575f80fd5b506106c860048036038101906106c39190611d3c565b610ddc565b005b3480156106d5575f80fd5b506106f060048036038101906106eb9190611d3c565b610e60565b005b5f6001600a5f8282546107059190611ecf565b92505081905550600a54905090565b60606003805461072390611f2f565b80601f016020809104026020016040519081016040528092919081815260200182805461074f90611f2f565b801561079a5780601f106107715761010080835404028352916020019161079a565b820191905f5260205f20905b81548152906001019060200180831161077d57829003601f168201915b5050505050905090565b5f806107ae610eab565b90506107bb818585610eb2565b600191505092915050565b5f600254905090565b60065f9054906101000a900473ffffffffffffffffffffffffffffffffffffffff1681565b6007602052805f5260405f205f915090505481565b5f80610813610eab565b9050610820858285610ec4565b61082b858585610f56565b60019150509392505050565b61083f611046565b8060075f8463ffffffff1663ffffffff1681526020019081526020015f20819055505050565b5f6012905090565b69d3c21bcecceda100000081565b6009602052805f5260405f205f915090505481565b610898611046565b6108a06110cd565b565b6008602052805f5260405f205f915054906101000a900460ff1681565b6108d06108ca610eab565b8261112e565b50565b6108db6111ad565b60065f9054906101000a900473ffffffffffffffffffffffffffffffffffffffff1673ffffffffffffffffffffffffffffffffffffffff163373ffffffffffffffffffffffffffffffffffffffff161461096a576040517f08c379a000000000000000000000000000000000000000000000000000000000815260040161096190611fa9565b60405180910390fd5b60075f8563ffffffff1663ffffffff1681526020019081526020015f205483146109c9576040517f08c379a00000000000000000000000000000000000000000000000000000000081526004016109c090612011565b60405180910390fd5b5f8083838101906109da919061206a565b915091506109e882826111ee565b505050505050565b5f60055f9054906101000a900460ff16905090565b5f805f8373ffffffffffffffffffffffffffffffffffffffff1673ffffffffffffffffffffffffffffffffffffffff1681526020019081526020015f20549050919050565b610a52611046565b610a5b5f6113c5565b565b610a6f82610a69610eab565b83610ec4565b610a79828261112e565b5050565b610a85611046565b610a8d61148a565b565b610a97611046565b600160085f8373ffffffffffffffffffffffffffffffffffffffff1673ffffffffffffffffffffffffffffffffffffffff1681526020019081526020015f205f6101000a81548160ff0219169083151502179055508073ffffffffffffffffffffffffffffffffffffffff167e90e5d96e2f61f1fa8b5c535ec11045a07288f1ee285325f85caf8379789e2460405160405180910390a250565b5f600560019054906101000a900473ffffffffffffffffffffffffffffffffffffffff16905090565b606060048054610b6990611f2f565b80601f0160208091040260200160405190810160405280929190818152602001828054610b9590611f2f565b8015610be05780601f10610bb757610100808354040283529160200191610be0565b820191905f5260205f20905b815481529060010190602001808311610bc357829003601f168201915b5050505050905090565b60085f3373ffffffffffffffffffffffffffffffffffffffff1673ffffffffffffffffffffffffffffffffffffffff1681526020019081526020015f205f9054906101000a900460ff16610c73576040517f08c379a0000000000000000000000000000000000000000000000000000000008152600401610c6a906120f2565b60405180910390fd5b610c7b6111ad565b610c8582826111ee565b5050565b5f80610c93610eab565b9050610ca0818585610f56565b600191505092915050565b683635c9adc5dea0000081565b5f60015f8473ffffffffffffffffffffffffffffffffffffffff1673ffffffffffffffffffffffffffffffffffffffff1681526020019081526020015f205f8373ffffffffffffffffffffffffffffffffffffffff1673ffffffffffffffffffffffffffffffffffffffff1681526020019081526020015f2054905092915050565b610d42611046565b5f60085f8373ffffffffffffffffffffffffffffffffffffffff1673ffffffffffffffffffffffffffffffffffffffff1681526020019081526020015f205f6101000a81548160ff0219169083151502179055508073ffffffffffffffffffffffffffffffffffffffff167f22c7af3157a517d9d910083d0cd16646c9204f9d52824a23558c7d97d796d63860405160405180910390a250565b610de4611046565b5f73ffffffffffffffffffffffffffffffffffffffff168173ffffffffffffffffffffffffffffffffffffffff1603610e54575f6040517f1e4fbdf7000000000000000000000000000000000000000000000000000000008152600401610e4b9190611ba2565b60405180910390fd5b610e5d816113c5565b50565b610e68611046565b8060065f6101000a81548173ffffffffffffffffffffffffffffffffffffffff021916908373ffffffffffffffffffffffffffffffffffffffff16021790555050565b5f33905090565b610ebf83838360016114ec565b505050565b5f610ecf8484610cb8565b90507fffffffffffffffffffffffffffffffffffffffffffffffffffffffffffffffff8114610f505781811015610f41578281836040517ffb8f41b2000000000000000000000000000000000000000000000000000000008152600401610f3893929190612110565b60405180910390fd5b610f4f84848484035f6114ec565b5b50505050565b5f73ffffffffffffffffffffffffffffffffffffffff168373ffffffffffffffffffffffffffffffffffffffff1603610fc6575f6040517f96c6fd1e000000000000000000000000000000000000000000000000000000008152600401610fbd9190611ba2565b60405180910390fd5b5f73ffffffffffffffffffffffffffffffffffffffff168273ffffffffffffffffffffffffffffffffffffffff1603611036575f6040517fec442f0500000000000000000000000000000000000000000000000000000000815260040161102d9190611ba2565b60405180910390fd5b6110418383836116bb565b505050565b61104e610eab565b73ffffffffffffffffffffffffffffffffffffffff1661106c610b31565b73ffffffffffffffffffffffffffffffffffffffff16146110cb5761108f610eab565b6040517f118cdaa70000000000000000000000000000000000000000000000000000000081526004016110c29190611ba2565b60405180910390fd5b565b6110d56116cb565b5f60055f6101000a81548160ff0219169083151502179055507f5db9ee0a495bf2e6ff9c91a7834c1ba4fdd244a5e8aa4e537bd38aeae4b073aa611117610eab565b6040516111249190611ba2565b60405180910390a1565b5f73ffffffffffffffffffffffffffffffffffffffff168273ffffffffffffffffffffffffffffffffffffffff160361119e575f6040517f96c6fd1e0000000000000000000000000000000000000000000000000000000081526004016111959190611ba2565b60405180910390fd5b6111a9825f836116bb565b5050565b6111b56109f0565b156111ec576040517fd93c066500000000000000000000000000000000000000000000000000000000815260040160405180910390fd5b565b69d3c21bcecceda1000000816112026107c6565b61120c9190611ecf565b111561124d576040517f08c379a00000000000000000000000000000000000000000000000000000000081526004016112449061218f565b60405180910390fd5b6201518060095f8473ffffffffffffffffffffffffffffffffffffffff1673ffffffffffffffffffffffffffffffffffffffff1681526020019081526020015f20544261129a91906121ad565b10156112db576040517f08c379a00000000000000000000000000000000000000000000000000000000081526004016112d29061222a565b60405180910390fd5b683635c9adc5dea00000811115611327576040517f08c379a000000000000000000000000000000000000000000000000000000000815260040161131e90612292565b60405180910390fd5b611331828261170b565b4260095f8473ffffffffffffffffffffffffffffffffffffffff1673ffffffffffffffffffffffffffffffffffffffff1681526020019081526020015f20819055508173ffffffffffffffffffffffffffffffffffffffff167fe8ea3d4dd0a2eaaf3f7532ad391255544f8a4bcf78f850bbff61d5bac9f77552826040516113b991906119d3565b60405180910390a25050565b5f600560019054906101000a900473ffffffffffffffffffffffffffffffffffffffff16905081600560016101000a81548173ffffffffffffffffffffffffffffffffffffffff021916908373ffffffffffffffffffffffffffffffffffffffff1602179055508173ffffffffffffffffffffffffffffffffffffffff168173ffffffffffffffffffffffffffffffffffffffff167f8be0079c531659141344cd1fd0a4f28419497f9722a3daafe3b4186f6b6457e060405160405180910390a35050565b6114926111ad565b600160055f6101000a81548160ff0219169083151502179055507f62e78cea01bee320cd4e420270b5ea74000d11b0c9f74754ebdbfc544b05a2586114d5610eab565b6040516114e29190611ba2565b60405180910390a1565b5f73ffffffffffffffffffffffffffffffffffffffff168473ffffffffffffffffffffffffffffffffffffffff160361155c575f6040517fe602df050000000000000000000000000000000000000000000000000000000081526004016115539190611ba2565b60405180910390fd5b5f73ffffffffffffffffffffffffffffffffffffffff168373ffffffffffffffffffffffffffffffffffffffff16036115cc575f6040517f94280d620000000000000000000000000000000000000000000000000000000081526004016115c39190611ba2565b60405180910390fd5b8160015f8673ffffffffffffffffffffffffffffffffffffffff1673ffffffffffffffffffffffffffffffffffffffff1681526020019081526020015f205f8573ffffffffffffffffffffffffffffffffffffffff1673ffffffffffffffffffffffffffffffffffffffff1681526020019081526020015f208190555080156116b5578273ffffffffffffffffffffffffffffffffffffffff168473ffffffffffffffffffffffffffffffffffffffff167f8c5be1e5ebec7d5bd14f71427d1e84f3dd0314c0f7b2291e5b200ac8c7c3b925846040516116ac91906119d3565b60405180910390a35b50505050565b6116c683838361178a565b505050565b6116d36109f0565b611709576040517f8dfc202b00000000000000000000000000000000000000000000000000000000815260040160405180910390fd5b565b5f73ffffffffffffffffffffffffffffffffffffffff168273ffffffffffffffffffffffffffffffffffffffff160361177b575f6040517fec442f050000000000000000000000000000000000000000000000000000000081526004016117729190611ba2565b60405180910390fd5b6117865f83836116bb565b5050565b6117926111ad565b61179d8383836117a2565b505050565b5f73ffffffffffffffffffffffffffffffffffffffff168373ffffffffffffffffffffffffffffffffffffffff16036117f2578060025f8282546117e69190611ecf565b925050819055506118c0565b5f805f8573ffffffffffffffffffffffffffffffffffffffff1673ffffffffffffffffffffffffffffffffffffffff1681526020019081526020015f205490508181101561187b578381836040517fe450d38c00000000000000000000000000000000000000000000000000000000815260040161187293929190612110565b60405180910390fd5b8181035f808673ffffffffffffffffffffffffffffffffffffffff1673ffffffffffffffffffffffffffffffffffffffff1681526020019081526020015f2081905550505b5f73ffffffffffffffffffffffffffffffffffffffff168273ffffffffffffffffffffffffffffffffffffffff1603611907578060025f8282540392505081905550611951565b805f808473ffffffffffffffffffffffffffffffffffffffff1673ffffffffffffffffffffffffffffffffffffffff1681526020019081526020015f205f82825401925050819055505b8173ffffffffffffffffffffffffffffffffffffffff168373ffffffffffffffffffffffffffffffffffffffff167fddf252ad1be2c89b69c2b068fc378daa952ba7f163c4a11628f55a4df523b3ef836040516119ae91906119d3565b60405180910390a3505050565b5f819050919050565b6119cd816119bb565b82525050565b5f6020820190506119e65f8301846119c4565b92915050565b5f81519050919050565b5f82825260208201905092915050565b5f5b83811015611a23578082015181840152602081019050611a08565b5f8484015250505050565b5f601f19601f8301169050919050565b5f611a48826119ec565b611a5281856119f6565b9350611a62818560208601611a06565b611a6b81611a2e565b840191505092915050565b5f6020820190508181035f830152611a8e8184611a3e565b905092915050565b5f80fd5b5f80fd5b5f73ffffffffffffffffffffffffffffffffffffffff82169050919050565b5f611ac782611a9e565b9050919050565b611ad781611abd565b8114611ae1575f80fd5b50565b5f81359050611af281611ace565b92915050565b611b01816119bb565b8114611b0b575f80fd5b50565b5f81359050611b1c81611af8565b92915050565b5f8060408385031215611b3857611b37611a96565b5b5f611b4585828601611ae4565b9250506020611b5685828601611b0e565b9150509250929050565b5f8115159050919050565b611b7481611b60565b82525050565b5f602082019050611b8d5f830184611b6b565b92915050565b611b9c81611abd565b82525050565b5f602082019050611bb55f830184611b93565b92915050565b5f63ffffffff82169050919050565b611bd381611bbb565b8114611bdd575f80fd5b50565b5f81359050611bee81611bca565b92915050565b5f60208284031215611c0957611c08611a96565b5b5f611c1684828501611be0565b91505092915050565b5f819050919050565b611c3181611c1f565b82525050565b5f602082019050611c4a5f830184611c28565b92915050565b5f805f60608486031215611c6757611c66611a96565b5b5f611c7486828701611ae4565b9350506020611c8586828701611ae4565b9250506040611c9686828701611b0e565b9150509250925092565b611ca981611c1f565b8114611cb3575f80fd5b50565b5f81359050611cc481611ca0565b92915050565b5f8060408385031215611ce057611cdf611a96565b5b5f611ced85828601611be0565b9250506020611cfe85828601611cb6565b9150509250929050565b5f60ff82169050919050565b611d1d81611d08565b82525050565b5f602082019050611d365f830184611d14565b92915050565b5f60208284031215611d5157611d50611a96565b5b5f611d5e84828501611ae4565b91505092915050565b5f60208284031215611d7c57611d7b611a96565b5b5f611d8984828501611b0e565b91505092915050565b5f80fd5b5f80fd5b5f80fd5b5f8083601f840112611db357611db2611d92565b5b8235905067ffffffffffffffff811115611dd057611dcf611d96565b5b602083019150836001820283011115611dec57611deb611d9a565b5b9250929050565b5f805f8060608587031215611e0b57611e0a611a96565b5b5f611e1887828801611be0565b9450506020611e2987828801611cb6565b935050604085013567ffffffffffffffff811115611e4a57611e49611a9a565b5b611e5687828801611d9e565b925092505092959194509250565b5f8060408385031215611e7a57611e79611a96565b5b5f611e8785828601611ae4565b9250506020611e9885828601611ae4565b9150509250929050565b7f4e487b71000000000000000000000000000000000000000000000000000000005f52601160045260245ffd5b5f611ed9826119bb565b9150611ee4836119bb565b9250828201905080821115611efc57611efb611ea2565b5b92915050565b7f4e487b71000000000000000000000000000000000000000000000000000000005f52602260045260245ffd5b5f6002820490506001821680611f4657607f821691505b602082108103611f5957611f58611f02565b5b50919050565b7f43616c6c6572206d75737420626520746865206d61696c626f780000000000005f82015250565b5f611f93601a836119f6565b9150611f9e82611f5f565b602082019050919050565b5f6020820190508181035f830152611fc081611f87565b9050919050565b7f53656e646572206d75737420626520747275737465642072656d6f74650000005f82015250565b5f611ffb601d836119f6565b915061200682611fc7565b602082019050919050565b5f6020820190508181035f83015261202881611fef565b9050919050565b5f61203982611a9e565b9050919050565b6120498161202f565b8114612053575f80fd5b50565b5f8135905061206481612040565b92915050565b5f80604083850312156120805761207f611a96565b5b5f61208d85828601612056565b925050602061209e85828601611b0e565b9150509250929050565b7f43616c6c6572206973206e6f7420612067616d65206d617374657200000000005f82015250565b5f6120dc601b836119f6565b91506120e7826120a8565b602082019050919050565b5f6020820190508181035f830152612109816120d0565b9050919050565b5f6060820190506121235f830186611b93565b61213060208301856119c4565b61213d60408301846119c4565b949350505050565b7f4d617820737570706c79207265616368656400000000000000000000000000005f82015250565b5f6121796012836119f6565b915061218482612145565b602082019050919050565b5f6020820190508181035f8301526121a68161216d565b9050919050565b5f6121b7826119bb565b91506121c2836119bb565b92508282039050818111156121da576121d9611ea2565b5b92915050565b7f4461696c7920726577617264206c696d697420726561636865640000000000005f82015250565b5f612214601a836119f6565b915061221f826121e0565b602082019050919050565b5f6020820190508181035f83015261224181612208565b9050919050565b7f5265776172642065786365656473206461696c79206c696d69740000000000005f82015250565b5f61227c601a836119f6565b915061228782612248565b602082019050919050565b5f6020820190508181035f8301526122a981612270565b905091905056fea264697066735822122047ccad7c1e8622e6da0b72b8a402472bae8e2d3d40477b6df583e75bc0dfe87164736f6c63430008180033",
					"opcodes": "PUSH1 0x80 PUSH1 0x40 MSTORE CALLVALUE DUP1 ISZERO PUSH3 0x10 JUMPI PUSH0 DUP1 REVERT JUMPDEST POP PUSH1 0x40 MLOAD PUSH3 0x29C5 CODESIZE SUB DUP1 PUSH3 0x29C5 DUP4 CODECOPY DUP2 DUP2 ADD PUSH1 0x40 MSTORE DUP2 ADD SWAP1 PUSH3 0x36 SWAP2 SWAP1 PUSH3 0x32D JUMP JUMPDEST CALLER PUSH1 0x40 MLOAD DUP1 PUSH1 0x40 ADD PUSH1 0x40 MSTORE DUP1 PUSH1 0x5 DUP2 MSTORE PUSH1 0x20 ADD PUSH32 0x42696C6973000000000000000000000000000000000000000000000000000000 DUP2 MSTORE POP PUSH1 0x40 MLOAD DUP1 PUSH1 0x40 ADD PUSH1 0x40 MSTORE DUP1 PUSH1 0x3 DUP2 MSTORE PUSH1 0x20 ADD PUSH32 0x424C530000000000000000000000000000000000000000000000000000000000 DUP2 MSTORE POP DUP2 PUSH1 0x3 SWAP1 DUP2 PUSH3 0xB4 SWAP2 SWAP1 PUSH3 0x5C1 JUMP JUMPDEST POP DUP1 PUSH1 0x4 SWAP1 DUP2 PUSH3 0xC6 SWAP2 SWAP1 PUSH3 0x5C1 JUMP JUMPDEST POP POP POP PUSH0 PUSH1 0x5 PUSH0 PUSH2 0x100 EXP DUP2 SLOAD DUP2 PUSH1 0xFF MUL NOT AND SWAP1 DUP4 ISZERO ISZERO MUL OR SWAP1 SSTORE POP PUSH0 PUSH20 0xFFFFFFFFFFFFFFFFFFFFFFFFFFFFFFFFFFFFFFFF AND DUP2 PUSH20 0xFFFFFFFFFFFFFFFFFFFFFFFFFFFFFFFFFFFFFFFF AND SUB PUSH3 0x155 JUMPI PUSH0 PUSH1 0x40 MLOAD PUSH32 0x1E4FBDF700000000000000000000000000000000000000000000000000000000 DUP2 MSTORE PUSH1 0x4 ADD PUSH3 0x14C SWAP2 SWAP1 PUSH3 0x6B6 JUMP JUMPDEST PUSH1 0x40 MLOAD DUP1 SWAP2 SUB SWAP1 REVERT JUMPDEST PUSH3 0x166 DUP2 PUSH3 0x203 PUSH1 0x20 SHL PUSH1 0x20 SHR JUMP JUMPDEST POP DUP1 PUSH1 0x6 PUSH0 PUSH2 0x100 EXP DUP2 SLOAD DUP2 PUSH20 0xFFFFFFFFFFFFFFFFFFFFFFFFFFFFFFFFFFFFFFFF MUL NOT AND SWAP1 DUP4 PUSH20 0xFFFFFFFFFFFFFFFFFFFFFFFFFFFFFFFFFFFFFFFF AND MUL OR SWAP1 SSTORE POP PUSH1 0x1 PUSH1 0x8 PUSH0 CALLER PUSH20 0xFFFFFFFFFFFFFFFFFFFFFFFFFFFFFFFFFFFFFFFF AND PUSH20 0xFFFFFFFFFFFFFFFFFFFFFFFFFFFFFFFFFFFFFFFF AND DUP2 MSTORE PUSH1 0x20 ADD SWAP1 DUP2 MSTORE PUSH1 0x20 ADD PUSH0 KECCAK256 PUSH0 PUSH2 0x100 EXP DUP2 SLOAD DUP2 PUSH1 0xFF MUL NOT AND SWAP1 DUP4 ISZERO ISZERO MUL OR SWAP1 SSTORE POP POP PUSH3 0x6D1 JUMP JUMPDEST PUSH0 PUSH1 0x5 PUSH1 0x1 SWAP1 SLOAD SWAP1 PUSH2 0x100 EXP SWAP1 DIV PUSH20 0xFFFFFFFFFFFFFFFFFFFFFFFFFFFFFFFFFFFFFFFF AND SWAP1 POP DUP2 PUSH1 0x5 PUSH1 0x1 PUSH2 0x100 EXP DUP2 SLOAD DUP2 PUSH20 0xFFFFFFFFFFFFFFFFFFFFFFFFFFFFFFFFFFFFFFFF MUL NOT AND SWAP1 DUP4 PUSH20 0xFFFFFFFFFFFFFFFFFFFFFFFFFFFFFFFFFFFFFFFF AND MUL OR SWAP1 SSTORE POP DUP2 PUSH20 0xFFFFFFFFFFFFFFFFFFFFFFFFFFFFFFFFFFFFFFFF AND DUP2 PUSH20 0xFFFFFFFFFFFFFFFFFFFFFFFFFFFFFFFFFFFFFFFF AND PUSH32 0x8BE0079C531659141344CD1FD0A4F28419497F9722A3DAAFE3B4186F6B6457E0 PUSH1 0x40 MLOAD PUSH1 0x40 MLOAD DUP1 SWAP2 SUB SWAP1 LOG3 POP POP JUMP JUMPDEST PUSH0 DUP1 REVERT JUMPDEST PUSH0 PUSH20 0xFFFFFFFFFFFFFFFFFFFFFFFFFFFFFFFFFFFFFFFF DUP3 AND SWAP1 POP SWAP2 SWAP1 POP JUMP JUMPDEST PUSH0 PUSH3 0x2F7 DUP3 PUSH3 0x2CC JUMP JUMPDEST SWAP1 POP SWAP2 SWAP1 POP JUMP JUMPDEST PUSH3 0x309 DUP2 PUSH3 0x2EB JUMP JUMPDEST DUP2 EQ PUSH3 0x314 JUMPI PUSH0 DUP1 REVERT JUMPDEST POP JUMP JUMPDEST PUSH0 DUP2 MLOAD SWAP1 POP PUSH3 0x327 DUP2 PUSH3 0x2FE JUMP JUMPDEST SWAP3 SWAP2 POP POP JUMP JUMPDEST PUSH0 PUSH1 0x20 DUP3 DUP5 SUB SLT ISZERO PUSH3 0x345 JUMPI PUSH3 0x344 PUSH3 0x2C8 JUMP JUMPDEST JUMPDEST PUSH0 PUSH3 0x354 DUP5 DUP3 DUP6 ADD PUSH3 0x317 JUMP JUMPDEST SWAP2 POP POP SWAP3 SWAP2 POP POP JUMP JUMPDEST PUSH0 DUP2 MLOAD SWAP1 POP SWAP2 SWAP1 POP JUMP JUMPDEST PUSH32 0x4E487B7100000000000000000000000000000000000000000000000000000000 PUSH0 MSTORE PUSH1 0x41 PUSH1 0x4 MSTORE PUSH1 0x24 PUSH0 REVERT JUMPDEST PUSH32 0x4E487B7100000000000000000000000000000000000000000000000000000000 PUSH0 MSTORE PUSH1 0x22 PUSH1 0x4 MSTORE PUSH1 0x24 PUSH0 REVERT JUMPDEST PUSH0 PUSH1 0x2 DUP3 DIV SWAP1 POP PUSH1 0x1 DUP3 AND DUP1 PUSH3 0x3D9 JUMPI PUSH1 0x7F DUP3 AND SWAP2 POP JUMPDEST PUSH1 0x20 DUP3 LT DUP2 SUB PUSH3 0x3EF JUMPI PUSH3 0x3EE PUSH3 0x394 JUMP JUMPDEST JUMPDEST POP SWAP2 SWAP1 POP JUMP JUMPDEST PUSH0 DUP2 SWAP1 POP DUP2 PUSH0 MSTORE PUSH1 0x20 PUSH0 KECCAK256 SWAP1 POP SWAP2 SWAP1 POP JUMP JUMPDEST PUSH0 PUSH1 0x20 PUSH1 0x1F DUP4 ADD DIV SWAP1 POP SWAP2 SWAP1 POP JUMP JUMPDEST PUSH0 DUP3 DUP3 SHL SWAP1 POP SWAP3 SWAP2 POP POP JUMP JUMPDEST PUSH0 PUSH1 0x8 DUP4 MUL PUSH3 0x453 PUSH32 0xFFFFFFFFFFFFFFFFFFFFFFFFFFFFFFFFFFFFFFFFFFFFFFFFFFFFFFFFFFFFFFFF DUP3 PUSH3 0x416 JUMP JUMPDEST PUSH3 0x45F DUP7 DUP4 PUSH3 0x416 JUMP JUMPDEST SWAP6 POP DUP1 NOT DUP5 AND SWAP4 POP DUP1 DUP7 AND DUP5 OR SWAP3 POP POP POP SWAP4 SWAP3 POP POP POP JUMP JUMPDEST PUSH0 DUP2 SWAP1 POP SWAP2 SWAP1 POP JUMP JUMPDEST PUSH0 DUP2 SWAP1 POP SWAP2 SWAP1 POP JUMP JUMPDEST PUSH0 PUSH3 0x4A9 PUSH3 0x4A3 PUSH3 0x49D DUP5 PUSH3 0x477 JUMP JUMPDEST PUSH3 0x480 JUMP JUMPDEST PUSH3 0x477 JUMP JUMPDEST SWAP1 POP SWAP2 SWAP1 POP JUMP JUMPDEST PUSH0 DUP2 SWAP1 POP SWAP2 SWAP1 POP JUMP JUMPDEST PUSH3 0x4C4 DUP4 PUSH3 0x489 JUMP JUMPDEST PUSH3 0x4DC PUSH3 0x4D3 DUP3 PUSH3 0x4B0 JUMP JUMPDEST DUP5 DUP5 SLOAD PUSH3 0x422 JUMP JUMPDEST DUP3 SSTORE POP POP POP POP JUMP JUMPDEST PUSH0 SWAP1 JUMP JUMPDEST PUSH3 0x4F2 PUSH3 0x4E4 JUMP JUMPDEST PUSH3 0x4FF DUP2 DUP5 DUP5 PUSH3 0x4B9 JUMP JUMPDEST POP POP POP JUMP JUMPDEST JUMPDEST DUP2 DUP2 LT ISZERO PUSH3 0x526 JUMPI PUSH3 0x51A PUSH0 DUP3 PUSH3 0x4E8 JUMP JUMPDEST PUSH1 0x1 DUP2 ADD SWAP1 POP PUSH3 0x505 JUMP JUMPDEST POP POP JUMP JUMPDEST PUSH1 0x1F DUP3 GT ISZERO PUSH3 0x575 JUMPI PUSH3 0x53F DUP2 PUSH3 0x3F5 JUMP JUMPDEST PUSH3 0x54A DUP5 PUSH3 0x407 JUMP JUMPDEST DUP2 ADD PUSH1 0x20 DUP6 LT ISZERO PUSH3 0x55A JUMPI DUP2 SWAP1 POP JUMPDEST PUSH3 0x572 PUSH3 0x569 DUP6 PUSH3 0x407 JUMP JUMPDEST DUP4 ADD DUP3 PUSH3 0x504 JUMP JUMPDEST POP POP JUMPDEST POP POP POP JUMP JUMPDEST PUSH0 DUP3 DUP3 SHR SWAP1 POP SWAP3 SWAP2 POP POP JUMP JUMPDEST PUSH0 PUSH3 0x597 PUSH0 NOT DUP5 PUSH1 0x8 MUL PUSH3 0x57A JUMP JUMPDEST NOT DUP1 DUP4 AND SWAP2 POP POP SWAP3 SWAP2 POP POP JUMP JUMPDEST PUSH0 PUSH3 0x5B1 DUP4 DUP4 PUSH3 0x586 JUMP JUMPDEST SWAP2 POP DUP3 PUSH1 0x2 MUL DUP3 OR SWAP1 POP SWAP3 SWAP2 POP POP JUMP JUMPDEST PUSH3 0x5CC DUP3 PUSH3 0x35D JUMP JUMPDEST PUSH8 0xFFFFFFFFFFFFFFFF DUP2 GT ISZERO PUSH3 0x5E8 JUMPI PUSH3 0x5E7 PUSH3 0x367 JUMP JUMPDEST JUMPDEST PUSH3 0x5F4 DUP3 SLOAD PUSH3 0x3C1 JUMP JUMPDEST PUSH3 0x601 DUP3 DUP3 DUP6 PUSH3 0x52A JUMP JUMPDEST PUSH0 PUSH1 0x20 SWAP1 POP PUSH1 0x1F DUP4 GT PUSH1 0x1 DUP2 EQ PUSH3 0x637 JUMPI PUSH0 DUP5 ISZERO PUSH3 0x622 JUMPI DUP3 DUP8 ADD MLOAD SWAP1 POP JUMPDEST PUSH3 0x62E DUP6 DUP3 PUSH3 0x5A4 JUMP JUMPDEST DUP7 SSTORE POP PUSH3 0x69D JUMP JUMPDEST PUSH1 0x1F NOT DUP5 AND PUSH3 0x647 DUP7 PUSH3 0x3F5 JUMP JUMPDEST PUSH0 JUMPDEST DUP3 DUP2 LT ISZERO PUSH3 0x670 JUMPI DUP5 DUP10 ADD MLOAD DUP3 SSTORE PUSH1 0x1 DUP3 ADD SWAP2 POP PUSH1 0x20 DUP6 ADD SWAP5 POP PUSH1 0x20 DUP2 ADD SWAP1 POP PUSH3 0x649 JUMP JUMPDEST DUP7 DUP4 LT ISZERO PUSH3 0x690 JUMPI DUP5 DUP10 ADD MLOAD PUSH3 0x68C PUSH1 0x1F DUP10 AND DUP3 PUSH3 0x586 JUMP JUMPDEST DUP4 SSTORE POP JUMPDEST PUSH1 0x1 PUSH1 0x2 DUP9 MUL ADD DUP9 SSTORE POP POP POP JUMPDEST POP POP POP POP POP POP JUMP JUMPDEST PUSH3 0x6B0 DUP2 PUSH3 0x2EB JUMP JUMPDEST DUP3 MSTORE POP POP JUMP JUMPDEST PUSH0 PUSH1 0x20 DUP3 ADD SWAP1 POP PUSH3 0x6CB PUSH0 DUP4 ADD DUP5 PUSH3 0x6A5 JUMP JUMPDEST SWAP3 SWAP2 POP POP JUMP JUMPDEST PUSH2 0x22E6 DUP1 PUSH3 0x6DF PUSH0 CODECOPY PUSH0 RETURN INVALID PUSH1 0x80 PUSH1 0x40 MSTORE PUSH1 0x4 CALLDATASIZE LT PUSH2 0x1CC JUMPI PUSH0 CALLDATALOAD PUSH1 0xE0 SHR DUP1 PUSH4 0x5C975ABB GT PUSH2 0xF6 JUMPI DUP1 PUSH4 0x95D89B41 GT PUSH2 0x94 JUMPI DUP1 PUSH4 0xDD62ED3E GT PUSH2 0x63 JUMPI DUP1 PUSH4 0xDD62ED3E EQ PUSH2 0x63E JUMPI DUP1 PUSH4 0xDFCA5CE3 EQ PUSH2 0x67A JUMPI DUP1 PUSH4 0xF2FDE38B EQ PUSH2 0x6A2 JUMPI DUP1 PUSH4 0xF3C61D6B EQ PUSH2 0x6CA JUMPI PUSH2 0x1CC JUMP JUMPDEST DUP1 PUSH4 0x95D89B41 EQ PUSH2 0x586 JUMPI DUP1 PUSH4 0x9A49090E EQ PUSH2 0x5B0 JUMPI DUP1 PUSH4 0xA9059CBB EQ PUSH2 0x5D8 JUMPI DUP1 PUSH4 0xBCA12299 EQ PUSH2 0x614 JUMPI PUSH2 0x1CC JUMP JUMPDEST DUP1 PUSH4 0x79CC6790 GT PUSH2 0xD0 JUMPI DUP1 PUSH4 0x79CC6790 EQ PUSH2 0x4F6 JUMPI DUP1 PUSH4 0x8456CB59 EQ PUSH2 0x51E JUMPI DUP1 PUSH4 0x8B1C7B10 EQ PUSH2 0x534 JUMPI DUP1 PUSH4 0x8DA5CB5B EQ PUSH2 0x55C JUMPI PUSH2 0x1CC JUMP JUMPDEST DUP1 PUSH4 0x5C975ABB EQ PUSH2 0x47A JUMPI DUP1 PUSH4 0x70A08231 EQ PUSH2 0x4A4 JUMPI DUP1 PUSH4 0x715018A6 EQ PUSH2 0x4E0 JUMPI PUSH2 0x1CC JUMP JUMPDEST DUP1 PUSH4 0x2BDA3E0B GT PUSH2 0x16E JUMPI DUP1 PUSH4 0x3F4BA83A GT PUSH2 0x13D JUMPI DUP1 PUSH4 0x3F4BA83A EQ PUSH2 0x3E4 JUMPI DUP1 PUSH4 0x4080D640 EQ PUSH2 0x3FA JUMPI DUP1 PUSH4 0x42966C68 EQ PUSH2 0x436 JUMPI DUP1 PUSH4 0x56D5D475 EQ PUSH2 0x45E JUMPI PUSH2 0x1CC JUMP JUMPDEST DUP1 PUSH4 0x2BDA3E0B EQ PUSH2 0x32C JUMPI DUP1 PUSH4 0x313CE567 EQ PUSH2 0x354 JUMPI DUP1 PUSH4 0x32CB6B0C EQ PUSH2 0x37E JUMPI DUP1 PUSH4 0x3B5D441E EQ PUSH2 0x3A8 JUMPI PUSH2 0x1CC JUMP JUMPDEST DUP1 PUSH4 0x18160DDD GT PUSH2 0x1AA JUMPI DUP1 PUSH4 0x18160DDD EQ PUSH2 0x260 JUMPI DUP1 PUSH4 0x1A6E4DB4 EQ PUSH2 0x28A JUMPI DUP1 PUSH4 0x1D187C50 EQ PUSH2 0x2B4 JUMPI DUP1 PUSH4 0x23B872DD EQ PUSH2 0x2F0 JUMPI PUSH2 0x1CC JUMP JUMPDEST DUP1 PUSH4 0x10A38F5 EQ PUSH2 0x1D0 JUMPI DUP1 PUSH4 0x6FDDE03 EQ PUSH2 0x1FA JUMPI DUP1 PUSH4 0x95EA7B3 EQ PUSH2 0x224 JUMPI JUMPDEST PUSH0 DUP1 REVERT JUMPDEST CALLVALUE DUP1 ISZERO PUSH2 0x1DB JUMPI PUSH0 DUP1 REVERT JUMPDEST POP PUSH2 0x1E4 PUSH2 0x6F2 JUMP JUMPDEST PUSH1 0x40 MLOAD PUSH2 0x1F1 SWAP2 SWAP1 PUSH2 0x19D3 JUMP JUMPDEST PUSH1 0x40 MLOAD DUP1 SWAP2 SUB SWAP1 RETURN JUMPDEST CALLVALUE DUP1 ISZERO PUSH2 0x205 JUMPI PUSH0 DUP1 REVERT JUMPDEST POP PUSH2 0x20E PUSH2 0x714 JUMP JUMPDEST PUSH1 0x40 MLOAD PUSH2 0x21B SWAP2 SWAP1 PUSH2 0x1A76 JUMP JUMPDEST PUSH1 0x40 MLOAD DUP1 SWAP2 SUB SWAP1 RETURN JUMPDEST CALLVALUE DUP1 ISZERO PUSH2 0x22F JUMPI PUSH0 DUP1 REVERT JUMPDEST POP PUSH2 0x24A PUSH1 0x4 DUP1 CALLDATASIZE SUB DUP2 ADD SWAP1 PUSH2 0x245 SWAP2 SWAP1 PUSH2 0x1B22 JUMP JUMPDEST PUSH2 0x7A4 JUMP JUMPDEST PUSH1 0x40 MLOAD PUSH2 0x257 SWAP2 SWAP1 PUSH2 0x1B7A JUMP JUMPDEST PUSH1 0x40 MLOAD DUP1 SWAP2 SUB SWAP1 RETURN JUMPDEST CALLVALUE DUP1 ISZERO PUSH2 0x26B JUMPI PUSH0 DUP1 REVERT JUMPDEST POP PUSH2 0x274 PUSH2 0x7C6 JUMP JUMPDEST PUSH1 0x40 MLOAD PUSH2 0x281 SWAP2 SWAP1 PUSH2 0x19D3 JUMP JUMPDEST PUSH1 0x40 MLOAD DUP1 SWAP2 SUB SWAP1 RETURN JUMPDEST CALLVALUE DUP1 ISZERO PUSH2 0x295 JUMPI PUSH0 DUP1 REVERT JUMPDEST POP PUSH2 0x29E PUSH2 0x7CF JUMP JUMPDEST PUSH1 0x40 MLOAD PUSH2 0x2AB SWAP2 SWAP1 PUSH2 0x1BA2 JUMP JUMPDEST PUSH1 0x40 MLOAD DUP1 SWAP2 SUB SWAP1 RETURN JUMPDEST CALLVALUE DUP1 ISZERO PUSH2 0x2BF JUMPI PUSH0 DUP1 REVERT JUMPDEST POP PUSH2 0x2DA PUSH1 0x4 DUP1 CALLDATASIZE SUB DUP2 ADD SWAP1 PUSH2 0x2D5 SWAP2 SWAP1 PUSH2 0x1BF4 JUMP JUMPDEST PUSH2 0x7F4 JUMP JUMPDEST PUSH1 0x40 MLOAD PUSH2 0x2E7 SWAP2 SWAP1 PUSH2 0x1C37 JUMP JUMPDEST PUSH1 0x40 MLOAD DUP1 SWAP2 SUB SWAP1 RETURN JUMPDEST CALLVALUE DUP1 ISZERO PUSH2 0x2FB JUMPI PUSH0 DUP1 REVERT JUMPDEST POP PUSH2 0x316 PUSH1 0x4 DUP1 CALLDATASIZE SUB DUP2 ADD SWAP1 PUSH2 0x311 SWAP2 SWAP1 PUSH2 0x1C50 JUMP JUMPDEST PUSH2 0x809 JUMP JUMPDEST PUSH1 0x40 MLOAD PUSH2 0x323 SWAP2 SWAP1 PUSH2 0x1B7A JUMP JUMPDEST PUSH1 0x40 MLOAD DUP1 SWAP2 SUB SWAP1 RETURN JUMPDEST CALLVALUE DUP1 ISZERO PUSH2 0x337 JUMPI PUSH0 DUP1 REVERT JUMPDEST POP PUSH2 0x352 PUSH1 0x4 DUP1 CALLDATASIZE SUB DUP2 ADD SWAP1 PUSH2 0x34D SWAP2 SWAP1 PUSH2 0x1CCA JUMP JUMPDEST PUSH2 0x837 JUMP JUMPDEST STOP JUMPDEST CALLVALUE DUP1 ISZERO PUSH2 0x35F JUMPI PUSH0 DUP1 REVERT JUMPDEST POP PUSH2 0x368 PUSH2 0x865 JUMP JUMPDEST PUSH1 0x40 MLOAD PUSH2 0x375 SWAP2 SWAP1 PUSH2 0x1D23 JUMP JUMPDEST PUSH1 0x40 MLOAD DUP1 SWAP2 SUB SWAP1 RETURN JUMPDEST CALLVALUE DUP1 ISZERO PUSH2 0x389 JUMPI PUSH0 DUP1 REVERT JUMPDEST POP PUSH2 0x392 PUSH2 0x86D JUMP JUMPDEST PUSH1 0x40 MLOAD PUSH2 0x39F SWAP2 SWAP1 PUSH2 0x19D3 JUMP JUMPDEST PUSH1 0x40 MLOAD DUP1 SWAP2 SUB SWAP1 RETURN JUMPDEST CALLVALUE DUP1 ISZERO PUSH2 0x3B3 JUMPI PUSH0 DUP1 REVERT JUMPDEST POP PUSH2 0x3CE PUSH1 0x4 DUP1 CALLDATASIZE SUB DUP2 ADD SWAP1 PUSH2 0x3C9 SWAP2 SWAP1 PUSH2 0x1D3C JUMP JUMPDEST PUSH2 0x87B JUMP JUMPDEST PUSH1 0x40 MLOAD PUSH2 0x3DB SWAP2 SWAP1 PUSH2 0x19D3 JUMP JUMPDEST PUSH1 0x40 MLOAD DUP1 SWAP2 SUB SWAP1 RETURN JUMPDEST CALLVALUE DUP1 ISZERO PUSH2 0x3EF JUMPI PUSH0 DUP1 REVERT JUMPDEST POP PUSH2 0x3F8 PUSH2 0x890 JUMP JUMPDEST STOP JUMPDEST CALLVALUE DUP1 ISZERO PUSH2 0x405 JUMPI PUSH0 DUP1 REVERT JUMPDEST POP PUSH2 0x420 PUSH1 0x4 DUP1 CALLDATASIZE SUB DUP2 ADD SWAP1 PUSH2 0x41B SWAP2 SWAP1 PUSH2 0x1D3C JUMP JUMPDEST PUSH2 0x8A2 JUMP JUMPDEST PUSH1 0x40 MLOAD PUSH2 0x42D SWAP2 SWAP1 PUSH2 0x1B7A JUMP JUMPDEST PUSH1 0x40 MLOAD DUP1 SWAP2 SUB SWAP1 RETURN JUMPDEST CALLVALUE DUP1 ISZERO PUSH2 0x441 JUMPI PUSH0 DUP1 REVERT JUMPDEST POP PUSH2 0x45C PUSH1 0x4 DUP1 CALLDATASIZE SUB DUP2 ADD SWAP1 PUSH2 0x457 SWAP2 SWAP1 PUSH2 0x1D67 JUMP JUMPDEST PUSH2 0x8BF JUMP JUMPDEST STOP JUMPDEST PUSH2 0x478 PUSH1 0x4 DUP1 CALLDATASIZE SUB DUP2 ADD SWAP1 PUSH2 0x473 SWAP2 SWAP1 PUSH2 0x1DF3 JUMP JUMPDEST PUSH2 0x8D3 JUMP JUMPDEST STOP JUMPDEST CALLVALUE DUP1 ISZERO PUSH2 0x485 JUMPI PUSH0 DUP1 REVERT JUMPDEST POP PUSH2 0x48E PUSH2 0x9F0 JUMP JUMPDEST PUSH1 0x40 MLOAD PUSH2 0x49B SWAP2 SWAP1 PUSH2 0x1B7A JUMP JUMPDEST PUSH1 0x40 MLOAD DUP1 SWAP2 SUB SWAP1 RETURN JUMPDEST CALLVALUE DUP1 ISZERO PUSH2 0x4AF JUMPI PUSH0 DUP1 REVERT JUMPDEST POP PUSH2 0x4CA PUSH1 0x4 DUP1 CALLDATASIZE SUB DUP2 ADD SWAP1 PUSH2 0x4C5 SWAP2 SWAP1 PUSH2 0x1D3C JUMP JUMPDEST PUSH2 0xA05 JUMP JUMPDEST PUSH1 0x40 MLOAD PUSH2 0x4D7 SWAP2 SWAP1 PUSH2 0x19D3 JUMP JUMPDEST PUSH1 0x40 MLOAD DUP1 SWAP2 SUB SWAP1 RETURN JUMPDEST CALLVALUE DUP1 ISZERO PUSH2 0x4EB JUMPI PUSH0 DUP1 REVERT JUMPDEST POP PUSH2 0x4F4 PUSH2 0xA4A JUMP JUMPDEST STOP JUMPDEST CALLVALUE DUP1 ISZERO PUSH2 0x501 JUMPI PUSH0 DUP1 REVERT JUMPDEST POP PUSH2 0x51C PUSH1 0x4 DUP1 CALLDATASIZE SUB DUP2 ADD SWAP1 PUSH2 0x517 SWAP2 SWAP1 PUSH2 0x1B22 JUMP JUMPDEST PUSH2 0xA5D JUMP JUMPDEST STOP JUMPDEST CALLVALUE DUP1 ISZERO PUSH2 0x529 JUMPI PUSH0 DUP1 REVERT JUMPDEST POP PUSH2 0x532 PUSH2 0xA7D JUMP JUMPDEST STOP JUMPDEST CALLVALUE DUP1 ISZERO PUSH2 0x53F JUMPI PUSH0 DUP1 REVERT JUMPDEST POP PUSH2 0x55A PUSH1 0x4 DUP1 CALLDATASIZE SUB DUP2 ADD SWAP1 PUSH2 0x555 SWAP2 SWAP1 PUSH2 0x1D3C JUMP JUMPDEST PUSH2 0xA8F JUMP JUMPDEST STOP JUMPDEST CALLVALUE DUP1 ISZERO PUSH2 0x567 JUMPI PUSH0 DUP1 REVERT JUMPDEST POP PUSH2 0x570 PUSH2 0xB31 JUMP JUMPDEST PUSH1 0x40 MLOAD PUSH2 0x57D SWAP2 SWAP1 PUSH2 0x1BA2 JUMP JUMPDEST PUSH1 0x40 MLOAD DUP1 SWAP2 SUB SWAP1 RETURN JUMPDEST CALLVALUE DUP1 ISZERO PUSH2 0x591 JUMPI PUSH0 DUP1 REVERT JUMPDEST POP PUSH2 0x59A PUSH2 0xB5A JUMP JUMPDEST PUSH1 0x40 MLOAD PUSH2 0x5A7 SWAP2 SWAP1 PUSH2 0x1A76 JUMP JUMPDEST PUSH1 0x40 MLOAD DUP1 SWAP2 SUB SWAP1 RETURN JUMPDEST CALLVALUE DUP1 ISZERO PUSH2 0x5BB JUMPI PUSH0 DUP1 REVERT JUMPDEST POP PUSH2 0x5D6 PUSH1 0x4 DUP1 CALLDATASIZE SUB DUP2 ADD SWAP1 PUSH2 0x5D1 SWAP2 SWAP1 PUSH2 0x1B22 JUMP JUMPDEST PUSH2 0xBEA JUMP JUMPDEST STOP JUMPDEST CALLVALUE DUP1 ISZERO PUSH2 0x5E3 JUMPI PUSH0 DUP1 REVERT JUMPDEST POP PUSH2 0x5FE PUSH1 0x4 DUP1 CALLDATASIZE SUB DUP2 ADD SWAP1 PUSH2 0x5F9 SWAP2 SWAP1 PUSH2 0x1B22 JUMP JUMPDEST PUSH2 0xC89 JUMP JUMPDEST PUSH1 0x40 MLOAD PUSH2 0x60B SWAP2 SWAP1 PUSH2 0x1B7A JUMP JUMPDEST PUSH1 0x40 MLOAD DUP1 SWAP2 SUB SWAP1 RETURN JUMPDEST CALLVALUE DUP1 ISZERO PUSH2 0x61F JUMPI PUSH0 DUP1 REVERT JUMPDEST POP PUSH2 0x628 PUSH2 0xCAB JUMP JUMPDEST PUSH1 0x40 MLOAD PUSH2 0x635 SWAP2 SWAP1 PUSH2 0x19D3 JUMP JUMPDEST PUSH1 0x40 MLOAD DUP1 SWAP2 SUB SWAP1 RETURN JUMPDEST CALLVALUE DUP1 ISZERO PUSH2 0x649 JUMPI PUSH0 DUP1 REVERT JUMPDEST POP PUSH2 0x664 PUSH1 0x4 DUP1 CALLDATASIZE SUB DUP2 ADD SWAP1 PUSH2 0x65F SWAP2 SWAP1 PUSH2 0x1E64 JUMP JUMPDEST PUSH2 0xCB8 JUMP JUMPDEST PUSH1 0x40 MLOAD PUSH2 0x671 SWAP2 SWAP1 PUSH2 0x19D3 JUMP JUMPDEST PUSH1 0x40 MLOAD DUP1 SWAP2 SUB SWAP1 RETURN JUMPDEST CALLVALUE DUP1 ISZERO PUSH2 0x685 JUMPI PUSH0 DUP1 REVERT JUMPDEST POP PUSH2 0x6A0 PUSH1 0x4 DUP1 CALLDATASIZE SUB DUP2 ADD SWAP1 PUSH2 0x69B SWAP2 SWAP1 PUSH2 0x1D3C JUMP JUMPDEST PUSH2 0xD3A JUMP JUMPDEST STOP JUMPDEST CALLVALUE DUP1 ISZERO PUSH2 0x6AD JUMPI PUSH0 DUP1 REVERT JUMPDEST POP PUSH2 0x6C8 PUSH1 0x4 DUP1 CALLDATASIZE SUB DUP2 ADD SWAP1 PUSH2 0x6C3 SWAP2 SWAP1 PUSH2 0x1D3C JUMP JUMPDEST PUSH2 0xDDC JUMP JUMPDEST STOP JUMPDEST CALLVALUE DUP1 ISZERO PUSH2 0x6D5 JUMPI PUSH0 DUP1 REVERT JUMPDEST POP PUSH2 0x6F0 PUSH1 0x4 DUP1 CALLDATASIZE SUB DUP2 ADD SWAP1 PUSH2 0x6EB SWAP2 SWAP1 PUSH2 0x1D3C JUMP JUMPDEST PUSH2 0xE60 JUMP JUMPDEST STOP JUMPDEST PUSH0 PUSH1 0x1 PUSH1 0xA PUSH0 DUP3 DUP3 SLOAD PUSH2 0x705 SWAP2 SWAP1 PUSH2 0x1ECF JUMP JUMPDEST SWAP3 POP POP DUP2 SWAP1 SSTORE POP PUSH1 0xA SLOAD SWAP1 POP SWAP1 JUMP JUMPDEST PUSH1 0x60 PUSH1 0x3 DUP1 SLOAD PUSH2 0x723 SWAP1 PUSH2 0x1F2F JUMP JUMPDEST DUP1 PUSH1 0x1F ADD PUSH1 0x20 DUP1 SWAP2 DIV MUL PUSH1 0x20 ADD PUSH1 0x40 MLOAD SWAP1 DUP2 ADD PUSH1 0x40 MSTORE DUP1 SWAP3 SWAP2 SWAP1 DUP2 DUP2 MSTORE PUSH1 0x20 ADD DUP3 DUP1 SLOAD PUSH2 0x74F SWAP1 PUSH2 0x1F2F JUMP JUMPDEST DUP1 ISZERO PUSH2 0x79A JUMPI DUP1 PUSH1 0x1F LT PUSH2 0x771 JUMPI PUSH2 0x100 DUP1 DUP4 SLOAD DIV MUL DUP4 MSTORE SWAP2 PUSH1 0x20 ADD SWAP2 PUSH2 0x79A JUMP JUMPDEST DUP3 ADD SWAP2 SWAP1 PUSH0 MSTORE PUSH1 0x20 PUSH0 KECCAK256 SWAP1 JUMPDEST DUP2 SLOAD DUP2 MSTORE SWAP1 PUSH1 0x1 ADD SWAP1 PUSH1 0x20 ADD DUP1 DUP4 GT PUSH2 0x77D JUMPI DUP3 SWAP1 SUB PUSH1 0x1F AND DUP3 ADD SWAP2 JUMPDEST POP POP POP POP POP SWAP1 POP SWAP1 JUMP JUMPDEST PUSH0 DUP1 PUSH2 0x7AE PUSH2 0xEAB JUMP JUMPDEST SWAP1 POP PUSH2 0x7BB DUP2 DUP6 DUP6 PUSH2 0xEB2 JUMP JUMPDEST PUSH1 0x1 SWAP2 POP POP SWAP3 SWAP2 POP POP JUMP JUMPDEST PUSH0 PUSH1 0x2 SLOAD SWAP1 POP SWAP1 JUMP JUMPDEST PUSH1 0x6 PUSH0 SWAP1 SLOAD SWAP1 PUSH2 0x100 EXP SWAP1 DIV PUSH20 0xFFFFFFFFFFFFFFFFFFFFFFFFFFFFFFFFFFFFFFFF AND DUP2 JUMP JUMPDEST PUSH1 0x7 PUSH1 0x20 MSTORE DUP1 PUSH0 MSTORE PUSH1 0x40 PUSH0 KECCAK256 PUSH0 SWAP2 POP SWAP1 POP SLOAD DUP2 JUMP JUMPDEST PUSH0 DUP1 PUSH2 0x813 PUSH2 0xEAB JUMP JUMPDEST SWAP1 POP PUSH2 0x820 DUP6 DUP3 DUP6 PUSH2 0xEC4 JUMP JUMPDEST PUSH2 0x82B DUP6 DUP6 DUP6 PUSH2 0xF56 JUMP JUMPDEST PUSH1 0x1 SWAP2 POP POP SWAP4 SWAP3 POP POP POP JUMP JUMPDEST PUSH2 0x83F PUSH2 0x1046 JUMP JUMPDEST DUP1 PUSH1 0x7 PUSH0 DUP5 PUSH4 0xFFFFFFFF AND PUSH4 0xFFFFFFFF AND DUP2 MSTORE PUSH1 0x20 ADD SWAP1 DUP2 MSTORE PUSH1 0x20 ADD PUSH0 KECCAK256 DUP2 SWAP1 SSTORE POP POP POP JUMP JUMPDEST PUSH0 PUSH1 0x12 SWAP1 POP SWAP1 JUMP JUMPDEST PUSH10 0xD3C21BCECCEDA1000000 DUP2 JUMP JUMPDEST PUSH1 0x9 PUSH1 0x20 MSTORE DUP1 PUSH0 MSTORE PUSH1 0x40 PUSH0 KECCAK256 PUSH0 SWAP2 POP SWAP1 POP SLOAD DUP2 JUMP JUMPDEST PUSH2 0x898 PUSH2 0x1046 JUMP JUMPDEST PUSH2 0x8A0 PUSH2 0x10CD JUMP JUMPDEST JUMP JUMPDEST PUSH1 0x8 PUSH1 0x20 MSTORE DUP1 PUSH0 MSTORE PUSH1 0x40 PUSH0 KECCAK256 PUSH0 SWAP2 POP SLOAD SWAP1 PUSH2 0x100 EXP SWAP1 DIV PUSH1 0xFF AND DUP2 JUMP JUMPDEST PUSH2 0x8D0 PUSH2 0x8CA PUSH2 0xEAB JUMP JUMPDEST DUP3 PUSH2 0x112E JUMP JUMPDEST POP JUMP JUMPDEST PUSH2 0x8DB PUSH2 0x11AD JUMP JUMPDEST PUSH1 0x6 PUSH0 SWAP1 SLOAD SWAP1 PUSH2 0x100 EXP SWAP1 DIV PUSH20 0xFFFFFFFFFFFFFFFFFFFFFFFFFFFFFFFFFFFFFFFF AND PUSH20 0xFFFFFFFFFFFFFFFFFFFFFFFFFFFFFFFFFFFFFFFF AND CALLER PUSH20 0xFFFFFFFFFFFFFFFFFFFFFFFFFFFFFFFFFFFFFFFF AND EQ PUSH2 0x96A JUMPI PUSH1 0x40 MLOAD PUSH32 0x8C379A000000000000000000000000000000000000000000000000000000000 DUP2 MSTORE PUSH1 0x4 ADD PUSH2 0x961 SWAP1 PUSH2 0x1FA9 JUMP JUMPDEST PUSH1 0x40 MLOAD DUP1 SWAP2 SUB SWAP1 REVERT JUMPDEST PUSH1 0x7 PUSH0 DUP6 PUSH4 0xFFFFFFFF AND PUSH4 0xFFFFFFFF AND DUP2 MSTORE PUSH1 0x20 ADD SWAP1 DUP2 MSTORE PUSH1 0x20 ADD PUSH0 KECCAK256 SLOAD DUP4 EQ PUSH2 0x9C9 JUMPI PUSH1 0x40 MLOAD PUSH32 0x8C379A000000000000000000000000000000000000000000000000000000000 DUP2 MSTORE PUSH1 0x4 ADD PUSH2 0x9C0 SWAP1 PUSH2 0x2011 JUMP JUMPDEST PUSH1 0x40 MLOAD DUP1 SWAP2 SUB SWAP1 REVERT JUMPDEST PUSH0 DUP1 DUP4 DUP4 DUP2 ADD SWAP1 PUSH2 0x9DA SWAP2 SWAP1 PUSH2 0x206A JUMP JUMPDEST SWAP2 POP SWAP2 POP PUSH2 0x9E8 DUP3 DUP3 PUSH2 0x11EE JUMP JUMPDEST POP POP POP POP POP POP JUMP JUMPDEST PUSH0 PUSH1 0x5 PUSH0 SWAP1 SLOAD SWAP1 PUSH2 0x100 EXP SWAP1 DIV PUSH1 0xFF AND SWAP1 POP SWAP1 JUMP JUMPDEST PUSH0 DUP1 PUSH0 DUP4 PUSH20 0xFFFFFFFFFFFFFFFFFFFFFFFFFFFFFFFFFFFFFFFF AND PUSH20 0xFFFFFFFFFFFFFFFFFFFFFFFFFFFFFFFFFFFFFFFF AND DUP2 MSTORE PUSH1 0x20 ADD SWAP1 DUP2 MSTORE PUSH1 0x20 ADD PUSH0 KECCAK256 SLOAD SWAP1 POP SWAP2 SWAP1 POP JUMP JUMPDEST PUSH2 0xA52 PUSH2 0x1046 JUMP JUMPDEST PUSH2 0xA5B PUSH0 PUSH2 0x13C5 JUMP JUMPDEST JUMP JUMPDEST PUSH2 0xA6F DUP3 PUSH2 0xA69 PUSH2 0xEAB JUMP JUMPDEST DUP4 PUSH2 0xEC4 JUMP JUMPDEST PUSH2 0xA79 DUP3 DUP3 PUSH2 0x112E JUMP JUMPDEST POP POP JUMP JUMPDEST PUSH2 0xA85 PUSH2 0x1046 JUMP JUMPDEST PUSH2 0xA8D PUSH2 0x148A JUMP JUMPDEST JUMP JUMPDEST PUSH2 0xA97 PUSH2 0x1046 JUMP JUMPDEST PUSH1 0x1 PUSH1 0x8 PUSH0 DUP4 PUSH20 0xFFFFFFFFFFFFFFFFFFFFFFFFFFFFFFFFFFFFFFFF AND PUSH20 0xFFFFFFFFFFFFFFFFFFFFFFFFFFFFFFFFFFFFFFFF AND DUP2 MSTORE PUSH1 0x20 ADD SWAP1 DUP2 MSTORE PUSH1 0x20 ADD PUSH0 KECCAK256 PUSH0 PUSH2 0x100 EXP DUP2 SLOAD DUP2 PUSH1 0xFF MUL NOT AND SWAP1 DUP4 ISZERO ISZERO MUL OR SWAP1 SSTORE POP DUP1 PUSH20 0xFFFFFFFFFFFFFFFFFFFFFFFFFFFFFFFFFFFFFFFF AND PUSH31 0x90E5D96E2F61F1FA8B5C535EC11045A07288F1EE285325F85CAF8379789E24 PUSH1 0x40 MLOAD PUSH1 0x40 MLOAD DUP1 SWAP2 SUB SWAP1 LOG2 POP JUMP JUMPDEST PUSH0 PUSH1 0x5 PUSH1 0x1 SWAP1 SLOAD SWAP1 PUSH2 0x100 EXP SWAP1 DIV PUSH20 0xFFFFFFFFFFFFFFFFFFFFFFFFFFFFFFFFFFFFFFFF AND SWAP1 POP SWAP1 JUMP JUMPDEST PUSH1 0x60 PUSH1 0x4 DUP1 SLOAD PUSH2 0xB69 SWAP1 PUSH2 0x1F2F JUMP JUMPDEST DUP1 PUSH1 0x1F ADD PUSH1 0x20 DUP1 SWAP2 DIV MUL PUSH1 0x20 ADD PUSH1 0x40 MLOAD SWAP1 DUP2 ADD PUSH1 0x40 MSTORE DUP1 SWAP3 SWAP2 SWAP1 DUP2 DUP2 MSTORE PUSH1 0x20 ADD DUP3 DUP1 SLOAD PUSH2 0xB95 SWAP1 PUSH2 0x1F2F JUMP JUMPDEST DUP1 ISZERO PUSH2 0xBE0 JUMPI DUP1 PUSH1 0x1F LT PUSH2 0xBB7 JUMPI PUSH2 0x100 DUP1 DUP4 SLOAD DIV MUL DUP4 MSTORE SWAP2 PUSH1 0x20 ADD SWAP2 PUSH2 0xBE0 JUMP JUMPDEST DUP3 ADD SWAP2 SWAP1 PUSH0 MSTORE PUSH1 0x20 PUSH0 KECCAK256 SWAP1 JUMPDEST DUP2 SLOAD DUP2 MSTORE SWAP1 PUSH1 0x1 ADD SWAP1 PUSH1 0x20 ADD DUP1 DUP4 GT PUSH2 0xBC3 JUMPI DUP3 SWAP1 SUB PUSH1 0x1F AND DUP3 ADD SWAP2 JUMPDEST POP POP POP POP POP SWAP1 POP SWAP1 JUMP JUMPDEST PUSH1 0x8 PUSH0 CALLER PUSH20 0xFFFFFFFFFFFFFFFFFFFFFFFFFFFFFFFFFFFFFFFF AND PUSH20 0xFFFFFFFFFFFFFFFFFFFFFFFFFFFFFFFFFFFFFFFF AND DUP2 MSTORE PUSH1 0x20 ADD SWAP1 DUP2 MSTORE PUSH1 0x20 ADD PUSH0 KECCAK256 PUSH0 SWAP1 SLOAD SWAP1 PUSH2 0x100 EXP SWAP1 DIV PUSH1 0xFF AND PUSH2 0xC73 JUMPI PUSH1 0x40 MLOAD PUSH32 0x8C379A000000000000000000000000000000000000000000000000000000000 DUP2 MSTORE PUSH1 0x4 ADD PUSH2 0xC6A SWAP1 PUSH2 0x20F2 JUMP JUMPDEST PUSH1 0x40 MLOAD DUP1 SWAP2 SUB SWAP1 REVERT JUMPDEST PUSH2 0xC7B PUSH2 0x11AD JUMP JUMPDEST PUSH2 0xC85 DUP3 DUP3 PUSH2 0x11EE JUMP JUMPDEST POP POP JUMP JUMPDEST PUSH0 DUP1 PUSH2 0xC93 PUSH2 0xEAB JUMP JUMPDEST SWAP1 POP PUSH2 0xCA0 DUP2 DUP6 DUP6 PUSH2 0xF56 JUMP JUMPDEST PUSH1 0x1 SWAP2 POP POP SWAP3 SWAP2 POP POP JUMP JUMPDEST PUSH9 0x3635C9ADC5DEA00000 DUP2 JUMP JUMPDEST PUSH0 PUSH1 0x1 PUSH0 DUP5 PUSH20 0xFFFFFFFFFFFFFFFFFFFFFFFFFFFFFFFFFFFFFFFF AND PUSH20 0xFFFFFFFFFFFFFFFFFFFFFFFFFFFFFFFFFFFFFFFF AND DUP2 MSTORE PUSH1 0x20 ADD SWAP1 DUP2 MSTORE PUSH1 0x20 ADD PUSH0 KECCAK256 PUSH0 DUP4 PUSH20 0xFFFFFFFFFFFFFFFFFFFFFFFFFFFFFFFFFFFFFFFF AND PUSH20 0xFFFFFFFFFFFFFFFFFFFFFFFFFFFFFFFFFFFFFFFF AND DUP2 MSTORE PUSH1 0x20 ADD SWAP1 DUP2 MSTORE PUSH1 0x20 ADD PUSH0 KECCAK256 SLOAD SWAP1 POP SWAP3 SWAP2 POP POP JUMP JUMPDEST PUSH2 0xD42 PUSH2 0x1046 JUMP JUMPDEST PUSH0 PUSH1 0x8 PUSH0 DUP4 PUSH20 0xFFFFFFFFFFFFFFFFFFFFFFFFFFFFFFFFFFFFFFFF AND PUSH20 0xFFFFFFFFFFFFFFFFFFFFFFFFFFFFFFFFFFFFFFFF AND DUP2 MSTORE PUSH1 0x20 ADD SWAP1 DUP2 MSTORE PUSH1 0x20 ADD PUSH0 KECCAK256 PUSH0 PUSH2 0x100 EXP DUP2 SLOAD DUP2 PUSH1 0xFF MUL NOT AND SWAP1 DUP4 ISZERO ISZERO MUL OR SWAP1 SSTORE POP DUP1 PUSH20 0xFFFFFFFFFFFFFFFFFFFFFFFFFFFFFFFFFFFFFFFF AND PUSH32 0x22C7AF3157A517D9D910083D0CD16646C9204F9D52824A23558C7D97D796D638 PUSH1 0x40 MLOAD PUSH1 0x40 MLOAD DUP1 SWAP2 SUB SWAP1 LOG2 POP JUMP JUMPDEST PUSH2 0xDE4 PUSH2 0x1046 JUMP JUMPDEST PUSH0 PUSH20 0xFFFFFFFFFFFFFFFFFFFFFFFFFFFFFFFFFFFFFFFF AND DUP2 PUSH20 0xFFFFFFFFFFFFFFFFFFFFFFFFFFFFFFFFFFFFFFFF AND SUB PUSH2 0xE54 JUMPI PUSH0 PUSH1 0x40 MLOAD PUSH32 0x1E4FBDF700000000000000000000000000000000000000000000000000000000 DUP2 MSTORE PUSH1 0x4 ADD PUSH2 0xE4B SWAP2 SWAP1 PUSH2 0x1BA2 JUMP JUMPDEST PUSH1 0x40 MLOAD DUP1 SWAP2 SUB SWAP1 REVERT JUMPDEST PUSH2 0xE5D DUP2 PUSH2 0x13C5 JUMP JUMPDEST POP JUMP JUMPDEST PUSH2 0xE68 PUSH2 0x1046 JUMP JUMPDEST DUP1 PUSH1 0x6 PUSH0 PUSH2 0x100 EXP DUP2 SLOAD DUP2 PUSH20 0xFFFFFFFFFFFFFFFFFFFFFFFFFFFFFFFFFFFFFFFF MUL NOT AND SWAP1 DUP4 PUSH20 0xFFFFFFFFFFFFFFFFFFFFFFFFFFFFFFFFFFFFFFFF AND MUL OR SWAP1 SSTORE POP POP JUMP JUMPDEST PUSH0 CALLER SWAP1 POP SWAP1 JUMP JUMPDEST PUSH2 0xEBF DUP4 DUP4 DUP4 PUSH1 0x1 PUSH2 0x14EC JUMP JUMPDEST POP POP POP JUMP JUMPDEST PUSH0 PUSH2 0xECF DUP5 DUP5 PUSH2 0xCB8 JUMP JUMPDEST SWAP1 POP PUSH32 0xFFFFFFFFFFFFFFFFFFFFFFFFFFFFFFFFFFFFFFFFFFFFFFFFFFFFFFFFFFFFFFFF DUP2 EQ PUSH2 0xF50 JUMPI DUP2 DUP2 LT ISZERO PUSH2 0xF41 JUMPI DUP3 DUP2 DUP4 PUSH1 0x40 MLOAD PUSH32 0xFB8F41B200000000000000000000000000000000000000000000000000000000 DUP2 MSTORE PUSH1 0x4 ADD PUSH2 0xF38 SWAP4 SWAP3 SWAP2 SWAP1 PUSH2 0x2110 JUMP JUMPDEST PUSH1 0x40 MLOAD DUP1 SWAP2 SUB SWAP1 REVERT JUMPDEST PUSH2 0xF4F DUP5 DUP5 DUP5 DUP5 SUB PUSH0 PUSH2 0x14EC JUMP JUMPDEST JUMPDEST POP POP POP POP JUMP JUMPDEST PUSH0 PUSH20 0xFFFFFFFFFFFFFFFFFFFFFFFFFFFFFFFFFFFFFFFF AND DUP4 PUSH20 0xFFFFFFFFFFFFFFFFFFFFFFFFFFFFFFFFFFFFFFFF AND SUB PUSH2 0xFC6 JUMPI PUSH0 PUSH1 0x40 MLOAD PUSH32 0x96C6FD1E00000000000000000000000000000000000000000000000000000000 DUP2 MSTORE PUSH1 0x4 ADD PUSH2 0xFBD SWAP2 SWAP1 PUSH2 0x1BA2 JUMP JUMPDEST PUSH1 0x40 MLOAD DUP1 SWAP2 SUB SWAP1 REVERT JUMPDEST PUSH0 PUSH20 0xFFFFFFFFFFFFFFFFFFFFFFFFFFFFFFFFFFFFFFFF AND DUP3 PUSH20 0xFFFFFFFFFFFFFFFFFFFFFFFFFFFFFFFFFFFFFFFF AND SUB PUSH2 0x1036 JUMPI PUSH0 PUSH1 0x40 MLOAD PUSH32 0xEC442F0500000000000000000000000000000000000000000000000000000000 DUP2 MSTORE PUSH1 0x4 ADD PUSH2 0x102D SWAP2 SWAP1 PUSH2 0x1BA2 JUMP JUMPDEST PUSH1 0x40 MLOAD DUP1 SWAP2 SUB SWAP1 REVERT JUMPDEST PUSH2 0x1041 DUP4 DUP4 DUP4 PUSH2 0x16BB JUMP JUMPDEST POP POP POP JUMP JUMPDEST PUSH2 0x104E PUSH2 0xEAB JUMP JUMPDEST PUSH20 0xFFFFFFFFFFFFFFFFFFFFFFFFFFFFFFFFFFFFFFFF AND PUSH2 0x106C PUSH2 0xB31 JUMP JUMPDEST PUSH20 0xFFFFFFFFFFFFFFFFFFFFFFFFFFFFFFFFFFFFFFFF AND EQ PUSH2 0x10CB JUMPI PUSH2 0x108F PUSH2 0xEAB JUMP JUMPDEST PUSH1 0x40 MLOAD PUSH32 0x118CDAA700000000000000000000000000000000000000000000000000000000 DUP2 MSTORE PUSH1 0x4 ADD PUSH2 0x10C2 SWAP2 SWAP1 PUSH2 0x1BA2 JUMP JUMPDEST PUSH1 0x40 MLOAD DUP1 SWAP2 SUB SWAP1 REVERT JUMPDEST JUMP JUMPDEST PUSH2 0x10D5 PUSH2 0x16CB JUMP JUMPDEST PUSH0 PUSH1 0x5 PUSH0 PUSH2 0x100 EXP DUP2 SLOAD DUP2 PUSH1 0xFF MUL NOT AND SWAP1 DUP4 ISZERO ISZERO MUL OR SWAP1 SSTORE POP PUSH32 0x5DB9EE0A495BF2E6FF9C91A7834C1BA4FDD244A5E8AA4E537BD38AEAE4B073AA PUSH2 0x1117 PUSH2 0xEAB JUMP JUMPDEST PUSH1 0x40 MLOAD PUSH2 0x1124 SWAP2 SWAP1 PUSH2 0x1BA2 JUMP JUMPDEST PUSH1 0x40 MLOAD DUP1 SWAP2 SUB SWAP1 LOG1 JUMP JUMPDEST PUSH0 PUSH20 0xFFFFFFFFFFFFFFFFFFFFFFFFFFFFFFFFFFFFFFFF AND DUP3 PUSH20 0xFFFFFFFFFFFFFFFFFFFFFFFFFFFFFFFFFFFFFFFF AND SUB PUSH2 0x119E JUMPI PUSH0 PUSH1 0x40 MLOAD PUSH32 0x96C6FD1E00000000000000000000000000000000000000000000000000000000 DUP2 MSTORE PUSH1 0x4 ADD PUSH2 0x1195 SWAP2 SWAP1 PUSH2 0x1BA2 JUMP JUMPDEST PUSH1 0x40 MLOAD DUP1 SWAP2 SUB SWAP1 REVERT JUMPDEST PUSH2 0x11A9 DUP3 PUSH0 DUP4 PUSH2 0x16BB JUMP JUMPDEST POP POP JUMP JUMPDEST PUSH2 0x11B5 PUSH2 0x9F0 JUMP JUMPDEST ISZERO PUSH2 0x11EC JUMPI PUSH1 0x40 MLOAD PUSH32 0xD93C066500000000000000000000000000000000000000000000000000000000 DUP2 MSTORE PUSH1 0x4 ADD PUSH1 0x40 MLOAD DUP1 SWAP2 SUB SWAP1 REVERT JUMPDEST JUMP JUMPDEST PUSH10 0xD3C21BCECCEDA1000000 DUP2 PUSH2 0x1202 PUSH2 0x7C6 JUMP JUMPDEST PUSH2 0x120C SWAP2 SWAP1 PUSH2 0x1ECF JUMP JUMPDEST GT ISZERO PUSH2 0x124D JUMPI PUSH1 0x40 MLOAD PUSH32 0x8C379A000000000000000000000000000000000000000000000000000000000 DUP2 MSTORE PUSH1 0x4 ADD PUSH2 0x1244 SWAP1 PUSH2 0x218F JUMP JUMPDEST PUSH1 0x40 MLOAD DUP1 SWAP2 SUB SWAP1 REVERT JUMPDEST PUSH3 0x15180 PUSH1 0x9 PUSH0 DUP5 PUSH20 0xFFFFFFFFFFFFFFFFFFFFFFFFFFFFFFFFFFFFFFFF AND PUSH20 0xFFFFFFFFFFFFFFFFFFFFFFFFFFFFFFFFFFFFFFFF AND DUP2 MSTORE PUSH1 0x20 ADD SWAP1 DUP2 MSTORE PUSH1 0x20 ADD PUSH0 KECCAK256 SLOAD TIMESTAMP PUSH2 0x129A SWAP2 SWAP1 PUSH2 0x21AD JUMP JUMPDEST LT ISZERO PUSH2 0x12DB JUMPI PUSH1 0x40 MLOAD PUSH32 0x8C379A000000000000000000000000000000000000000000000000000000000 DUP2 MSTORE PUSH1 0x4 ADD PUSH2 0x12D2 SWAP1 PUSH2 0x222A JUMP JUMPDEST PUSH1 0x40 MLOAD DUP1 SWAP2 SUB SWAP1 REVERT JUMPDEST PUSH9 0x3635C9ADC5DEA00000 DUP2 GT ISZERO PUSH2 0x1327 JUMPI PUSH1 0x40 MLOAD PUSH32 0x8C379A000000000000000000000000000000000000000000000000000000000 DUP2 MSTORE PUSH1 0x4 ADD PUSH2 0x131E SWAP1 PUSH2 0x2292 JUMP JUMPDEST PUSH1 0x40 MLOAD DUP1 SWAP2 SUB SWAP1 REVERT JUMPDEST PUSH2 0x1331 DUP3 DUP3 PUSH2 0x170B JUMP JUMPDEST TIMESTAMP PUSH1 0x9 PUSH0 DUP5 PUSH20 0xFFFFFFFFFFFFFFFFFFFFFFFFFFFFFFFFFFFFFFFF AND PUSH20 0xFFFFFFFFFFFFFFFFFFFFFFFFFFFFFFFFFFFFFFFF AND DUP2 MSTORE PUSH1 0x20 ADD SWAP1 DUP2 MSTORE PUSH1 0x20 ADD PUSH0 KECCAK256 DUP2 SWAP1 SSTORE POP DUP2 PUSH20 0xFFFFFFFFFFFFFFFFFFFFFFFFFFFFFFFFFFFFFFFF AND PUSH32 0xE8EA3D4DD0A2EAAF3F7532AD391255544F8A4BCF78F850BBFF61D5BAC9F77552 DUP3 PUSH1 0x40 MLOAD PUSH2 0x13B9 SWAP2 SWAP1 PUSH2 0x19D3 JUMP JUMPDEST PUSH1 0x40 MLOAD DUP1 SWAP2 SUB SWAP1 LOG2 POP POP JUMP JUMPDEST PUSH0 PUSH1 0x5 PUSH1 0x1 SWAP1 SLOAD SWAP1 PUSH2 0x100 EXP SWAP1 DIV PUSH20 0xFFFFFFFFFFFFFFFFFFFFFFFFFFFFFFFFFFFFFFFF AND SWAP1 POP DUP2 PUSH1 0x5 PUSH1 0x1 PUSH2 0x100 EXP DUP2 SLOAD DUP2 PUSH20 0xFFFFFFFFFFFFFFFFFFFFFFFFFFFFFFFFFFFFFFFF MUL NOT AND SWAP1 DUP4 PUSH20 0xFFFFFFFFFFFFFFFFFFFFFFFFFFFFFFFFFFFFFFFF AND MUL OR SWAP1 SSTORE POP DUP2 PUSH20 0xFFFFFFFFFFFFFFFFFFFFFFFFFFFFFFFFFFFFFFFF AND DUP2 PUSH20 0xFFFFFFFFFFFFFFFFFFFFFFFFFFFFFFFFFFFFFFFF AND PUSH32 0x8BE0079C531659141344CD1FD0A4F28419497F9722A3DAAFE3B4186F6B6457E0 PUSH1 0x40 MLOAD PUSH1 0x40 MLOAD DUP1 SWAP2 SUB SWAP1 LOG3 POP POP JUMP JUMPDEST PUSH2 0x1492 PUSH2 0x11AD JUMP JUMPDEST PUSH1 0x1 PUSH1 0x5 PUSH0 PUSH2 0x100 EXP DUP2 SLOAD DUP2 PUSH1 0xFF MUL NOT AND SWAP1 DUP4 ISZERO ISZERO MUL OR SWAP1 SSTORE POP PUSH32 0x62E78CEA01BEE320CD4E420270B5EA74000D11B0C9F74754EBDBFC544B05A258 PUSH2 0x14D5 PUSH2 0xEAB JUMP JUMPDEST PUSH1 0x40 MLOAD PUSH2 0x14E2 SWAP2 SWAP1 PUSH2 0x1BA2 JUMP JUMPDEST PUSH1 0x40 MLOAD DUP1 SWAP2 SUB SWAP1 LOG1 JUMP JUMPDEST PUSH0 PUSH20 0xFFFFFFFFFFFFFFFFFFFFFFFFFFFFFFFFFFFFFFFF AND DUP5 PUSH20 0xFFFFFFFFFFFFFFFFFFFFFFFFFFFFFFFFFFFFFFFF AND SUB PUSH2 0x155C JUMPI PUSH0 PUSH1 0x40 MLOAD PUSH32 0xE602DF0500000000000000000000000000000000000000000000000000000000 DUP2 MSTORE PUSH1 0x4 ADD PUSH2 0x1553 SWAP2 SWAP1 PUSH2 0x1BA2 JUMP JUMPDEST PUSH1 0x40 MLOAD DUP1 SWAP2 SUB SWAP1 REVERT JUMPDEST PUSH0 PUSH20 0xFFFFFFFFFFFFFFFFFFFFFFFFFFFFFFFFFFFFFFFF AND DUP4 PUSH20 0xFFFFFFFFFFFFFFFFFFFFFFFFFFFFFFFFFFFFFFFF AND SUB PUSH2 0x15CC JUMPI PUSH0 PUSH1 0x40 MLOAD PUSH32 0x94280D6200000000000000000000000000000000000000000000000000000000 DUP2 MSTORE PUSH1 0x4 ADD PUSH2 0x15C3 SWAP2 SWAP1 PUSH2 0x1BA2 JUMP JUMPDEST PUSH1 0x40 MLOAD DUP1 SWAP2 SUB SWAP1 REVERT JUMPDEST DUP2 PUSH1 0x1 PUSH0 DUP7 PUSH20 0xFFFFFFFFFFFFFFFFFFFFFFFFFFFFFFFFFFFFFFFF AND PUSH20 0xFFFFFFFFFFFFFFFFFFFFFFFFFFFFFFFFFFFFFFFF AND DUP2 MSTORE PUSH1 0x20 ADD SWAP1 DUP2 MSTORE PUSH1 0x20 ADD PUSH0 KECCAK256 PUSH0 DUP6 PUSH20 0xFFFFFFFFFFFFFFFFFFFFFFFFFFFFFFFFFFFFFFFF AND PUSH20 0xFFFFFFFFFFFFFFFFFFFFFFFFFFFFFFFFFFFFFFFF AND DUP2 MSTORE PUSH1 0x20 ADD SWAP1 DUP2 MSTORE PUSH1 0x20 ADD PUSH0 KECCAK256 DUP2 SWAP1 SSTORE POP DUP1 ISZERO PUSH2 0x16B5 JUMPI DUP3 PUSH20 0xFFFFFFFFFFFFFFFFFFFFFFFFFFFFFFFFFFFFFFFF AND DUP5 PUSH20 0xFFFFFFFFFFFFFFFFFFFFFFFFFFFFFFFFFFFFFFFF AND PUSH32 0x8C5BE1E5EBEC7D5BD14F71427D1E84F3DD0314C0F7B2291E5B200AC8C7C3B925 DUP5 PUSH1 0x40 MLOAD PUSH2 0x16AC SWAP2 SWAP1 PUSH2 0x19D3 JUMP JUMPDEST PUSH1 0x40 MLOAD DUP1 SWAP2 SUB SWAP1 LOG3 JUMPDEST POP POP POP POP JUMP JUMPDEST PUSH2 0x16C6 DUP4 DUP4 DUP4 PUSH2 0x178A JUMP JUMPDEST POP POP POP JUMP JUMPDEST PUSH2 0x16D3 PUSH2 0x9F0 JUMP JUMPDEST PUSH2 0x1709 JUMPI PUSH1 0x40 MLOAD PUSH32 0x8DFC202B00000000000000000000000000000000000000000000000000000000 DUP2 MSTORE PUSH1 0x4 ADD PUSH1 0x40 MLOAD DUP1 SWAP2 SUB SWAP1 REVERT JUMPDEST JUMP JUMPDEST PUSH0 PUSH20 0xFFFFFFFFFFFFFFFFFFFFFFFFFFFFFFFFFFFFFFFF AND DUP3 PUSH20 0xFFFFFFFFFFFFFFFFFFFFFFFFFFFFFFFFFFFFFFFF AND SUB PUSH2 0x177B JUMPI PUSH0 PUSH1 0x40 MLOAD PUSH32 0xEC442F0500000000000000000000000000000000000000000000000000000000 DUP2 MSTORE PUSH1 0x4 ADD PUSH2 0x1772 SWAP2 SWAP1 PUSH2 0x1BA2 JUMP JUMPDEST PUSH1 0x40 MLOAD DUP1 SWAP2 SUB SWAP1 REVERT JUMPDEST PUSH2 0x1786 PUSH0 DUP4 DUP4 PUSH2 0x16BB JUMP JUMPDEST POP POP JUMP JUMPDEST PUSH2 0x1792 PUSH2 0x11AD JUMP JUMPDEST PUSH2 0x179D DUP4 DUP4 DUP4 PUSH2 0x17A2 JUMP JUMPDEST POP POP POP JUMP JUMPDEST PUSH0 PUSH20 0xFFFFFFFFFFFFFFFFFFFFFFFFFFFFFFFFFFFFFFFF AND DUP4 PUSH20 0xFFFFFFFFFFFFFFFFFFFFFFFFFFFFFFFFFFFFFFFF AND SUB PUSH2 0x17F2 JUMPI DUP1 PUSH1 0x2 PUSH0 DUP3 DUP3 SLOAD PUSH2 0x17E6 SWAP2 SWAP1 PUSH2 0x1ECF JUMP JUMPDEST SWAP3 POP POP DUP2 SWAP1 SSTORE POP PUSH2 0x18C0 JUMP JUMPDEST PUSH0 DUP1 PUSH0 DUP6 PUSH20 0xFFFFFFFFFFFFFFFFFFFFFFFFFFFFFFFFFFFFFFFF AND PUSH20 0xFFFFFFFFFFFFFFFFFFFFFFFFFFFFFFFFFFFFFFFF AND DUP2 MSTORE PUSH1 0x20 ADD SWAP1 DUP2 MSTORE PUSH1 0x20 ADD PUSH0 KECCAK256 SLOAD SWAP1 POP DUP2 DUP2 LT ISZERO PUSH2 0x187B JUMPI DUP4 DUP2 DUP4 PUSH1 0x40 MLOAD PUSH32 0xE450D38C00000000000000000000000000000000000000000000000000000000 DUP2 MSTORE PUSH1 0x4 ADD PUSH2 0x1872 SWAP4 SWAP3 SWAP2 SWAP1 PUSH2 0x2110 JUMP JUMPDEST PUSH1 0x40 MLOAD DUP1 SWAP2 SUB SWAP1 REVERT JUMPDEST DUP2 DUP2 SUB PUSH0 DUP1 DUP7 PUSH20 0xFFFFFFFFFFFFFFFFFFFFFFFFFFFFFFFFFFFFFFFF AND PUSH20 0xFFFFFFFFFFFFFFFFFFFFFFFFFFFFFFFFFFFFFFFF AND DUP2 MSTORE PUSH1 0x20 ADD SWAP1 DUP2 MSTORE PUSH1 0x20 ADD PUSH0 KECCAK256 DUP2 SWAP1 SSTORE POP POP JUMPDEST PUSH0 PUSH20 0xFFFFFFFFFFFFFFFFFFFFFFFFFFFFFFFFFFFFFFFF AND DUP3 PUSH20 0xFFFFFFFFFFFFFFFFFFFFFFFFFFFFFFFFFFFFFFFF AND SUB PUSH2 0x1907 JUMPI DUP1 PUSH1 0x2 PUSH0 DUP3 DUP3 SLOAD SUB SWAP3 POP POP DUP2 SWAP1 SSTORE POP PUSH2 0x1951 JUMP JUMPDEST DUP1 PUSH0 DUP1 DUP5 PUSH20 0xFFFFFFFFFFFFFFFFFFFFFFFFFFFFFFFFFFFFFFFF AND PUSH20 0xFFFFFFFFFFFFFFFFFFFFFFFFFFFFFFFFFFFFFFFF AND DUP2 MSTORE PUSH1 0x20 ADD SWAP1 DUP2 MSTORE PUSH1 0x20 ADD PUSH0 KECCAK256 PUSH0 DUP3 DUP3 SLOAD ADD SWAP3 POP POP DUP2 SWAP1 SSTORE POP JUMPDEST DUP2 PUSH20 0xFFFFFFFFFFFFFFFFFFFFFFFFFFFFFFFFFFFFFFFF AND DUP4 PUSH20 0xFFFFFFFFFFFFFFFFFFFFFFFFFFFFFFFFFFFFFFFF AND PUSH32 0xDDF252AD1BE2C89B69C2B068FC378DAA952BA7F163C4A11628F55A4DF523B3EF DUP4 PUSH1 0x40 MLOAD PUSH2 0x19AE SWAP2 SWAP1 PUSH2 0x19D3 JUMP JUMPDEST PUSH1 0x40 MLOAD DUP1 SWAP2 SUB SWAP1 LOG3 POP POP POP JUMP JUMPDEST PUSH0 DUP2 SWAP1 POP SWAP2 SWAP1 POP JUMP JUMPDEST PUSH2 0x19CD DUP2 PUSH2 0x19BB JUMP JUMPDEST DUP3 MSTORE POP POP JUMP JUMPDEST PUSH0 PUSH1 0x20 DUP3 ADD SWAP1 POP PUSH2 0x19E6 PUSH0 DUP4 ADD DUP5 PUSH2 0x19C4 JUMP JUMPDEST SWAP3 SWAP2 POP POP JUMP JUMPDEST PUSH0 DUP2 MLOAD SWAP1 POP SWAP2 SWAP1 POP JUMP JUMPDEST PUSH0 DUP3 DUP3 MSTORE PUSH1 0x20 DUP3 ADD SWAP1 POP SWAP3 SWAP2 POP POP JUMP JUMPDEST PUSH0 JUMPDEST DUP4 DUP2 LT ISZERO PUSH2 0x1A23 JUMPI DUP1 DUP3 ADD MLOAD DUP2 DUP5 ADD MSTORE PUSH1 0x20 DUP2 ADD SWAP1 POP PUSH2 0x1A08 JUMP JUMPDEST PUSH0 DUP5 DUP5 ADD MSTORE POP POP POP POP JUMP JUMPDEST PUSH0 PUSH1 0x1F NOT PUSH1 0x1F DUP4 ADD AND SWAP1 POP SWAP2 SWAP1 POP JUMP JUMPDEST PUSH0 PUSH2 0x1A48 DUP3 PUSH2 0x19EC JUMP JUMPDEST PUSH2 0x1A52 DUP2 DUP6 PUSH2 0x19F6 JUMP JUMPDEST SWAP4 POP PUSH2 0x1A62 DUP2 DUP6 PUSH1 0x20 DUP7 ADD PUSH2 0x1A06 JUMP JUMPDEST PUSH2 0x1A6B DUP2 PUSH2 0x1A2E JUMP JUMPDEST DUP5 ADD SWAP2 POP POP SWAP3 SWAP2 POP POP JUMP JUMPDEST PUSH0 PUSH1 0x20 DUP3 ADD SWAP1 POP DUP2 DUP2 SUB PUSH0 DUP4 ADD MSTORE PUSH2 0x1A8E DUP2 DUP5 PUSH2 0x1A3E JUMP JUMPDEST SWAP1 POP SWAP3 SWAP2 POP POP JUMP JUMPDEST PUSH0 DUP1 REVERT JUMPDEST PUSH0 DUP1 REVERT JUMPDEST PUSH0 PUSH20 0xFFFFFFFFFFFFFFFFFFFFFFFFFFFFFFFFFFFFFFFF DUP3 AND SWAP1 POP SWAP2 SWAP1 POP JUMP JUMPDEST PUSH0 PUSH2 0x1AC7 DUP3 PUSH2 0x1A9E JUMP JUMPDEST SWAP1 POP SWAP2 SWAP1 POP JUMP JUMPDEST PUSH2 0x1AD7 DUP2 PUSH2 0x1ABD JUMP JUMPDEST DUP2 EQ PUSH2 0x1AE1 JUMPI PUSH0 DUP1 REVERT JUMPDEST POP JUMP JUMPDEST PUSH0 DUP2 CALLDATALOAD SWAP1 POP PUSH2 0x1AF2 DUP2 PUSH2 0x1ACE JUMP JUMPDEST SWAP3 SWAP2 POP POP JUMP JUMPDEST PUSH2 0x1B01 DUP2 PUSH2 0x19BB JUMP JUMPDEST DUP2 EQ PUSH2 0x1B0B JUMPI PUSH0 DUP1 REVERT JUMPDEST POP JUMP JUMPDEST PUSH0 DUP2 CALLDATALOAD SWAP1 POP PUSH2 0x1B1C DUP2 PUSH2 0x1AF8 JUMP JUMPDEST SWAP3 SWAP2 POP POP JUMP JUMPDEST PUSH0 DUP1 PUSH1 0x40 DUP4 DUP6 SUB SLT ISZERO PUSH2 0x1B38 JUMPI PUSH2 0x1B37 PUSH2 0x1A96 JUMP JUMPDEST JUMPDEST PUSH0 PUSH2 0x1B45 DUP6 DUP3 DUP7 ADD PUSH2 0x1AE4 JUMP JUMPDEST SWAP3 POP POP PUSH1 0x20 PUSH2 0x1B56 DUP6 DUP3 DUP7 ADD PUSH2 0x1B0E JUMP JUMPDEST SWAP2 POP POP SWAP3 POP SWAP3 SWAP1 POP JUMP JUMPDEST PUSH0 DUP2 ISZERO ISZERO SWAP1 POP SWAP2 SWAP1 POP JUMP JUMPDEST PUSH2 0x1B74 DUP2 PUSH2 0x1B60 JUMP JUMPDEST DUP3 MSTORE POP POP JUMP JUMPDEST PUSH0 PUSH1 0x20 DUP3 ADD SWAP1 POP PUSH2 0x1B8D PUSH0 DUP4 ADD DUP5 PUSH2 0x1B6B JUMP JUMPDEST SWAP3 SWAP2 POP POP JUMP JUMPDEST PUSH2 0x1B9C DUP2 PUSH2 0x1ABD JUMP JUMPDEST DUP3 MSTORE POP POP JUMP JUMPDEST PUSH0 PUSH1 0x20 DUP3 ADD SWAP1 POP PUSH2 0x1BB5 PUSH0 DUP4 ADD DUP5 PUSH2 0x1B93 JUMP JUMPDEST SWAP3 SWAP2 POP POP JUMP JUMPDEST PUSH0 PUSH4 0xFFFFFFFF DUP3 AND SWAP1 POP SWAP2 SWAP1 POP JUMP JUMPDEST PUSH2 0x1BD3 DUP2 PUSH2 0x1BBB JUMP JUMPDEST DUP2 EQ PUSH2 0x1BDD JUMPI PUSH0 DUP1 REVERT JUMPDEST POP JUMP JUMPDEST PUSH0 DUP2 CALLDATALOAD SWAP1 POP PUSH2 0x1BEE DUP2 PUSH2 0x1BCA JUMP JUMPDEST SWAP3 SWAP2 POP POP JUMP JUMPDEST PUSH0 PUSH1 0x20 DUP3 DUP5 SUB SLT ISZERO PUSH2 0x1C09 JUMPI PUSH2 0x1C08 PUSH2 0x1A96 JUMP JUMPDEST JUMPDEST PUSH0 PUSH2 0x1C16 DUP5 DUP3 DUP6 ADD PUSH2 0x1BE0 JUMP JUMPDEST SWAP2 POP POP SWAP3 SWAP2 POP POP JUMP JUMPDEST PUSH0 DUP2 SWAP1 POP SWAP2 SWAP1 POP JUMP JUMPDEST PUSH2 0x1C31 DUP2 PUSH2 0x1C1F JUMP JUMPDEST DUP3 MSTORE POP POP JUMP JUMPDEST PUSH0 PUSH1 0x20 DUP3 ADD SWAP1 POP PUSH2 0x1C4A PUSH0 DUP4 ADD DUP5 PUSH2 0x1C28 JUMP JUMPDEST SWAP3 SWAP2 POP POP JUMP JUMPDEST PUSH0 DUP1 PUSH0 PUSH1 0x60 DUP5 DUP7 SUB SLT ISZERO PUSH2 0x1C67 JUMPI PUSH2 0x1C66 PUSH2 0x1A96 JUMP JUMPDEST JUMPDEST PUSH0 PUSH2 0x1C74 DUP7 DUP3 DUP8 ADD PUSH2 0x1AE4 JUMP JUMPDEST SWAP4 POP POP PUSH1 0x20 PUSH2 0x1C85 DUP7 DUP3 DUP8 ADD PUSH2 0x1AE4 JUMP JUMPDEST SWAP3 POP POP PUSH1 0x40 PUSH2 0x1C96 DUP7 DUP3 DUP8 ADD PUSH2 0x1B0E JUMP JUMPDEST SWAP2 POP POP SWAP3 POP SWAP3 POP SWAP3 JUMP JUMPDEST PUSH2 0x1CA9 DUP2 PUSH2 0x1C1F JUMP JUMPDEST DUP2 EQ PUSH2 0x1CB3 JUMPI PUSH0 DUP1 REVERT JUMPDEST POP JUMP JUMPDEST PUSH0 DUP2 CALLDATALOAD SWAP1 POP PUSH2 0x1CC4 DUP2 PUSH2 0x1CA0 JUMP JUMPDEST SWAP3 SWAP2 POP POP JUMP JUMPDEST PUSH0 DUP1 PUSH1 0x40 DUP4 DUP6 SUB SLT ISZERO PUSH2 0x1CE0 JUMPI PUSH2 0x1CDF PUSH2 0x1A96 JUMP JUMPDEST JUMPDEST PUSH0 PUSH2 0x1CED DUP6 DUP3 DUP7 ADD PUSH2 0x1BE0 JUMP JUMPDEST SWAP3 POP POP PUSH1 0x20 PUSH2 0x1CFE DUP6 DUP3 DUP7 ADD PUSH2 0x1CB6 JUMP JUMPDEST SWAP2 POP POP SWAP3 POP SWAP3 SWAP1 POP JUMP JUMPDEST PUSH0 PUSH1 0xFF DUP3 AND SWAP1 POP SWAP2 SWAP1 POP JUMP JUMPDEST PUSH2 0x1D1D DUP2 PUSH2 0x1D08 JUMP JUMPDEST DUP3 MSTORE POP POP JUMP JUMPDEST PUSH0 PUSH1 0x20 DUP3 ADD SWAP1 POP PUSH2 0x1D36 PUSH0 DUP4 ADD DUP5 PUSH2 0x1D14 JUMP JUMPDEST SWAP3 SWAP2 POP POP JUMP JUMPDEST PUSH0 PUSH1 0x20 DUP3 DUP5 SUB SLT ISZERO PUSH2 0x1D51 JUMPI PUSH2 0x1D50 PUSH2 0x1A96 JUMP JUMPDEST JUMPDEST PUSH0 PUSH2 0x1D5E DUP5 DUP3 DUP6 ADD PUSH2 0x1AE4 JUMP JUMPDEST SWAP2 POP POP SWAP3 SWAP2 POP POP JUMP JUMPDEST PUSH0 PUSH1 0x20 DUP3 DUP5 SUB SLT ISZERO PUSH2 0x1D7C JUMPI PUSH2 0x1D7B PUSH2 0x1A96 JUMP JUMPDEST JUMPDEST PUSH0 PUSH2 0x1D89 DUP5 DUP3 DUP6 ADD PUSH2 0x1B0E JUMP JUMPDEST SWAP2 POP POP SWAP3 SWAP2 POP POP JUMP JUMPDEST PUSH0 DUP1 REVERT JUMPDEST PUSH0 DUP1 REVERT JUMPDEST PUSH0 DUP1 REVERT JUMPDEST PUSH0 DUP1 DUP4 PUSH1 0x1F DUP5 ADD SLT PUSH2 0x1DB3 JUMPI PUSH2 0x1DB2 PUSH2 0x1D92 JUMP JUMPDEST JUMPDEST DUP3 CALLDATALOAD SWAP1 POP PUSH8 0xFFFFFFFFFFFFFFFF DUP2 GT ISZERO PUSH2 0x1DD0 JUMPI PUSH2 0x1DCF PUSH2 0x1D96 JUMP JUMPDEST JUMPDEST PUSH1 0x20 DUP4 ADD SWAP2 POP DUP4 PUSH1 0x1 DUP3 MUL DUP4 ADD GT ISZERO PUSH2 0x1DEC JUMPI PUSH2 0x1DEB PUSH2 0x1D9A JUMP JUMPDEST JUMPDEST SWAP3 POP SWAP3 SWAP1 POP JUMP JUMPDEST PUSH0 DUP1 PUSH0 DUP1 PUSH1 0x60 DUP6 DUP8 SUB SLT ISZERO PUSH2 0x1E0B JUMPI PUSH2 0x1E0A PUSH2 0x1A96 JUMP JUMPDEST JUMPDEST PUSH0 PUSH2 0x1E18 DUP8 DUP3 DUP9 ADD PUSH2 0x1BE0 JUMP JUMPDEST SWAP5 POP POP PUSH1 0x20 PUSH2 0x1E29 DUP8 DUP3 DUP9 ADD PUSH2 0x1CB6 JUMP JUMPDEST SWAP4 POP POP PUSH1 0x40 DUP6 ADD CALLDATALOAD PUSH8 0xFFFFFFFFFFFFFFFF DUP2 GT ISZERO PUSH2 0x1E4A JUMPI PUSH2 0x1E49 PUSH2 0x1A9A JUMP JUMPDEST JUMPDEST PUSH2 0x1E56 DUP8 DUP3 DUP9 ADD PUSH2 0x1D9E JUMP JUMPDEST SWAP3 POP SWAP3 POP POP SWAP3 SWAP6 SWAP2 SWAP5 POP SWAP3 POP JUMP JUMPDEST PUSH0 DUP1 PUSH1 0x40 DUP4 DUP6 SUB SLT ISZERO PUSH2 0x1E7A JUMPI PUSH2 0x1E79 PUSH2 0x1A96 JUMP JUMPDEST JUMPDEST PUSH0 PUSH2 0x1E87 DUP6 DUP3 DUP7 ADD PUSH2 0x1AE4 JUMP JUMPDEST SWAP3 POP POP PUSH1 0x20 PUSH2 0x1E98 DUP6 DUP3 DUP7 ADD PUSH2 0x1AE4 JUMP JUMPDEST SWAP2 POP POP SWAP3 POP SWAP3 SWAP1 POP JUMP JUMPDEST PUSH32 0x4E487B7100000000000000000000000000000000000000000000000000000000 PUSH0 MSTORE PUSH1 0x11 PUSH1 0x4 MSTORE PUSH1 0x24 PUSH0 REVERT JUMPDEST PUSH0 PUSH2 0x1ED9 DUP3 PUSH2 0x19BB JUMP JUMPDEST SWAP2 POP PUSH2 0x1EE4 DUP4 PUSH2 0x19BB JUMP JUMPDEST SWAP3 POP DUP3 DUP3 ADD SWAP1 POP DUP1 DUP3 GT ISZERO PUSH2 0x1EFC JUMPI PUSH2 0x1EFB PUSH2 0x1EA2 JUMP JUMPDEST JUMPDEST SWAP3 SWAP2 POP POP JUMP JUMPDEST PUSH32 0x4E487B7100000000000000000000000000000000000000000000000000000000 PUSH0 MSTORE PUSH1 0x22 PUSH1 0x4 MSTORE PUSH1 0x24 PUSH0 REVERT JUMPDEST PUSH0 PUSH1 0x2 DUP3 DIV SWAP1 POP PUSH1 0x1 DUP3 AND DUP1 PUSH2 0x1F46 JUMPI PUSH1 0x7F DUP3 AND SWAP2 POP JUMPDEST PUSH1 0x20 DUP3 LT DUP2 SUB PUSH2 0x1F59 JUMPI PUSH2 0x1F58 PUSH2 0x1F02 JUMP JUMPDEST JUMPDEST POP SWAP2 SWAP1 POP JUMP JUMPDEST PUSH32 0x43616C6C6572206D75737420626520746865206D61696C626F78000000000000 PUSH0 DUP3 ADD MSTORE POP JUMP JUMPDEST PUSH0 PUSH2 0x1F93 PUSH1 0x1A DUP4 PUSH2 0x19F6 JUMP JUMPDEST SWAP2 POP PUSH2 0x1F9E DUP3 PUSH2 0x1F5F JUMP JUMPDEST PUSH1 0x20 DUP3 ADD SWAP1 POP SWAP2 SWAP1 POP JUMP JUMPDEST PUSH0 PUSH1 0x20 DUP3 ADD SWAP1 POP DUP2 DUP2 SUB PUSH0 DUP4 ADD MSTORE PUSH2 0x1FC0 DUP2 PUSH2 0x1F87 JUMP JUMPDEST SWAP1 POP SWAP2 SWAP1 POP JUMP JUMPDEST PUSH32 0x53656E646572206D75737420626520747275737465642072656D6F7465000000 PUSH0 DUP3 ADD MSTORE POP JUMP JUMPDEST PUSH0 PUSH2 0x1FFB PUSH1 0x1D DUP4 PUSH2 0x19F6 JUMP JUMPDEST SWAP2 POP PUSH2 0x2006 DUP3 PUSH2 0x1FC7 JUMP JUMPDEST PUSH1 0x20 DUP3 ADD SWAP1 POP SWAP2 SWAP1 POP JUMP JUMPDEST PUSH0 PUSH1 0x20 DUP3 ADD SWAP1 POP DUP2 DUP2 SUB PUSH0 DUP4 ADD MSTORE PUSH2 0x2028 DUP2 PUSH2 0x1FEF JUMP JUMPDEST SWAP1 POP SWAP2 SWAP1 POP JUMP JUMPDEST PUSH0 PUSH2 0x2039 DUP3 PUSH2 0x1A9E JUMP JUMPDEST SWAP1 POP SWAP2 SWAP1 POP JUMP JUMPDEST PUSH2 0x2049 DUP2 PUSH2 0x202F JUMP JUMPDEST DUP2 EQ PUSH2 0x2053 JUMPI PUSH0 DUP1 REVERT JUMPDEST POP JUMP JUMPDEST PUSH0 DUP2 CALLDATALOAD SWAP1 POP PUSH2 0x2064 DUP2 PUSH2 0x2040 JUMP JUMPDEST SWAP3 SWAP2 POP POP JUMP JUMPDEST PUSH0 DUP1 PUSH1 0x40 DUP4 DUP6 SUB SLT ISZERO PUSH2 0x2080 JUMPI PUSH2 0x207F PUSH2 0x1A96 JUMP JUMPDEST JUMPDEST PUSH0 PUSH2 0x208D DUP6 DUP3 DUP7 ADD PUSH2 0x2056 JUMP JUMPDEST SWAP3 POP POP PUSH1 0x20 PUSH2 0x209E DUP6 DUP3 DUP7 ADD PUSH2 0x1B0E JUMP JUMPDEST SWAP2 POP POP SWAP3 POP SWAP3 SWAP1 POP JUMP JUMPDEST PUSH32 0x43616C6C6572206973206E6F7420612067616D65206D61737465720000000000 PUSH0 DUP3 ADD MSTORE POP JUMP JUMPDEST PUSH0 PUSH2 0x20DC PUSH1 0x1B DUP4 PUSH2 0x19F6 JUMP JUMPDEST SWAP2 POP PUSH2 0x20E7 DUP3 PUSH2 0x20A8 JUMP JUMPDEST PUSH1 0x20 DUP3 ADD SWAP1 POP SWAP2 SWAP1 POP JUMP JUMPDEST PUSH0 PUSH1 0x20 DUP3 ADD SWAP1 POP DUP2 DUP2 SUB PUSH0 DUP4 ADD MSTORE PUSH2 0x2109 DUP2 PUSH2 0x20D0 JUMP JUMPDEST SWAP1 POP SWAP2 SWAP1 POP JUMP JUMPDEST PUSH0 PUSH1 0x60 DUP3 ADD SWAP1 POP PUSH2 0x2123 PUSH0 DUP4 ADD DUP7 PUSH2 0x1B93 JUMP JUMPDEST PUSH2 0x2130 PUSH1 0x20 DUP4 ADD DUP6 PUSH2 0x19C4 JUMP JUMPDEST PUSH2 0x213D PUSH1 0x40 DUP4 ADD DUP5 PUSH2 0x19C4 JUMP JUMPDEST SWAP5 SWAP4 POP POP POP POP JUMP JUMPDEST PUSH32 0x4D617820737570706C7920726561636865640000000000000000000000000000 PUSH0 DUP3 ADD MSTORE POP JUMP JUMPDEST PUSH0 PUSH2 0x2179 PUSH1 0x12 DUP4 PUSH2 0x19F6 JUMP JUMPDEST SWAP2 POP PUSH2 0x2184 DUP3 PUSH2 0x2145 JUMP JUMPDEST PUSH1 0x20 DUP3 ADD SWAP1 POP SWAP2 SWAP1 POP JUMP JUMPDEST PUSH0 PUSH1 0x20 DUP3 ADD SWAP1 POP DUP2 DUP2 SUB PUSH0 DUP4 ADD MSTORE PUSH2 0x21A6 DUP2 PUSH2 0x216D JUMP JUMPDEST SWAP1 POP SWAP2 SWAP1 POP JUMP JUMPDEST PUSH0 PUSH2 0x21B7 DUP3 PUSH2 0x19BB JUMP JUMPDEST SWAP2 POP PUSH2 0x21C2 DUP4 PUSH2 0x19BB JUMP JUMPDEST SWAP3 POP DUP3 DUP3 SUB SWAP1 POP DUP2 DUP2 GT ISZERO PUSH2 0x21DA JUMPI PUSH2 0x21D9 PUSH2 0x1EA2 JUMP JUMPDEST JUMPDEST SWAP3 SWAP2 POP POP JUMP JUMPDEST PUSH32 0x4461696C7920726577617264206C696D69742072656163686564000000000000 PUSH0 DUP3 ADD MSTORE POP JUMP JUMPDEST PUSH0 PUSH2 0x2214 PUSH1 0x1A DUP4 PUSH2 0x19F6 JUMP JUMPDEST SWAP2 POP PUSH2 0x221F DUP3 PUSH2 0x21E0 JUMP JUMPDEST PUSH1 0x20 DUP3 ADD SWAP1 POP SWAP2 SWAP1 POP JUMP JUMPDEST PUSH0 PUSH1 0x20 DUP3 ADD SWAP1 POP DUP2 DUP2 SUB PUSH0 DUP4 ADD MSTORE PUSH2 0x2241 DUP2 PUSH2 0x2208 JUMP JUMPDEST SWAP1 POP SWAP2 SWAP1 POP JUMP JUMPDEST PUSH32 0x5265776172642065786365656473206461696C79206C696D6974000000000000 PUSH0 DUP3 ADD MSTORE POP JUMP JUMPDEST PUSH0 PUSH2 0x227C PUSH1 0x1A DUP4 PUSH2 0x19F6 JUMP JUMPDEST SWAP2 POP PUSH2 0x2287 DUP3 PUSH2 0x2248 JUMP JUMPDEST PUSH1 0x20 DUP3 ADD SWAP1 POP SWAP2 SWAP1 POP JUMP JUMPDEST PUSH0 PUSH1 0x20 DUP3 ADD SWAP1 POP DUP2 DUP2 SUB PUSH0 DUP4 ADD MSTORE PUSH2 0x22A9 DUP2 PUSH2 0x2270 JUMP JUMPDEST SWAP1 POP SWAP2 SWAP1 POP JUMP INVALID LOG2 PUSH5 0x6970667358 0x22 SLT KECCAK256 SELFBALANCE 0xCC 0xAD PUSH29 0x1E8622E6DA0B72B8A402472BAE8E2D3D40477B6DF583E75BC0DFE87164 PUSH20 0x6F6C634300081800330000000000000000000000 "
				},
				"gasEstimates": {
					"creation": {
						"codeDepositCost": "1786800",
						"executionCost": "infinite",
						"totalCost": "infinite"
					},
					"external": {
						"DAILY_REWARD_LIMIT()": "436",
						"MAX_SUPPLY()": "415",
						"addGameMaster(address)": "infinite",
						"allowance(address,address)": "infinite",
						"approve(address,uint256)": "infinite",
						"balanceOf(address)": "2897",
						"burn(uint256)": "infinite",
						"burnFrom(address,uint256)": "infinite",
						"decimals()": "406",
						"gameMasters(address)": "2900",
						"getTokenId()": "infinite",
						"handle(uint32,bytes32,bytes)": "infinite",
						"hyperlaneMailbox()": "2576",
						"lastRewardTime(address)": "2914",
						"mintReward(address,uint256)": "infinite",
						"name()": "infinite",
						"owner()": "2677",
						"pause()": "infinite",
						"paused()": "2519",
						"removeGameMaster(address)": "infinite",
						"renounceOwnership()": "infinite",
						"setMailbox(address)": "infinite",
						"setTrustedRemote(uint32,bytes32)": "infinite",
						"symbol()": "infinite",
						"totalSupply()": "2478",
						"transfer(address,uint256)": "infinite",
						"transferFrom(address,address,uint256)": "infinite",
						"transferOwnership(address)": "infinite",
						"trustedRemotes(uint32)": "2850",
						"unpause()": "infinite"
					},
					"internal": {
						"_mintReward(address,uint256)": "infinite",
						"_update(address,address,uint256)": "infinite"
					}
				},
				"methodIdentifiers": {
					"DAILY_REWARD_LIMIT()": "bca12299",
					"MAX_SUPPLY()": "32cb6b0c",
					"addGameMaster(address)": "8b1c7b10",
					"allowance(address,address)": "dd62ed3e",
					"approve(address,uint256)": "095ea7b3",
					"balanceOf(address)": "70a08231",
					"burn(uint256)": "42966c68",
					"burnFrom(address,uint256)": "79cc6790",
					"decimals()": "313ce567",
					"gameMasters(address)": "4080d640",
					"getTokenId()": "010a38f5",
					"handle(uint32,bytes32,bytes)": "56d5d475",
					"hyperlaneMailbox()": "1a6e4db4",
					"lastRewardTime(address)": "3b5d441e",
					"mintReward(address,uint256)": "9a49090e",
					"name()": "06fdde03",
					"owner()": "8da5cb5b",
					"pause()": "8456cb59",
					"paused()": "5c975abb",
					"removeGameMaster(address)": "dfca5ce3",
					"renounceOwnership()": "715018a6",
					"setMailbox(address)": "f3c61d6b",
					"setTrustedRemote(uint32,bytes32)": "2bda3e0b",
					"symbol()": "95d89b41",
					"totalSupply()": "18160ddd",
					"transfer(address,uint256)": "a9059cbb",
					"transferFrom(address,address,uint256)": "23b872dd",
					"transferOwnership(address)": "f2fde38b",
					"trustedRemotes(uint32)": "1d187c50",
					"unpause()": "3f4ba83a"
				}
			},
			"storageLayout": {
				"storage": [
					{
						"astId": 319,
						"contract": "contracts/ERC20Reward.sol:ERC20Reward",
						"label": "_balances",
						"offset": 0,
						"slot": "0",
						"type": "t_mapping(t_address,t_uint256)"
					},
					{
						"astId": 325,
						"contract": "contracts/ERC20Reward.sol:ERC20Reward",
						"label": "_allowances",
						"offset": 0,
						"slot": "1",
						"type": "t_mapping(t_address,t_mapping(t_address,t_uint256))"
					},
					{
						"astId": 327,
						"contract": "contracts/ERC20Reward.sol:ERC20Reward",
						"label": "_totalSupply",
						"offset": 0,
						"slot": "2",
						"type": "t_uint256"
					},
					{
						"astId": 329,
						"contract": "contracts/ERC20Reward.sol:ERC20Reward",
						"label": "_name",
						"offset": 0,
						"slot": "3",
						"type": "t_string_storage"
					},
					{
						"astId": 331,
						"contract": "contracts/ERC20Reward.sol:ERC20Reward",
						"label": "_symbol",
						"offset": 0,
						"slot": "4",
						"type": "t_string_storage"
					},
					{
						"astId": 1034,
						"contract": "contracts/ERC20Reward.sol:ERC20Reward",
						"label": "_paused",
						"offset": 0,
						"slot": "5",
						"type": "t_bool"
					},
					{
						"astId": 20,
						"contract": "contracts/ERC20Reward.sol:ERC20Reward",
						"label": "_owner",
						"offset": 1,
						"slot": "5",
						"type": "t_address"
					},
					{
						"astId": 1159,
						"contract": "contracts/ERC20Reward.sol:ERC20Reward",
						"label": "hyperlaneMailbox",
						"offset": 0,
						"slot": "6",
						"type": "t_address"
					},
					{
						"astId": 1163,
						"contract": "contracts/ERC20Reward.sol:ERC20Reward",
						"label": "trustedRemotes",
						"offset": 0,
						"slot": "7",
						"type": "t_mapping(t_uint32,t_bytes32)"
					},
					{
						"astId": 1181,
						"contract": "contracts/ERC20Reward.sol:ERC20Reward",
						"label": "gameMasters",
						"offset": 0,
						"slot": "8",
						"type": "t_mapping(t_address,t_bool)"
					},
					{
						"astId": 1185,
						"contract": "contracts/ERC20Reward.sol:ERC20Reward",
						"label": "lastRewardTime",
						"offset": 0,
						"slot": "9",
						"type": "t_mapping(t_address,t_uint256)"
					},
					{
						"astId": 1187,
						"contract": "contracts/ERC20Reward.sol:ERC20Reward",
						"label": "_tokenIdCounter",
						"offset": 0,
						"slot": "10",
						"type": "t_uint256"
					}
				],
				"types": {
					"t_address": {
						"encoding": "inplace",
						"label": "address",
						"numberOfBytes": "20"
					},
					"t_bool": {
						"encoding": "inplace",
						"label": "bool",
						"numberOfBytes": "1"
					},
					"t_bytes32": {
						"encoding": "inplace",
						"label": "bytes32",
						"numberOfBytes": "32"
					},
					"t_mapping(t_address,t_bool)": {
						"encoding": "mapping",
						"key": "t_address",
						"label": "mapping(address => bool)",
						"numberOfBytes": "32",
						"value": "t_bool"
					},
					"t_mapping(t_address,t_mapping(t_address,t_uint256))": {
						"encoding": "mapping",
						"key": "t_address",
						"label": "mapping(address => mapping(address => uint256))",
						"numberOfBytes": "32",
						"value": "t_mapping(t_address,t_uint256)"
					},
					"t_mapping(t_address,t_uint256)": {
						"encoding": "mapping",
						"key": "t_address",
						"label": "mapping(address => uint256)",
						"numberOfBytes": "32",
						"value": "t_uint256"
					},
					"t_mapping(t_uint32,t_bytes32)": {
						"encoding": "mapping",
						"key": "t_uint32",
						"label": "mapping(uint32 => bytes32)",
						"numberOfBytes": "32",
						"value": "t_bytes32"
					},
					"t_string_storage": {
						"encoding": "bytes",
						"label": "string",
						"numberOfBytes": "32"
					},
					"t_uint256": {
						"encoding": "inplace",
						"label": "uint256",
						"numberOfBytes": "32"
					},
					"t_uint32": {
						"encoding": "inplace",
						"label": "uint32",
						"numberOfBytes": "4"
					}
				}
			},
			"userdoc": {
				"kind": "user",
				"methods": {},
				"version": 1
			}
		}
	}
}