{
	"data": {
		"bytecode": {
			"linkReferences": {},
			"object": "608060405234801562000010575f80fd5b50604051620027a7380380620027a78339818101604052810190620000369190620002f3565b335f73ffffffffffffffffffffffffffffffffffffffff168173ffffffffffffffffffffffffffffffffffffffff1603620000aa575f6040517f1e4fbdf7000000000000000000000000000000000000000000000000000000008152600401620000a1919062000373565b60405180910390fd5b620000bb81620001cd60201b60201c565b50600180819055508360025f6101000a81548173ffffffffffffffffffffffffffffffffffffffff021916908373ffffffffffffffffffffffffffffffffffffffff1602179055508260035f6101000a81548173ffffffffffffffffffffffffffffffffffffffff021916908373ffffffffffffffffffffffffffffffffffffffff1602179055508160045f6101000a81548173ffffffffffffffffffffffffffffffffffffffff021916908373ffffffffffffffffffffffffffffffffffffffff1602179055508060055f6101000a81548173ffffffffffffffffffffffffffffffffffffffff021916908373ffffffffffffffffffffffffffffffffffffffff160217905550505050506200038e565b5f805f9054906101000a900473ffffffffffffffffffffffffffffffffffffffff169050815f806101000a81548173ffffffffffffffffffffffffffffffffffffffff021916908373ffffffffffffffffffffffffffffffffffffffff1602179055508173ffffffffffffffffffffffffffffffffffffffff168173ffffffffffffffffffffffffffffffffffffffff167f8be0079c531659141344cd1fd0a4f28419497f9722a3daafe3b4186f6b6457e060405160405180910390a35050565b5f80fd5b5f73ffffffffffffffffffffffffffffffffffffffff82169050919050565b5f620002bd8262000292565b9050919050565b620002cf81620002b1565b8114620002da575f80fd5b50565b5f81519050620002ed81620002c4565b92915050565b5f805f80608085870312156200030e576200030d6200028e565b5b5f6200031d87828801620002dd565b94505060206200033087828801620002dd565b93505060406200034387828801620002dd565b92505060606200035687828801620002dd565b91505092959194509250565b6200036d81620002b1565b82525050565b5f602082019050620003885f83018462000362565b92915050565b61240b806200039c5f395ff3fe6080604052600436106100f1575f3560e01c8063715018a611610089578063d15e55b711610058578063d15e55b7146102b7578063f28b2daa146102f5578063f2fde38b1461031f578063f7c618c114610347576100f1565b8063715018a6146102255780638da5cb5b1461023b578063959da2cf14610265578063a1db97821461028f576100f1565b80632bda3e0b116100c55780632bda3e0b1461019b5780632c40ae85146101c357806356d5d475146101df578063602e5a9e146101fb576100f1565b80626228dc146100f55780631a6e4db41461010b5780631d187c501461013557806322009af614610171575b5f80fd5b348015610100575f80fd5b50610109610371565b005b348015610116575f80fd5b5061011f610791565b60405161012c919061161c565b60405180910390f35b348015610140575f80fd5b5061015b60048036038101906101569190611676565b6107b6565b60405161016891906116b9565b60405180910390f35b34801561017c575f80fd5b506101856107cb565b60405161019291906116ea565b60405180910390f35b3480156101a6575f80fd5b506101c160048036038101906101bc919061172d565b6107d7565b005b6101dd60048036038101906101d89190611795565b610805565b005b6101f960048036038101906101f49190611834565b610c97565b005b348015610206575f80fd5b5061020f610f7f565b60405161021c91906116ea565b60405180910390f35b348015610230575f80fd5b50610239610f8b565b005b348015610246575f80fd5b5061024f610f9e565b60405161025c91906118c5565b60405180910390f35b348015610270575f80fd5b50610279610fc5565b60405161028691906118fe565b60405180910390f35b34801561029a575f80fd5b506102b560048036038101906102b09190611941565b610fea565b005b3480156102c2575f80fd5b506102dd60048036038101906102d8919061197f565b6110b7565b6040516102ec939291906119aa565b60405180910390f35b348015610300575f80fd5b506103096110dd565b60405161031691906119ff565b60405180910390f35b34801561032a575f80fd5b506103456004803603810190610340919061197f565b611102565b005b348015610352575f80fd5b5061035b611186565b6040516103689190611a38565b60405180910390f35b6103796111ab565b5f60075f3373ffffffffffffffffffffffffffffffffffffffff1673ffffffffffffffffffffffffffffffffffffffff1681526020019081526020015f209050603c8160020154426103cb9190611a7e565b101561040c576040517f08c379a000000000000000000000000000000000000000000000000000000000815260040161040390611b0b565b60405180910390fd5b5f6001826001015461041e9190611b29565b678ac7230489e800006104319190611b5c565b90508060025f9054906101000a900473ffffffffffffffffffffffffffffffffffffffff1673ffffffffffffffffffffffffffffffffffffffff166370a08231336040518263ffffffff1660e01b815260040161048e91906118c5565b602060405180830381865afa1580156104a9573d5f803e3d5ffd5b505050506040513d601f19601f820116820180604052508101906104cd9190611bb1565b101561050e576040517f08c379a000000000000000000000000000000000000000000000000000000000815260040161050590611c26565b60405180910390fd5b60025f9054906101000a900473ffffffffffffffffffffffffffffffffffffffff1673ffffffffffffffffffffffffffffffffffffffff166379cc679033836040518363ffffffff1660e01b815260040161056a929190611c44565b5f604051808303815f87803b158015610581575f80fd5b505af1158015610593573d5f803e3d5ffd5b505050505f6105a583600101546111fa565b905082600101548111610751575f6105bc82611257565b905060025f9054906101000a900473ffffffffffffffffffffffffffffffffffffffff1673ffffffffffffffffffffffffffffffffffffffff16639a49090e33836040518363ffffffff1660e01b815260040161061a929190611c44565b5f604051808303815f87803b158015610631575f80fd5b505af1158015610643573d5f803e3d5ffd5b5050505080845f015f8282546106599190611b29565b925050819055503373ffffffffffffffffffffffffffffffffffffffff167fd17ba01607a01cd2603cccd4413f658442e41dd750b0722c4398589f1c80a6c383836040516106a8929190611c6b565b60405180910390a2670de0b6b3a7640000606485600101546106ca9190611b5c565b6106d49190611b5c565b845f01541061074b576001846001015f8282546106f19190611b29565b925050819055503373ffffffffffffffffffffffffffffffffffffffff167fdee7109003cf6cd3cb1b552819b438487a03ca336b5dfb3d823fcd9174549be6856001015460405161074291906116ea565b60405180910390a25b5061077b565b60018360010154111561077a576001836001015f8282546107729190611a7e565b925050819055505b5b42836002018190555050505061078f611273565b565b60045f9054906101000a900473ffffffffffffffffffffffffffffffffffffffff1681565b6006602052805f5260405f205f915090505481565b674563918244f4000081565b6107df61127c565b8060065f8463ffffffff1663ffffffff1681526020019081526020015f20819055505050565b61080d6111ab565b3373ffffffffffffffffffffffffffffffffffffffff1660035f9054906101000a900473ffffffffffffffffffffffffffffffffffffffff1673ffffffffffffffffffffffffffffffffffffffff16636352211e836040518263ffffffff1660e01b815260040161087e91906116ea565b602060405180830381865afa158015610899573d5f803e3d5ffd5b505050506040513d601f19601f820116820180604052508101906108bd9190611ca6565b73ffffffffffffffffffffffffffffffffffffffff1614610913576040517f08c379a000000000000000000000000000000000000000000000000000000000815260040161090a90611d1b565b60405180910390fd5b60035f9054906101000a900473ffffffffffffffffffffffffffffffffffffffff1673ffffffffffffffffffffffffffffffffffffffff1663042c49be826040518263ffffffff1660e01b815260040161096d91906116ea565b5f604051808303815f87803b158015610984575f80fd5b505af1158015610996573d5f803e3d5ffd5b505050505f33826040516020016109ae929190611c44565b60405160208183030381529060405290505f60045f9054906101000a900473ffffffffffffffffffffffffffffffffffffffff1673ffffffffffffffffffffffffffffffffffffffff1663fa31de018560065f8863ffffffff1663ffffffff1681526020019081526020015f2054856040518463ffffffff1660e01b8152600401610a3b93929190611dd2565b6020604051808303815f875af1158015610a57573d5f803e3d5ffd5b505050506040513d601f19601f82011682018060405250810190610a7b9190611e22565b90505f620493e090505f60055f9054906101000a900473ffffffffffffffffffffffffffffffffffffffff1673ffffffffffffffffffffffffffffffffffffffff1663a692979387846040518363ffffffff1660e01b8152600401610ae1929190611e4d565b602060405180830381865afa158015610afc573d5f803e3d5ffd5b505050506040513d601f19601f82011682018060405250810190610b209190611bb1565b905080341015610b65576040517f08c379a0000000000000000000000000000000000000000000000000000000008152600401610b5c90611ee4565b60405180910390fd5b60055f9054906101000a900473ffffffffffffffffffffffffffffffffffffffff1673ffffffffffffffffffffffffffffffffffffffff166311bf2c1882858986336040518663ffffffff1660e01b8152600401610bc69493929190611f02565b5f604051808303818588803b158015610bdd575f80fd5b505af1158015610bef573d5f803e3d5ffd5b505050505080341115610c4c573373ffffffffffffffffffffffffffffffffffffffff166108fc8234610c229190611a7e565b90811502906040515f60405180830381858888f19350505050158015610c4a573d5f803e3d5ffd5b505b7f89f6d4f38490c20591252d044c714d8b7865b86278d85fef20cd3b6f37ab5bda863387604051610c7f93929190611f45565b60405180910390a150505050610c93611273565b5050565b60045f9054906101000a900473ffffffffffffffffffffffffffffffffffffffff1673ffffffffffffffffffffffffffffffffffffffff163373ffffffffffffffffffffffffffffffffffffffff1614610d26576040517f08c379a0000000000000000000000000000000000000000000000000000000008152600401610d1d90611fc4565b60405180910390fd5b60065f8563ffffffff1663ffffffff1681526020019081526020015f20548314610d85576040517f08c379a0000000000000000000000000000000000000000000000000000000008152600401610d7c9061202c565b60405180910390fd5b5f808383810190610d969190612085565b915091505f805f610da5611303565b92509250925060035f9054906101000a900473ffffffffffffffffffffffffffffffffffffffff1673ffffffffffffffffffffffffffffffffffffffff1663d0a5f756868585856040518563ffffffff1660e01b8152600401610e0b9493929190612105565b5f604051808303815f87803b158015610e22575f80fd5b505af1158015610e34573d5f803e3d5ffd5b505050505f60075f8773ffffffffffffffffffffffffffffffffffffffff1673ffffffffffffffffffffffffffffffffffffffff1681526020019081526020015f209050600a83610e859190611b5c565b815f015f828254610e969190611b29565b92505081905550670de0b6b3a764000060648260010154610eb79190611b5c565b610ec19190611b5c565b815f015410610f38576001816001015f828254610ede9190611b29565b925050819055508573ffffffffffffffffffffffffffffffffffffffff167fdee7109003cf6cd3cb1b552819b438487a03ca336b5dfb3d823fcd9174549be68260010154604051610f2f91906116ea565b60405180910390a25b7f89f6d4f38490c20591252d044c714d8b7865b86278d85fef20cd3b6f37ab5bda8a8787604051610f6b93929190611f45565b60405180910390a150505050505050505050565b678ac7230489e8000081565b610f9361127c565b610f9c5f6114da565b565b5f805f9054906101000a900473ffffffffffffffffffffffffffffffffffffffff16905090565b60035f9054906101000a900473ffffffffffffffffffffffffffffffffffffffff1681565b610ff261127c565b8173ffffffffffffffffffffffffffffffffffffffff1663a9059cbb611016610f9e565b836040518363ffffffff1660e01b8152600401611034929190611c44565b6020604051808303815f875af1158015611050573d5f803e3d5ffd5b505050506040513d601f19601f820116820180604052508101906110749190612184565b6110b3576040517f08c379a00000000000000000000000000000000000000000000000000000000081526004016110aa906121f9565b60405180910390fd5b5050565b6007602052805f5260405f205f91509050805f0154908060010154908060020154905083565b60055f9054906101000a900473ffffffffffffffffffffffffffffffffffffffff1681565b61110a61127c565b5f73ffffffffffffffffffffffffffffffffffffffff168173ffffffffffffffffffffffffffffffffffffffff160361117a575f6040517f1e4fbdf700000000000000000000000000000000000000000000000000000000815260040161117191906118c5565b60405180910390fd5b611183816114da565b50565b60025f9054906101000a900473ffffffffffffffffffffffffffffffffffffffff1681565b6002600154036111f0576040517f08c379a00000000000000000000000000000000000000000000000000000000081526004016111e790612261565b60405180910390fd5b6002600181905550565b5f80423384604051602001611211939291906122e4565b604051602081830303815290604052805190602001205f1c9050600160028461123a9190611b5c565b82611245919061234d565b61124f9190611b29565b915050919050565b5f81674563918244f4000061126c9190611b5c565b9050919050565b60018081905550565b61128461159b565b73ffffffffffffffffffffffffffffffffffffffff166112a2610f9e565b73ffffffffffffffffffffffffffffffffffffffff1614611301576112c561159b565b6040517f118cdaa70000000000000000000000000000000000000000000000000000000081526004016112f891906118c5565b60405180910390fd5b565b60605f805f423360405160200161131b92919061237d565b604051602081830303815290604052805190602001205f1c90505f6040518060a001604052806040518060400160405280600481526020017f54756e610000000000000000000000000000000000000000000000000000000081525081526020016040518060400160405280600681526020017f53616c6d6f6e000000000000000000000000000000000000000000000000000081525081526020016040518060400160405280600581526020017f54726f757400000000000000000000000000000000000000000000000000000081525081526020016040518060400160405280600481526020017f426173730000000000000000000000000000000000000000000000000000000081525081526020016040518060400160405280600781526020017f436174666973680000000000000000000000000000000000000000000000000081525081525090505f81600584611477919061234d565b60058110611488576114876123a8565b5b602002015190505f600160648561149f919061234d565b6114a99190611b29565b90505f60016005866114bb919061234d565b6114c59190611b29565b90508282829750975097505050505050909192565b5f805f9054906101000a900473ffffffffffffffffffffffffffffffffffffffff169050815f806101000a81548173ffffffffffffffffffffffffffffffffffffffff021916908373ffffffffffffffffffffffffffffffffffffffff1602179055508173ffffffffffffffffffffffffffffffffffffffff168173ffffffffffffffffffffffffffffffffffffffff167f8be0079c531659141344cd1fd0a4f28419497f9722a3daafe3b4186f6b6457e060405160405180910390a35050565b5f33905090565b5f73ffffffffffffffffffffffffffffffffffffffff82169050919050565b5f819050919050565b5f6115e46115df6115da846115a2565b6115c1565b6115a2565b9050919050565b5f6115f5826115ca565b9050919050565b5f611606826115eb565b9050919050565b611616816115fc565b82525050565b5f60208201905061162f5f83018461160d565b92915050565b5f80fd5b5f80fd5b5f63ffffffff82169050919050565b6116558161163d565b811461165f575f80fd5b50565b5f813590506116708161164c565b92915050565b5f6020828403121561168b5761168a611635565b5b5f61169884828501611662565b91505092915050565b5f819050919050565b6116b3816116a1565b82525050565b5f6020820190506116cc5f8301846116aa565b92915050565b5f819050919050565b6116e4816116d2565b82525050565b5f6020820190506116fd5f8301846116db565b92915050565b61170c816116a1565b8114611716575f80fd5b50565b5f8135905061172781611703565b92915050565b5f806040838503121561174357611742611635565b5b5f61175085828601611662565b925050602061176185828601611719565b9150509250929050565b611774816116d2565b811461177e575f80fd5b50565b5f8135905061178f8161176b565b92915050565b5f80604083850312156117ab576117aa611635565b5b5f6117b885828601611662565b92505060206117c985828601611781565b9150509250929050565b5f80fd5b5f80fd5b5f80fd5b5f8083601f8401126117f4576117f36117d3565b5b8235905067ffffffffffffffff811115611811576118106117d7565b5b60208301915083600182028301111561182d5761182c6117db565b5b9250929050565b5f805f806060858703121561184c5761184b611635565b5b5f61185987828801611662565b945050602061186a87828801611719565b935050604085013567ffffffffffffffff81111561188b5761188a611639565b5b611897878288016117df565b925092505092959194509250565b5f6118af826115a2565b9050919050565b6118bf816118a5565b82525050565b5f6020820190506118d85f8301846118b6565b92915050565b5f6118e8826115eb565b9050919050565b6118f8816118de565b82525050565b5f6020820190506119115f8301846118ef565b92915050565b611920816118a5565b811461192a575f80fd5b50565b5f8135905061193b81611917565b92915050565b5f806040838503121561195757611956611635565b5b5f6119648582860161192d565b925050602061197585828601611781565b9150509250929050565b5f6020828403121561199457611993611635565b5b5f6119a18482850161192d565b91505092915050565b5f6060820190506119bd5f8301866116db565b6119ca60208301856116db565b6119d760408301846116db565b949350505050565b5f6119e9826115eb565b9050919050565b6119f9816119df565b82525050565b5f602082019050611a125f8301846119f0565b92915050565b5f611a22826115eb565b9050919050565b611a3281611a18565b82525050565b5f602082019050611a4b5f830184611a29565b92915050565b7f4e487b71000000000000000000000000000000000000000000000000000000005f52601160045260245ffd5b5f611a88826116d2565b9150611a93836116d2565b9250828203905081811115611aab57611aaa611a51565b5b92915050565b5f82825260208201905092915050565b7f57616974206265666f7265206e65787420616374696f6e0000000000000000005f82015250565b5f611af5601783611ab1565b9150611b0082611ac1565b602082019050919050565b5f6020820190508181035f830152611b2281611ae9565b9050919050565b5f611b33826116d2565b9150611b3e836116d2565b9250828201905080821115611b5657611b55611a51565b5b92915050565b5f611b66826116d2565b9150611b71836116d2565b9250828202611b7f816116d2565b91508282048414831517611b9657611b95611a51565b5b5092915050565b5f81519050611bab8161176b565b92915050565b5f60208284031215611bc657611bc5611635565b5b5f611bd384828501611b9d565b91505092915050565b7f496e73756666696369656e7420746f6b656e73000000000000000000000000005f82015250565b5f611c10601383611ab1565b9150611c1b82611bdc565b602082019050919050565b5f6020820190508181035f830152611c3d81611c04565b9050919050565b5f604082019050611c575f8301856118b6565b611c6460208301846116db565b9392505050565b5f604082019050611c7e5f8301856116db565b611c8b60208301846116db565b9392505050565b5f81519050611ca081611917565b92915050565b5f60208284031215611cbb57611cba611635565b5b5f611cc884828501611c92565b91505092915050565b7f4e6f7420746865206f776e6572206f66207468697320666973680000000000005f82015250565b5f611d05601a83611ab1565b9150611d1082611cd1565b602082019050919050565b5f6020820190508181035f830152611d3281611cf9565b9050919050565b611d428161163d565b82525050565b5f81519050919050565b5f82825260208201905092915050565b5f5b83811015611d7f578082015181840152602081019050611d64565b5f8484015250505050565b5f601f19601f8301169050919050565b5f611da482611d48565b611dae8185611d52565b9350611dbe818560208601611d62565b611dc781611d8a565b840191505092915050565b5f606082019050611de55f830186611d39565b611df260208301856116aa565b8181036040830152611e048184611d9a565b9050949350505050565b5f81519050611e1c81611703565b92915050565b5f60208284031215611e3757611e36611635565b5b5f611e4484828501611e0e565b91505092915050565b5f604082019050611e605f830185611d39565b611e6d60208301846116db565b9392505050565b7f496e73756666696369656e7420696e746572636861696e20676173207061796d5f8201527f656e740000000000000000000000000000000000000000000000000000000000602082015250565b5f611ece602383611ab1565b9150611ed982611e74565b604082019050919050565b5f6020820190508181035f830152611efb81611ec2565b9050919050565b5f608082019050611f155f8301876116aa565b611f226020830186611d39565b611f2f60408301856116db565b611f3c60608301846118b6565b95945050505050565b5f606082019050611f585f830186611d39565b611f6560208301856118b6565b611f7260408301846116db565b949350505050565b7f4f6e6c79206d61696c626f782063616e2063616c6c00000000000000000000005f82015250565b5f611fae601583611ab1565b9150611fb982611f7a565b602082019050919050565b5f6020820190508181035f830152611fdb81611fa2565b9050919050565b7f4e6f74206120747275737465642072656d6f74650000000000000000000000005f82015250565b5f612016601483611ab1565b915061202182611fe2565b602082019050919050565b5f6020820190508181035f8301526120438161200a565b9050919050565b5f612054826115a2565b9050919050565b6120648161204a565b811461206e575f80fd5b50565b5f8135905061207f8161205b565b92915050565b5f806040838503121561209b5761209a611635565b5b5f6120a885828601612071565b92505060206120b985828601611781565b9150509250929050565b5f81519050919050565b5f6120d7826120c3565b6120e18185611ab1565b93506120f1818560208601611d62565b6120fa81611d8a565b840191505092915050565b5f6080820190506121185f8301876118b6565b818103602083015261212a81866120cd565b905061213960408301856116db565b61214660608301846116db565b95945050505050565b5f8115159050919050565b6121638161214f565b811461216d575f80fd5b50565b5f8151905061217e8161215a565b92915050565b5f6020828403121561219957612198611635565b5b5f6121a684828501612170565b91505092915050565b7f5472616e73666572206661696c656400000000000000000000000000000000005f82015250565b5f6121e3600f83611ab1565b91506121ee826121af565b602082019050919050565b5f6020820190508181035f830152612210816121d7565b9050919050565b7f5265656e7472616e637947756172643a207265656e7472616e742063616c6c005f82015250565b5f61224b601f83611ab1565b915061225682612217565b602082019050919050565b5f6020820190508181035f8301526122788161223f565b9050919050565b5f819050919050565b612299612294826116d2565b61227f565b82525050565b5f8160601b9050919050565b5f6122b58261229f565b9050919050565b5f6122c6826122ab565b9050919050565b6122de6122d9826118a5565b6122bc565b82525050565b5f6122ef8286612288565b6020820191506122ff82856122cd565b60148201915061230f8284612288565b602082019150819050949350505050565b7f4e487b71000000000000000000000000000000000000000000000000000000005f52601260045260245ffd5b5f612357826116d2565b9150612362836116d2565b92508261237257612371612320565b5b828206905092915050565b5f6123888285612288565b60208201915061239882846122cd565b6014820191508190509392505050565b7f4e487b71000000000000000000000000000000000000000000000000000000005f52603260045260245ffdfea2646970667358221220d0948301b7e64dadec555bc330cabe2d2cf463115a15c77bfe230da1f3dca2b464736f6c63430008180033",
			"opcodes": "PUSH1 0x80 PUSH1 0x40 MSTORE CALLVALUE DUP1 ISZERO PUSH3 0x10 JUMPI PUSH0 DUP1 REVERT JUMPDEST POP PUSH1 0x40 MLOAD PUSH3 0x27A7 CODESIZE SUB DUP1 PUSH3 0x27A7 DUP4 CODECOPY DUP2 DUP2 ADD PUSH1 0x40 MSTORE DUP2 ADD SWAP1 PUSH3 0x36 SWAP2 SWAP1 PUSH3 0x2F3 JUMP JUMPDEST CALLER PUSH0 PUSH20 0xFFFFFFFFFFFFFFFFFFFFFFFFFFFFFFFFFFFFFFFF AND DUP2 PUSH20 0xFFFFFFFFFFFFFFFFFFFFFFFFFFFFFFFFFFFFFFFF AND SUB PUSH3 0xAA JUMPI PUSH0 PUSH1 0x40 MLOAD PUSH32 0x1E4FBDF700000000000000000000000000000000000000000000000000000000 DUP2 MSTORE PUSH1 0x4 ADD PUSH3 0xA1 SWAP2 SWAP1 PUSH3 0x373 JUMP JUMPDEST PUSH1 0x40 MLOAD DUP1 SWAP2 SUB SWAP1 REVERT JUMPDEST PUSH3 0xBB DUP2 PUSH3 0x1CD PUSH1 0x20 SHL PUSH1 0x20 SHR JUMP JUMPDEST POP PUSH1 0x1 DUP1 DUP2 SWAP1 SSTORE POP DUP4 PUSH1 0x2 PUSH0 PUSH2 0x100 EXP DUP2 SLOAD DUP2 PUSH20 0xFFFFFFFFFFFFFFFFFFFFFFFFFFFFFFFFFFFFFFFF MUL NOT AND SWAP1 DUP4 PUSH20 0xFFFFFFFFFFFFFFFFFFFFFFFFFFFFFFFFFFFFFFFF AND MUL OR SWAP1 SSTORE POP DUP3 PUSH1 0x3 PUSH0 PUSH2 0x100 EXP DUP2 SLOAD DUP2 PUSH20 0xFFFFFFFFFFFFFFFFFFFFFFFFFFFFFFFFFFFFFFFF MUL NOT AND SWAP1 DUP4 PUSH20 0xFFFFFFFFFFFFFFFFFFFFFFFFFFFFFFFFFFFFFFFF AND MUL OR SWAP1 SSTORE POP DUP2 PUSH1 0x4 PUSH0 PUSH2 0x100 EXP DUP2 SLOAD DUP2 PUSH20 0xFFFFFFFFFFFFFFFFFFFFFFFFFFFFFFFFFFFFFFFF MUL NOT AND SWAP1 DUP4 PUSH20 0xFFFFFFFFFFFFFFFFFFFFFFFFFFFFFFFFFFFFFFFF AND MUL OR SWAP1 SSTORE POP DUP1 PUSH1 0x5 PUSH0 PUSH2 0x100 EXP DUP2 SLOAD DUP2 PUSH20 0xFFFFFFFFFFFFFFFFFFFFFFFFFFFFFFFFFFFFFFFF MUL NOT AND SWAP1 DUP4 PUSH20 0xFFFFFFFFFFFFFFFFFFFFFFFFFFFFFFFFFFFFFFFF AND MUL OR SWAP1 SSTORE POP POP POP POP POP PUSH3 0x38E JUMP JUMPDEST PUSH0 DUP1 PUSH0 SWAP1 SLOAD SWAP1 PUSH2 0x100 EXP SWAP1 DIV PUSH20 0xFFFFFFFFFFFFFFFFFFFFFFFFFFFFFFFFFFFFFFFF AND SWAP1 POP DUP2 PUSH0 DUP1 PUSH2 0x100 EXP DUP2 SLOAD DUP2 PUSH20 0xFFFFFFFFFFFFFFFFFFFFFFFFFFFFFFFFFFFFFFFF MUL NOT AND SWAP1 DUP4 PUSH20 0xFFFFFFFFFFFFFFFFFFFFFFFFFFFFFFFFFFFFFFFF AND MUL OR SWAP1 SSTORE POP DUP2 PUSH20 0xFFFFFFFFFFFFFFFFFFFFFFFFFFFFFFFFFFFFFFFF AND DUP2 PUSH20 0xFFFFFFFFFFFFFFFFFFFFFFFFFFFFFFFFFFFFFFFF AND PUSH32 0x8BE0079C531659141344CD1FD0A4F28419497F9722A3DAAFE3B4186F6B6457E0 PUSH1 0x40 MLOAD PUSH1 0x40 MLOAD DUP1 SWAP2 SUB SWAP1 LOG3 POP POP JUMP JUMPDEST PUSH0 DUP1 REVERT JUMPDEST PUSH0 PUSH20 0xFFFFFFFFFFFFFFFFFFFFFFFFFFFFFFFFFFFFFFFF DUP3 AND SWAP1 POP SWAP2 SWAP1 POP JUMP JUMPDEST PUSH0 PUSH3 0x2BD DUP3 PUSH3 0x292 JUMP JUMPDEST SWAP1 POP SWAP2 SWAP1 POP JUMP JUMPDEST PUSH3 0x2CF DUP2 PUSH3 0x2B1 JUMP JUMPDEST DUP2 EQ PUSH3 0x2DA JUMPI PUSH0 DUP1 REVERT JUMPDEST POP JUMP JUMPDEST PUSH0 DUP2 MLOAD SWAP1 POP PUSH3 0x2ED DUP2 PUSH3 0x2C4 JUMP JUMPDEST SWAP3 SWAP2 POP POP JUMP JUMPDEST PUSH0 DUP1 PUSH0 DUP1 PUSH1 0x80 DUP6 DUP8 SUB SLT ISZERO PUSH3 0x30E JUMPI PUSH3 0x30D PUSH3 0x28E JUMP JUMPDEST JUMPDEST PUSH0 PUSH3 0x31D DUP8 DUP3 DUP9 ADD PUSH3 0x2DD JUMP JUMPDEST SWAP5 POP POP PUSH1 0x20 PUSH3 0x330 DUP8 DUP3 DUP9 ADD PUSH3 0x2DD JUMP JUMPDEST SWAP4 POP POP PUSH1 0x40 PUSH3 0x343 DUP8 DUP3 DUP9 ADD PUSH3 0x2DD JUMP JUMPDEST SWAP3 POP POP PUSH1 0x60 PUSH3 0x356 DUP8 DUP3 DUP9 ADD PUSH3 0x2DD JUMP JUMPDEST SWAP2 POP POP SWAP3 SWAP6 SWAP2 SWAP5 POP SWAP3 POP JUMP JUMPDEST PUSH3 0x36D DUP2 PUSH3 0x2B1 JUMP JUMPDEST DUP3 MSTORE POP POP JUMP JUMPDEST PUSH0 PUSH1 0x20 DUP3 ADD SWAP1 POP PUSH3 0x388 PUSH0 DUP4 ADD DUP5 PUSH3 0x362 JUMP JUMPDEST SWAP3 SWAP2 POP POP JUMP JUMPDEST PUSH2 0x240B DUP1 PUSH3 0x39C PUSH0 CODECOPY PUSH0 RETURN INVALID PUSH1 0x80 PUSH1 0x40 MSTORE PUSH1 0x4 CALLDATASIZE LT PUSH2 0xF1 JUMPI PUSH0 CALLDATALOAD PUSH1 0xE0 SHR DUP1 PUSH4 0x715018A6 GT PUSH2 0x89 JUMPI DUP1 PUSH4 0xD15E55B7 GT PUSH2 0x58 JUMPI DUP1 PUSH4 0xD15E55B7 EQ PUSH2 0x2B7 JUMPI DUP1 PUSH4 0xF28B2DAA EQ PUSH2 0x2F5 JUMPI DUP1 PUSH4 0xF2FDE38B EQ PUSH2 0x31F JUMPI DUP1 PUSH4 0xF7C618C1 EQ PUSH2 0x347 JUMPI PUSH2 0xF1 JUMP JUMPDEST DUP1 PUSH4 0x715018A6 EQ PUSH2 0x225 JUMPI DUP1 PUSH4 0x8DA5CB5B EQ PUSH2 0x23B JUMPI DUP1 PUSH4 0x959DA2CF EQ PUSH2 0x265 JUMPI DUP1 PUSH4 0xA1DB9782 EQ PUSH2 0x28F JUMPI PUSH2 0xF1 JUMP JUMPDEST DUP1 PUSH4 0x2BDA3E0B GT PUSH2 0xC5 JUMPI DUP1 PUSH4 0x2BDA3E0B EQ PUSH2 0x19B JUMPI DUP1 PUSH4 0x2C40AE85 EQ PUSH2 0x1C3 JUMPI DUP1 PUSH4 0x56D5D475 EQ PUSH2 0x1DF JUMPI DUP1 PUSH4 0x602E5A9E EQ PUSH2 0x1FB JUMPI PUSH2 0xF1 JUMP JUMPDEST DUP1 PUSH3 0x6228DC EQ PUSH2 0xF5 JUMPI DUP1 PUSH4 0x1A6E4DB4 EQ PUSH2 0x10B JUMPI DUP1 PUSH4 0x1D187C50 EQ PUSH2 0x135 JUMPI DUP1 PUSH4 0x22009AF6 EQ PUSH2 0x171 JUMPI JUMPDEST PUSH0 DUP1 REVERT JUMPDEST CALLVALUE DUP1 ISZERO PUSH2 0x100 JUMPI PUSH0 DUP1 REVERT JUMPDEST POP PUSH2 0x109 PUSH2 0x371 JUMP JUMPDEST STOP JUMPDEST CALLVALUE DUP1 ISZERO PUSH2 0x116 JUMPI PUSH0 DUP1 REVERT JUMPDEST POP PUSH2 0x11F PUSH2 0x791 JUMP JUMPDEST PUSH1 0x40 MLOAD PUSH2 0x12C SWAP2 SWAP1 PUSH2 0x161C JUMP JUMPDEST PUSH1 0x40 MLOAD DUP1 SWAP2 SUB SWAP1 RETURN JUMPDEST CALLVALUE DUP1 ISZERO PUSH2 0x140 JUMPI PUSH0 DUP1 REVERT JUMPDEST POP PUSH2 0x15B PUSH1 0x4 DUP1 CALLDATASIZE SUB DUP2 ADD SWAP1 PUSH2 0x156 SWAP2 SWAP1 PUSH2 0x1676 JUMP JUMPDEST PUSH2 0x7B6 JUMP JUMPDEST PUSH1 0x40 MLOAD PUSH2 0x168 SWAP2 SWAP1 PUSH2 0x16B9 JUMP JUMPDEST PUSH1 0x40 MLOAD DUP1 SWAP2 SUB SWAP1 RETURN JUMPDEST CALLVALUE DUP1 ISZERO PUSH2 0x17C JUMPI PUSH0 DUP1 REVERT JUMPDEST POP PUSH2 0x185 PUSH2 0x7CB JUMP JUMPDEST PUSH1 0x40 MLOAD PUSH2 0x192 SWAP2 SWAP1 PUSH2 0x16EA JUMP JUMPDEST PUSH1 0x40 MLOAD DUP1 SWAP2 SUB SWAP1 RETURN JUMPDEST CALLVALUE DUP1 ISZERO PUSH2 0x1A6 JUMPI PUSH0 DUP1 REVERT JUMPDEST POP PUSH2 0x1C1 PUSH1 0x4 DUP1 CALLDATASIZE SUB DUP2 ADD SWAP1 PUSH2 0x1BC SWAP2 SWAP1 PUSH2 0x172D JUMP JUMPDEST PUSH2 0x7D7 JUMP JUMPDEST STOP JUMPDEST PUSH2 0x1DD PUSH1 0x4 DUP1 CALLDATASIZE SUB DUP2 ADD SWAP1 PUSH2 0x1D8 SWAP2 SWAP1 PUSH2 0x1795 JUMP JUMPDEST PUSH2 0x805 JUMP JUMPDEST STOP JUMPDEST PUSH2 0x1F9 PUSH1 0x4 DUP1 CALLDATASIZE SUB DUP2 ADD SWAP1 PUSH2 0x1F4 SWAP2 SWAP1 PUSH2 0x1834 JUMP JUMPDEST PUSH2 0xC97 JUMP JUMPDEST STOP JUMPDEST CALLVALUE DUP1 ISZERO PUSH2 0x206 JUMPI PUSH0 DUP1 REVERT JUMPDEST POP PUSH2 0x20F PUSH2 0xF7F JUMP JUMPDEST PUSH1 0x40 MLOAD PUSH2 0x21C SWAP2 SWAP1 PUSH2 0x16EA JUMP JUMPDEST PUSH1 0x40 MLOAD DUP1 SWAP2 SUB SWAP1 RETURN JUMPDEST CALLVALUE DUP1 ISZERO PUSH2 0x230 JUMPI PUSH0 DUP1 REVERT JUMPDEST POP PUSH2 0x239 PUSH2 0xF8B JUMP JUMPDEST STOP JUMPDEST CALLVALUE DUP1 ISZERO PUSH2 0x246 JUMPI PUSH0 DUP1 REVERT JUMPDEST POP PUSH2 0x24F PUSH2 0xF9E JUMP JUMPDEST PUSH1 0x40 MLOAD PUSH2 0x25C SWAP2 SWAP1 PUSH2 0x18C5 JUMP JUMPDEST PUSH1 0x40 MLOAD DUP1 SWAP2 SUB SWAP1 RETURN JUMPDEST CALLVALUE DUP1 ISZERO PUSH2 0x270 JUMPI PUSH0 DUP1 REVERT JUMPDEST POP PUSH2 0x279 PUSH2 0xFC5 JUMP JUMPDEST PUSH1 0x40 MLOAD PUSH2 0x286 SWAP2 SWAP1 PUSH2 0x18FE JUMP JUMPDEST PUSH1 0x40 MLOAD DUP1 SWAP2 SUB SWAP1 RETURN JUMPDEST CALLVALUE DUP1 ISZERO PUSH2 0x29A JUMPI PUSH0 DUP1 REVERT JUMPDEST POP PUSH2 0x2B5 PUSH1 0x4 DUP1 CALLDATASIZE SUB DUP2 ADD SWAP1 PUSH2 0x2B0 SWAP2 SWAP1 PUSH2 0x1941 JUMP JUMPDEST PUSH2 0xFEA JUMP JUMPDEST STOP JUMPDEST CALLVALUE DUP1 ISZERO PUSH2 0x2C2 JUMPI PUSH0 DUP1 REVERT JUMPDEST POP PUSH2 0x2DD PUSH1 0x4 DUP1 CALLDATASIZE SUB DUP2 ADD SWAP1 PUSH2 0x2D8 SWAP2 SWAP1 PUSH2 0x197F JUMP JUMPDEST PUSH2 0x10B7 JUMP JUMPDEST PUSH1 0x40 MLOAD PUSH2 0x2EC SWAP4 SWAP3 SWAP2 SWAP1 PUSH2 0x19AA JUMP JUMPDEST PUSH1 0x40 MLOAD DUP1 SWAP2 SUB SWAP1 RETURN JUMPDEST CALLVALUE DUP1 ISZERO PUSH2 0x300 JUMPI PUSH0 DUP1 REVERT JUMPDEST POP PUSH2 0x309 PUSH2 0x10DD JUMP JUMPDEST PUSH1 0x40 MLOAD PUSH2 0x316 SWAP2 SWAP1 PUSH2 0x19FF JUMP JUMPDEST PUSH1 0x40 MLOAD DUP1 SWAP2 SUB SWAP1 RETURN JUMPDEST CALLVALUE DUP1 ISZERO PUSH2 0x32A JUMPI PUSH0 DUP1 REVERT JUMPDEST POP PUSH2 0x345 PUSH1 0x4 DUP1 CALLDATASIZE SUB DUP2 ADD SWAP1 PUSH2 0x340 SWAP2 SWAP1 PUSH2 0x197F JUMP JUMPDEST PUSH2 0x1102 JUMP JUMPDEST STOP JUMPDEST CALLVALUE DUP1 ISZERO PUSH2 0x352 JUMPI PUSH0 DUP1 REVERT JUMPDEST POP PUSH2 0x35B PUSH2 0x1186 JUMP JUMPDEST PUSH1 0x40 MLOAD PUSH2 0x368 SWAP2 SWAP1 PUSH2 0x1A38 JUMP JUMPDEST PUSH1 0x40 MLOAD DUP1 SWAP2 SUB SWAP1 RETURN JUMPDEST PUSH2 0x379 PUSH2 0x11AB JUMP JUMPDEST PUSH0 PUSH1 0x7 PUSH0 CALLER PUSH20 0xFFFFFFFFFFFFFFFFFFFFFFFFFFFFFFFFFFFFFFFF AND PUSH20 0xFFFFFFFFFFFFFFFFFFFFFFFFFFFFFFFFFFFFFFFF AND DUP2 MSTORE PUSH1 0x20 ADD SWAP1 DUP2 MSTORE PUSH1 0x20 ADD PUSH0 KECCAK256 SWAP1 POP PUSH1 0x3C DUP2 PUSH1 0x2 ADD SLOAD TIMESTAMP PUSH2 0x3CB SWAP2 SWAP1 PUSH2 0x1A7E JUMP JUMPDEST LT ISZERO PUSH2 0x40C JUMPI PUSH1 0x40 MLOAD PUSH32 0x8C379A000000000000000000000000000000000000000000000000000000000 DUP2 MSTORE PUSH1 0x4 ADD PUSH2 0x403 SWAP1 PUSH2 0x1B0B JUMP JUMPDEST PUSH1 0x40 MLOAD DUP1 SWAP2 SUB SWAP1 REVERT JUMPDEST PUSH0 PUSH1 0x1 DUP3 PUSH1 0x1 ADD SLOAD PUSH2 0x41E SWAP2 SWAP1 PUSH2 0x1B29 JUMP JUMPDEST PUSH8 0x8AC7230489E80000 PUSH2 0x431 SWAP2 SWAP1 PUSH2 0x1B5C JUMP JUMPDEST SWAP1 POP DUP1 PUSH1 0x2 PUSH0 SWAP1 SLOAD SWAP1 PUSH2 0x100 EXP SWAP1 DIV PUSH20 0xFFFFFFFFFFFFFFFFFFFFFFFFFFFFFFFFFFFFFFFF AND PUSH20 0xFFFFFFFFFFFFFFFFFFFFFFFFFFFFFFFFFFFFFFFF AND PUSH4 0x70A08231 CALLER PUSH1 0x40 MLOAD DUP3 PUSH4 0xFFFFFFFF AND PUSH1 0xE0 SHL DUP2 MSTORE PUSH1 0x4 ADD PUSH2 0x48E SWAP2 SWAP1 PUSH2 0x18C5 JUMP JUMPDEST PUSH1 0x20 PUSH1 0x40 MLOAD DUP1 DUP4 SUB DUP2 DUP7 GAS STATICCALL ISZERO DUP1 ISZERO PUSH2 0x4A9 JUMPI RETURNDATASIZE PUSH0 DUP1 RETURNDATACOPY RETURNDATASIZE PUSH0 REVERT JUMPDEST POP POP POP POP PUSH1 0x40 MLOAD RETURNDATASIZE PUSH1 0x1F NOT PUSH1 0x1F DUP3 ADD AND DUP3 ADD DUP1 PUSH1 0x40 MSTORE POP DUP2 ADD SWAP1 PUSH2 0x4CD SWAP2 SWAP1 PUSH2 0x1BB1 JUMP JUMPDEST LT ISZERO PUSH2 0x50E JUMPI PUSH1 0x40 MLOAD PUSH32 0x8C379A000000000000000000000000000000000000000000000000000000000 DUP2 MSTORE PUSH1 0x4 ADD PUSH2 0x505 SWAP1 PUSH2 0x1C26 JUMP JUMPDEST PUSH1 0x40 MLOAD DUP1 SWAP2 SUB SWAP1 REVERT JUMPDEST PUSH1 0x2 PUSH0 SWAP1 SLOAD SWAP1 PUSH2 0x100 EXP SWAP1 DIV PUSH20 0xFFFFFFFFFFFFFFFFFFFFFFFFFFFFFFFFFFFFFFFF AND PUSH20 0xFFFFFFFFFFFFFFFFFFFFFFFFFFFFFFFFFFFFFFFF AND PUSH4 0x79CC6790 CALLER DUP4 PUSH1 0x40 MLOAD DUP4 PUSH4 0xFFFFFFFF AND PUSH1 0xE0 SHL DUP2 MSTORE PUSH1 0x4 ADD PUSH2 0x56A SWAP3 SWAP2 SWAP1 PUSH2 0x1C44 JUMP JUMPDEST PUSH0 PUSH1 0x40 MLOAD DUP1 DUP4 SUB DUP2 PUSH0 DUP8 DUP1 EXTCODESIZE ISZERO DUP1 ISZERO PUSH2 0x581 JUMPI PUSH0 DUP1 REVERT JUMPDEST POP GAS CALL ISZERO DUP1 ISZERO PUSH2 0x593 JUMPI RETURNDATASIZE PUSH0 DUP1 RETURNDATACOPY RETURNDATASIZE PUSH0 REVERT JUMPDEST POP POP POP POP PUSH0 PUSH2 0x5A5 DUP4 PUSH1 0x1 ADD SLOAD PUSH2 0x11FA JUMP JUMPDEST SWAP1 POP DUP3 PUSH1 0x1 ADD SLOAD DUP2 GT PUSH2 0x751 JUMPI PUSH0 PUSH2 0x5BC DUP3 PUSH2 0x1257 JUMP JUMPDEST SWAP1 POP PUSH1 0x2 PUSH0 SWAP1 SLOAD SWAP1 PUSH2 0x100 EXP SWAP1 DIV PUSH20 0xFFFFFFFFFFFFFFFFFFFFFFFFFFFFFFFFFFFFFFFF AND PUSH20 0xFFFFFFFFFFFFFFFFFFFFFFFFFFFFFFFFFFFFFFFF AND PUSH4 0x9A49090E CALLER DUP4 PUSH1 0x40 MLOAD DUP4 PUSH4 0xFFFFFFFF AND PUSH1 0xE0 SHL DUP2 MSTORE PUSH1 0x4 ADD PUSH2 0x61A SWAP3 SWAP2 SWAP1 PUSH2 0x1C44 JUMP JUMPDEST PUSH0 PUSH1 0x40 MLOAD DUP1 DUP4 SUB DUP2 PUSH0 DUP8 DUP1 EXTCODESIZE ISZERO DUP1 ISZERO PUSH2 0x631 JUMPI PUSH0 DUP1 REVERT JUMPDEST POP GAS CALL ISZERO DUP1 ISZERO PUSH2 0x643 JUMPI RETURNDATASIZE PUSH0 DUP1 RETURNDATACOPY RETURNDATASIZE PUSH0 REVERT JUMPDEST POP POP POP POP DUP1 DUP5 PUSH0 ADD PUSH0 DUP3 DUP3 SLOAD PUSH2 0x659 SWAP2 SWAP1 PUSH2 0x1B29 JUMP JUMPDEST SWAP3 POP POP DUP2 SWAP1 SSTORE POP CALLER PUSH20 0xFFFFFFFFFFFFFFFFFFFFFFFFFFFFFFFFFFFFFFFF AND PUSH32 0xD17BA01607A01CD2603CCCD4413F658442E41DD750B0722C4398589F1C80A6C3 DUP4 DUP4 PUSH1 0x40 MLOAD PUSH2 0x6A8 SWAP3 SWAP2 SWAP1 PUSH2 0x1C6B JUMP JUMPDEST PUSH1 0x40 MLOAD DUP1 SWAP2 SUB SWAP1 LOG2 PUSH8 0xDE0B6B3A7640000 PUSH1 0x64 DUP6 PUSH1 0x1 ADD SLOAD PUSH2 0x6CA SWAP2 SWAP1 PUSH2 0x1B5C JUMP JUMPDEST PUSH2 0x6D4 SWAP2 SWAP1 PUSH2 0x1B5C JUMP JUMPDEST DUP5 PUSH0 ADD SLOAD LT PUSH2 0x74B JUMPI PUSH1 0x1 DUP5 PUSH1 0x1 ADD PUSH0 DUP3 DUP3 SLOAD PUSH2 0x6F1 SWAP2 SWAP1 PUSH2 0x1B29 JUMP JUMPDEST SWAP3 POP POP DUP2 SWAP1 SSTORE POP CALLER PUSH20 0xFFFFFFFFFFFFFFFFFFFFFFFFFFFFFFFFFFFFFFFF AND PUSH32 0xDEE7109003CF6CD3CB1B552819B438487A03CA336B5DFB3D823FCD9174549BE6 DUP6 PUSH1 0x1 ADD SLOAD PUSH1 0x40 MLOAD PUSH2 0x742 SWAP2 SWAP1 PUSH2 0x16EA JUMP JUMPDEST PUSH1 0x40 MLOAD DUP1 SWAP2 SUB SWAP1 LOG2 JUMPDEST POP PUSH2 0x77B JUMP JUMPDEST PUSH1 0x1 DUP4 PUSH1 0x1 ADD SLOAD GT ISZERO PUSH2 0x77A JUMPI PUSH1 0x1 DUP4 PUSH1 0x1 ADD PUSH0 DUP3 DUP3 SLOAD PUSH2 0x772 SWAP2 SWAP1 PUSH2 0x1A7E JUMP JUMPDEST SWAP3 POP POP DUP2 SWAP1 SSTORE POP JUMPDEST JUMPDEST TIMESTAMP DUP4 PUSH1 0x2 ADD DUP2 SWAP1 SSTORE POP POP POP POP PUSH2 0x78F PUSH2 0x1273 JUMP JUMPDEST JUMP JUMPDEST PUSH1 0x4 PUSH0 SWAP1 SLOAD SWAP1 PUSH2 0x100 EXP SWAP1 DIV PUSH20 0xFFFFFFFFFFFFFFFFFFFFFFFFFFFFFFFFFFFFFFFF AND DUP2 JUMP JUMPDEST PUSH1 0x6 PUSH1 0x20 MSTORE DUP1 PUSH0 MSTORE PUSH1 0x40 PUSH0 KECCAK256 PUSH0 SWAP2 POP SWAP1 POP SLOAD DUP2 JUMP JUMPDEST PUSH8 0x4563918244F40000 DUP2 JUMP JUMPDEST PUSH2 0x7DF PUSH2 0x127C JUMP JUMPDEST DUP1 PUSH1 0x6 PUSH0 DUP5 PUSH4 0xFFFFFFFF AND PUSH4 0xFFFFFFFF AND DUP2 MSTORE PUSH1 0x20 ADD SWAP1 DUP2 MSTORE PUSH1 0x20 ADD PUSH0 KECCAK256 DUP2 SWAP1 SSTORE POP POP POP JUMP JUMPDEST PUSH2 0x80D PUSH2 0x11AB JUMP JUMPDEST CALLER PUSH20 0xFFFFFFFFFFFFFFFFFFFFFFFFFFFFFFFFFFFFFFFF AND PUSH1 0x3 PUSH0 SWAP1 SLOAD SWAP1 PUSH2 0x100 EXP SWAP1 DIV PUSH20 0xFFFFFFFFFFFFFFFFFFFFFFFFFFFFFFFFFFFFFFFF AND PUSH20 0xFFFFFFFFFFFFFFFFFFFFFFFFFFFFFFFFFFFFFFFF AND PUSH4 0x6352211E DUP4 PUSH1 0x40 MLOAD DUP3 PUSH4 0xFFFFFFFF AND PUSH1 0xE0 SHL DUP2 MSTORE PUSH1 0x4 ADD PUSH2 0x87E SWAP2 SWAP1 PUSH2 0x16EA JUMP JUMPDEST PUSH1 0x20 PUSH1 0x40 MLOAD DUP1 DUP4 SUB DUP2 DUP7 GAS STATICCALL ISZERO DUP1 ISZERO PUSH2 0x899 JUMPI RETURNDATASIZE PUSH0 DUP1 RETURNDATACOPY RETURNDATASIZE PUSH0 REVERT JUMPDEST POP POP POP POP PUSH1 0x40 MLOAD RETURNDATASIZE PUSH1 0x1F NOT PUSH1 0x1F DUP3 ADD AND DUP3 ADD DUP1 PUSH1 0x40 MSTORE POP DUP2 ADD SWAP1 PUSH2 0x8BD SWAP2 SWAP1 PUSH2 0x1CA6 JUMP JUMPDEST PUSH20 0xFFFFFFFFFFFFFFFFFFFFFFFFFFFFFFFFFFFFFFFF AND EQ PUSH2 0x913 JUMPI PUSH1 0x40 MLOAD PUSH32 0x8C379A000000000000000000000000000000000000000000000000000000000 DUP2 MSTORE PUSH1 0x4 ADD PUSH2 0x90A SWAP1 PUSH2 0x1D1B JUMP JUMPDEST PUSH1 0x40 MLOAD DUP1 SWAP2 SUB SWAP1 REVERT JUMPDEST PUSH1 0x3 PUSH0 SWAP1 SLOAD SWAP1 PUSH2 0x100 EXP SWAP1 DIV PUSH20 0xFFFFFFFFFFFFFFFFFFFFFFFFFFFFFFFFFFFFFFFF AND PUSH20 0xFFFFFFFFFFFFFFFFFFFFFFFFFFFFFFFFFFFFFFFF AND PUSH4 0x42C49BE DUP3 PUSH1 0x40 MLOAD DUP3 PUSH4 0xFFFFFFFF AND PUSH1 0xE0 SHL DUP2 MSTORE PUSH1 0x4 ADD PUSH2 0x96D SWAP2 SWAP1 PUSH2 0x16EA JUMP JUMPDEST PUSH0 PUSH1 0x40 MLOAD DUP1 DUP4 SUB DUP2 PUSH0 DUP8 DUP1 EXTCODESIZE ISZERO DUP1 ISZERO PUSH2 0x984 JUMPI PUSH0 DUP1 REVERT JUMPDEST POP GAS CALL ISZERO DUP1 ISZERO PUSH2 0x996 JUMPI RETURNDATASIZE PUSH0 DUP1 RETURNDATACOPY RETURNDATASIZE PUSH0 REVERT JUMPDEST POP POP POP POP PUSH0 CALLER DUP3 PUSH1 0x40 MLOAD PUSH1 0x20 ADD PUSH2 0x9AE SWAP3 SWAP2 SWAP1 PUSH2 0x1C44 JUMP JUMPDEST PUSH1 0x40 MLOAD PUSH1 0x20 DUP2 DUP4 SUB SUB DUP2 MSTORE SWAP1 PUSH1 0x40 MSTORE SWAP1 POP PUSH0 PUSH1 0x4 PUSH0 SWAP1 SLOAD SWAP1 PUSH2 0x100 EXP SWAP1 DIV PUSH20 0xFFFFFFFFFFFFFFFFFFFFFFFFFFFFFFFFFFFFFFFF AND PUSH20 0xFFFFFFFFFFFFFFFFFFFFFFFFFFFFFFFFFFFFFFFF AND PUSH4 0xFA31DE01 DUP6 PUSH1 0x6 PUSH0 DUP9 PUSH4 0xFFFFFFFF AND PUSH4 0xFFFFFFFF AND DUP2 MSTORE PUSH1 0x20 ADD SWAP1 DUP2 MSTORE PUSH1 0x20 ADD PUSH0 KECCAK256 SLOAD DUP6 PUSH1 0x40 MLOAD DUP5 PUSH4 0xFFFFFFFF AND PUSH1 0xE0 SHL DUP2 MSTORE PUSH1 0x4 ADD PUSH2 0xA3B SWAP4 SWAP3 SWAP2 SWAP1 PUSH2 0x1DD2 JUMP JUMPDEST PUSH1 0x20 PUSH1 0x40 MLOAD DUP1 DUP4 SUB DUP2 PUSH0 DUP8 GAS CALL ISZERO DUP1 ISZERO PUSH2 0xA57 JUMPI RETURNDATASIZE PUSH0 DUP1 RETURNDATACOPY RETURNDATASIZE PUSH0 REVERT JUMPDEST POP POP POP POP PUSH1 0x40 MLOAD RETURNDATASIZE PUSH1 0x1F NOT PUSH1 0x1F DUP3 ADD AND DUP3 ADD DUP1 PUSH1 0x40 MSTORE POP DUP2 ADD SWAP1 PUSH2 0xA7B SWAP2 SWAP1 PUSH2 0x1E22 JUMP JUMPDEST SWAP1 POP PUSH0 PUSH3 0x493E0 SWAP1 POP PUSH0 PUSH1 0x5 PUSH0 SWAP1 SLOAD SWAP1 PUSH2 0x100 EXP SWAP1 DIV PUSH20 0xFFFFFFFFFFFFFFFFFFFFFFFFFFFFFFFFFFFFFFFF AND PUSH20 0xFFFFFFFFFFFFFFFFFFFFFFFFFFFFFFFFFFFFFFFF AND PUSH4 0xA6929793 DUP8 DUP5 PUSH1 0x40 MLOAD DUP4 PUSH4 0xFFFFFFFF AND PUSH1 0xE0 SHL DUP2 MSTORE PUSH1 0x4 ADD PUSH2 0xAE1 SWAP3 SWAP2 SWAP1 PUSH2 0x1E4D JUMP JUMPDEST PUSH1 0x20 PUSH1 0x40 MLOAD DUP1 DUP4 SUB DUP2 DUP7 GAS STATICCALL ISZERO DUP1 ISZERO PUSH2 0xAFC JUMPI RETURNDATASIZE PUSH0 DUP1 RETURNDATACOPY RETURNDATASIZE PUSH0 REVERT JUMPDEST POP POP POP POP PUSH1 0x40 MLOAD RETURNDATASIZE PUSH1 0x1F NOT PUSH1 0x1F DUP3 ADD AND DUP3 ADD DUP1 PUSH1 0x40 MSTORE POP DUP2 ADD SWAP1 PUSH2 0xB20 SWAP2 SWAP1 PUSH2 0x1BB1 JUMP JUMPDEST SWAP1 POP DUP1 CALLVALUE LT ISZERO PUSH2 0xB65 JUMPI PUSH1 0x40 MLOAD PUSH32 0x8C379A000000000000000000000000000000000000000000000000000000000 DUP2 MSTORE PUSH1 0x4 ADD PUSH2 0xB5C SWAP1 PUSH2 0x1EE4 JUMP JUMPDEST PUSH1 0x40 MLOAD DUP1 SWAP2 SUB SWAP1 REVERT JUMPDEST PUSH1 0x5 PUSH0 SWAP1 SLOAD SWAP1 PUSH2 0x100 EXP SWAP1 DIV PUSH20 0xFFFFFFFFFFFFFFFFFFFFFFFFFFFFFFFFFFFFFFFF AND PUSH20 0xFFFFFFFFFFFFFFFFFFFFFFFFFFFFFFFFFFFFFFFF AND PUSH4 0x11BF2C18 DUP3 DUP6 DUP10 DUP7 CALLER PUSH1 0x40 MLOAD DUP7 PUSH4 0xFFFFFFFF AND PUSH1 0xE0 SHL DUP2 MSTORE PUSH1 0x4 ADD PUSH2 0xBC6 SWAP5 SWAP4 SWAP3 SWAP2 SWAP1 PUSH2 0x1F02 JUMP JUMPDEST PUSH0 PUSH1 0x40 MLOAD DUP1 DUP4 SUB DUP2 DUP6 DUP9 DUP1 EXTCODESIZE ISZERO DUP1 ISZERO PUSH2 0xBDD JUMPI PUSH0 DUP1 REVERT JUMPDEST POP GAS CALL ISZERO DUP1 ISZERO PUSH2 0xBEF JUMPI RETURNDATASIZE PUSH0 DUP1 RETURNDATACOPY RETURNDATASIZE PUSH0 REVERT JUMPDEST POP POP POP POP POP DUP1 CALLVALUE GT ISZERO PUSH2 0xC4C JUMPI CALLER PUSH20 0xFFFFFFFFFFFFFFFFFFFFFFFFFFFFFFFFFFFFFFFF AND PUSH2 0x8FC DUP3 CALLVALUE PUSH2 0xC22 SWAP2 SWAP1 PUSH2 0x1A7E JUMP JUMPDEST SWAP1 DUP2 ISZERO MUL SWAP1 PUSH1 0x40 MLOAD PUSH0 PUSH1 0x40 MLOAD DUP1 DUP4 SUB DUP2 DUP6 DUP9 DUP9 CALL SWAP4 POP POP POP POP ISZERO DUP1 ISZERO PUSH2 0xC4A JUMPI RETURNDATASIZE PUSH0 DUP1 RETURNDATACOPY RETURNDATASIZE PUSH0 REVERT JUMPDEST POP JUMPDEST PUSH32 0x89F6D4F38490C20591252D044C714D8B7865B86278D85FEF20CD3B6F37AB5BDA DUP7 CALLER DUP8 PUSH1 0x40 MLOAD PUSH2 0xC7F SWAP4 SWAP3 SWAP2 SWAP1 PUSH2 0x1F45 JUMP JUMPDEST PUSH1 0x40 MLOAD DUP1 SWAP2 SUB SWAP1 LOG1 POP POP POP POP PUSH2 0xC93 PUSH2 0x1273 JUMP JUMPDEST POP POP JUMP JUMPDEST PUSH1 0x4 PUSH0 SWAP1 SLOAD SWAP1 PUSH2 0x100 EXP SWAP1 DIV PUSH20 0xFFFFFFFFFFFFFFFFFFFFFFFFFFFFFFFFFFFFFFFF AND PUSH20 0xFFFFFFFFFFFFFFFFFFFFFFFFFFFFFFFFFFFFFFFF AND CALLER PUSH20 0xFFFFFFFFFFFFFFFFFFFFFFFFFFFFFFFFFFFFFFFF AND EQ PUSH2 0xD26 JUMPI PUSH1 0x40 MLOAD PUSH32 0x8C379A000000000000000000000000000000000000000000000000000000000 DUP2 MSTORE PUSH1 0x4 ADD PUSH2 0xD1D SWAP1 PUSH2 0x1FC4 JUMP JUMPDEST PUSH1 0x40 MLOAD DUP1 SWAP2 SUB SWAP1 REVERT JUMPDEST PUSH1 0x6 PUSH0 DUP6 PUSH4 0xFFFFFFFF AND PUSH4 0xFFFFFFFF AND DUP2 MSTORE PUSH1 0x20 ADD SWAP1 DUP2 MSTORE PUSH1 0x20 ADD PUSH0 KECCAK256 SLOAD DUP4 EQ PUSH2 0xD85 JUMPI PUSH1 0x40 MLOAD PUSH32 0x8C379A000000000000000000000000000000000000000000000000000000000 DUP2 MSTORE PUSH1 0x4 ADD PUSH2 0xD7C SWAP1 PUSH2 0x202C JUMP JUMPDEST PUSH1 0x40 MLOAD DUP1 SWAP2 SUB SWAP1 REVERT JUMPDEST PUSH0 DUP1 DUP4 DUP4 DUP2 ADD SWAP1 PUSH2 0xD96 SWAP2 SWAP1 PUSH2 0x2085 JUMP JUMPDEST SWAP2 POP SWAP2 POP PUSH0 DUP1 PUSH0 PUSH2 0xDA5 PUSH2 0x1303 JUMP JUMPDEST SWAP3 POP SWAP3 POP SWAP3 POP PUSH1 0x3 PUSH0 SWAP1 SLOAD SWAP1 PUSH2 0x100 EXP SWAP1 DIV PUSH20 0xFFFFFFFFFFFFFFFFFFFFFFFFFFFFFFFFFFFFFFFF AND PUSH20 0xFFFFFFFFFFFFFFFFFFFFFFFFFFFFFFFFFFFFFFFF AND PUSH4 0xD0A5F756 DUP7 DUP6 DUP6 DUP6 PUSH1 0x40 MLOAD DUP6 PUSH4 0xFFFFFFFF AND PUSH1 0xE0 SHL DUP2 MSTORE PUSH1 0x4 ADD PUSH2 0xE0B SWAP5 SWAP4 SWAP3 SWAP2 SWAP1 PUSH2 0x2105 JUMP JUMPDEST PUSH0 PUSH1 0x40 MLOAD DUP1 DUP4 SUB DUP2 PUSH0 DUP8 DUP1 EXTCODESIZE ISZERO DUP1 ISZERO PUSH2 0xE22 JUMPI PUSH0 DUP1 REVERT JUMPDEST POP GAS CALL ISZERO DUP1 ISZERO PUSH2 0xE34 JUMPI RETURNDATASIZE PUSH0 DUP1 RETURNDATACOPY RETURNDATASIZE PUSH0 REVERT JUMPDEST POP POP POP POP PUSH0 PUSH1 0x7 PUSH0 DUP8 PUSH20 0xFFFFFFFFFFFFFFFFFFFFFFFFFFFFFFFFFFFFFFFF AND PUSH20 0xFFFFFFFFFFFFFFFFFFFFFFFFFFFFFFFFFFFFFFFF AND DUP2 MSTORE PUSH1 0x20 ADD SWAP1 DUP2 MSTORE PUSH1 0x20 ADD PUSH0 KECCAK256 SWAP1 POP PUSH1 0xA DUP4 PUSH2 0xE85 SWAP2 SWAP1 PUSH2 0x1B5C JUMP JUMPDEST DUP2 PUSH0 ADD PUSH0 DUP3 DUP3 SLOAD PUSH2 0xE96 SWAP2 SWAP1 PUSH2 0x1B29 JUMP JUMPDEST SWAP3 POP POP DUP2 SWAP1 SSTORE POP PUSH8 0xDE0B6B3A7640000 PUSH1 0x64 DUP3 PUSH1 0x1 ADD SLOAD PUSH2 0xEB7 SWAP2 SWAP1 PUSH2 0x1B5C JUMP JUMPDEST PUSH2 0xEC1 SWAP2 SWAP1 PUSH2 0x1B5C JUMP JUMPDEST DUP2 PUSH0 ADD SLOAD LT PUSH2 0xF38 JUMPI PUSH1 0x1 DUP2 PUSH1 0x1 ADD PUSH0 DUP3 DUP3 SLOAD PUSH2 0xEDE SWAP2 SWAP1 PUSH2 0x1B29 JUMP JUMPDEST SWAP3 POP POP DUP2 SWAP1 SSTORE POP DUP6 PUSH20 0xFFFFFFFFFFFFFFFFFFFFFFFFFFFFFFFFFFFFFFFF AND PUSH32 0xDEE7109003CF6CD3CB1B552819B438487A03CA336B5DFB3D823FCD9174549BE6 DUP3 PUSH1 0x1 ADD SLOAD PUSH1 0x40 MLOAD PUSH2 0xF2F SWAP2 SWAP1 PUSH2 0x16EA JUMP JUMPDEST PUSH1 0x40 MLOAD DUP1 SWAP2 SUB SWAP1 LOG2 JUMPDEST PUSH32 0x89F6D4F38490C20591252D044C714D8B7865B86278D85FEF20CD3B6F37AB5BDA DUP11 DUP8 DUP8 PUSH1 0x40 MLOAD PUSH2 0xF6B SWAP4 SWAP3 SWAP2 SWAP1 PUSH2 0x1F45 JUMP JUMPDEST PUSH1 0x40 MLOAD DUP1 SWAP2 SUB SWAP1 LOG1 POP POP POP POP POP POP POP POP POP POP JUMP JUMPDEST PUSH8 0x8AC7230489E80000 DUP2 JUMP JUMPDEST PUSH2 0xF93 PUSH2 0x127C JUMP JUMPDEST PUSH2 0xF9C PUSH0 PUSH2 0x14DA JUMP JUMPDEST JUMP JUMPDEST PUSH0 DUP1 PUSH0 SWAP1 SLOAD SWAP1 PUSH2 0x100 EXP SWAP1 DIV PUSH20 0xFFFFFFFFFFFFFFFFFFFFFFFFFFFFFFFFFFFFFFFF AND SWAP1 POP SWAP1 JUMP JUMPDEST PUSH1 0x3 PUSH0 SWAP1 SLOAD SWAP1 PUSH2 0x100 EXP SWAP1 DIV PUSH20 0xFFFFFFFFFFFFFFFFFFFFFFFFFFFFFFFFFFFFFFFF AND DUP2 JUMP JUMPDEST PUSH2 0xFF2 PUSH2 0x127C JUMP JUMPDEST DUP2 PUSH20 0xFFFFFFFFFFFFFFFFFFFFFFFFFFFFFFFFFFFFFFFF AND PUSH4 0xA9059CBB PUSH2 0x1016 PUSH2 0xF9E JUMP JUMPDEST DUP4 PUSH1 0x40 MLOAD DUP4 PUSH4 0xFFFFFFFF AND PUSH1 0xE0 SHL DUP2 MSTORE PUSH1 0x4 ADD PUSH2 0x1034 SWAP3 SWAP2 SWAP1 PUSH2 0x1C44 JUMP JUMPDEST PUSH1 0x20 PUSH1 0x40 MLOAD DUP1 DUP4 SUB DUP2 PUSH0 DUP8 GAS CALL ISZERO DUP1 ISZERO PUSH2 0x1050 JUMPI RETURNDATASIZE PUSH0 DUP1 RETURNDATACOPY RETURNDATASIZE PUSH0 REVERT JUMPDEST POP POP POP POP PUSH1 0x40 MLOAD RETURNDATASIZE PUSH1 0x1F NOT PUSH1 0x1F DUP3 ADD AND DUP3 ADD DUP1 PUSH1 0x40 MSTORE POP DUP2 ADD SWAP1 PUSH2 0x1074 SWAP2 SWAP1 PUSH2 0x2184 JUMP JUMPDEST PUSH2 0x10B3 JUMPI PUSH1 0x40 MLOAD PUSH32 0x8C379A000000000000000000000000000000000000000000000000000000000 DUP2 MSTORE PUSH1 0x4 ADD PUSH2 0x10AA SWAP1 PUSH2 0x21F9 JUMP JUMPDEST PUSH1 0x40 MLOAD DUP1 SWAP2 SUB SWAP1 REVERT JUMPDEST POP POP JUMP JUMPDEST PUSH1 0x7 PUSH1 0x20 MSTORE DUP1 PUSH0 MSTORE PUSH1 0x40 PUSH0 KECCAK256 PUSH0 SWAP2 POP SWAP1 POP DUP1 PUSH0 ADD SLOAD SWAP1 DUP1 PUSH1 0x1 ADD SLOAD SWAP1 DUP1 PUSH1 0x2 ADD SLOAD SWAP1 POP DUP4 JUMP JUMPDEST PUSH1 0x5 PUSH0 SWAP1 SLOAD SWAP1 PUSH2 0x100 EXP SWAP1 DIV PUSH20 0xFFFFFFFFFFFFFFFFFFFFFFFFFFFFFFFFFFFFFFFF AND DUP2 JUMP JUMPDEST PUSH2 0x110A PUSH2 0x127C JUMP JUMPDEST PUSH0 PUSH20 0xFFFFFFFFFFFFFFFFFFFFFFFFFFFFFFFFFFFFFFFF AND DUP2 PUSH20 0xFFFFFFFFFFFFFFFFFFFFFFFFFFFFFFFFFFFFFFFF AND SUB PUSH2 0x117A JUMPI PUSH0 PUSH1 0x40 MLOAD PUSH32 0x1E4FBDF700000000000000000000000000000000000000000000000000000000 DUP2 MSTORE PUSH1 0x4 ADD PUSH2 0x1171 SWAP2 SWAP1 PUSH2 0x18C5 JUMP JUMPDEST PUSH1 0x40 MLOAD DUP1 SWAP2 SUB SWAP1 REVERT JUMPDEST PUSH2 0x1183 DUP2 PUSH2 0x14DA JUMP JUMPDEST POP JUMP JUMPDEST PUSH1 0x2 PUSH0 SWAP1 SLOAD SWAP1 PUSH2 0x100 EXP SWAP1 DIV PUSH20 0xFFFFFFFFFFFFFFFFFFFFFFFFFFFFFFFFFFFFFFFF AND DUP2 JUMP JUMPDEST PUSH1 0x2 PUSH1 0x1 SLOAD SUB PUSH2 0x11F0 JUMPI PUSH1 0x40 MLOAD PUSH32 0x8C379A000000000000000000000000000000000000000000000000000000000 DUP2 MSTORE PUSH1 0x4 ADD PUSH2 0x11E7 SWAP1 PUSH2 0x2261 JUMP JUMPDEST PUSH1 0x40 MLOAD DUP1 SWAP2 SUB SWAP1 REVERT JUMPDEST PUSH1 0x2 PUSH1 0x1 DUP2 SWAP1 SSTORE POP JUMP JUMPDEST PUSH0 DUP1 TIMESTAMP CALLER DUP5 PUSH1 0x40 MLOAD PUSH1 0x20 ADD PUSH2 0x1211 SWAP4 SWAP3 SWAP2 SWAP1 PUSH2 0x22E4 JUMP JUMPDEST PUSH1 0x40 MLOAD PUSH1 0x20 DUP2 DUP4 SUB SUB DUP2 MSTORE SWAP1 PUSH1 0x40 MSTORE DUP1 MLOAD SWAP1 PUSH1 0x20 ADD KECCAK256 PUSH0 SHR SWAP1 POP PUSH1 0x1 PUSH1 0x2 DUP5 PUSH2 0x123A SWAP2 SWAP1 PUSH2 0x1B5C JUMP JUMPDEST DUP3 PUSH2 0x1245 SWAP2 SWAP1 PUSH2 0x234D JUMP JUMPDEST PUSH2 0x124F SWAP2 SWAP1 PUSH2 0x1B29 JUMP JUMPDEST SWAP2 POP POP SWAP2 SWAP1 POP JUMP JUMPDEST PUSH0 DUP2 PUSH8 0x4563918244F40000 PUSH2 0x126C SWAP2 SWAP1 PUSH2 0x1B5C JUMP JUMPDEST SWAP1 POP SWAP2 SWAP1 POP JUMP JUMPDEST PUSH1 0x1 DUP1 DUP2 SWAP1 SSTORE POP JUMP JUMPDEST PUSH2 0x1284 PUSH2 0x159B JUMP JUMPDEST PUSH20 0xFFFFFFFFFFFFFFFFFFFFFFFFFFFFFFFFFFFFFFFF AND PUSH2 0x12A2 PUSH2 0xF9E JUMP JUMPDEST PUSH20 0xFFFFFFFFFFFFFFFFFFFFFFFFFFFFFFFFFFFFFFFF AND EQ PUSH2 0x1301 JUMPI PUSH2 0x12C5 PUSH2 0x159B JUMP JUMPDEST PUSH1 0x40 MLOAD PUSH32 0x118CDAA700000000000000000000000000000000000000000000000000000000 DUP2 MSTORE PUSH1 0x4 ADD PUSH2 0x12F8 SWAP2 SWAP1 PUSH2 0x18C5 JUMP JUMPDEST PUSH1 0x40 MLOAD DUP1 SWAP2 SUB SWAP1 REVERT JUMPDEST JUMP JUMPDEST PUSH1 0x60 PUSH0 DUP1 PUSH0 TIMESTAMP CALLER PUSH1 0x40 MLOAD PUSH1 0x20 ADD PUSH2 0x131B SWAP3 SWAP2 SWAP1 PUSH2 0x237D JUMP JUMPDEST PUSH1 0x40 MLOAD PUSH1 0x20 DUP2 DUP4 SUB SUB DUP2 MSTORE SWAP1 PUSH1 0x40 MSTORE DUP1 MLOAD SWAP1 PUSH1 0x20 ADD KECCAK256 PUSH0 SHR SWAP1 POP PUSH0 PUSH1 0x40 MLOAD DUP1 PUSH1 0xA0 ADD PUSH1 0x40 MSTORE DUP1 PUSH1 0x40 MLOAD DUP1 PUSH1 0x40 ADD PUSH1 0x40 MSTORE DUP1 PUSH1 0x4 DUP2 MSTORE PUSH1 0x20 ADD PUSH32 0x54756E6100000000000000000000000000000000000000000000000000000000 DUP2 MSTORE POP DUP2 MSTORE PUSH1 0x20 ADD PUSH1 0x40 MLOAD DUP1 PUSH1 0x40 ADD PUSH1 0x40 MSTORE DUP1 PUSH1 0x6 DUP2 MSTORE PUSH1 0x20 ADD PUSH32 0x53616C6D6F6E0000000000000000000000000000000000000000000000000000 DUP2 MSTORE POP DUP2 MSTORE PUSH1 0x20 ADD PUSH1 0x40 MLOAD DUP1 PUSH1 0x40 ADD PUSH1 0x40 MSTORE DUP1 PUSH1 0x5 DUP2 MSTORE PUSH1 0x20 ADD PUSH32 0x54726F7574000000000000000000000000000000000000000000000000000000 DUP2 MSTORE POP DUP2 MSTORE PUSH1 0x20 ADD PUSH1 0x40 MLOAD DUP1 PUSH1 0x40 ADD PUSH1 0x40 MSTORE DUP1 PUSH1 0x4 DUP2 MSTORE PUSH1 0x20 ADD PUSH32 0x4261737300000000000000000000000000000000000000000000000000000000 DUP2 MSTORE POP DUP2 MSTORE PUSH1 0x20 ADD PUSH1 0x40 MLOAD DUP1 PUSH1 0x40 ADD PUSH1 0x40 MSTORE DUP1 PUSH1 0x7 DUP2 MSTORE PUSH1 0x20 ADD PUSH32 0x4361746669736800000000000000000000000000000000000000000000000000 DUP2 MSTORE POP DUP2 MSTORE POP SWAP1 POP PUSH0 DUP2 PUSH1 0x5 DUP5 PUSH2 0x1477 SWAP2 SWAP1 PUSH2 0x234D JUMP JUMPDEST PUSH1 0x5 DUP2 LT PUSH2 0x1488 JUMPI PUSH2 0x1487 PUSH2 0x23A8 JUMP JUMPDEST JUMPDEST PUSH1 0x20 MUL ADD MLOAD SWAP1 POP PUSH0 PUSH1 0x1 PUSH1 0x64 DUP6 PUSH2 0x149F SWAP2 SWAP1 PUSH2 0x234D JUMP JUMPDEST PUSH2 0x14A9 SWAP2 SWAP1 PUSH2 0x1B29 JUMP JUMPDEST SWAP1 POP PUSH0 PUSH1 0x1 PUSH1 0x5 DUP7 PUSH2 0x14BB SWAP2 SWAP1 PUSH2 0x234D JUMP JUMPDEST PUSH2 0x14C5 SWAP2 SWAP1 PUSH2 0x1B29 JUMP JUMPDEST SWAP1 POP DUP3 DUP3 DUP3 SWAP8 POP SWAP8 POP SWAP8 POP POP POP POP POP POP SWAP1 SWAP2 SWAP3 JUMP JUMPDEST PUSH0 DUP1 PUSH0 SWAP1 SLOAD SWAP1 PUSH2 0x100 EXP SWAP1 DIV PUSH20 0xFFFFFFFFFFFFFFFFFFFFFFFFFFFFFFFFFFFFFFFF AND SWAP1 POP DUP2 PUSH0 DUP1 PUSH2 0x100 EXP DUP2 SLOAD DUP2 PUSH20 0xFFFFFFFFFFFFFFFFFFFFFFFFFFFFFFFFFFFFFFFF MUL NOT AND SWAP1 DUP4 PUSH20 0xFFFFFFFFFFFFFFFFFFFFFFFFFFFFFFFFFFFFFFFF AND MUL OR SWAP1 SSTORE POP DUP2 PUSH20 0xFFFFFFFFFFFFFFFFFFFFFFFFFFFFFFFFFFFFFFFF AND DUP2 PUSH20 0xFFFFFFFFFFFFFFFFFFFFFFFFFFFFFFFFFFFFFFFF AND PUSH32 0x8BE0079C531659141344CD1FD0A4F28419497F9722A3DAAFE3B4186F6B6457E0 PUSH1 0x40 MLOAD PUSH1 0x40 MLOAD DUP1 SWAP2 SUB SWAP1 LOG3 POP POP JUMP JUMPDEST PUSH0 CALLER SWAP1 POP SWAP1 JUMP JUMPDEST PUSH0 PUSH20 0xFFFFFFFFFFFFFFFFFFFFFFFFFFFFFFFFFFFFFFFF DUP3 AND SWAP1 POP SWAP2 SWAP1 POP JUMP JUMPDEST PUSH0 DUP2 SWAP1 POP SWAP2 SWAP1 POP JUMP JUMPDEST PUSH0 PUSH2 0x15E4 PUSH2 0x15DF PUSH2 0x15DA DUP5 PUSH2 0x15A2 JUMP JUMPDEST PUSH2 0x15C1 JUMP JUMPDEST PUSH2 0x15A2 JUMP JUMPDEST SWAP1 POP SWAP2 SWAP1 POP JUMP JUMPDEST PUSH0 PUSH2 0x15F5 DUP3 PUSH2 0x15CA JUMP JUMPDEST SWAP1 POP SWAP2 SWAP1 POP JUMP JUMPDEST PUSH0 PUSH2 0x1606 DUP3 PUSH2 0x15EB JUMP JUMPDEST SWAP1 POP SWAP2 SWAP1 POP JUMP JUMPDEST PUSH2 0x1616 DUP2 PUSH2 0x15FC JUMP JUMPDEST DUP3 MSTORE POP POP JUMP JUMPDEST PUSH0 PUSH1 0x20 DUP3 ADD SWAP1 POP PUSH2 0x162F PUSH0 DUP4 ADD DUP5 PUSH2 0x160D JUMP JUMPDEST SWAP3 SWAP2 POP POP JUMP JUMPDEST PUSH0 DUP1 REVERT JUMPDEST PUSH0 DUP1 REVERT JUMPDEST PUSH0 PUSH4 0xFFFFFFFF DUP3 AND SWAP1 POP SWAP2 SWAP1 POP JUMP JUMPDEST PUSH2 0x1655 DUP2 PUSH2 0x163D JUMP JUMPDEST DUP2 EQ PUSH2 0x165F JUMPI PUSH0 DUP1 REVERT JUMPDEST POP JUMP JUMPDEST PUSH0 DUP2 CALLDATALOAD SWAP1 POP PUSH2 0x1670 DUP2 PUSH2 0x164C JUMP JUMPDEST SWAP3 SWAP2 POP POP JUMP JUMPDEST PUSH0 PUSH1 0x20 DUP3 DUP5 SUB SLT ISZERO PUSH2 0x168B JUMPI PUSH2 0x168A PUSH2 0x1635 JUMP JUMPDEST JUMPDEST PUSH0 PUSH2 0x1698 DUP5 DUP3 DUP6 ADD PUSH2 0x1662 JUMP JUMPDEST SWAP2 POP POP SWAP3 SWAP2 POP POP JUMP JUMPDEST PUSH0 DUP2 SWAP1 POP SWAP2 SWAP1 POP JUMP JUMPDEST PUSH2 0x16B3 DUP2 PUSH2 0x16A1 JUMP JUMPDEST DUP3 MSTORE POP POP JUMP JUMPDEST PUSH0 PUSH1 0x20 DUP3 ADD SWAP1 POP PUSH2 0x16CC PUSH0 DUP4 ADD DUP5 PUSH2 0x16AA JUMP JUMPDEST SWAP3 SWAP2 POP POP JUMP JUMPDEST PUSH0 DUP2 SWAP1 POP SWAP2 SWAP1 POP JUMP JUMPDEST PUSH2 0x16E4 DUP2 PUSH2 0x16D2 JUMP JUMPDEST DUP3 MSTORE POP POP JUMP JUMPDEST PUSH0 PUSH1 0x20 DUP3 ADD SWAP1 POP PUSH2 0x16FD PUSH0 DUP4 ADD DUP5 PUSH2 0x16DB JUMP JUMPDEST SWAP3 SWAP2 POP POP JUMP JUMPDEST PUSH2 0x170C DUP2 PUSH2 0x16A1 JUMP JUMPDEST DUP2 EQ PUSH2 0x1716 JUMPI PUSH0 DUP1 REVERT JUMPDEST POP JUMP JUMPDEST PUSH0 DUP2 CALLDATALOAD SWAP1 POP PUSH2 0x1727 DUP2 PUSH2 0x1703 JUMP JUMPDEST SWAP3 SWAP2 POP POP JUMP JUMPDEST PUSH0 DUP1 PUSH1 0x40 DUP4 DUP6 SUB SLT ISZERO PUSH2 0x1743 JUMPI PUSH2 0x1742 PUSH2 0x1635 JUMP JUMPDEST JUMPDEST PUSH0 PUSH2 0x1750 DUP6 DUP3 DUP7 ADD PUSH2 0x1662 JUMP JUMPDEST SWAP3 POP POP PUSH1 0x20 PUSH2 0x1761 DUP6 DUP3 DUP7 ADD PUSH2 0x1719 JUMP JUMPDEST SWAP2 POP POP SWAP3 POP SWAP3 SWAP1 POP JUMP JUMPDEST PUSH2 0x1774 DUP2 PUSH2 0x16D2 JUMP JUMPDEST DUP2 EQ PUSH2 0x177E JUMPI PUSH0 DUP1 REVERT JUMPDEST POP JUMP JUMPDEST PUSH0 DUP2 CALLDATALOAD SWAP1 POP PUSH2 0x178F DUP2 PUSH2 0x176B JUMP JUMPDEST SWAP3 SWAP2 POP POP JUMP JUMPDEST PUSH0 DUP1 PUSH1 0x40 DUP4 DUP6 SUB SLT ISZERO PUSH2 0x17AB JUMPI PUSH2 0x17AA PUSH2 0x1635 JUMP JUMPDEST JUMPDEST PUSH0 PUSH2 0x17B8 DUP6 DUP3 DUP7 ADD PUSH2 0x1662 JUMP JUMPDEST SWAP3 POP POP PUSH1 0x20 PUSH2 0x17C9 DUP6 DUP3 DUP7 ADD PUSH2 0x1781 JUMP JUMPDEST SWAP2 POP POP SWAP3 POP SWAP3 SWAP1 POP JUMP JUMPDEST PUSH0 DUP1 REVERT JUMPDEST PUSH0 DUP1 REVERT JUMPDEST PUSH0 DUP1 REVERT JUMPDEST PUSH0 DUP1 DUP4 PUSH1 0x1F DUP5 ADD SLT PUSH2 0x17F4 JUMPI PUSH2 0x17F3 PUSH2 0x17D3 JUMP JUMPDEST JUMPDEST DUP3 CALLDATALOAD SWAP1 POP PUSH8 0xFFFFFFFFFFFFFFFF DUP2 GT ISZERO PUSH2 0x1811 JUMPI PUSH2 0x1810 PUSH2 0x17D7 JUMP JUMPDEST JUMPDEST PUSH1 0x20 DUP4 ADD SWAP2 POP DUP4 PUSH1 0x1 DUP3 MUL DUP4 ADD GT ISZERO PUSH2 0x182D JUMPI PUSH2 0x182C PUSH2 0x17DB JUMP JUMPDEST JUMPDEST SWAP3 POP SWAP3 SWAP1 POP JUMP JUMPDEST PUSH0 DUP1 PUSH0 DUP1 PUSH1 0x60 DUP6 DUP8 SUB SLT ISZERO PUSH2 0x184C JUMPI PUSH2 0x184B PUSH2 0x1635 JUMP JUMPDEST JUMPDEST PUSH0 PUSH2 0x1859 DUP8 DUP3 DUP9 ADD PUSH2 0x1662 JUMP JUMPDEST SWAP5 POP POP PUSH1 0x20 PUSH2 0x186A DUP8 DUP3 DUP9 ADD PUSH2 0x1719 JUMP JUMPDEST SWAP4 POP POP PUSH1 0x40 DUP6 ADD CALLDATALOAD PUSH8 0xFFFFFFFFFFFFFFFF DUP2 GT ISZERO PUSH2 0x188B JUMPI PUSH2 0x188A PUSH2 0x1639 JUMP JUMPDEST JUMPDEST PUSH2 0x1897 DUP8 DUP3 DUP9 ADD PUSH2 0x17DF JUMP JUMPDEST SWAP3 POP SWAP3 POP POP SWAP3 SWAP6 SWAP2 SWAP5 POP SWAP3 POP JUMP JUMPDEST PUSH0 PUSH2 0x18AF DUP3 PUSH2 0x15A2 JUMP JUMPDEST SWAP1 POP SWAP2 SWAP1 POP JUMP JUMPDEST PUSH2 0x18BF DUP2 PUSH2 0x18A5 JUMP JUMPDEST DUP3 MSTORE POP POP JUMP JUMPDEST PUSH0 PUSH1 0x20 DUP3 ADD SWAP1 POP PUSH2 0x18D8 PUSH0 DUP4 ADD DUP5 PUSH2 0x18B6 JUMP JUMPDEST SWAP3 SWAP2 POP POP JUMP JUMPDEST PUSH0 PUSH2 0x18E8 DUP3 PUSH2 0x15EB JUMP JUMPDEST SWAP1 POP SWAP2 SWAP1 POP JUMP JUMPDEST PUSH2 0x18F8 DUP2 PUSH2 0x18DE JUMP JUMPDEST DUP3 MSTORE POP POP JUMP JUMPDEST PUSH0 PUSH1 0x20 DUP3 ADD SWAP1 POP PUSH2 0x1911 PUSH0 DUP4 ADD DUP5 PUSH2 0x18EF JUMP JUMPDEST SWAP3 SWAP2 POP POP JUMP JUMPDEST PUSH2 0x1920 DUP2 PUSH2 0x18A5 JUMP JUMPDEST DUP2 EQ PUSH2 0x192A JUMPI PUSH0 DUP1 REVERT JUMPDEST POP JUMP JUMPDEST PUSH0 DUP2 CALLDATALOAD SWAP1 POP PUSH2 0x193B DUP2 PUSH2 0x1917 JUMP JUMPDEST SWAP3 SWAP2 POP POP JUMP JUMPDEST PUSH0 DUP1 PUSH1 0x40 DUP4 DUP6 SUB SLT ISZERO PUSH2 0x1957 JUMPI PUSH2 0x1956 PUSH2 0x1635 JUMP JUMPDEST JUMPDEST PUSH0 PUSH2 0x1964 DUP6 DUP3 DUP7 ADD PUSH2 0x192D JUMP JUMPDEST SWAP3 POP POP PUSH1 0x20 PUSH2 0x1975 DUP6 DUP3 DUP7 ADD PUSH2 0x1781 JUMP JUMPDEST SWAP2 POP POP SWAP3 POP SWAP3 SWAP1 POP JUMP JUMPDEST PUSH0 PUSH1 0x20 DUP3 DUP5 SUB SLT ISZERO PUSH2 0x1994 JUMPI PUSH2 0x1993 PUSH2 0x1635 JUMP JUMPDEST JUMPDEST PUSH0 PUSH2 0x19A1 DUP5 DUP3 DUP6 ADD PUSH2 0x192D JUMP JUMPDEST SWAP2 POP POP SWAP3 SWAP2 POP POP JUMP JUMPDEST PUSH0 PUSH1 0x60 DUP3 ADD SWAP1 POP PUSH2 0x19BD PUSH0 DUP4 ADD DUP7 PUSH2 0x16DB JUMP JUMPDEST PUSH2 0x19CA PUSH1 0x20 DUP4 ADD DUP6 PUSH2 0x16DB JUMP JUMPDEST PUSH2 0x19D7 PUSH1 0x40 DUP4 ADD DUP5 PUSH2 0x16DB JUMP JUMPDEST SWAP5 SWAP4 POP POP POP POP JUMP JUMPDEST PUSH0 PUSH2 0x19E9 DUP3 PUSH2 0x15EB JUMP JUMPDEST SWAP1 POP SWAP2 SWAP1 POP JUMP JUMPDEST PUSH2 0x19F9 DUP2 PUSH2 0x19DF JUMP JUMPDEST DUP3 MSTORE POP POP JUMP JUMPDEST PUSH0 PUSH1 0x20 DUP3 ADD SWAP1 POP PUSH2 0x1A12 PUSH0 DUP4 ADD DUP5 PUSH2 0x19F0 JUMP JUMPDEST SWAP3 SWAP2 POP POP JUMP JUMPDEST PUSH0 PUSH2 0x1A22 DUP3 PUSH2 0x15EB JUMP JUMPDEST SWAP1 POP SWAP2 SWAP1 POP JUMP JUMPDEST PUSH2 0x1A32 DUP2 PUSH2 0x1A18 JUMP JUMPDEST DUP3 MSTORE POP POP JUMP JUMPDEST PUSH0 PUSH1 0x20 DUP3 ADD SWAP1 POP PUSH2 0x1A4B PUSH0 DUP4 ADD DUP5 PUSH2 0x1A29 JUMP JUMPDEST SWAP3 SWAP2 POP POP JUMP JUMPDEST PUSH32 0x4E487B7100000000000000000000000000000000000000000000000000000000 PUSH0 MSTORE PUSH1 0x11 PUSH1 0x4 MSTORE PUSH1 0x24 PUSH0 REVERT JUMPDEST PUSH0 PUSH2 0x1A88 DUP3 PUSH2 0x16D2 JUMP JUMPDEST SWAP2 POP PUSH2 0x1A93 DUP4 PUSH2 0x16D2 JUMP JUMPDEST SWAP3 POP DUP3 DUP3 SUB SWAP1 POP DUP2 DUP2 GT ISZERO PUSH2 0x1AAB JUMPI PUSH2 0x1AAA PUSH2 0x1A51 JUMP JUMPDEST JUMPDEST SWAP3 SWAP2 POP POP JUMP JUMPDEST PUSH0 DUP3 DUP3 MSTORE PUSH1 0x20 DUP3 ADD SWAP1 POP SWAP3 SWAP2 POP POP JUMP JUMPDEST PUSH32 0x57616974206265666F7265206E65787420616374696F6E000000000000000000 PUSH0 DUP3 ADD MSTORE POP JUMP JUMPDEST PUSH0 PUSH2 0x1AF5 PUSH1 0x17 DUP4 PUSH2 0x1AB1 JUMP JUMPDEST SWAP2 POP PUSH2 0x1B00 DUP3 PUSH2 0x1AC1 JUMP JUMPDEST PUSH1 0x20 DUP3 ADD SWAP1 POP SWAP2 SWAP1 POP JUMP JUMPDEST PUSH0 PUSH1 0x20 DUP3 ADD SWAP1 POP DUP2 DUP2 SUB PUSH0 DUP4 ADD MSTORE PUSH2 0x1B22 DUP2 PUSH2 0x1AE9 JUMP JUMPDEST SWAP1 POP SWAP2 SWAP1 POP JUMP JUMPDEST PUSH0 PUSH2 0x1B33 DUP3 PUSH2 0x16D2 JUMP JUMPDEST SWAP2 POP PUSH2 0x1B3E DUP4 PUSH2 0x16D2 JUMP JUMPDEST SWAP3 POP DUP3 DUP3 ADD SWAP1 POP DUP1 DUP3 GT ISZERO PUSH2 0x1B56 JUMPI PUSH2 0x1B55 PUSH2 0x1A51 JUMP JUMPDEST JUMPDEST SWAP3 SWAP2 POP POP JUMP JUMPDEST PUSH0 PUSH2 0x1B66 DUP3 PUSH2 0x16D2 JUMP JUMPDEST SWAP2 POP PUSH2 0x1B71 DUP4 PUSH2 0x16D2 JUMP JUMPDEST SWAP3 POP DUP3 DUP3 MUL PUSH2 0x1B7F DUP2 PUSH2 0x16D2 JUMP JUMPDEST SWAP2 POP DUP3 DUP3 DIV DUP5 EQ DUP4 ISZERO OR PUSH2 0x1B96 JUMPI PUSH2 0x1B95 PUSH2 0x1A51 JUMP JUMPDEST JUMPDEST POP SWAP3 SWAP2 POP POP JUMP JUMPDEST PUSH0 DUP2 MLOAD SWAP1 POP PUSH2 0x1BAB DUP2 PUSH2 0x176B JUMP JUMPDEST SWAP3 SWAP2 POP POP JUMP JUMPDEST PUSH0 PUSH1 0x20 DUP3 DUP5 SUB SLT ISZERO PUSH2 0x1BC6 JUMPI PUSH2 0x1BC5 PUSH2 0x1635 JUMP JUMPDEST JUMPDEST PUSH0 PUSH2 0x1BD3 DUP5 DUP3 DUP6 ADD PUSH2 0x1B9D JUMP JUMPDEST SWAP2 POP POP SWAP3 SWAP2 POP POP JUMP JUMPDEST PUSH32 0x496E73756666696369656E7420746F6B656E7300000000000000000000000000 PUSH0 DUP3 ADD MSTORE POP JUMP JUMPDEST PUSH0 PUSH2 0x1C10 PUSH1 0x13 DUP4 PUSH2 0x1AB1 JUMP JUMPDEST SWAP2 POP PUSH2 0x1C1B DUP3 PUSH2 0x1BDC JUMP JUMPDEST PUSH1 0x20 DUP3 ADD SWAP1 POP SWAP2 SWAP1 POP JUMP JUMPDEST PUSH0 PUSH1 0x20 DUP3 ADD SWAP1 POP DUP2 DUP2 SUB PUSH0 DUP4 ADD MSTORE PUSH2 0x1C3D DUP2 PUSH2 0x1C04 JUMP JUMPDEST SWAP1 POP SWAP2 SWAP1 POP JUMP JUMPDEST PUSH0 PUSH1 0x40 DUP3 ADD SWAP1 POP PUSH2 0x1C57 PUSH0 DUP4 ADD DUP6 PUSH2 0x18B6 JUMP JUMPDEST PUSH2 0x1C64 PUSH1 0x20 DUP4 ADD DUP5 PUSH2 0x16DB JUMP JUMPDEST SWAP4 SWAP3 POP POP POP JUMP JUMPDEST PUSH0 PUSH1 0x40 DUP3 ADD SWAP1 POP PUSH2 0x1C7E PUSH0 DUP4 ADD DUP6 PUSH2 0x16DB JUMP JUMPDEST PUSH2 0x1C8B PUSH1 0x20 DUP4 ADD DUP5 PUSH2 0x16DB JUMP JUMPDEST SWAP4 SWAP3 POP POP POP JUMP JUMPDEST PUSH0 DUP2 MLOAD SWAP1 POP PUSH2 0x1CA0 DUP2 PUSH2 0x1917 JUMP JUMPDEST SWAP3 SWAP2 POP POP JUMP JUMPDEST PUSH0 PUSH1 0x20 DUP3 DUP5 SUB SLT ISZERO PUSH2 0x1CBB JUMPI PUSH2 0x1CBA PUSH2 0x1635 JUMP JUMPDEST JUMPDEST PUSH0 PUSH2 0x1CC8 DUP5 DUP3 DUP6 ADD PUSH2 0x1C92 JUMP JUMPDEST SWAP2 POP POP SWAP3 SWAP2 POP POP JUMP JUMPDEST PUSH32 0x4E6F7420746865206F776E6572206F6620746869732066697368000000000000 PUSH0 DUP3 ADD MSTORE POP JUMP JUMPDEST PUSH0 PUSH2 0x1D05 PUSH1 0x1A DUP4 PUSH2 0x1AB1 JUMP JUMPDEST SWAP2 POP PUSH2 0x1D10 DUP3 PUSH2 0x1CD1 JUMP JUMPDEST PUSH1 0x20 DUP3 ADD SWAP1 POP SWAP2 SWAP1 POP JUMP JUMPDEST PUSH0 PUSH1 0x20 DUP3 ADD SWAP1 POP DUP2 DUP2 SUB PUSH0 DUP4 ADD MSTORE PUSH2 0x1D32 DUP2 PUSH2 0x1CF9 JUMP JUMPDEST SWAP1 POP SWAP2 SWAP1 POP JUMP JUMPDEST PUSH2 0x1D42 DUP2 PUSH2 0x163D JUMP JUMPDEST DUP3 MSTORE POP POP JUMP JUMPDEST PUSH0 DUP2 MLOAD SWAP1 POP SWAP2 SWAP1 POP JUMP JUMPDEST PUSH0 DUP3 DUP3 MSTORE PUSH1 0x20 DUP3 ADD SWAP1 POP SWAP3 SWAP2 POP POP JUMP JUMPDEST PUSH0 JUMPDEST DUP4 DUP2 LT ISZERO PUSH2 0x1D7F JUMPI DUP1 DUP3 ADD MLOAD DUP2 DUP5 ADD MSTORE PUSH1 0x20 DUP2 ADD SWAP1 POP PUSH2 0x1D64 JUMP JUMPDEST PUSH0 DUP5 DUP5 ADD MSTORE POP POP POP POP JUMP JUMPDEST PUSH0 PUSH1 0x1F NOT PUSH1 0x1F DUP4 ADD AND SWAP1 POP SWAP2 SWAP1 POP JUMP JUMPDEST PUSH0 PUSH2 0x1DA4 DUP3 PUSH2 0x1D48 JUMP JUMPDEST PUSH2 0x1DAE DUP2 DUP6 PUSH2 0x1D52 JUMP JUMPDEST SWAP4 POP PUSH2 0x1DBE DUP2 DUP6 PUSH1 0x20 DUP7 ADD PUSH2 0x1D62 JUMP JUMPDEST PUSH2 0x1DC7 DUP2 PUSH2 0x1D8A JUMP JUMPDEST DUP5 ADD SWAP2 POP POP SWAP3 SWAP2 POP POP JUMP JUMPDEST PUSH0 PUSH1 0x60 DUP3 ADD SWAP1 POP PUSH2 0x1DE5 PUSH0 DUP4 ADD DUP7 PUSH2 0x1D39 JUMP JUMPDEST PUSH2 0x1DF2 PUSH1 0x20 DUP4 ADD DUP6 PUSH2 0x16AA JUMP JUMPDEST DUP2 DUP2 SUB PUSH1 0x40 DUP4 ADD MSTORE PUSH2 0x1E04 DUP2 DUP5 PUSH2 0x1D9A JUMP JUMPDEST SWAP1 POP SWAP5 SWAP4 POP POP POP POP JUMP JUMPDEST PUSH0 DUP2 MLOAD SWAP1 POP PUSH2 0x1E1C DUP2 PUSH2 0x1703 JUMP JUMPDEST SWAP3 SWAP2 POP POP JUMP JUMPDEST PUSH0 PUSH1 0x20 DUP3 DUP5 SUB SLT ISZERO PUSH2 0x1E37 JUMPI PUSH2 0x1E36 PUSH2 0x1635 JUMP JUMPDEST JUMPDEST PUSH0 PUSH2 0x1E44 DUP5 DUP3 DUP6 ADD PUSH2 0x1E0E JUMP JUMPDEST SWAP2 POP POP SWAP3 SWAP2 POP POP JUMP JUMPDEST PUSH0 PUSH1 0x40 DUP3 ADD SWAP1 POP PUSH2 0x1E60 PUSH0 DUP4 ADD DUP6 PUSH2 0x1D39 JUMP JUMPDEST PUSH2 0x1E6D PUSH1 0x20 DUP4 ADD DUP5 PUSH2 0x16DB JUMP JUMPDEST SWAP4 SWAP3 POP POP POP JUMP JUMPDEST PUSH32 0x496E73756666696369656E7420696E746572636861696E20676173207061796D PUSH0 DUP3 ADD MSTORE PUSH32 0x656E740000000000000000000000000000000000000000000000000000000000 PUSH1 0x20 DUP3 ADD MSTORE POP JUMP JUMPDEST PUSH0 PUSH2 0x1ECE PUSH1 0x23 DUP4 PUSH2 0x1AB1 JUMP JUMPDEST SWAP2 POP PUSH2 0x1ED9 DUP3 PUSH2 0x1E74 JUMP JUMPDEST PUSH1 0x40 DUP3 ADD SWAP1 POP SWAP2 SWAP1 POP JUMP JUMPDEST PUSH0 PUSH1 0x20 DUP3 ADD SWAP1 POP DUP2 DUP2 SUB PUSH0 DUP4 ADD MSTORE PUSH2 0x1EFB DUP2 PUSH2 0x1EC2 JUMP JUMPDEST SWAP1 POP SWAP2 SWAP1 POP JUMP JUMPDEST PUSH0 PUSH1 0x80 DUP3 ADD SWAP1 POP PUSH2 0x1F15 PUSH0 DUP4 ADD DUP8 PUSH2 0x16AA JUMP JUMPDEST PUSH2 0x1F22 PUSH1 0x20 DUP4 ADD DUP7 PUSH2 0x1D39 JUMP JUMPDEST PUSH2 0x1F2F PUSH1 0x40 DUP4 ADD DUP6 PUSH2 0x16DB JUMP JUMPDEST PUSH2 0x1F3C PUSH1 0x60 DUP4 ADD DUP5 PUSH2 0x18B6 JUMP JUMPDEST SWAP6 SWAP5 POP POP POP POP POP JUMP JUMPDEST PUSH0 PUSH1 0x60 DUP3 ADD SWAP1 POP PUSH2 0x1F58 PUSH0 DUP4 ADD DUP7 PUSH2 0x1D39 JUMP JUMPDEST PUSH2 0x1F65 PUSH1 0x20 DUP4 ADD DUP6 PUSH2 0x18B6 JUMP JUMPDEST PUSH2 0x1F72 PUSH1 0x40 DUP4 ADD DUP5 PUSH2 0x16DB JUMP JUMPDEST SWAP5 SWAP4 POP POP POP POP JUMP JUMPDEST PUSH32 0x4F6E6C79206D61696C626F782063616E2063616C6C0000000000000000000000 PUSH0 DUP3 ADD MSTORE POP JUMP JUMPDEST PUSH0 PUSH2 0x1FAE PUSH1 0x15 DUP4 PUSH2 0x1AB1 JUMP JUMPDEST SWAP2 POP PUSH2 0x1FB9 DUP3 PUSH2 0x1F7A JUMP JUMPDEST PUSH1 0x20 DUP3 ADD SWAP1 POP SWAP2 SWAP1 POP JUMP JUMPDEST PUSH0 PUSH1 0x20 DUP3 ADD SWAP1 POP DUP2 DUP2 SUB PUSH0 DUP4 ADD MSTORE PUSH2 0x1FDB DUP2 PUSH2 0x1FA2 JUMP JUMPDEST SWAP1 POP SWAP2 SWAP1 POP JUMP JUMPDEST PUSH32 0x4E6F74206120747275737465642072656D6F7465000000000000000000000000 PUSH0 DUP3 ADD MSTORE POP JUMP JUMPDEST PUSH0 PUSH2 0x2016 PUSH1 0x14 DUP4 PUSH2 0x1AB1 JUMP JUMPDEST SWAP2 POP PUSH2 0x2021 DUP3 PUSH2 0x1FE2 JUMP JUMPDEST PUSH1 0x20 DUP3 ADD SWAP1 POP SWAP2 SWAP1 POP JUMP JUMPDEST PUSH0 PUSH1 0x20 DUP3 ADD SWAP1 POP DUP2 DUP2 SUB PUSH0 DUP4 ADD MSTORE PUSH2 0x2043 DUP2 PUSH2 0x200A JUMP JUMPDEST SWAP1 POP SWAP2 SWAP1 POP JUMP JUMPDEST PUSH0 PUSH2 0x2054 DUP3 PUSH2 0x15A2 JUMP JUMPDEST SWAP1 POP SWAP2 SWAP1 POP JUMP JUMPDEST PUSH2 0x2064 DUP2 PUSH2 0x204A JUMP JUMPDEST DUP2 EQ PUSH2 0x206E JUMPI PUSH0 DUP1 REVERT JUMPDEST POP JUMP JUMPDEST PUSH0 DUP2 CALLDATALOAD SWAP1 POP PUSH2 0x207F DUP2 PUSH2 0x205B JUMP JUMPDEST SWAP3 SWAP2 POP POP JUMP JUMPDEST PUSH0 DUP1 PUSH1 0x40 DUP4 DUP6 SUB SLT ISZERO PUSH2 0x209B JUMPI PUSH2 0x209A PUSH2 0x1635 JUMP JUMPDEST JUMPDEST PUSH0 PUSH2 0x20A8 DUP6 DUP3 DUP7 ADD PUSH2 0x2071 JUMP JUMPDEST SWAP3 POP POP PUSH1 0x20 PUSH2 0x20B9 DUP6 DUP3 DUP7 ADD PUSH2 0x1781 JUMP JUMPDEST SWAP2 POP POP SWAP3 POP SWAP3 SWAP1 POP JUMP JUMPDEST PUSH0 DUP2 MLOAD SWAP1 POP SWAP2 SWAP1 POP JUMP JUMPDEST PUSH0 PUSH2 0x20D7 DUP3 PUSH2 0x20C3 JUMP JUMPDEST PUSH2 0x20E1 DUP2 DUP6 PUSH2 0x1AB1 JUMP JUMPDEST SWAP4 POP PUSH2 0x20F1 DUP2 DUP6 PUSH1 0x20 DUP7 ADD PUSH2 0x1D62 JUMP JUMPDEST PUSH2 0x20FA DUP2 PUSH2 0x1D8A JUMP JUMPDEST DUP5 ADD SWAP2 POP POP SWAP3 SWAP2 POP POP JUMP JUMPDEST PUSH0 PUSH1 0x80 DUP3 ADD SWAP1 POP PUSH2 0x2118 PUSH0 DUP4 ADD DUP8 PUSH2 0x18B6 JUMP JUMPDEST DUP2 DUP2 SUB PUSH1 0x20 DUP4 ADD MSTORE PUSH2 0x212A DUP2 DUP7 PUSH2 0x20CD JUMP JUMPDEST SWAP1 POP PUSH2 0x2139 PUSH1 0x40 DUP4 ADD DUP6 PUSH2 0x16DB JUMP JUMPDEST PUSH2 0x2146 PUSH1 0x60 DUP4 ADD DUP5 PUSH2 0x16DB JUMP JUMPDEST SWAP6 SWAP5 POP POP POP POP POP JUMP JUMPDEST PUSH0 DUP2 ISZERO ISZERO SWAP1 POP SWAP2 SWAP1 POP JUMP JUMPDEST PUSH2 0x2163 DUP2 PUSH2 0x214F JUMP JUMPDEST DUP2 EQ PUSH2 0x216D JUMPI PUSH0 DUP1 REVERT JUMPDEST POP JUMP JUMPDEST PUSH0 DUP2 MLOAD SWAP1 POP PUSH2 0x217E DUP2 PUSH2 0x215A JUMP JUMPDEST SWAP3 SWAP2 POP POP JUMP JUMPDEST PUSH0 PUSH1 0x20 DUP3 DUP5 SUB SLT ISZERO PUSH2 0x2199 JUMPI PUSH2 0x2198 PUSH2 0x1635 JUMP JUMPDEST JUMPDEST PUSH0 PUSH2 0x21A6 DUP5 DUP3 DUP6 ADD PUSH2 0x2170 JUMP JUMPDEST SWAP2 POP POP SWAP3 SWAP2 POP POP JUMP JUMPDEST PUSH32 0x5472616E73666572206661696C65640000000000000000000000000000000000 PUSH0 DUP3 ADD MSTORE POP JUMP JUMPDEST PUSH0 PUSH2 0x21E3 PUSH1 0xF DUP4 PUSH2 0x1AB1 JUMP JUMPDEST SWAP2 POP PUSH2 0x21EE DUP3 PUSH2 0x21AF JUMP JUMPDEST PUSH1 0x20 DUP3 ADD SWAP1 POP SWAP2 SWAP1 POP JUMP JUMPDEST PUSH0 PUSH1 0x20 DUP3 ADD SWAP1 POP DUP2 DUP2 SUB PUSH0 DUP4 ADD MSTORE PUSH2 0x2210 DUP2 PUSH2 0x21D7 JUMP JUMPDEST SWAP1 POP SWAP2 SWAP1 POP JUMP JUMPDEST PUSH32 0x5265656E7472616E637947756172643A207265656E7472616E742063616C6C00 PUSH0 DUP3 ADD MSTORE POP JUMP JUMPDEST PUSH0 PUSH2 0x224B PUSH1 0x1F DUP4 PUSH2 0x1AB1 JUMP JUMPDEST SWAP2 POP PUSH2 0x2256 DUP3 PUSH2 0x2217 JUMP JUMPDEST PUSH1 0x20 DUP3 ADD SWAP1 POP SWAP2 SWAP1 POP JUMP JUMPDEST PUSH0 PUSH1 0x20 DUP3 ADD SWAP1 POP DUP2 DUP2 SUB PUSH0 DUP4 ADD MSTORE PUSH2 0x2278 DUP2 PUSH2 0x223F JUMP JUMPDEST SWAP1 POP SWAP2 SWAP1 POP JUMP JUMPDEST PUSH0 DUP2 SWAP1 POP SWAP2 SWAP1 POP JUMP JUMPDEST PUSH2 0x2299 PUSH2 0x2294 DUP3 PUSH2 0x16D2 JUMP JUMPDEST PUSH2 0x227F JUMP JUMPDEST DUP3 MSTORE POP POP JUMP JUMPDEST PUSH0 DUP2 PUSH1 0x60 SHL SWAP1 POP SWAP2 SWAP1 POP JUMP JUMPDEST PUSH0 PUSH2 0x22B5 DUP3 PUSH2 0x229F JUMP JUMPDEST SWAP1 POP SWAP2 SWAP1 POP JUMP JUMPDEST PUSH0 PUSH2 0x22C6 DUP3 PUSH2 0x22AB JUMP JUMPDEST SWAP1 POP SWAP2 SWAP1 POP JUMP JUMPDEST PUSH2 0x22DE PUSH2 0x22D9 DUP3 PUSH2 0x18A5 JUMP JUMPDEST PUSH2 0x22BC JUMP JUMPDEST DUP3 MSTORE POP POP JUMP JUMPDEST PUSH0 PUSH2 0x22EF DUP3 DUP7 PUSH2 0x2288 JUMP JUMPDEST PUSH1 0x20 DUP3 ADD SWAP2 POP PUSH2 0x22FF DUP3 DUP6 PUSH2 0x22CD JUMP JUMPDEST PUSH1 0x14 DUP3 ADD SWAP2 POP PUSH2 0x230F DUP3 DUP5 PUSH2 0x2288 JUMP JUMPDEST PUSH1 0x20 DUP3 ADD SWAP2 POP DUP2 SWAP1 POP SWAP5 SWAP4 POP POP POP POP JUMP JUMPDEST PUSH32 0x4E487B7100000000000000000000000000000000000000000000000000000000 PUSH0 MSTORE PUSH1 0x12 PUSH1 0x4 MSTORE PUSH1 0x24 PUSH0 REVERT JUMPDEST PUSH0 PUSH2 0x2357 DUP3 PUSH2 0x16D2 JUMP JUMPDEST SWAP2 POP PUSH2 0x2362 DUP4 PUSH2 0x16D2 JUMP JUMPDEST SWAP3 POP DUP3 PUSH2 0x2372 JUMPI PUSH2 0x2371 PUSH2 0x2320 JUMP JUMPDEST JUMPDEST DUP3 DUP3 MOD SWAP1 POP SWAP3 SWAP2 POP POP JUMP JUMPDEST PUSH0 PUSH2 0x2388 DUP3 DUP6 PUSH2 0x2288 JUMP JUMPDEST PUSH1 0x20 DUP3 ADD SWAP2 POP PUSH2 0x2398 DUP3 DUP5 PUSH2 0x22CD JUMP JUMPDEST PUSH1 0x14 DUP3 ADD SWAP2 POP DUP2 SWAP1 POP SWAP4 SWAP3 POP POP POP JUMP JUMPDEST PUSH32 0x4E487B7100000000000000000000000000000000000000000000000000000000 PUSH0 MSTORE PUSH1 0x32 PUSH1 0x4 MSTORE PUSH1 0x24 PUSH0 REVERT INVALID LOG2 PUSH5 0x6970667358 0x22 SLT KECCAK256 0xD0 SWAP5 DUP4 ADD 0xB7 0xE6 0x4D 0xAD 0xEC SSTORE JUMPDEST 0xC3 ADDRESS 0xCA 0xBE 0x2D 0x2C DELEGATECALL PUSH4 0x115A15C7 PUSH28 0xFE230DA1F3DCA2B464736F6C63430008180033000000000000000000 "
		},
		"gasEstimates": {
			"creation": {
				"codeDepositCost": "1845400",
				"executionCost": "infinite",
				"totalCost": "infinite"
			},
			"external": {
				"BASE_FISH_COST()": "414",
				"BASE_REWARD()": "415",
				"crossChainEat(uint32,uint256)": "infinite",
				"eatFish()": "infinite",
				"fishNFT()": "infinite",
				"handle(uint32,bytes32,bytes)": "infinite",
				"hyperlaneMailbox()": "infinite",
				"igp()": "infinite",
				"owner()": "2560",
				"playerStates(address)": "infinite",
				"renounceOwnership()": "infinite",
				"rewardToken()": "infinite",
				"setTrustedRemote(uint32,bytes32)": "infinite",
				"transferOwnership(address)": "infinite",
				"trustedRemotes(uint32)": "2828",
				"withdrawERC20(address,uint256)": "infinite"
			},
			"internal": {
				"_calculateReward(uint256)": "infinite",
				"_generateFishAttributes()": "infinite",
				"_generateTargetFishSize(uint256)": "infinite"
			}
		},
		"methodIdentifiers": {
			"BASE_FISH_COST()": "602e5a9e",
			"BASE_REWARD()": "22009af6",
			"crossChainEat(uint32,uint256)": "2c40ae85",
			"eatFish()": "006228dc",
			"fishNFT()": "959da2cf",
			"handle(uint32,bytes32,bytes)": "56d5d475",
			"hyperlaneMailbox()": "1a6e4db4",
			"igp()": "f28b2daa",
			"owner()": "8da5cb5b",
			"playerStates(address)": "d15e55b7",
			"renounceOwnership()": "715018a6",
			"rewardToken()": "f7c618c1",
			"setTrustedRemote(uint32,bytes32)": "2bda3e0b",
			"transferOwnership(address)": "f2fde38b",
			"trustedRemotes(uint32)": "1d187c50",
			"withdrawERC20(address,uint256)": "a1db9782"
		}
	},
	"abi": [
		{
			"inputs": [
				{
					"internalType": "address",
					"name": "_rewardToken",
					"type": "address"
				},
				{
					"internalType": "address",
					"name": "_fishNFT",
					"type": "address"
				},
				{
					"internalType": "address",
					"name": "_hyperlaneMailbox",
					"type": "address"
				},
				{
					"internalType": "address",
					"name": "_igp",
					"type": "address"
				}
			],
			"stateMutability": "nonpayable",
			"type": "constructor"
		},
		{
			"inputs": [
				{
					"internalType": "address",
					"name": "owner",
					"type": "address"
				}
			],
			"name": "OwnableInvalidOwner",
			"type": "error"
		},
		{
			"inputs": [
				{
					"internalType": "address",
					"name": "account",
					"type": "address"
				}
			],
			"name": "OwnableUnauthorizedAccount",
			"type": "error"
		},
		{
			"anonymous": false,
			"inputs": [
				{
					"indexed": false,
					"internalType": "uint32",
					"name": "originChain",
					"type": "uint32"
				},
				{
					"indexed": false,
					"internalType": "address",
					"name": "player",
					"type": "address"
				},
				{
					"indexed": false,
					"internalType": "uint256",
					"name": "fishId",
					"type": "uint256"
				}
			],
			"name": "CrossChainInteraction",
			"type": "event"
		},
		{
			"anonymous": false,
			"inputs": [
				{
					"indexed": true,
					"internalType": "address",
					"name": "player",
					"type": "address"
				},
				{
					"indexed": false,
					"internalType": "uint256",
					"name": "fishSize",
					"type": "uint256"
				},
				{
					"indexed": false,
					"internalType": "uint256",
					"name": "reward",
					"type": "uint256"
				}
			],
			"name": "FishEaten",
			"type": "event"
		},
		{
			"anonymous": false,
			"inputs": [
				{
					"indexed": true,
					"internalType": "address",
					"name": "previousOwner",
					"type": "address"
				},
				{
					"indexed": true,
					"internalType": "address",
					"name": "newOwner",
					"type": "address"
				}
			],
			"name": "OwnershipTransferred",
			"type": "event"
		},
		{
			"anonymous": false,
			"inputs": [
				{
					"indexed": true,
					"internalType": "address",
					"name": "player",
					"type": "address"
				},
				{
					"indexed": false,
					"internalType": "uint256",
					"name": "newSize",
					"type": "uint256"
				}
			],
			"name": "PlayerGrown",
			"type": "event"
		},
		{
			"inputs": [],
			"name": "BASE_FISH_COST",
			"outputs": [
				{
					"internalType": "uint256",
					"name": "",
					"type": "uint256"
				}
			],
			"stateMutability": "view",
			"type": "function"
		},
		{
			"inputs": [],
			"name": "BASE_REWARD",
			"outputs": [
				{
					"internalType": "uint256",
					"name": "",
					"type": "uint256"
				}
			],
			"stateMutability": "view",
			"type": "function"
		},
		{
			"inputs": [
				{
					"internalType": "uint32",
					"name": "destinationChain",
					"type": "uint32"
				},
				{
					"internalType": "uint256",
					"name": "fishId",
					"type": "uint256"
				}
			],
			"name": "crossChainEat",
			"outputs": [],
			"stateMutability": "payable",
			"type": "function"
		},
		{
			"inputs": [],
			"name": "eatFish",
			"outputs": [],
			"stateMutability": "nonpayable",
			"type": "function"
		},
		{
			"inputs": [],
			"name": "fishNFT",
			"outputs": [
				{
					"internalType": "contract IFishGameNFT",
					"name": "",
					"type": "address"
				}
			],
			"stateMutability": "view",
			"type": "function"
		},
		{
			"inputs": [
				{
					"internalType": "uint32",
					"name": "_origin",
					"type": "uint32"
				},
				{
					"internalType": "bytes32",
					"name": "_sender",
					"type": "bytes32"
				},
				{
					"internalType": "bytes",
					"name": "_body",
					"type": "bytes"
				}
			],
			"name": "handle",
			"outputs": [],
			"stateMutability": "payable",
			"type": "function"
		},
		{
			"inputs": [],
			"name": "hyperlaneMailbox",
			"outputs": [
				{
					"internalType": "contract IMailbox",
					"name": "",
					"type": "address"
				}
			],
			"stateMutability": "view",
			"type": "function"
		},
		{
			"inputs": [],
			"name": "igp",
			"outputs": [
				{
					"internalType": "contract IInterchainGasPaymaster",
					"name": "",
					"type": "address"
				}
			],
			"stateMutability": "view",
			"type": "function"
		},
		{
			"inputs": [],
			"name": "owner",
			"outputs": [
				{
					"internalType": "address",
					"name": "",
					"type": "address"
				}
			],
			"stateMutability": "view",
			"type": "function"
		},
		{
			"inputs": [
				{
					"internalType": "address",
					"name": "",
					"type": "address"
				}
			],
			"name": "playerStates",
			"outputs": [
				{
					"internalType": "uint256",
					"name": "playerScore",
					"type": "uint256"
				},
				{
					"internalType": "uint256",
					"name": "fishSize",
					"type": "uint256"
				},
				{
					"internalType": "uint256",
					"name": "lastInteractionTime",
					"type": "uint256"
				}
			],
			"stateMutability": "view",
			"type": "function"
		},
		{
			"inputs": [],
			"name": "renounceOwnership",
			"outputs": [],
			"stateMutability": "nonpayable",
			"type": "function"
		},
		{
			"inputs": [],
			"name": "rewardToken",
			"outputs": [
				{
					"internalType": "contract IERC20Reward",
					"name": "",
					"type": "address"
				}
			],
			"stateMutability": "view",
			"type": "function"
		},
		{
			"inputs": [
				{
					"internalType": "uint32",
					"name": "_domain",
					"type": "uint32"
				},
				{
					"internalType": "bytes32",
					"name": "_trustedRemote",
					"type": "bytes32"
				}
			],
			"name": "setTrustedRemote",
			"outputs": [],
			"stateMutability": "nonpayable",
			"type": "function"
		},
		{
			"inputs": [
				{
					"internalType": "address",
					"name": "newOwner",
					"type": "address"
				}
			],
			"name": "transferOwnership",
			"outputs": [],
			"stateMutability": "nonpayable",
			"type": "function"
		},
		{
			"inputs": [
				{
					"internalType": "uint32",
					"name": "",
					"type": "uint32"
				}
			],
			"name": "trustedRemotes",
			"outputs": [
				{
					"internalType": "bytes32",
					"name": "",
					"type": "bytes32"
				}
			],
			"stateMutability": "view",
			"type": "function"
		},
		{
			"inputs": [
				{
					"internalType": "address",
					"name": "tokenAddress",
					"type": "address"
				},
				{
					"internalType": "uint256",
					"name": "amount",
					"type": "uint256"
				}
			],
			"name": "withdrawERC20",
			"outputs": [],
			"stateMutability": "nonpayable",
			"type": "function"
		}
	]
}